:100000000C9440080C94FF1F0C9461080C94610838
:100010000C9461080C9461080C9461080C946108BC
:100020000C9461080C9461080C9461080C946108AC
:100030000C9461080C9461080C9461080C9461089C
:100040000C9461080C9461080C9461080C9461088C
:100050000C9461080C9461080C94130B0C946108C7
:100060000C9461080C9461080C9461080C9461086C
:100070000C9461080C9461080C9461080C9461085C
:100080000C9461080C9461080C9461080C9461084C
:100090000C9461080C9461080C9461080C9461083C
:1000A0000C9461080C9461080C9461080C9461082C
:1000B0000C9461080C9461080C9461080C9461081C
:1000C0000C9461080C9461080C9461080C9461080C
:1000D0000C9461080C9461080C9461080C946108FC
:1000E0000C9461080C9461080C9466210C946108CE
:1000F0000C9461080C9461080C9461080C946108DC
:100100000C9461080C9461080C9461080C946108CB
:100110000C9461080C9461080C9461080C946108BB
:100120000C9461080C9461080C9461080C946108AB
:100130000C9461080C9461080C9461080C9461089B
:100140000C9461080C9461080C9461080C9461088B
:100150000C9461080C9461080C9461080C9461087B
:100160000C9461080C9461080C9461080C9461086B
:100170000C9461080C94610801000000000000006C
:10018000000000000000000000000000000000006F
:1001900000000000000000000000000001038000DB
:1001A000800080008000800080008000800080004F
:1001B000800000008000000000000000000000003F
:1001C00004039000900090009000000000000000E8
:1001D000000000000000000000000000000000001F
:1001E0000000000009031100110011002200FF802F
:1001F000220022002200FF8044004400440000004E
:100200000000000000000000070210003C00520047
:1002100092009000900070001C00120012009200EA
:100220005400380010000000000000000C03708033
:10023000890089008A008A00720004E00510091014
:100240000910111010E00000000000000000000084
:100250000A03300048008400840028003000484031
:100260008480850084004900308000000000000088
:10027000000000000103800080008000800000007A
:10028000000000000000000000000000000000006E
:1002900000000000000000000303200040004000B8
:1002A000400080008000800080008000800080008E
:1002B00040004000400020000000000003038000D8
:1002C00040004000400020002000200020002000CE
:1002D000200020004000400040008000000000009E
:1002E00005032000F800200050005000000000002E
:1002F00000000000000000000000000000000000FE
:10030000000000000706100010001000FE001000A2
:1003100010001000000000000000000000000000BD
:100320000000000000000000010E8000800080003E
:1003300000000000000000000000000000000000BD
:10034000000000000000000000000000040BF000AE
:10035000000000000000000000000000000000009D
:10036000000000000000000000000000000000008D
:10037000010E8000000000000000000000000000EE
:10038000000000000000000000000000000000006D
:1003900000000000040310001000200020002000D6
:1003A000200040004000400040008000800000002D
:1003B0000000000000000000070338004400820035
:1003C000820082008200820082008200820044005B
:1003D00038000000000000000000000004031000CE
:1003E00030005000900010001000100010001000AD
:1003F00010001000100000000000000000000000CD
:1004000007033C00440082000200020004000400D4
:100410000800100020004000FE0000000000000066
:1004200000000000070338004400840004000C00B2
:1004300038000400020002008200C40038000000FE
:1004400000000000000000000803020006000A008F
:1004500012001200220042008200FF00020002008F
:1004600002000000000000000000000007037E0002
:10047000400040008000F8008400020002000200FA
:10048000820044003800000000000000000000006E
:1004900007033800440082008000B800C4008200D6
:1004A000820082008200440038000000000000004A
:1004B000000000000703FE0004000400080008001C
:1004C000100010001000100020002000200000008C
:1004D0000000000000000000070338004400820014
:1004E0008200440038004400820082008200440000
:1004F0003800000000000000000000000703380082
:100500004400820082008200820046003A0002001D
:1005100082004400380000000000000000000000DD
:100520000106800000000000000000000000000044
:10053000000080000000000000000000000000003B
:100540000000000001068000000000000000000024
:10055000000000000000800080008000000000001B
:100560000000000000000000070602001C00600000
:10057000800060001C00020000000000000000007D
:100580000000000000000000000000000707FE005F
:10059000000000000000FE0000000000000000005D
:1005A000000000000000000000000000000000004B
:1005B0000706800070000C0002000C007000800034
:1005C000000000000000000000000000000000002B
:1005D000000000000703380044008200820002008F
:1005E00004000800100010001000000010000000BF
:1005F00000000000000000000F0307E018182004AE
:1006000043A444628822902290429042904488C839
:1006100047702002180C07F00000000009030800D2
:100620001400140014002200220022007F00410068
:100630004100808080800000000000000000000079
:100640000903FF008100808080808100FE0081001E
:100650008080808080808100FE000000000000001B
:10066000000000000A031F0020804040800080003E
:100670008000800080008000404020801F0000003B
:1006800000000000000000000A03FE0081008080DE
:100690008040804080408040804080408080810059
:1006A000FE00000000000000000000000903FF80C1
:1006B0008000800080008000FF00800080008000BB
:1006C00080008000FF8000000000000000000000AB
:1006D0000803FF0080008000800080008000FE0092
:1006E000800080008000800080000000000000008A
:1006F000000000000A031E002100408080008000EE
:10070000800087C080408040408021001E000000A3
:1007100000000000000000000903808080808080CD
:1007200080808080FF80808080808080808080804A
:100730008080000000000000000000000103800035
:1007400080008000800080008000800080008000A9
:100750008000800080000000000000000000000019
:100760000603040004000400040004000400040064
:100770000400840084008400780000000000000071
:10078000000000000903808081008200840088004E
:100790009800A800C40082008200810080800000D0
:1007A00000000000000000000703800080008000BF
:1007B0008000800080008000800080008000800039
:1007C000FE00000000000000000000000B0380207D
:1007D000C060C060A0A0A0A0912091208A208A20A3
:1007E0008A20842084200000000000000000000017
:1007F00009038080C080A080A0809080888088804D
:1008000084808280828081808080000000000000DF
:10081000000000000A031E0021004080804080404C
:100820008040804080408040408021001E000000C9
:1008300000000000000000000903FE00810080802D
:10084000808080808100FE00800080008000800029
:100850008000000000000000000000000A031E00ED
:100860002100408080408040804080408040804027
:1008700046C021801EC000000000000000000000F3
:100880000903FE0081008080808080808100FE005E
:10089000840082008200810080800000000000004F
:1008A0000000000009033E004100808080004000FD
:1008B0003800070000800080808041003E0000007A
:1008C00000000000000000000903FF80080008008D
:1008D00008000800080008000800080008000800D8
:1008E00008000000000000000000000009038080F4
:1008F00080808080808080808080808080808080F8
:10090000808041003E000000000000000000000068
:1009100009038080808041004100410022002200C4
:10092000220014001400080008000000000000006D
:10093000000000000F03810282824284428444440A
:100940004444244828282828282810101010000083
:1009500000000000000000000B0340402080110058
:1009600011000A0004000A0011001100208040401C
:1009700080200000000000000000000009038080CB
:100980004100410022001400140008000800080083
:10099000080008000800000000000000000000003F
:1009A00009037F8001000200020004000800080023
:1009B0001000200020004000FF8000000000000028
:1009C000000000000303E000800080008000800041
:1009D0008000800080008000800080008000800017
:1009E0008000E00000000000040380008000400060
:1009F00040004000400020002000200020001000A7
:100A00001000000000000000000000000303E000F0
:100A100020002000200020002000200020002000D6
:100A200020002000200020002000E0000000000046
:100A30000703100028002800440044008200000042
:100A400000000000000000000000000000000000A6
:100A5000000000000911FF800000000000000000FD
:100A60000000000000000000000000000000000086
:100A700000000000000000000203800040000000B1
:100A80000000000000000000000000000000000066
:100A900000000000000000000000000007063C000D
:100AA000420082000E0072008200820086007A00FE
:100AB0000000000000000000000000000000000036
:100AC0000703800080008000B800C400820082001C
:100AD000820082008200C400B80000000000000014
:100AE00000000000060638004400800080008000FE
:100AF000800080004400380000000000000000007A
:100B000000000000000000000703020002000200D5
:100B10003A00460082008200820082008200460085
:100B20003A00000000000000000000000706380046
:100B3000440082008200FE008000820044003800F1
:100B400000000000000000000000000000000000A5
:100B50000403300040004000F0004000400040002E
:100B60004000400040004000400000000000000045
:100B70000000000007063A00460082008200820062
:100B80008200820046003A000200840078000000E3
:100B900000000000000000000603800080008000CC
:100BA000B800C400840084008400840084008400B1
:100BB000840000000000000000000000010380002D
:100BC0000000000080008000800080008000800025
:100BD0008000800080000000000000000000000095
:100BE000030320000000000020002000200020005F
:100BF0002000200020002000200020002000C00055
:100C00000000000007038000800080008200840054
:100C100088009000B000C8008800840082000000B6
:100C20000000000000000000010380008000800040
:100C300080008000800080008000800080008000B4
:100C40008000000000000000000000000B06B9C09A
:100C5000C620842084208420842084208420842032
:100C60000000000000000000000000000000000084
:100C70000606B800C4008400840084008400840058
:100C8000840084000000000000000000000000005C
:100C90000000000007063800440082008200820045
:100CA00082008200440038000000000000000000C4
:100CB00000000000000000000706B800C400820029
:100CC0008200820082008200C400B80080008000A0
:100CD00080000000000000000000000007063A004D
:100CE00046008200820082008200820046003A00B4
:100CF00002000200020000000000000000000000EE
:100D00000406B000C00080008000800080008000E9
:100D100080008000000000000000000000000000D3
:100D20000000000006067800840080008000780043
:100D300004000400840078000000000000000000AF
:100D40000000000000000000040440004000F0002B
:100D50004000400040004000400040004000700063
:100D600000000000000000000000000006068400F3
:100D70008400840084008400840084008C0074005B
:100D80000000000000000000000000000000000063
:100D90000706820082004400440028002800280042
:100DA0001000100000000000000000000000000023
:100DB000000000000B06842084204A404A40514035
:100DC00051405140208020800000000000000000C1
:100DD0000000000000000000070682004400280018
:100DE00028001000280028004400820000000000B5
:100DF0000000000000000000000000000706820064
:100E000082008400440044002800280028001000CC
:100E10001000100060000000000000000000000052
:100E20000706FE0004000800080010002000200053
:100E30004000FE0000000000000000000000000074
:100E40000000000005031800200020002000200002
:100E500020002000C00020002000200020002000F2
:100E600020001800000000000103800080008000C6
:100E70008000800080008000800080008000800072
:100E80008000800080008000000000000503C0009A
:100E9000200020002000200020002000180020005A
:100EA00020002000200020002000C00000000000E2
:100EB0000808718E00000000000000000000000023
:100EC0000000000000000000000000000000000022
:100ED000000000000805FF00810081008100810002
:100EE0008100810081008100FF00000000000000FF
:100EF0000000000000000000506F776572656420FC
:100F0000627900464142004F530052656164792E78
:100F10002E2E00507265736574730043757272658E
:100F20006E7420536574706F696E740043656C6CE9
:100F300020566F6C74616765205345540042616CA4
:100F40002E2041637469762E20566F6C746167653C
:100F5000004D6178204361706163697479004D616F
:100F6000782054696D650053657475700053686F1F
:100F700077204C6173742056616C756573005374EF
:100F80006F7261676500436861726765204C6950E4
:100F90006F00436861726765204C69496F00436860
:100FA00061726765204C69466500446973636861D6
:100FB00072676500286261636B2900507265736512
:100FC000742053657475700050776D004D696E2004
:100FD000537570706C790043616C696272617469F9
:100FE0006F6E20480043616C6962726174696F6E54
:100FF000204C004C69746869756D20506F6C796D78
:101000006572004C69746869756D20496F6E004C9B
:10101000694665506F3400286261636B20746F20ED
:101020004D61696E29004C69506F20566F6C746178
:101030006765004C69496F6E20566F6C7461676517
:10104000004C694665506F3420566F6C742E005307
:10105000746F7261676520566F6C746167650044D8
:10106000697363686172676520566F6C7461676548
:1010700000526566726573682D706572696F6400F1
:1010800011241FBECFEFDFE2DEBFCDBF18BE19BEF9
:101090001ABE1BBE13E2A0E0B0E2E0E9FFE402C02A
:1010A00005900D92AA3BB107D9F71BE2AAEBB3E278
:1010B00001C01D92A433B107E1F70E9486200C9471
:1010C000C6270C940000CF92DF92EF92FF920F930D
:1010D0001F93DF93CF9300D0CDB7DEB76C018B01A8
:1010E0007A0119821A82F8940E94B1270E0D1F1DF1
:1010F000CE010196B80142E050E00E94B127C6013E
:101100006E2D0E94D819789440E029813A81821787
:10111000930709F041E0842F0F900F90CF91DF915A
:101120001F910F91FF90EF90DF90CF90089540E0D6
:1011300050E061E070E0FA01EE0FFF1FE40FF51FD1
:10114000EB51FC4D848D958D892BA9F0848D958D67
:101150000197848F958F848D958D892B61F42091D3
:10116000F723838DFB0102C0EE0FFF1F8A95E2F784
:101170002E2B2093F7234F5F5F4F46305105D9F652
:1011800008950F931F938C01A62FBA01A90180E047
:1011900090E02A2F265505C0FB01E80FF91F208398
:1011A000019684179507C0F3B0E0FD01EE0FFF1F15
:1011B000EB51FC4D65A776A7CA018397FB01E80FA9
:1011C000F91F02C01192019684179507D8F3209158
:1011D000F72381E090E00A2E02C0880F991F0A943D
:1011E000E2F7282B2093F72341505040640F751FDE
:1011F000AA0FBB1FAB51BC4D53966D937C93549774
:101200005396ED91FC915497319710835396ED913D
:10121000FC915497008353968D919C91549783979A
:1012200053968D939C9354971F910F91089590E03E
:10123000FC01EE0FFF1FEB51FC4DA5A5B6A520E06C
:1012400030E0AC0146555F4F73968C9190E0841767
:10125000950741F411962F5F3F4F808191818A1746
:101260009B0798F7C9010895863020F087E00E9417
:10127000E61F0895F89490E0FC01EE0FFF1FE80FC1
:10128000F91FEB51FC4D648F758F78940895809110
:10129000F72380FF02C080E00BC0869580FF02C06C
:1012A00081E006C0869580FD02C023E002C082E096
:1012B000282FA22FB0E0AB51BC4D1D968C911D97ED
:1012C0008F3FF1F01D96EC911D97F0E0EB51FC4D36
:1012D00082858F3FA9F01D96EC91F0E0EB51FC4D1B
:1012E00022858091F72390E0022E02C09595879584
:1012F0000A94E2F780FD04C08DE40E94E61F23E01B
:10130000822F0895F8940F921F922F923F924F923E
:101310005F926F927F928F929F92AF92BF92CF9285
:10132000DF92EF92FF920F931F932F933F934F9370
:101330005F936F937F938F939F93AF93BF93CF935D
:10134000DF93EF93FF930FB60F921124E091F623F2
:10135000F0E08DB79EB705EE13E2EE0FFF1FE00F32
:10136000F11F838B948B0E9447098093F623809111
:10137000F62390E0880F991F080F191FF801838941
:1013800094898DBF9EBF0F900FBEFF91EF91DF91AB
:10139000CF91BF91AF919F918F917F916F915F910D
:1013A0004F913F912F911F910F91FF90EF90DF9000
:1013B000CF90BF90AF909F908F907F906F905F90F5
:1013C0004F903F902F901F900F90789408950F9317
:1013D0001F93182F062F862FBA010E943409F89404
:1013E000E091F623F0E0EB51FC4D84818123F1F490
:1013F000E091F623F0E0EB51FC4D17833091F72399
:101400002091F62381E090E002C0880F991F2A9571
:10141000E2F7809583238093F7230E948209F89452
:10142000E091F623F0E0EB51FC4D1782E091F623BA
:10143000F0E0EB51FC4D24812123E091F623F0E014
:10144000EB51FC4D8481109581238483222361F02C
:10145000802F90E0FC01EE0FFF1FE80FF91FEB510A
:10146000FC4D148E158E01C000007894822F1F91C0
:101470000F910895F894482F50E0FA01EB51FC4D7C
:101480008481862B84838781862379F02091F723BA
:1014900081E090E002C0880F991F4A95E2F7282B5F
:1014A0002093F7230E9482090895789408958FEF7E
:1014B0008093F2238093F3238093F4238093F52386
:1014C0008093EF238093F0238093F123EDB7FEB751
:1014D00084E39BE280931824909319242DEA01C0A1
:1014E000229380911824909119248E179F07C0F39E
:1014F0001092E5231092E6231092E7231092E8233E
:1015000083E08093F623789478940E94820908956A
:10151000E82F863010F087E015C08091F6238330E5
:1015200011F484E00FC02E2F30E0F901EE0FFF1F01
:10153000E20FF31FEB51FC4D938D8091F62398172A
:1015400021F089E00E94E61F0895F894F901EE0F5A
:10155000FF1FE20FF31FEB51FC4D848D958D892BFE
:1015600029F488E00E94E61F789408953091F723CB
:101570002091F62381E090E002C0880F991F2A9500
:10158000E2F7809583238093F7230E9482090895D0
:10159000833024F086E00E94E61F0895F894E82F37
:1015A000FF27E7FDF095EB51FC4D8FEF82870E94FE
:1015B00082090895EF92FF920F931F93CF93DF93C9
:1015C000182F833024F085E00E94E61F25C0F89490
:1015D000C82FDD27C7FDD095CB51DC4D0AE0E02EAA
:1015E000F12CEC0EFD1E0FEF0FC0E091F623F0E0A2
:1015F000EB51FC4D15870E948209F894E091F62387
:10160000F0E0EB51FC4D0587F70180818F3F69F7D2
:101610008091F6238A877894DF91CF911F910F9163
:10162000FF90EF9008950F921F922F923F924F924A
:101630005F926F927F928F929F92AF92BF92CF9262
:10164000DF92EF92FF920F931F932F933F934F934D
:101650005F936F937F938F939F93AF93BF93CF933A
:10166000DF93EF93FF930FB60F921124E091F623CF
:10167000F0E08DB79EB705EE13E2EE0FFF1FE00F0F
:10168000F11F838B948B0E94E11FF801808191816F
:10169000A281B3810196A11DB11D80839183A28394
:1016A000B3830E9497080E9447098093F623809194
:1016B000F62390E0880F991F080F191FF8018389FE
:1016C00094898DBF9EBF0F900FBEFF91EF91DF9168
:1016D000CF91BF91AF919F918F917F916F915F91CA
:1016E0004F913F912F911F910F91FF90EF90DF90BD
:1016F000CF90BF90AF909F908F907F906F905F90B2
:101700004F903F902F901F900F90189522E02093BC
:1017100026068AE28093040681E080936606809321
:101720006506209325061092040680936606809332
:101730006506209325061092040680936606809322
:1017400065062093250680930406809366068093A1
:101750006506209325069FE3909304068093660612
:1017600080936506209326069BE29093040680935F
:1017700066068093650620932506109204068093E2
:1017800066068093650620932506109204068093D2
:1017900066068093650620932506109204068093C2
:1017A000660680936506209325069FEE90930406B7
:1017B0008093660680936506209326069CE29093AC
:1017C0000406809366068093650620932506109292
:1017D00004068091BA238130B9F490E021E012C070
:1017E000209366062093650620936606209365067F
:1017F00020936606209365068F5F803A89F79F5F86
:10180000903F39F180E0ECCF823019F520E081E0A3
:101810001EC080936606809365068093660680935B
:1018200065068093660680936506809366068093BE
:1018300065068093660680936506809366068093AE
:1018400065069F5F903A29F72F5F203F11F090E0E7
:10185000E0CF08950F931F93DF93CF9300D000D074
:10186000CDB7DEB7E82F29833A830B831C83209101
:10187000BA23213019F050E070E009C0862F8F7034
:101880005E2F5295507F582B742F7295707F32E0E7
:10189000309326068AE28093040691E090936606D0
:1018A000909365068A813093250680930406909371
:1018B0006606909365068981309325068093040619
:1018C0009093660690936506309326068BE280938C
:1018D000040690936606909365068C8130932506E6
:1018E0008093040690936606909365068B813093EF
:1018F00025068093040690936606909365063093C0
:1019000026068CE280930406909366069093650603
:10191000213089F4309325065093040620936606FF
:10192000209365063093250670930406209366067F
:10193000209365061AC02230C1F420932506E09357
:10194000040690936606909365062093250660939F
:1019500004069093660690936506209325064093AF
:10196000040690936606909365062496CDBFDEBF6D
:10197000CF91DF911F910F9108952F923F924F9237
:101980005F926F927F928F929F92AF92BF92CF920F
:10199000DF92EF92FF920F931F93DF93CF93CDB718
:1019A000DEB72597CDBFDEBF89836A834B833901BC
:1019B000580122E0209326068AE28093040681E003
:1019C0008093660680936506209325061092040690
:1019D0008093660680936506209325061092040680
:1019E00080936606809365062093250680930406FF
:1019F0008093660680936506209325069FE3909367
:101A000004068093660680936506209326069BE273
:101A100090930406809366068093650620932506BE
:101A2000109204068093660680936506209325062F
:101A3000109204068093660680936506209325061F
:101A4000109204068093660680936506209325060F
:101A50009FEE909304068093660680936506C60108
:101A6000801B910B97012619370997FD04C071E07F
:101A7000272E312C06C0909581959F4F22242A94C1
:101A8000322C37FD04C061E0462E512C06C0309543
:101A900021953F4F44244A94542C4C01880C991CA6
:101AA000C901880F991F8C839D8389816A814B812D
:101AB000930185010E942A0CEC81FD818E169F0600
:101AC000F4F4CF01959587956401C81AD90A13C01B
:101AD000D7FC06C0A20CB31C8C819D81C81AD90A00
:101AE000640C751CC80CD91C89816A814B819301D7
:101AF00085010E942A0C6E147F0451F71EC0C40198
:101B000095958795EC80FD80E81AF90A13C0F7FCDB
:101B100004C0640C751CE818F908A20CB31CEC8115
:101B2000FD81EE0EFF1E89816A814B819301850143
:101B30000E942A0CAC14BD0451F72596CDBFDEBF20
:101B4000CF91DF911F910F91FF90EF90DF90CF9099
:101B5000BF90AF909F908F907F906F905F904F90CD
:101B60003F902F900895BF92CF92DF92EF92FF9215
:101B70000F931F93DF93CF93CDB7DEB72697CDBFDB
:101B8000DEBFB82E2B833C830D831E837091BA2356
:101B9000713021F0B0E0A0E050E012C0862F8F70CD
:101BA000BB2DB295B07FB82BA42FA295A07F8B2D13
:101BB0008F70A82B842F8F70562F5295507F582BE3
:101BC00032E0309326068AE28093040621E02093D7
:101BD0006606209365068C81309325068093040663
:101BE00020936606209365068B81309325068093AB
:101BF000040620936606209365068B819C810197DD
:101C00008E0D9F1D89839A83FE01319681813093C9
:101C10002506809304062093660620936506898135
:101C2000309325068093040620936606209365066C
:101C3000309326068BE28093040620936606209359
:101C400065068E81309325068093040620936606F0
:101C5000209365068D81309325068093040620939A
:101C60006606209365068D819E8101978C0D9D1DD2
:101C700089839A838181309325068093040620937B
:101C800066062093650689813093250680930406B5
:101C90002093660620936506309326068CE2809397
:101CA00004062093660620936506713081F5CE9C6C
:101CB000B001CF9C700DDE9C700D112480E020E0FF
:101CC00030E042E091E01FC0882351F040932506A8
:101CD00050930406909366069093650680E011C0C9
:101CE00040932506B093040690936606909365068C
:101CF00040932506A093040690936606909365068C
:101D000081E02F5F3F4F26173707F0F22AC072306D
:101D100041F5CE9CF001CF9CF00DDE9CF00D11241E
:101D200080E090E032E021E019C030932506B092C7
:101D3000040620936606209365063093250660937B
:101D4000040620936606209365063093250640938B
:101D50000406209366062093650601968E179F075A
:101D600020F32696CDBFDEBFCF91DF911F910F915B
:101D7000FF90EF90DF90CF90BF9008952F923F9209
:101D80004F925F926F927F928F929F92AF92BF928B
:101D9000CF92DF92EF92FF920F931F93DF93CF9337
:101DA000CDB7DEB72A97CDBFDEBF68874987622EE1
:101DB000702E2E2CDC2CAA868B829C82A82EBB2413
:101DC00084E290E0A89EF001A99EF00DB89EF00D6F
:101DD0001124E850F34024912D833196149172E040
:101DE000709326068AE28093040661E0609366069B
:101DF000609365068C81709325068093040660933A
:101E00006606609365068B817093250680930406B1
:101E100060936606609365063A85A32FB0E0822F33
:101E200090E002968A9F70018B9FF00C9A9FF00CB5
:101E300011248B819C8101978E0D9F1D89839A832C
:101E4000FE0131968181709325068093040660938C
:101E50006606609365068981709325068093040663
:101E60006093660660936506709326068BE2809306
:101E70000406609366066093650688A17093250644
:101E80008093040660936606609365068F8D709359
:101E900025068093040660936606609365062F8D81
:101EA00038A121503040CD01880F991FAC0103E0CB
:101EB000440F551F0A95E1F7840F951F280F391F0E
:101EC00029833A8381817093250680930406609369
:101ED00066066093650689817093250680930406E3
:101EE0006093660660936506709326068CE2809385
:101EF000040660936606609365068091BA2381307C
:101F000009F00DC189858F703884329430EF332207
:101F1000382A8FE068224984429420EF42224628E2
:101F2000872D8F70729490EF7922782A9C2D92954C
:101F3000907F592E582AEFE0DE22C22CC29480EF07
:101F4000C822CD2868846E22692AE12FF0E0EA9F3A
:101F50004001EB9F900CFA9F900C112430E050E070
:101F600012E071E024C0552391F0109325065092A1
:101F70000406709366067093650610932506C0925A
:101F80000406709366067093650650E009C01093CE
:101F9000250670920406709366067093650651E0FC
:101FA0002F5F822F90E08E159F05ECF23F5F832F0D
:101FB00090E08815990514F420E0F3CFC501880F4F
:101FC000991F4C0113E0880C991C1A95E1F7880EB3
:101FD000991E21EC3DEF820E931ECD01880F991FB3
:101FE0008E839F83AA24BB24A2E1EA2EF12CEE1A51
:101FF000FF0A62E071E084C0242F30E0C9018770DD
:102000009070892B19F4FD011196A4908A2D90E00F
:10201000209530952770307002C0959587952A9548
:10202000E2F78170907020E034C00097A1F0552352
:1020300069F06093250660920406709366067093BB
:102040006506609325064092040613C0609325063A
:102050003092040618C0552391F0609325065092E3
:102060000406709366067093650660932506C09219
:102070000406709366067093650650E009C060938D
:10208000250670920406709366067093650651E00B
:102090002F5FEA852E1748F24F5FFD814F1708F436
:1020A000ABCF20E01EC0552391F0609325065092DF
:1020B0000406709366067093650660932506C092C9
:1020C0000406709366067093650650E009C060933D
:1020D000250670920406709366067093650651E0BB
:1020E0002F5F822F90E0EE81FF818E179F07DCF239
:1020F000D394FA85DF1618F4D80140E0CECFB3941C
:102100008B2D90E08E159F050CF0E4C08C01080D1E
:10211000191D000F111F08581E4FDD24EACF823011
:1021200009F0D8C0612F70E06A9FF0016B9FF00D3D
:102130007A9FF00D112430E052E041E01FC050932F
:1021400025067092040640936606409365065093F8
:102150002506209204064093660640936506509338
:102160002506D092040640936606409365062F5FCD
:10217000822F90E08E159F0514F33F5F832F90E030
:102180008E179F0714F420E0F3CFC501880F991F25
:102190008C0143E0000F111F4A95E1F7080F191F4A
:1021A0000F5312402D01440C551CE0E0BB2422E1EA
:1021B000822E912C861A970A92E0C92E41E07CC0AB
:1021C000252F30E0C90187709070892B21F4FB0125
:1021D0006F5F7F4FE4918E2F90E0209530952770B0
:1021E000307002C0959587952A95E2F781709070BE
:1021F00020E032C00097B9F0C092250638853093B0
:1022000004064093660640936506C0922506F9854C
:10221000F09304064093660640936506C092250637
:102220006092040614C0C092250670920406409382
:10223000660640936506C0922506209204064093E8
:10224000660640936506C0922506D0920406409328
:102250006606409365062F5F3A85231758F25F5F45
:102260008D81581708F4ACCF20E019C0C092250624
:10227000709204064093660640936506C092250658
:10228000209204064093660640936506C092250698
:10229000D092040640936606409365062F5F822F16
:1022A00090E08415950514F3F3949A85F91618F4C3
:1022B000BD0150E0D5CFB3948B2D90E088159905E2
:1022C0004CF4DC01A00FB11FAA0FBB1FA858BE4FD2
:1022D000FF24EBCF2A96CDBFDEBFCF91DF911F91B8
:1022E0000F91FF90EF90DF90CF90BF90AF909F90B5
:1022F0008F907F906F905F904F903F902F900895B8
:102300002F923F924F925F926F927F928F929F9205
:10231000AF92BF92CF92DF92EF92FF920F931F93F3
:10232000DF93CF93CDB7DEB72897CDBFDEBF8D83C8
:102330006E834F832887D02EFE2C1C2D2C2D30E051
:102340002B833C83C901880F991FFC0123E0EE0F0A
:10235000FF1F2A95E1F7E80FF91FE983FA832501AA
:10236000140104E2B02E46C04B9DF0011124E85048
:10237000F340E4916E2E77242B813C81629EC00154
:10238000639E900D729E900D1124840D951D2091D9
:10239000BB233091BC232817390730F489819A81F7
:1023A000280E391E44245524ED8DFE8D3196ED8F77
:1023B000FE8F00D0EDB7FEB721823282842F6D816F
:1023C0004E812F810885ED2CCF2CA12E42010E9439
:1023D000BE0E22E030E0620E731EEB81FC816E9E29
:1023E000C0016F9E900D7E9E900D1124480E591EC7
:1023F0000F900F90ED8DFE8D4081442309F0B4CFF6
:102400002896CDBFDEBFCF91DF911F910F91FF9036
:10241000EF90DF90CF90BF90AF909F908F907F9084
:102420006F905F904F903F902F9008958F929F9262
:10243000AF92BF92CF92EF92FF920F931F93DF93D1
:10244000CF93CDB7DEB7A097CDBFDEBFFE01FB9621
:102450008E010D5F1F4F8EE1D8011D928A95E9F71D
:1024600009831A837E010894E11CF11CC70161ED08
:102470007BE149AD5AAD9F010E94CB1AC70160E0D4
:102480000E94D11B00D0EDB7FEB7018312838EA549
:102490006FA548A929A90AA9EBA8CCA8ADA8BEA8F0
:1024A0008FA898AC0E9480110F900F90A096CDBF7E
:1024B000DEBFCF91DF911F910F91FF90EF90CF90F2
:1024C000BF90AF909F908F900895EF92FF920F93DF
:1024D0001F93182F062F8FEF8093000682E0E82EBF
:1024E000E09221068FE080936106FF24F394F0923E
:1024F000650684E08093660688E080936606E09235
:102500002606E09265068093650680E064EF71E040
:102510000E94340980E00E94880A1230A9F41093C6
:1025200026068AE380930406F0926606F09265061A
:102530001093250687E080930406F0926606F092D9
:1025400065061093BA237AC0113009F077C0E09283
:1025500026068AE3809304061093660610936506A8
:10256000E092250683E0809304061093660610939C
:1025700065061093BA23E09226068DE28093040646
:10258000109366061093650690E080E032E021E04B
:1025900030932506809304062093660620936506F3
:1025A0009F5F805F9031A1F780E022E091E020936F
:1025B00025061092040690936606909365068F5F39
:1025C0008033A9F790E080E032E021E030932506E7
:1025D0008093040620936606209365069F5F805FC4
:1025E0009031A1F780E022E091E02093250610923F
:1025F000040690936606909365068F5F8033A9F773
:1026000090E080E032E021E03093250680930406DC
:1026100020936606209365069F5F805F9031A1F747
:1026200080E022E091E0209325061092040690932A
:102630006606909365068F5F8033A9F7023001F13B
:10264000033020F4013009F066C006C0033031F1D8
:10265000043009F060C03FC092E09093260686E304
:102660008093040600936606009365069093250602
:1026700080E780930406009366060093650622C0F7
:102680000093260686E38093040691E09093660605
:10269000909365060093250680ED2BC022E02093E1
:1026A000260686E38093040691E090936606909355
:1026B00065062093250680EA8093040690936606BB
:1026C0009093650680E491E08093BB239093BC23B4
:1026D00080EF90E01CC022E02093260686E38093E2
:1026E000040691E090936606909365062093250674
:1026F00080E180930406909366069093650680EFD0
:1027000090E08093BB239093BC2380E491E080937E
:10271000BD239093BE2322E02093260681E180937F
:10272000040691E090936606909365062093260632
:1027300088E3809304069093660690936506209341
:10274000260683E1809304069093660690936506BF
:102750002093260689E28093040690936606909360
:10276000650684E080932106809325060E94860BEF
:102770001F910F91FF90EF900895CF93DF93DC01AD
:10278000EB018091792190E0FC0173E0EE0FFF1FD7
:102790007A95E1F7E80FF91FEE5EFD4D5781252F81
:1027A0002F5F40E030E014C0822F90E0FC0163E036
:1027B000EE0FFF1F6A95E1F7E80FF91FEE5EFD4D82
:1027C0008781851721F4442309F4422F3F5F2F5F4F
:1027D0002C3250F33C934883DF91CF910895FC0154
:1027E000DB01E081E930B0F0409179215C91242F48
:1027F00030E0251B31098E2F90E004972817390708
:1028000024F0E850E50FEC9308952430310514F0DE
:1028100044504C93089581E080937B210895DF9389
:10282000CF9300D0CDB7DEB7CE010196BE016E5F6B
:102830007F4F0E94BD136981862F90E070E041E0D8
:1028400050E021E030E00E943F1C0F900F90CF91AC
:10285000DF9108950F931F93DF93CF9300D0CDB7EF
:10286000DEB719821A8282E00E94DA0A8091792109
:1028700090E0FC01B3E0EE0FFF1FBA95E1F7E80F1F
:10288000F91FEE5EFD4D86818823D9F08093792172
:10289000CE010196BE016E5F7F4F0E94BD1369811C
:1028A0002A81862F90E0820F911D20917921821B31
:1028B000910970E041E050E021E030E00E943F1CCF
:1028C0006FC00481158101151105D1F180917C2122
:1028D000882329F50E94D11CF801808391830E94EE
:1028E0002F19CE010196BE016E5F7F4F0E94BD136E
:1028F00069812A81862F90E0820F911D2091792194
:10290000821B910970E041E050E021E030E00E943C
:102910003F1C81E080937C2180937B2141C0F801A2
:1029200064817581428153812681378180819181C3
:102930000E943F1C10927C2181E080937A2130C05C
:1029400082819381892B61F1CE010196BE016E5F78
:102950007F4F0E94BD1369812A81862F90E0820FEC
:10296000911D20917921821B910970E041E050E096
:1029700021E030E00E943F1C81E080937B21809128
:10298000792190E0FC01A3E0EE0FFF1FAA95E1F78B
:10299000E80FF91FEE5EFD4D0280F381E02D0995F1
:1029A00082E00E94C80A0F900F90CF91DF911F9193
:1029B0000F9108958F929F92AF92BF92CF92DF9224
:1029C000EF92FF920F931F93DF93CF93CDB7DEB7B4
:1029D0006597CDBFDEBF19821A82F894D090792115
:1029E000789480917C218823B1F0CE010196BE01BC
:1029F0006E5F7F4F0E94BD130E94D11C80931A24EA
:102A000090931B24D9809A81D90ED81AF894D09229
:102A1000792178944CC00E94D11CBC0180937D2107
:102A200090937E2180917F21909180216817790772
:102A300021F480917A218823D1F110927A21609338
:102A40007F21709380218D2D90E07C0153E0EE0C6E
:102A5000FF1C5A95E1F7E80EF91E42E152E2E40E3E
:102A6000F51ED70118968C91189783702D913C9183
:102A70001197813031F41496ED91FC911597C901AD
:102A800011C08E010D5F1F4FC801B9010E949C2724
:102A900060917F2170918021D7011496ED91FC9176
:102AA0001597C80140852091BF230E948D16809103
:102AB000C0238D1529F480917B21882309F4C9C096
:102AC000D092C023CE010196BE016E5F7F4F0E945F
:102AD000BD13F980B8E0BF1510F448E0F42E8D2D39
:102AE00090E0FC0133E0EE0FFF1F3A95E1F7E80FAD
:102AF000F91FEE5EFD4D978180918121891721F4A8
:102B000080917B21882309F190938121892F90E086
:102B1000FC0123E0EE0FFF1F2A95E1F7E80FF91FF4
:102B2000EE5EFD4D8085837060817181813011F48E
:102B3000CB0107C08E010D5F1F4FC8010E949C276B
:102B4000C8010E946B180E94701610927B218A8126
:102B5000ED2DE81B8E2F8F5F69810E944216CE01FA
:102B60000196BE016E5F7F4F0E94EF13CA8010E096
:102B70008F2C992483E0A82EB12CAC0EBD1E5FC013
:102B8000C90103E0880F991F0A95E1F7CD1461F59B
:102B90001093BF237C01E20EF31E42E152E2E40EE9
:102BA000F51ED70118968C91189783706D917C91C2
:102BB0001197813041F41496ED91FC911597408165
:102BC0005181CB010BC0C5010E949C27D7011496EF
:102BD000ED91FC91159740815181C501BF01208580
:102BE000012F0E94141729C07C01E20EF31EE2E1BE
:102BF000F2E2EE0EFF1ED70118968C9118978370A3
:102C00006D917C911197813041F41496ED91FC9176
:102C1000159740815181CB010BC0C5010E949C27B3
:102C2000D7011496ED91FC91159740815181C50112
:102C3000BF012085012F0E94A8171F5FC3942C2D70
:102C400030E08A81F401E80FF11D2E173F070CF4E4
:102C500097CF6596CDBFDEBFCF91DF911F910F91CA
:102C6000FF90EF90DF90CF90BF90AF909F908F90AC
:102C70000895089583E080930D2A089582E080935B
:102C80000D2A08952DB73EB7215130402DBF3EBFCC
:102C9000EDB7FEB731969FEFADB7BEB711969C93D7
:102CA0009183928313821482158291E0968328E1A6
:102CB00031E0278330872AE030E02187328720E027
:102CC00030E223873487858716866787108A0E94BB
:102CD00016122DB73EB72F5E3F4F2DBF3EBF089552
:102CE000CF92DF92EF92FF920F931F9380E060E00C
:102CF00040E024E130E008E210E05CE2E52E51E043
:102D0000F52E98ECC92ED12C0E94B30D1F910F9176
:102D1000FF90EF90DF90CF9008958F929F92AF92A7
:102D2000BF92CF92DF92EF92FF920F931F93CF93B8
:102D3000DF935C014B0184E1289FE0011124A896F8
:102D400080E060E040E024E130E08E01ECE2EE2E35
:102D5000E1E0FE2E74E1C72ED12C0E94B30D8DB799
:102D60009EB70D978DBF9EBFEDB7FEB731960FEFA3
:102D7000ADB7BEB711960C931182128213821482E2
:102D8000158211E0168384E190E087839087C187E4
:102D9000D287A386B4860E941612EDB7FEB731968D
:102DA000ADB7BEB711960C931182128213821482B2
:102DB0001582168388E191E087839087C187D28747
:102DC00086E090E2838794870E94161200D0EDB7C8
:102DD000FEB73196ADB7BEB711960C931182128231
:102DE000138214821582168388EC90E08783908783
:102DF000C187D2878BE090E2838794878586968609
:102E00000E9416128DB79EB70F968DBF9EBFDF91A1
:102E1000CF911F910F91FF90EF90DF90CF90BF90D7
:102E2000AF909F908F9008956F927F928F929F9214
:102E3000AF92BF92CF92DF92EF92FF920F931F93C8
:102E4000CF93DF935C014B013A0184E1089FE001DD
:102E50001124A89680E060E040E028EC30E08E018C
:102E6000A4E6EA2EF12CF4E1CF2ED12C0E94B30D72
:102E70008DB79EB70D978DBF9EBFEDB7FEB731964C
:102E80001FEFADB7BEB711961C9311831283138247
:102E90001482158201E0068384E190E087839087A5
:102EA000C187D287A386B4860E941612EDB7FEB7FB
:102EB0003196ADB7BEB711961C931183128313825E
:102EC0001482158206838CE291E087839087C18704
:102ED000D2878EE090E2838794870E9416128DB786
:102EE0009EB70D968DBF9EBF892819F1ADB7BEB7AD
:102EF0001F97ADBFBEBFEDB7FEB7319611961C93BD
:102F000011831283138214821582068388EC90E069
:102F100087839087C187D2878BE090E283879487ED
:102F2000658676860E9416128DB79EB70F968DBF66
:102F30009EBFDF91CF911F910F91FF90EF90DF9097
:102F4000CF90BF90AF909F908F907F906F9008959B
:102F50006F927F928F929F92AF92BF92CF92DF92A9
:102F6000EF92FF920F931F93CF93DF935C014B017E
:102F70003A0184E1089FE0011124A89680E060E016
:102F800040E024E130E08E019CE2E92E91E0F92E50
:102F9000B4E1CB2ED12C0E94B30D8DB79EB70D9707
:102FA0008DBF9EBFEDB7FEB73196ADB7BEB71196D8
:102FB0001C921FEF1183128213821482158201E08A
:102FC000068384E190E087839087C187D287A386B8
:102FD000B4860E9416128DB79EB70D968DBF9EBF08
:102FE000892819F1ADB7BEB71F97ADBFBEBFEDB70A
:102FF000FEB7319611961C931183128313821482AB
:103000001582068388EC90E087839087C187D287FA
:103010008BE090E283879487658676860E941612FD
:103020008DB79EB70F968DBF9EBFDF91CF911F9139
:103030000F91FF90EF90DF90CF90BF90AF909F9057
:103040008F907F906F900895DF93CF93CDB7DEB7C9
:103050006097CDBFDEBFCE01019660E070E040E139
:1030600050E00E946308882381F589819A818093CA
:10307000AF219093B0218B819C818093B821909354
:10308000B9218D819E818093C1219093C2218F812E
:1030900098858093CA219093CB2189859A858093C6
:1030A000D3219093D4218B859C858093DC219093B0
:1030B000DD218D859E858093E5219093E6218F8586
:1030C00098898093EE219093EF216096CDBFDEBF6B
:1030D000CF91DF910895CF92DF92EF92FF920F93FD
:1030E0001F93CF93DF93EC018091C123882329F4B0
:1030F0000E94241881E08093C12380E060E040E0DA
:1031000020E030E000E010E070E4E72E71E0F72E00
:1031100058E2C52ED12C0E94B30D8DB79EB70D97E6
:103120008DBF9EBFEDB7FEB731968FEFADB7BEB77F
:1031300011968C938183828313821482158282E09C
:1031400086831782108611861286C387D4870E94D1
:1031500016128DB79EB70D968DBF9EBFDF91CF9192
:103160001F910F91FF90EF90DF90CF900895DF9324
:10317000CF9300D0CDB7DEB719821A828091792122
:1031800090E0FC01A3E0EE0FFF1FAA95E1F7E80F26
:10319000F91FEE5EFD4D878180937921CE01019666
:1031A000BE016E5F7F4F0E94BD1369812A81862F09
:1031B00090E0820F911D20917921821B910970E08E
:1031C00041E050E021E030E00E943F1C0F900F9062
:1031D000CF91DF9108950E94B718089581E00E9471
:1031E000DA0A809182219091832180936C2A9093B6
:1031F0006D2A80918B2190918C218093702A9093DD
:10320000712A80919421909195218093762A9093B0
:10321000772A80919D2190919E218093722A90938C
:10322000732A8091A6219091A7218093742A90936C
:10323000752A80910022909101228093782A9093A0
:10324000792A10926E2A8091092290910A22809305
:103250007A2A90937B2A81E00E94C80A08950E94EE
:10326000EE1808958091E5219091E62180938B21BD
:1032700090938C218091EE219091EF218093942165
:10328000909395210E94B7180E94EE18089580919E
:10329000D3219091D42180938B2190938C21809184
:1032A000DC219091DD2180939421909395210E94BF
:1032B000B7180E94EE1808958091C1219091C22103
:1032C00080938B2190938C218091CA219091CB2166
:1032D00080939421909395210E94B7180E94EE1834
:1032E00008958091AF219091B02180938B2190938C
:1032F0008C218091B8219091B92180939421909351
:1033000095210E94B7180E94EE18089598E09093B6
:103310008506A1E8B6E09C9385EE8093A60A8CEB27
:103320008093A70A80E18093A30A83E08093A50A93
:1033300088E18093A40AE2EAF0E0808181608083E2
:1033400080EA80932C018AE080932D0110922E0157
:1033500084E0809320011092210180ED809322016E
:103360008CE8809323019C93E0E0F1E08081806809
:1033700080830895FC01818187FD18C0818186FDCD
:1033800015C0CB0160877187AA2797FDA095BA2F3A
:103390008B2F9927AA27BB278287842F90E08483CD
:1033A000958380818068808380E0089581E008951E
:1033B0000F931F93CF93DF93EC012FEF3FEFA0E02C
:1033C000B0E070E001E010EA1AC0FE01EA0FFB1F56
:1033D0008081E82FF0E040E050E0CF018227932782
:1033E0003695279580FF02C0202731274F5F5F4F1A
:1033F0004830510519F0F695E795EFCF1196A617CD
:10340000B7071CF3C901DF91CF911F910F91089568
:10341000282F90E038E1862F822780FD02C0669534
:1034200003C06327669560689F5F983011F026950A
:10343000F2CF862F08950F931F93CF93DF93062F1C
:10344000EC0110E060E005C089910E94081A682F25
:103450001F5F1017C8F3862FDF91CF911F910F9137
:1034600008958F929F92AF92BF92CF92DF92EF9288
:10347000FF920F931F93CF93DF935C017B014A016F
:103480006901C1E0D0E008C0CE018E9DE0018F9DB2
:10349000D00D9E9DD00D1124C501BE010E9438277C
:1034A0006E157F0588F700E010E02AC0C501BE0157
:1034B0000E9438279B01CE01B7010E943827FB01EB
:1034C0000115110531F4121613061CF06115710572
:1034D00089F42A30310514F480E306C08114910484
:1034E00011F487E501C087E3820FD6018D936D014A
:1034F0000F5F1F4FC501BE010E9438275C01EF011D
:103500002097A1F6F6011082DF91CF911F910F91C4
:10351000FF90EF90DF90CF90BF90AF909F908F90F3
:103520000895BF92CF92DF92EF92FF920F931F9375
:10353000CF93DF936C017B01E801222319F490E221
:10354000B92E02C080E3B82EFE0102C041505040A7
:103550008191882311F48A010AC014161506B4F368
:10356000FACFC6016B2DF7010995015010401016D6
:103570001106BCF303C0C601F701099569916623E2
:10358000D1F7DF91CF911F910F91FF90EF90DF90D6
:10359000CF90BF9008952F923F924F925F926F927B
:1035A0007F928F929F92AF92BF92CF92DF92EF92D3
:1035B000FF920F931F93DF93CF93CDB7DEB72C9776
:1035C000CDBFDEBF2C013B014A0169011E010894F9
:1035D000211C311CCBC00894811C911C653211F058
:1035E000C201C2C0F40171914F01703311F010E0BB
:1035F00003C071914F0111E0872F80538A3018F07A
:10360000AA24BB2431C0AA24BB2412C02B3031050C
:103610005CF5C50163E0880F991F6A95E1F7AA0C74
:10362000BB1CA80EB91EA20EB31EF40171914F016E
:10363000872F80538A3028F4272F30E020533040E2
:1036400011C0872F8156863028F4272F30E0275568
:10365000304008C0872F8154863030F4272F30E067
:103660002753304037FFD2CF743639F1753680F4A6
:10367000783509F444C0793538F4772309F47BC0F0
:10368000753209F073C06EC0733609F06FC050C058
:10369000753731F0783799F1733709F067C052C048
:1036A00042E0E42EF12CEC0CFD1CF60180819181AE
:1036B0006AE070E040E050E032C0F60140815181A4
:1036C00057FD02C0C10107C0509541955F4FFDE213
:1036D000F983CE0102969C0182E090E0C80ED91ECB
:1036E000CA016AE070E040E050E00E94311AC20175
:1036F000B301A501212F81010E94911A37C032E048
:10370000E32EF12CEC0CFD1CF6018081918140E050
:1037100050E0783511F441E050E060E170E0910153
:103720000E94311AC201B301A501212F810116C0E7
:1037300086010E5F1F4FC201F6016081F3010995FA
:10374000680114C022E0E22EF12CEC0CFD1CF60105
:1037500000811181C201B301A50120E00E94911AEC
:10376000670104C0C20165E2F3010995F4016081BB
:10377000662309F030CF2C96CDBFDEBFCF91DF910D
:103780001F910F91FF90EF90DF90CF90BF90AF907F
:103790009F908F907F906F905F904F903F902F9071
:1037A0000895DC01ED91FC9111976193ED93FC93E9
:1037B0000895CF93DF93482F50E081E090E0042EEE
:1037C00002C0880F991F0A94E2F7982FF894C0E07E
:1037D000D0E020E030E0A0E4B6E060E8E0E4F6E02D
:1037E00015966C93159701C0219680914806892300
:1037F000D9F3668301C02196809148068923D9F7C1
:103800002F5F3F4F2530310559F77894FA01EE0FBD
:10381000FF1FE353FC4D8081918123E630E0AC0132
:10382000429FC001439F900D529F900D11248C0F19
:103830009D1F64E670E00E944C2760837183809135
:10384000D7238A3F50F48A3010F4C083D1838F5F2E
:103850008093D72360E070E00EC084E690E09C0186
:10386000C29FC001C39F900DD29F900D11240E9452
:103870004C2764567040CB01DF91CF9108952F9271
:103880003F924F925F926F927F928F929F92AF92F0
:10389000BF92CF92DF92EF92FF920F931F93DF932D
:1038A000CF93CDB7DEB72697CDBFDEBF5C011A013F
:1038B0003901CB01A0E0B0E089839A83AB83BC835C
:1038C000442455249C01AD012219330944095509AA
:1038D00060E07DE780E090E00E945F2779018A0147
:1038E0002093B8233093B9230027F7FC0095102FBD
:1038F000A8EBB3E2AD83BE83CC24DD24C801B701BD
:10390000A60195010E9419276093A2237093A32317
:103910008093A4239093A523ED81FE813297ED83BC
:10392000FE8388249924C801B701A40193010E9451
:103930001927AD81BE816D937C93C801B701A201A7
:1039400091010E9419276093AE237093AF23809357
:10395000B0239093B123C801B70129813A814B81EB
:103960005C810E9419276093B2237093B3238093E4
:10397000B4239093B5232696CDBFDEBFCF91DF91C0
:103980001F910F91FF90EF90DF90CF90BF90AF907D
:103990009F908F907F906F905F904F903F902F906F
:1039A00008952091B8233091B923442737FD4095DD
:1039B000542F6091A2237091A3238091A42390910E
:1039C000A5230E948127C9010895EF92FF921F93BA
:1039D000CF93DF93C0E2D4E27E0110E0812F0E94FA
:1039E000D91BF701819391937F011F5F1530B1F7C8
:1039F00040E020E030E061E070E088819981459707
:103A000044F0CB01022E02C0880F991F0A94E2F7FE
:103A1000482B2F5F3F4F24962330310571F780915B
:103A2000CA23882309F078C05091CB23451780F52D
:103A3000442371F58091C623833029F08091C723F8
:103A40008330A9F403C081E08093C5238091C7230C
:103A5000833019F481E08093C4231092C82310921C
:103A6000C6231092C7231092CB2350E007C081E0F9
:103A70008093CA231092C6231092C7238091C82333
:103A8000813009F05CC05091C9238093CA2357C08C
:103A90001092CA23433040F0443071F04093C92360
:103AA00081E08093C82308C0413031F4552321F4CC
:103AB0004093C6231092C3238091C623813021F402
:103AC000423011F44093C6238091C623823031F4F2
:103AD000443069F483E08093C62302C0443039F453
:103AE000552329F481E08093C7231092C32380914A
:103AF000C723813021F4423011F44093C7238091D1
:103B0000C723823029F4413019F483E08093C7231E
:103B10004093CB2350E013C0442311F050E00BC07E
:103B20008091C823813029F45091C9231092C82371
:103B300002C05091CB231092CA234093CB23809193
:103B4000C723882321F48091C623882339F08091EC
:103B5000C323863918F48F5F8093C3234091C52314
:103B6000413021F08091C423813021F5552301F5A6
:103B70008091C323843118F484E18093C32320917E
:103B8000C2238091C323821768F4413011F051E0C1
:103B900001C054E030E090E001968217930714F4DE
:103BA0001092C2238091C2238F5F8093C22315C0DD
:103BB000413021F08091C423813049F41092CA230E
:103BC0001092CB231092C6231092C72350E010927C
:103BD000C2231092C5231092C423852FDF91CF9169
:103BE0001F91FF90EF900895CF92DF92EF92FF9296
:103BF0000F931F93CF93DF930E94E51CE82E8091D3
:103C0000CC23E81611F010E001C01E2D0E94E51C27
:103C1000112319F48E1509F41E2D8093CC23E09006
:103C2000B623F090B723113011F481E006C01430B0
:103C300019F401E080E002C080E000E02091B823A8
:103C40003091B923CC24DD24C21AD30AEC14FD042C
:103C500009F0DAC0882329F4002309F4D5C0E7016C
:103C60005AC04091A2235091A3236091A423709144
:103C7000A52384EF91E0289FE001299FD00D389F74
:103C8000D00D1124CE01AA2797FDA095BA2F481771
:103C900059076A077B071CF484E690E002C08AEFAC
:103CA00090E0289FF001299FF00D389FF00D11241E
:103CB00080ED97E0DC012A9FC0012B9F900D3A9F79
:103CC000900D1124AA2797FDA095BA2F48175907E0
:103CD0006A077B070CF4EF0180E797E1FC012E9F58
:103CE000C0012F9F900D3E9F900D1124AA2797FD94
:103CF000A095BA2F481759076A077B074CF088EE42
:103D000093E0289FE001299FD00D389FD00D11240A
:103D1000002309F47AC04091A2235091A32360911B
:103D2000A4237091A52380E197E2DC012A9FC001C2
:103D30002B9F900D3A9F900D1124AA2797FDA095D7
:103D4000BA2F84179507A607B7074CF088EE93E0C3
:103D5000289FE001299FD00D389FD00D112480E7C6
:103D600097E1FC012E9FC0012F9F900D3E9F900D6B
:103D70001124AA2797FDA095BA2F84179507A607A7
:103D8000B7074CF084EF91E0289FE001299FD00D08
:103D9000389FD00D112480ED97E0DC012A9FC001EF
:103DA0002B9F900D3A9F900D1124AA2797FDA09567
:103DB000BA2F84179507A607B7074CF08AEF90E053
:103DC000289FE001299FD00D389FD00D112484EF4A
:103DD00091E0FC012E9FC0012F9F900D3E9F900D02
:103DE0001124AA2797FDA095BA2F84179507A60737
:103DF000B7075CF084E690E0289FE001299FD00D92
:103E0000389FD00D112401C0E7011330A1F1143007
:103E100030F4113069F0123009F0B3C029C0153008
:103E200009F45AC0153080F1163009F0AAC099C0C3
:103E30009E01442737FD4095542F8091A2239091F5
:103E4000A323A091A423B091A523280F391F4A1FB3
:103E50005B1F8091B2239091B323A091B423B091C2
:103E6000B523281739074A075B070CF082C02BC01F
:103E70000E942A1486C08091B2239091B323A0910E
:103E8000B423B091B52375C0CE01AA2797FDA095A4
:103E9000BA2F2091A2233091A3234091A4235091C3
:103EA000A523281B390B4A0B5B0B8091AE23909105
:103EB000AF23A091B023B091B12382179307A40739
:103EC000B5070CF056C02093A2233093A323409350
:103ED000A4235093A52355C0EC14FD0479F488E87D
:103EE00093E1AC01249FC001259F900D349F900D5C
:103EF0001124AA2797FDA095BA2F3BC0E090AE23CE
:103F0000F090AF230091B0231091B1236091B223C0
:103F10007091B3238091B4239091B5236E197F09DA
:103F2000800B910B9E01442737FD4095542F0E9432
:103F30008127CA01B90122E030E040E050E00E9450
:103F40008127C29FC001C39F900DD29F900D112465
:103F5000AA2797FDA095BA2F8E0D9F1DA01FB11FF8
:103F600008C08091AE239091AF23A091B023B0916F
:103F7000B1238093A2239093A323A093A423B0936F
:103F8000A523DF91CF911F910F91FF90EF90DF90CC
:103F9000CF90089583E06AE070E00E94340980E8E1
:103FA0008093400683E00E94880A83E06AE070E024
:103FB0000E9434090E94E3208823A1F70E94F41D87
:103FC000F1CF109260081092610808958093D82371
:103FD0000895F89410920008109201088FEF8093D2
:103FE0004606109200091092010983E0809366064C
:103FF00084E080932106809325060000FECF1F9267
:104000000F920FB60F9208B60F9209B60F921124B5
:1040100018BE19BE2F933F934F935F936F937F9377
:104020008F939F93AF93BF93EF93FF9383E60E9489
:10403000E91F88ED84BF81E080937900FF91EF91C3
:10404000BF91AF919F918F917F916F915F914F91B0
:104050003F912F910F9009BE0F9008BE0F900FBE99
:104060000F901F90189588ED84BF81E080935300D6
:104070008093500088E08093550001C0000080913B
:10408000510080FFFBCF81E0809356008093680051
:104090008091500080618093500088ED84BF109221
:1040A000410001C000008091510084FFFBCF88EDEA
:1040B00084BF24E02093400081E08093400880E1A9
:1040C00080934108109242081092430810924408CD
:1040D0001092460883E08093470880E89EE380932F
:1040E0006808909369082093A2000E948619E0E76F
:1040F000F0E08CE18093700087E08183828389E720
:1041000083838BE7848388E6858308950E94332028
:104110008AEC9FE160E04BE758E220E931E00E9441
:10412000C1088DEC92E262E04BE254E22CEB32E00B
:104130000E94C10885ED91E261E04AEE56E220E975
:1041400031E00E94C10882E0809300241092012493
:104150001092022481E08093032410920424109290
:1041600005248093062410920724109208241092AC
:10417000092410920A2410920B2410920C241092FD
:104180000D2410920E240E94570A000081E00E9424
:1041900017098093D9239093DA2380E00E941709AE
:1041A0008093DB239093DC2382E00E9417098093A5
:1041B000DD239093DE2383E00E9417098093DF23A1
:1041C0009093E023E2CF8091E223813011F087E0E9
:1041D00008958091DA2A0895FF920F931F938C011E
:1041E000FC01F280128263810E941B1AF801F282A4
:1041F0001F910F91FF9008950F931F938C011092C0
:104200000B2A84E080937F2AF8011282C80163811F
:104210000E941B1AF801828380E291E0B801438179
:104220000E94BA191F910F9108951F93CF93DF93A6
:10423000EC01162F88818733E1F58CE79AE20E9422
:10424000EC2090917E2A8917A1F58981811711F0C0
:1042500012E637C08C32E9F08D3228F4863139F11C
:10426000813229F406C0823411F18D3401F113E654
:1042700021C081E00E94DA0AACE6BAE2FE0134967F
:1042800080E101900D928150E1F781E08093E1237C
:104290000CC080E00E94DA0AAAEDBAE2FE01349670
:1042A0008AE501900D928150E1F70E94C80A10E062
:1042B00001C013E0CE016FEF70E04EE550E00E94C8
:1042C000A327812FDF91CF911F9108951F920F9205
:1042D0000FB60F9208B60F9209B60F92112418BEAE
:1042E00019BE2F933F934F935F936F937F938F9359
:1042F0009F93AF93BF93EF93FF938091A10A84FDA7
:1043000004C08091A10A83FF05C010920B2A84E0AB
:1043100080937F2A90910B2A9E3598F48091A00A71
:10432000E92FF0E0E458F54D80839F5F90930B2ACE
:1043300080917F2A891751F481E061E00E943A0A56
:1043400005C010920B2A84E080937F2AFF91EF91A1
:10435000BF91AF919F918F917F916F915F914F919D
:104360003F912F910F9009BE0F9008BE0F900FBE86
:104370000F901F9018951F93182F81E062E04CE278
:1043800051E00E94E70980FD02C094E606C08CE778
:104390009AE2612F0E941521982F10920B2A84E037
:1043A00080937F2A892F1F9108959F92AF92BF9289
:1043B000CF92DF92EF92FF920F931F9381E068EE0E
:1043C00073E00E94340917E361E2962E04E05CE298
:1043D000A52E46E1B42E34E1C32E2DE4D22E95E075
:1043E000E92E82E4F82E81E00E94880A81E068E5E7
:1043F00072E00E9434098091E323882391F41093A2
:104400000E2A90920F2A0093112A8EE09AE20E94BF
:10441000FC2081E20E94BB21882319F481E0809373
:10442000E32310930E2AA0920F2A0093112A8EE004
:104430009AE20E94FC208CE20E94BB21882321F496
:1044400081E08093E22302C01092E2238091E32373
:10445000813049F610930E2AB0920F2AC092112A89
:104460000E94DA0AA2E1BAE2ECE6FAE280E1019007
:104470000D928150E1F781E00E94C80A8EE09AE235
:104480000E94FC2086E10E94BB2180910C2A813091
:1044900079F410920C2A10930E2AF0920F2A0093AE
:1044A000112A8EE09AE20E94FC2082E40E94BB2145
:1044B00080910D2A882309F496CF10930E2AD0926A
:1044C0000F2AE092112A8093122A8EE09AE20E942B
:1044D000FC208DE40E94BB21882309F084CF109238
:1044E0000D2A81CF8F929F92AF92BF92CF92DF928F
:1044F000EF92FF920F931F935C01F4E08F2E912CAB
:10450000880E991E8FEF60E040E020EA30E08401E1
:10451000E0E4EE2EE1E0FE2E64010E94BD0C8CE68C
:1045200090E0A80EB91E8FEF60E040E020E431E09B
:1045300065010E94BD0C8FEF60E040E020EA30E0B2
:1045400085010E94BD0C8FEF60E040E020EA30E082
:10455000840170EAE72EF12C0E94BD0C8FEF60E021
:1045600040E020EA30E050E4E52E51E0F52E0E94D4
:10457000BD0C8FEF60E040E020EA30E0850164018F
:104580000E94BD0C1F910F91FF90EF90DF90CF9094
:10459000BF90AF909F908F9008952F923F924F922F
:1045A0005F926F927F928F929F92AF92BF92CF92C3
:1045B000DF92EF92FF920F931F93DF93CF93CDB7CC
:1045C000DEB72A97CDBFDEBF82E061E00E946512B0
:1045D0000E940F140E94860B80E068EE73E00E9438
:1045E000340977247A941E010894211C311C80E040
:1045F0000E94880A80E06CE271E00E943409809198
:10460000E123882309F440C081E00E94DA0A809106
:104610006C2A90916D2A80938221909383218091BE
:10462000702A9091712A80938B2190938C21809194
:10463000722A9091732A80939D2190939E2180915C
:10464000742A9091752A8093A6219093A721809136
:10465000762A9091772A8093942190939521809146
:10466000782A9091792A8093002290930122809158
:104670007A2A90917B2A8093092290930A2281E0E2
:104680000E94C80A1092E1239091DA2A8091E423D3
:10469000981721F00E94860B0E940B148091DA2A51
:1046A0008093E423882319F40E94DA14A0CF843085
:1046B00009F073C02DB73EB72D5030402DBF3EBF1F
:1046C000EDB7FEB73196ADB7BEB711967C921182A9
:1046D000128213821482158222E0F22EF68204E105
:1046E00010E00783108788E290E0818792872DE3AE
:1046F00030E2238734870E941612EDB7FEB7319659
:10470000ADB7BEB711967C921182128213821482C9
:104710001582F6820783108780E590E08187928773
:1047200024E430E2238734870E9416122091322B32
:104730003091332B00D000D0EDB7FEB73196ADB736
:10474000BEB711967C927182728213821482158296
:10475000F6820783108788E790E08187928781E55A
:1047600090E283879487C90168EE73E00E944C272A
:1047700065877687C90168EE73E00E944C2764E67E
:1047800070E00E944C276787708B0E941612ADB7AD
:10479000BEB75196ADBFBEBF2ACFEDB7FEB73F97AC
:1047A000EDBFFEBF3196ADB7BEB711967C921182B8
:1047B000128213821482158283E0868382E291E062
:1047C000878390871186128626E630E22387348716
:1047D00081E090E0858796870E9416122091DB2A5F
:1047E0003091DC2A00D0EDB7FEB73196ADB7BEB739
:1047F00011967C927182128213821482158292E049
:10480000C92EC682178210861186128689E690E22A
:1048100083879487C90168EE73E00E944C276587FF
:104820007687C90168EE73E00E944C276AE070E069
:104830000E944C276787708B0E9416122091DD2AF8
:104840003091DE2AEDB7FEB73196ADB7BEB71196FF
:104850007C9271821282138214821582C68280EA4F
:1048600090E0878390871186128687E790E283879E
:104870009487C90168EE73E00E944C2765877687AC
:10488000C90168EE73E00E944C276AE070E00E9464
:104890004C276787708B0E941612E090E82AF090F0
:1048A000E92A6091E02A7091E12A8091E22A9091B0
:1048B000E32A20E13EE040E050E00E945F278901CA
:1048C0009A01ADB7BEB75196ADBFBEBFB3E0073ECC
:1048D0001B0710F5EDB7FEB73F97EDBFFEBF319652
:1048E000ADB7BEB711967C92718272821382148228
:1048F0001582C6821782108680E290E081879287B7
:1049000083E890E283879487058716870E941612B2
:10491000ADB7BEB71F9631C0EDB7FEB77197EDBF0B
:10492000FEBF3196ADB7BEB711967C92718272828E
:10493000138214821582C6821782108680E290E06C
:10494000818792878DE890E283879487C80168EE1B
:1049500073E00E94382765877687C80168EE73E0A8
:104960000E9438276AE070E00E9438276787708BC2
:104970000E941612ADB7BEB75196ADBFBEBFEDB720
:10498000FEB77397EDBFFEBF3196ADB7BEB71196B8
:104990007C927182728213821482158282E08683F5
:1049A00080EA90E08783908780E290E08187928719
:1049B0002CE930E223873487C70160E17EE00E9462
:1049C000382765877687C70160E17EE00E94382737
:1049D0006CE370E00E9438276787708BC7016CE337
:1049E00070E00E943827818B928B0E9416128DB73F
:1049F0009EB743968DBF9EBF80E490E00E947222D6
:104A0000ADB7BEB71D97ADBFBEBFEDB7FEB7319610
:104A100011967C9271827282138214821582FF2415
:104A2000F394F6828FE090E08783908700E410E0B3
:104A3000018712872BEA30E2238734870E941612FF
:104A4000EDB7FEB73196ADB7BEB711967C927182C5
:104A50007282138214821582F6828CE390E087833F
:104A60009087018712872EEA30E2238734870E94DD
:104A7000161284EF882E8AE2982E00E5A02EB12C23
:104A800011E0412E512C8DB79EB70D968DBF9EBF64
:104A900066246394ADB7BEB71F97ADBFBEBFEDB779
:104AA000FEB7319611967C927182728213821482C3
:104AB0001582668217821086A186B28626E630E2CB
:104AC00023873487458656860E941612942D91506E
:104AD000ADB7BEB71F96ADBFBEBF8091DF2A981796
:104AE00008F067C0EDB7FEB73F97EDBFFEBF319648
:104AF000ADB7BEB711967C92718272821382148216
:104B0000158266822FE030E027833087A186B28647
:104B100082EB90E283879487D4018D919C91858765
:104B200096870E941612F401C280D380E480F5803B
:104B300000D00DB71EB70F5F1F4FADB7BEB71196B0
:104B40007C92F801718272821382148215826682CD
:104B50002CE330E027833087A186B28689EB90E290
:104B600083879487C701B60120E13EE040E050E032
:104B70000E945F27D8011D962D933C931E97C70175
:104B8000B60120E13EE040E050E00E945F27DC01FA
:104B9000CB0164E270E00E943827F8016787708BD0
:104BA0000E9416122DB73EB72F5E3F4F2DBF3EBF5E
:104BB00029C08DB79EB70F978DBF9EBFEDB7FEB7CB
:104BC00031962AEAADB7BEB711962C932183228382
:104BD00013821482158266828FE090E0878390872B
:104BE000A186B286A2EBB0E2A387B487D4018D91EF
:104BF0009C91858796870E941612EDB7FEB73F9667
:104C0000EDBFFEBF20E130E0A20EB31E0894411CB0
:104C1000511C8AE090E0880E991E90EBA916B10411
:104C200009F038CF8091DA2A8330F1F0843028F40B
:104C3000813051F0823060F40FC08630E9F0873067
:104C400079F08530E9F414C0C10165EC70E21BC055
:104C5000C1016EEC70E217C0C10168ED70E213C0D3
:104C6000C10162EE70E20FC0C1016AEE70E20BC0DA
:104C7000C10164EF70E207C0C1016BE071E203C0E3
:104C8000C1016EE171E20E94AA27ADB7BEB71D97C0
:104C9000ADBFBEBFEDB7FEB7319611961C927182C3
:104CA000128213821482158282E086831782108614
:104CB00000EB10E001871287238634860E941612CB
:104CC00000D0EDB7FEB73196ADB7BEB711967C9266
:104CD00071827282138214821582BB24B394B682CD
:104CE000B8E7EB2EF12CE782F086018712872BE2E2
:104CF00031E22387348780916C2A90916D2A8587D1
:104D000096870E941612EDB7FEB73196ADB7BEB7C3
:104D100011967C9271827282138214821582B682FD
:104D2000A6EECA2ED12CC782D086018712872BE32C
:104D300031E2238734878091302B9091312B858706
:104D400096870E941612EDB7FEB73196ADB7BEB783
:104D500011967C9271827282138214821582B682BD
:104D6000E782F08600EC10E0018712872AE431E246
:104D7000238734878091F02A9091F12A858796873E
:104D80000E9416122091322B3091332B00D0EDB7B8
:104D9000FEB73196ADB7BEB711967C927182728222
:104DA000138214821582B682C782D0860187128749
:104DB0008AE591E283879487C90168EE73E00E94D7
:104DC0004C2765877687C90168EE73E00E944C27FF
:104DD00064E670E00E944C276787708B0E94161271
:104DE0000F900F90EDB7FEB73196ADB7BEB71196E5
:104DF0007C9271827282138214821582B68288EC50
:104E000090E08783908780ED90E0818792872DE600
:104E100031E2238734878091F22A9091F32A8587A3
:104E200096870E9416128DB79EB70F968DBF9EBFB4
:104E3000DECB629FD001739FF001829FE00DF11DD8
:104E4000649FE00DF11D929FF00D839FF00D749F04
:104E5000F00D659FF00D9927729FB00DE11DF91FB0
:104E6000639FB00DE11DF91FBD01CF01112408950D
:104E7000AA1BBB1B51E107C0AA1FBB1FA617B70780
:104E800010F0A61BB70B881F991F5A95A9F780959C
:104E90009095BC01CD01089597FB092E07260AD0F5
:104EA00077FD04D0E5DF06D000201AF470956195F7
:104EB0007F4F0895F6F7909581959F4F0895A1E251
:104EC0001A2EAA1BBB1BFD010DC0AA1FBB1FEE1F84
:104ED000FF1FA217B307E407F50720F0A21BB30BCF
:104EE000E40BF50B661F771F881F991F1A9469F74B
:104EF00060957095809590959B01AC01BD01CF01A7
:104F0000089597FB092E05260ED057FD04D0D7DF54
:104F10000AD0001C38F450954095309521953F4FAC
:104F20004F4F5F4F0895F6F7909580957095619576
:104F30007F4F8F4F9F4F0895FB01DC0105900D922D
:104F40000020E1F70895DC0101C06D93415050400D
:104F5000E0F70895FB01DC0101900D920020E1F7DC
:104F60000895E0ECF1E0A785A7FDFDCFA485A8603A
:104F7000A4876050704F0C94BD27FB01DC0102C078
:104F800001900D9241505040D8F70895F894FFCF0A
:104F900025647625640065646974002564003C3DE1
:104FA00000553A202564206D56202000533A2025D4
:104FB00064206D41202000493A202564206D412065
:104FC0002000503A202564202520202000537570B1
:104FD000706C7900756E646572766F6C746167656C
:104FE00000537570706C7920253032642E25303175
:104FF000645620202000256400253032642E2530A0
:105000003264205620200025642E25303264204151
:1050100020200025303364206D4168200025303188
:10502000642E2530326420416820200025643A2512
:105030003032643A253032642020006D56006D41D4
:10504000680025303464202000253033642E25305C
:105050003264202000436861726765202000467535
:105060006C6C2020202020005761697420202020B3
:1050700020003F3F3F3F202020004261742E4572B8
:10508000722020004D6178204361706163697479FA
:1050900020636861726765642020004D6178207428
:1050A000696D6520636861726765642020005761DF
:1050B000616172676821212120200053657470208E
:1050C00025303464206D412020200054656D70200F
:1050D0002530326420432020200053657470202541
:1050E000303464206D5620202000537570702025C8
:1050F0003032642E25303164562020200050574D28
:1051000020253034642020200001000001FF00FF32
:1051100000FF000064001027FFFF010000B80B68CB
:10512000100A00050000B80B6810640005000000BC
:105130000010276400020000010070170100030046
:1051400000B80B68100A00050000B80B6810640076
:10515000050000AC0D68100A00050000B80B6810CF
:105160006400050000D007740E0A00050000B80BAB
:1051700068106400050000D00704100A0005000054
:10518000B80B68106400050000B80B68100A000531
:105190000000010010270A00040000401F204EF408
:1051A00001050A0F00000000010000130F000000BD
:1051B000000900001B0F000082210000002C0F00DE
:1051C000008B210000003D0F0000942100000051E1
:1051D0000F00009D210000005E0F0000A6210000CE
:1051E00000670F000000000F00006D0F391600006F
:1051F0000000007E0F32190000000100860F7119B7
:105200000000000100920F5C1900000001009E0FD9
:1052100047190000000100AA0FEB18000000010070
:10522000B40F00000000010100B40F0000000007EF
:105230000700BB0F00000000150700C80F000000AA
:10524000002A0700CC0F00000922000700D70F3A00
:10525000160000000700E50F3E160000000700B42E
:105260000F00000000101000F30F000000001C10E1
:10527000000310000000001F10000F1000000000CD
:105280002210007E0F00000000251000AA0F000071
:105290000000281000171000000000011000B40FDB
:1052A0000000000016160026100000AF21001600B6
:1052B0003D0F0000B821001600B40F0000000017D9
:1052C000170033100000C1210017003D0F0000CA75
:1052D00021001700B40F0000000018180041100052
:1052E00000D3210018003D0F0000DC21001800B49D
:1052F0000F000000001919004F100000E5210019EF
:10530000003D0F0000EE21001900B40F0000000066
:105310001A1A005F100000F721001A00B40F0000F5
:1053200000001111007110000000220011000000A7
:10533000000000000000000000006300000000000A
:0A5340000000007D000000000000E6
:00000001FF
