:100000000C9458080C94A61E0C9479080C9479084A
:100010000C9479080C9479080C9479080C9479085C
:100020000C9479080C9479080C9479080C9479084C
:100030000C9479080C9479080C9479080C9479083C
:100040000C9479080C9479080C9479080C9479082C
:100050000C9479080C9479080C942B0B0C94790867
:100060000C9479080C9479080C9479080C9479080C
:100070000C9479080C9479080C9479080C947908FC
:100080000C9479080C9479080C9479080C947908EC
:100090000C9479080C9479080C9479080C947908DC
:1000A0000C9479080C9479080C9479080C947908CC
:1000B0000C9479080C9479080C9479080C947908BC
:1000C0000C9479080C9479080C9479080C947908AC
:1000D0000C9479080C9479080C9479080C9479089C
:1000E0000C9479080C9479080C940D200C947908E0
:1000F0000C9479080C9479080C9479080C9479087C
:100100000C9479080C9479080C9479080C9479086B
:100110000C9479080C9479080C9479080C9479085B
:100120000C9479080C9479080C9479080C9479084B
:100130000C9479080C9479080C9479080C9479083B
:100140000C9479080C9479080C9479080C9479082B
:100150000C9479080C9479080C9479080C9479081B
:100160000C9479080C9479080C9479080C9479080B
:100170000C9479080C94790801000000000000003C
:10018000000000000000000000000000000000006F
:1001900000000000000000000000000001038000DB
:1001A000800080008000800080008000800080004F
:1001B000800000008000000000000000000000003F
:1001C00004039000900090009000000000000000E8
:1001D000000000000000000000000000000000001F
:1001E0000000000009031100110011002200FF802F
:1001F000220022002200FF8044004400440000004E
:100200000000000000000000070210003C00520047
:1002100092009000900070001C00120012009200EA
:100220005400380010000000000000000C03708033
:10023000890089008A008A00720004E00510091014
:100240000910111010E00000000000000000000084
:100250000A03300048008400840028003000484031
:100260008480850084004900308000000000000088
:10027000000000000103800080008000800000007A
:10028000000000000000000000000000000000006E
:1002900000000000000000000303200040004000B8
:1002A000400080008000800080008000800080008E
:1002B00040004000400020000000000003038000D8
:1002C00040004000400020002000200020002000CE
:1002D000200020004000400040008000000000009E
:1002E00005032000F800200050005000000000002E
:1002F00000000000000000000000000000000000FE
:10030000000000000706100010001000FE001000A2
:1003100010001000000000000000000000000000BD
:100320000000000000000000010E8000800080003E
:1003300000000000000000000000000000000000BD
:10034000000000000000000000000000040BF000AE
:10035000000000000000000000000000000000009D
:10036000000000000000000000000000000000008D
:10037000010E8000000000000000000000000000EE
:10038000000000000000000000000000000000006D
:1003900000000000040310001000200020002000D6
:1003A000200040004000400040008000800000002D
:1003B0000000000000000000070338004400820035
:1003C000820082008200820082008200820044005B
:1003D00038000000000000000000000004031000CE
:1003E00030005000900010001000100010001000AD
:1003F00010001000100000000000000000000000CD
:1004000007033C00440082000200020004000400D4
:100410000800100020004000FE0000000000000066
:1004200000000000070338004400840004000C00B2
:1004300038000400020002008200C40038000000FE
:1004400000000000000000000803020006000A008F
:1004500012001200220042008200FF00020002008F
:1004600002000000000000000000000007037E0002
:10047000400040008000F8008400020002000200FA
:10048000820044003800000000000000000000006E
:1004900007033800440082008000B800C4008200D6
:1004A000820082008200440038000000000000004A
:1004B000000000000703FE0004000400080008001C
:1004C000100010001000100020002000200000008C
:1004D0000000000000000000070338004400820014
:1004E0008200440038004400820082008200440000
:1004F0003800000000000000000000000703380082
:100500004400820082008200820046003A0002001D
:1005100082004400380000000000000000000000DD
:100520000106800000000000000000000000000044
:10053000000080000000000000000000000000003B
:100540000000000001068000000000000000000024
:10055000000000000000800080008000000000001B
:100560000000000000000000070602001C00600000
:10057000800060001C00020000000000000000007D
:100580000000000000000000000000000707FE005F
:10059000000000000000FE0000000000000000005D
:1005A000000000000000000000000000000000004B
:1005B0000706800070000C0002000C007000800034
:1005C000000000000000000000000000000000002B
:1005D000000000000703380044008200820002008F
:1005E00004000800100010001000000010000000BF
:1005F00000000000000000000F0307E018182004AE
:1006000043A444628822902290429042904488C839
:1006100047702002180C07F00000000009030800D2
:100620001400140014002200220022007F00410068
:100630004100808080800000000000000000000079
:100640000903FF008100808080808100FE0081001E
:100650008080808080808100FE000000000000001B
:10066000000000000A031F0020804040800080003E
:100670008000800080008000404020801F0000003B
:1006800000000000000000000A03FE0081008080DE
:100690008040804080408040804080408080810059
:1006A000FE00000000000000000000000903FF80C1
:1006B0008000800080008000FF00800080008000BB
:1006C00080008000FF8000000000000000000000AB
:1006D0000803FF0080008000800080008000FE0092
:1006E000800080008000800080000000000000008A
:1006F000000000000A031E002100408080008000EE
:10070000800087C080408040408021001E000000A3
:1007100000000000000000000903808080808080CD
:1007200080808080FF80808080808080808080804A
:100730008080000000000000000000000103800035
:1007400080008000800080008000800080008000A9
:100750008000800080000000000000000000000019
:100760000603040004000400040004000400040064
:100770000400840084008400780000000000000071
:10078000000000000903808081008200840088004E
:100790009800A800C40082008200810080800000D0
:1007A00000000000000000000703800080008000BF
:1007B0008000800080008000800080008000800039
:1007C000FE00000000000000000000000B0380207D
:1007D000C060C060A0A0A0A0912091208A208A20A3
:1007E0008A20842084200000000000000000000017
:1007F00009038080C080A080A0809080888088804D
:1008000084808280828081808080000000000000DF
:10081000000000000A031E0021004080804080404C
:100820008040804080408040408021001E000000C9
:1008300000000000000000000903FE00810080802D
:10084000808080808100FE00800080008000800029
:100850008000000000000000000000000A031E00ED
:100860002100408080408040804080408040804027
:1008700046C021801EC000000000000000000000F3
:100880000903FE0081008080808080808100FE005E
:10089000840082008200810080800000000000004F
:1008A0000000000009033E004100808080004000FD
:1008B0003800070000800080808041003E0000007A
:1008C00000000000000000000903FF80080008008D
:1008D00008000800080008000800080008000800D8
:1008E00008000000000000000000000009038080F4
:1008F00080808080808080808080808080808080F8
:10090000808041003E000000000000000000000068
:1009100009038080808041004100410022002200C4
:10092000220014001400080008000000000000006D
:10093000000000000F03810282824284428444440A
:100940004444244828282828282810101010000083
:1009500000000000000000000B0340402080110058
:1009600011000A0004000A0011001100208040401C
:1009700080200000000000000000000009038080CB
:100980004100410022001400140008000800080083
:10099000080008000800000000000000000000003F
:1009A00009037F8001000200020004000800080023
:1009B0001000200020004000FF8000000000000028
:1009C000000000000303E000800080008000800041
:1009D0008000800080008000800080008000800017
:1009E0008000E00000000000040380008000400060
:1009F00040004000400020002000200020001000A7
:100A00001000000000000000000000000303E000F0
:100A100020002000200020002000200020002000D6
:100A200020002000200020002000E0000000000046
:100A30000703100028002800440044008200000042
:100A400000000000000000000000000000000000A6
:100A5000000000000911FF800000000000000000FD
:100A60000000000000000000000000000000000086
:100A700000000000000000000203800040000000B1
:100A80000000000000000000000000000000000066
:100A900000000000000000000000000007063C000D
:100AA000420082000E0072008200820086007A00FE
:100AB0000000000000000000000000000000000036
:100AC0000703800080008000B800C400820082001C
:100AD000820082008200C400B80000000000000014
:100AE00000000000060638004400800080008000FE
:100AF000800080004400380000000000000000007A
:100B000000000000000000000703020002000200D5
:100B10003A00460082008200820082008200460085
:100B20003A00000000000000000000000706380046
:100B3000440082008200FE008000820044003800F1
:100B400000000000000000000000000000000000A5
:100B50000403300040004000F0004000400040002E
:100B60004000400040004000400000000000000045
:100B70000000000007063A00460082008200820062
:100B80008200820046003A000200840078000000E3
:100B900000000000000000000603800080008000CC
:100BA000B800C400840084008400840084008400B1
:100BB000840000000000000000000000010380002D
:100BC0000000000080008000800080008000800025
:100BD0008000800080000000000000000000000095
:100BE000030320000000000020002000200020005F
:100BF0002000200020002000200020002000C00055
:100C00000000000007038000800080008200840054
:100C100088009000B000C8008800840082000000B6
:100C20000000000000000000010380008000800040
:100C300080008000800080008000800080008000B4
:100C40008000000000000000000000000B06B9C09A
:100C5000C620842084208420842084208420842032
:100C60000000000000000000000000000000000084
:100C70000606B800C4008400840084008400840058
:100C8000840084000000000000000000000000005C
:100C90000000000007063800440082008200820045
:100CA00082008200440038000000000000000000C4
:100CB00000000000000000000706B800C400820029
:100CC0008200820082008200C400B80080008000A0
:100CD00080000000000000000000000007063A004D
:100CE00046008200820082008200820046003A00B4
:100CF00002000200020000000000000000000000EE
:100D00000406B000C00080008000800080008000E9
:100D100080008000000000000000000000000000D3
:100D20000000000006067800840080008000780043
:100D300004000400840078000000000000000000AF
:100D40000000000000000000040440004000F0002B
:100D50004000400040004000400040004000700063
:100D600000000000000000000000000006068400F3
:100D70008400840084008400840084008C0074005B
:100D80000000000000000000000000000000000063
:100D90000706820082004400440028002800280042
:100DA0001000100000000000000000000000000023
:100DB000000000000B06842084204A404A40514035
:100DC00051405140208020800000000000000000C1
:100DD0000000000000000000070682004400280018
:100DE00028001000280028004400820000000000B5
:100DF0000000000000000000000000000706820064
:100E000082008400440044002800280028001000CC
:100E10001000100060000000000000000000000052
:100E20000706FE0004000800080010002000200053
:100E30004000FE0000000000000000000000000074
:100E40000000000005031800200020002000200002
:100E500020002000C00020002000200020002000F2
:100E600020001800000000000103800080008000C6
:100E70008000800080008000800080008000800072
:100E80008000800080008000000000000503C0009A
:100E9000200020002000200020002000180020005A
:100EA00020002000200020002000C00000000000E2
:100EB0000808718E00000000000000000000000023
:100EC0000000000000000000000000000000000022
:100ED000000000000805FF00810081008100810002
:100EE0008100810081008100FF00000000000000FF
:100EF0000000000000000000506F776572656420FC
:100F0000627900464142004F530052656164792E78
:100F10002E2E00507265736574730043757272658E
:100F20006E7420536574706F696E74205B6D415DE3
:100F30000043656C6C20566F6C7461676520534587
:100F400054205B6D565D0042616C2E2041637469D4
:100F5000762E20566F6C74616765205B6D565D0060
:100F60004D6178204361706163697479205B6D41E4
:100F7000685D004D61782054696D65205B6D696E18
:100F80005D0053657475700053686F77204C617312
:100F9000742056616C7565730053746F7261676578
:100FA00000436861726765204C69506F0043686157
:100FB000726765204C69496F0043686172676520FC
:100FC0004C6946650044697363686172676500280F
:100FD0006261636B29005072657365742053657498
:100FE00075700050776D004D696E20537570706C90
:100FF000790043616C6962726174696F6E204800A8
:1010000043616C6962726174696F6E204C004C6957
:10101000746869756D20506F6C796D6572004C69EC
:10102000746869756D20496F6E004C694665506F34
:101030003400286261636B20746F204D61696E29F2
:10104000004C69506F20566F6C7461676500426197
:101050006C2E2041637469762E20566F6C74616724
:1010600065004C69496F6E20566F6C74616765004E
:101070004C694665506F3420566F6C742E00537463
:101080006F7261676520566F6C74616765004469B3
:101090007363686172676520566F6C746167650081
:1010A000526566726573682D706572696F640000C1
:1010B00011241FBECFEFDFE2DEBFCDBF18BE19BEC9
:1010C0001ABE1BBE13E2A0E0B0E2E8EEFDE402C0EF
:1010D00005900D92A23DB107D9F71BE2A2EDB3E254
:1010E00001C01D92AA38B107E1F70E942D1F0C9490
:1010F000F2260C940000CF92DF92EF92FF920F93B2
:101100001F93DF93CF9300D0CDB7DEB76C018B0177
:101110007A0119821A82F8940E94DD260E0D1F1D95
:10112000CE010196B80142E050E00E94DD26C601E2
:101130006E2D0E946D18789440E029813A818217C3
:10114000930709F041E0842F0F900F90CF91DF912A
:101150001F910F91FF90EF90DF90CF90089540E0A6
:1011600050E061E070E0FA01EE0FFF1FE40FF51FA1
:10117000E150FC4D848D958D892BA9F0848D958D42
:101180000197848F958F848D958D892B61F42091A3
:101190001124838DFB0102C0EE0FFF1F8A95E2F739
:1011A0002E2B209311244F5F5F4F46305105D9F607
:1011B00008950F931F938C01A62FBA01A90180E017
:1011C00090E02A2F265505C0FB01E80FF91F208368
:1011D000019684179507C0F3B0E0FD01EE0FFF1FE5
:1011E000E150FC4D65A776A7CA018397FB01E80F84
:1011F000F91F02C01192019684179507D8F3209128
:10120000112481E090E00A2E02C0880F991F0A94F1
:10121000E2F7282B2093112441505040640F751F92
:10122000AA0FBB1FA150BC4D53966D937C9354974E
:101230005396ED91FC915497319710835396ED910D
:10124000FC915497008353968D919C91549783976A
:1012500053968D939C9354971F910F91089590E00E
:10126000FC01EE0FFF1FE150FC4DA5A5B6A520E047
:1012700030E0AC0146555F4F73968C9190E0841737
:10128000950741F411962F5F3F4F808191818A1716
:101290009B0798F7C9010895863020F087E00E94E7
:1012A0008D1E0895F89490E0FC01EE0FFF1FE80FEB
:1012B000F91FE150FC4D648F758F789408958091EB
:1012C000112480FF02C080E00BC0869580FF02C021
:1012D00081E006C0869580FD02C023E002C082E066
:1012E000282FA22FB0E0A150BC4D1D968C911D97C8
:1012F0008F3FF1F01D96EC911D97F0E0E150FC4D11
:1013000082858F3FA9F01D96EC91F0E0E150FC4DF5
:1013100022858091112490E0022E02C09595879538
:101320000A94E2F780FD04C08DE40E948D1E23E044
:10133000822F0895F8940F921F922F923F924F920E
:101340005F926F927F928F929F92AF92BF92CF9255
:10135000DF92EF92FF920F931F932F933F934F9340
:101360005F936F937F938F939F93AF93BF93CF932D
:10137000DF93EF93FF930FB60F921124E0911024A7
:10138000F0E08DB79EB70FEF13E2EE0FFF1FE00FF7
:10139000F11F838B948B0E945F09809310248091AE
:1013A000102490E0880F991F080F191FF8018389F6
:1013B00094898DBF9EBF0F900FBEFF91EF91DF917B
:1013C000CF91BF91AF919F918F917F916F915F91DD
:1013D0004F913F912F911F910F91FF90EF90DF90D0
:1013E000CF90BF90AF909F908F907F906F905F90C5
:1013F0004F903F902F901F900F90789408950F93E7
:101400001F93182F062F862FBA010E944C09F894BB
:10141000E0911024F0E0E150FC4D84818123F1F44F
:10142000E0911024F0E0E150FC4D1783309111243D
:101430002091102481E090E002C0880F991F2A9526
:10144000E2F780958323809311240E949A09F894EF
:10145000E0911024F0E0E150FC4D1782E09110245F
:10146000F0E0E150FC4D24812123E0911024F0E0D4
:10147000E150FC4D8481109581238483222361F007
:10148000802F90E0FC01EE0FFF1FE80FF91FE150E5
:10149000FC4D148E158E01C000007894822F1F9190
:1014A0000F910895F894482F50E0FA01E150FC4D57
:1014B0008481862B84838781862379F0209111246F
:1014C00081E090E002C0880F991F4A95E2F7282B2F
:1014D000209311240E949A090895789408958FEF1B
:1014E00080930C2480930D2480930E2480930F24EA
:1014F0008093092480930A2480930B24EDB7FEB7D0
:101500008AE89BE280933224909333242DEA01C031
:10151000229380913224909133248E179F07C0F339
:101520001092FF23109200241092012410920224A2
:1015300083E080931024789478940E949A09089507
:10154000E82F863010F087E015C08091102483309A
:1015500011F484E00FC02E2F30E0F901EE0FFF1FD1
:10156000E20FF31FE150FC4D938D809110249817EA
:1015700021F089E00E948D1E0895F894F901EE0F84
:10158000FF1FE20FF31FE150FC4D848D958D892BD9
:1015900029F488E00E948D1E7894089530911124DA
:1015A0002091102481E090E002C0880F991F2A95B5
:1015B000E2F780958323809311240E949A0908956D
:1015C000833024F086E00E948D1E0895F894E82F61
:1015D000FF27E7FDF095E150FC4D8FEF82870E94D9
:1015E0009A090895EF92FF920F931F93CF93DF9381
:1015F000182F833024F085E00E948D1E25C0F894BA
:10160000C82FDD27C7FDD095C150DC4D0AE0E02E84
:10161000F12CEC0EFD1E0FEF0FC0E0911024F0E056
:10162000E150FC4D15870E949A09F894E09110242E
:10163000F0E0E150FC4D0587F70180818F3F69F7AD
:10164000809110248A877894DF91CF911F910F9118
:10165000FF90EF9008950F921F922F923F924F921A
:101660005F926F927F928F929F92AF92BF92CF9232
:10167000DF92EF92FF920F931F932F933F934F931D
:101680005F936F937F938F939F93AF93BF93CF930A
:10169000DF93EF93FF930FB60F921124E091102484
:1016A000F0E08DB79EB70FEF13E2EE0FFF1FE00FD4
:1016B000F11F838B948B0E94881EF8018081918199
:1016C000A281B3810196A11DB11D80839183A28364
:1016D000B3830E94AF080E945F0980931024809119
:1016E000102490E0880F991F080F191FF8018389B3
:1016F00094898DBF9EBF0F900FBEFF91EF91DF9138
:10170000CF91BF91AF919F918F917F916F915F9199
:101710004F913F912F911F910F91FF90EF90DF908C
:10172000CF90BF90AF909F908F907F906F905F9081
:101730004F903F902F901F900F90189522E020938C
:1017400026068AE28093040681E0809366068093F1
:101750006506209325061092040680936606809302
:1017600065062093250610920406809366068093F2
:101770006506209325068093040680936606809371
:101780006506209325069FE39093040680936606E2
:1017900080936506209326069BE29093040680932F
:1017A00066068093650620932506109204068093B2
:1017B00066068093650620932506109204068093A2
:1017C0006606809365062093250610920406809392
:1017D000660680936506209325069FEE9093040687
:1017E0008093660680936506209326069CE290937C
:1017F0000406809366068093650620932506109262
:1018000004068091D2238130B9F490E021E012C027
:10181000209366062093650620936606209365064E
:1018200020936606209365068F5F803A89F79F5F55
:10183000903F39F180E0ECCF823019F520E081E073
:101840001EC080936606809365068093660680932B
:10185000650680936606809365068093660680938E
:10186000650680936606809365068093660680937E
:1018700065069F5F903A29F72F5F203F11F090E0B7
:10188000E0CF0895BF92CF92DF92EF92FF920F9335
:101890001F93DF93CF93CDB7DEB72697CDBFDEBFC3
:1018A000B82E2B833C830D831E837091D22371301D
:1018B00021F0B0E0A0E050E012C0862F8F70BB2D69
:1018C000B295B07FB82BA42FA295A07F8B2D8F70DF
:1018D000A82B842F8F70562F5295507F582B32E0B3
:1018E000309326068AE28093040621E02093660660
:1018F000209365068C8130932506809304062093FF
:101900006606209365068B81309325068093040636
:1019100020936606209365068B819C8101978E0D2E
:101920009F1D89839A83FE0131968181309325061C
:101930008093040620936606209365068981309380
:10194000250680930406209366062093650630934F
:1019500026068BE280930406209366062093650694
:101960008E8130932506809304062093660620938B
:1019700065068D81309325068093040620936606C4
:10198000209365068D819E8101978C0D9D1D898315
:101990009A838181309325068093040620936606FE
:1019A0002093650689813093250680930406209351
:1019B000660620936506309326068CE28093040623
:1019C0002093660620936506713081F5CE9CB001A8
:1019D000CF9C700DDE9C700D112480E020E030E083
:1019E00042E091E01FC0882351F0409325065093B8
:1019F0000406909366069093650680E011C04093BC
:101A00002506B0930406909366069093650640936E
:101A10002506A0930406909366069093650681E0E0
:101A20002F5F3F4F26173707F0F22AC0723041F57B
:101A3000CE9CF001CF9CF00DDE9CF00D112480E0D7
:101A400090E032E021E019C030932506B092040600
:101A5000209366062093650630932506609304065E
:101A6000209366062093650630932506409304066E
:101A7000209366062093650601968E179F0720F334
:101A80002696CDBFDEBFCF91DF911F910F91FF90C2
:101A9000EF90DF90CF90BF9008952F923F924F929A
:101AA0005F926F927F928F929F92AF92BF92CF92EE
:101AB000DF92EF92FF920F931F93DF93CF93CDB7F7
:101AC000DEB72A97CDBFDEBFE82F68874987622E31
:101AD000702E2E2CDC2CAA868B829C828052803623
:101AE00010F000008CC2AE2EBB2484E290E0A89ED1
:101AF000F001A99EF00DB89EF00D1124E850F340BE
:101B000024912D833196149172E0709326068AE217
:101B10008093040661E060936606609365068C819D
:101B200070932506809304066093660660936506AD
:101B30008B817093250680930406609366066093FC
:101B400065063A85A32FB0E0822F90E002968A9F27
:101B500070018B9FF00C9A9FF00C11248B819C815B
:101B600001978E0D9F1D89839A83FE013196818195
:101B7000709325068093040660936606609365065D
:101B800089817093250680930406609366066093AE
:101B90006506709326068BE28093040660936606C2
:101BA0006093650688A17093250680930406609370
:101BB0006606609365068F8D7093250680930406F4
:101BC00060936606609365062F8D38A121503040E2
:101BD000CD01880F991FAC0103E0440F551F0A95F2
:101BE000E1F7840F951F280F391F29833A838181DC
:101BF00070932506809304066093660660936506DD
:101C0000898170932506809304066093660660932D
:101C10006506709326068CE2809304066093660640
:101C2000609365068091D223813009F00DC18985CA
:101C30008F703884329430EF3322382A8FE0682254
:101C40004984429420EF42224628872D8F70729457
:101C500090EF7922782A9C2D9295907F592E582AC0
:101C6000EFE0DE22C22CC29480EFC822CD28688427
:101C70006E22692AE12FF0E0EA9F4001EB9F900C71
:101C8000FA9F900C112430E050E012E071E024C083
:101C9000552391F010932506509204067093660622
:101CA0007093650610932506C0920406709366062D
:101CB0007093650650E009C01093250670920406E3
:101CC000709366067093650651E02F5F822F90E057
:101CD0008E159F05ECF23F5F832F90E088159905E4
:101CE00014F420E0F3CFC501880F991F4C0113E0D5
:101CF000880C991C1A95E1F7880E991E21EC3DEF8E
:101D0000820E931ECD01880F991F8E839F83AA2474
:101D1000BB24A2E1EA2EF12CEE1AFF0A62E071E088
:101D200084C0242F30E0C90187709070892B19F48A
:101D3000FD011196A4908A2D90E020953095277092
:101D4000307002C0959587952A95E2F78170907062
:101D500020E034C00097A1F0552369F06093250678
:101D6000609204067093660670936506609325067C
:101D70004092040613C0609325063092040618C0F2
:101D8000552391F0609325065092040670936606E1
:101D90007093650660932506C092040670936606EC
:101DA0007093650650E009C06093250670920406A2
:101DB000709366067093650651E02F5FEA852E17D3
:101DC00048F24F5FFD814F1708F4ABCF20E01EC0F3
:101DD000552391F060932506509204067093660691
:101DE0007093650660932506C0920406709366069C
:101DF0007093650650E009C0609325067092040652
:101E0000709366067093650651E02F5F822F90E015
:101E1000EE81FF818E179F07DCF2D394FA85DF16DF
:101E200018F4D80140E0CECFB3948B2D90E08E15FE
:101E30009F050CF0E4C08C01080D191D000F111F47
:101E400008581E4FDD24EACF823009F0D8C0612F38
:101E500070E06A9FF0016B9FF00D7A9FF00D1124E6
:101E600030E052E041E01FC0509325067092040616
:101E7000409366064093650650932506209204061B
:101E8000409366064093650650932506D09204065B
:101E900040936606409365062F5F822F90E08E1573
:101EA0009F0514F33F5F832F90E08E179F0714F474
:101EB00020E0F3CFC501880F991F8C0143E0000F8C
:101EC000111F4A95E1F7080F191F0F5312402D01FA
:101ED000440C551CE0E0BB2422E1822E912C861A92
:101EE000970A92E0C92E41E07CC0252F30E0C9015D
:101EF00087709070892B21F4FB016F5F7F4FE49115
:101F00008E2F90E0209530952770307002C0959507
:101F100087952A95E2F78170907020E032C0009793
:101F2000B9F0C092250638853093040640936606C2
:101F300040936506C0922506F985F0930406409308
:101F4000660640936506C09225066092040614C09A
:101F5000C09225067092040640936606409365067B
:101F6000C0922506209204064093660640936506BB
:101F7000C0922506D09204064093660640936506FB
:101F80002F5F3A85231758F25F5F8D81581708F449
:101F9000ACCF20E019C0C092250670920406409391
:101FA000660640936506C09225062092040640937B
:101FB000660640936506C0922506D09204064093BB
:101FC0006606409365062F5F822F90E08415950585
:101FD00014F3F3949A85F91618F4BD0150E0D5CFA7
:101FE000B3948B2D90E0881599054CF4DC01A00F7B
:101FF000B11FAA0FBB1FA858BE4FFF24EBCF2A96D4
:10200000CDBFDEBFCF91DF911F910F91FF90EF9079
:10201000DF90CF90BF90AF909F908F907F906F9008
:102020005F904F903F902F9008952F923F924F9244
:102030005F926F927F928F929F92AF92BF92CF9258
:10204000DF92EF92FF920F931F93DF93CF93CDB761
:10205000DEB72897CDBFDEBF8D836E834F83288781
:10206000D02EFE2C1C2D2C2D30E02B833C83C9015F
:10207000880F991FFC0123E0EE0FFF1F2A95E1F75F
:10208000E80FF91FE983FA832501140104E2B02E59
:1020900046C04B9DF0011124E850F340E4916E2EB0
:1020A00077242B813C81629EC001639E900D729EBD
:1020B000900D1124840D951D2091D3233091D423AC
:1020C0002817390730F489819A81280E391E442453
:1020D0005524ED8DFE8D3196ED8FFE8F00D0EDB73E
:1020E000FEB721823282842F6D814E812F81088537
:1020F000ED2CCF2CA12E42010E944D0D22E030E0AC
:10210000620E731EEB81FC816E9EC0016F9E900D6E
:102110007E9E900D1124480E591E0F900F90ED8D4C
:10212000FE8D4081442309F0B4CF2896CDBFDEBF99
:10213000CF91DF911F910F91FF90EF90DF90CF90A3
:10214000BF90AF909F908F907F906F905F904F90D7
:102150003F902F9008958F929F92AF92BF92CF920F
:10216000EF92FF920F931F93DF93CF93CDB7DEB71C
:10217000A097CDBFDEBF8E010D5F1F4F8EE1F8012E
:1021800011928A95E9F7FE01FB9609831A837E0175
:102190000894E11CF11CC70166E67AE149AD5AAD2D
:1021A0009F010E946019C70160E00E94661A00D07A
:1021B000EDB7FEB7018312838EA56FA548A929A9A3
:1021C0000AA9EBA8CCA8ADA8BEA88FA898AC0E947D
:1021D00015100F900F90A096CDBFDEBFCF91DF916D
:1021E0001F910F91FF90EF90CF90BF90AF909F9075
:1021F0008F900895EF92FF920F931F93182F062F41
:102200008FEF8093000682E0E82EE09221068FE0B7
:1022100080936106FF24F394F092650684E0809336
:10222000660688E080936606E0922606E0926506E0
:102230008093650680E064EF71E00E944C0980E0C5
:102240000E94A00A1230A9F4109326068AE3809314
:102250000406F0926606F09265061093250687E064
:1022600080930406F0926606F09265061093D223DE
:102270007AC0113009F077C0E09226068AE3809395
:1022800004061093660610936506E092250683E027
:102290008093040610936606109365061093D2236C
:1022A000E09226068DE28093040610936606109352
:1022B000650690E080E032E021E0309325068093CF
:1022C000040620936606209365069F5F805F903129
:1022D000A1F780E022E091E0209325061092040609
:1022E00090936606909365068F5F8033A9F790E020
:1022F00080E032E021E030932506809304062093AD
:102300006606209365069F5F805F9031A1F780E0AD
:1023100022E091E020932506109204069093660631
:10232000909365068F5F8033A9F790E080E032E0FC
:1023300021E03093250680930406209366062093BF
:1023400065069F5F805F9031A1F780E022E091E019
:1023500020932506109204069093660690936506D6
:102360008F5F8033A9F7023001F1033020F4013090
:1023700009F066C006C0033031F1043009F060C0D6
:102380003FC092E09093260686E380930406009374
:102390006606009365069093250680E78093040601
:1023A000009366060093650622C00093260686E326
:1023B0008093040691E090936606909365060093DF
:1023C000250680ED2BC022E02093260686E380932D
:1023D000040691E090936606909365062093250687
:1023E00080EA80930406909366069093650680E4E5
:1023F00091E08093D3239093D42380EF90E01CC08E
:1024000022E02093260686E38093040691E09093D1
:102410006606909365062093250680E18093040666
:10242000909366069093650680EF90E08093D323A7
:102430009093D42380E491E08093D5239093D62386
:1024400022E02093260681E18093040691E0909398
:102450006606909365062093260688E3809304061B
:1024600090936606909365062093260683E18093F9
:10247000040690936606909365062093260689E2EB
:1024800080930406909366069093650684E080939B
:102490002106809325060E949E0B1F910F91FF90AD
:1024A000EF900895CF93DF93DC01EB0180919021B1
:1024B00090E0FC0173E0EE0FFF1F7A95E1F7E80F63
:1024C000F91FE75DFD4D5781252F2F5F40E030E07C
:1024D00014C0822F90E0FC0163E0EE0FFF1F6A95AD
:1024E000E1F7E80FF91FE75DFD4D8781851721F4BE
:1024F000442309F4422F3F5F2F5F2C3250F33C936B
:102500004883DF91CF910895FC01DB01E081E93040
:10251000B0F0409190215C91242F30E0251B3109CF
:102520008E2F90E004972817390724F0E850E50F24
:10253000EC9308952430310514F044504C930895E1
:1025400081E0809392210895DF93CF9300D0CDB79F
:10255000DEB7CE010196BE016E5F7F4F0E94521220
:102560006981862F90E070E041E050E021E030E0AA
:102570000E94D41A0F900F90CF91DF9108950F937E
:102580001F93DF93CF9300D0CDB7DEB719821A82A5
:1025900082E00E94F20A8091902190E0FC01B3E079
:1025A000EE0FFF1FBA95E1F7E80FF91FE75DFD4D4C
:1025B00086818823D9F080939021CE010196BE01B7
:1025C0006E5F7F4F0E94521269812A81862F90E0B0
:1025D000820F911D20919021821B910970E041E0B2
:1025E00050E021E030E00E94D41A6FC004811581D0
:1025F00001151105D1F180919321882329F50E94BD
:10260000661BF801808391830E94C417CE01019656
:10261000BE016E5F7F4F0E94521269812A81862F10
:1026200090E0820F911D20919021821B910970E012
:1026300041E050E021E030E00E94D41A81E0809334
:1026400093218093922141C0F80164817581428178
:10265000538126813781808191810E94D41A109202
:10266000932181E08093912130C082819381892BD5
:1026700061F1CE010196BE016E5F7F4F0E94521242
:1026800069812A81862F90E0820F911D20919021EF
:10269000821B910970E041E050E021E030E00E94AF
:1026A000D41A81E0809392218091902190E0FC01E6
:1026B000A3E0EE0FFF1FAA95E1F7E80FF91FE75D12
:1026C000FD4D0280F381E02D099582E00E94E00A31
:1026D0000F900F90CF91DF911F910F9108958F92DE
:1026E0009F92AF92BF92CF92DF92EF92FF920F93A1
:1026F0001F93DF93CF93CDB7DEB76A97CDBFDEBF11
:1027000019821A82F894D090902178948091932124
:102710008823B1F0CE010196BE016E5F7F4F0E940B
:1027200052120E94661B8093342490933524D980E2
:102730009A81D90ED81AF894D092902178944CC0EE
:102740000E94661BBC0180939421909395218091F7
:102750009621909197216817790721F48091912112
:102760008823D1F110929121609396217093972143
:102770008D2D90E07C0153E0EE0CFF1C5A95E1F7A3
:10278000E80EF91E49E252E2E40EF51ED701189652
:102790008C91189783702D913C911197813031F471
:1027A0001496ED91FC911597C90111C08E010D5F32
:1027B0001F4FC801B9010E94C826609196217091EF
:1027C0009721D7011496ED91FC911597C80140858A
:1027D0002091D7230E9422158091D8238D1529F4AA
:1027E00080919221882309F4C9C0D092D823CE01C8
:1027F0000196BE016E5F7F4F0E945212F980B8E0D1
:10280000BF1510F448E0F42E8D2D90E0FC0133E06C
:10281000EE0FFF1F3A95E1F7E80FF91FE75DFD4D59
:10282000978180919821891721F4809192218823A2
:1028300009F190939821892F90E0FC0123E0EE0F9D
:10284000FF1F2A95E1F7E80FF91FE75DFD4D808531
:10285000837060817181813011F4CB0107C08E01DA
:102860000D5F1F4FC8010E94C826C8010E940017B3
:102870000E940515109292218A81ED2DE81B8E2F62
:102880008F5F69810E94D714CE010196BE016E5FF1
:102890007F4F0E948412CA8010E08F2C992483E01D
:1028A000A82EB12CAC0EBD1E5FC0C90103E0880F7D
:1028B000991F0A95E1F7CD1461F51093D7237C0198
:1028C000E20EF31E49E252E2E40EF51ED70118961D
:1028D0008C91189783706D917C911197813041F4A0
:1028E0001496ED91FC91159740815181CB010BC05D
:1028F000C5010E94C826D7011496ED91FC91159749
:1029000040815181C501BF012085012F0E94A91579
:1029100029C07C01E20EF31EE9E2F2E2EE0EFF1E98
:10292000D70118968C91189783706D917C911197AF
:10293000813041F41496ED91FC91159740815181BD
:10294000CB010BC0C5010E94C826D7011496ED919A
:10295000FC91159740815181C501BF012085012F50
:102960000E943D161F5FC3942C2D30E08A81F40134
:10297000E80FF11D2E173F070CF497CF6A96CDBFD5
:10298000DEBFCF91DF911F910F91FF90EF90DF900D
:10299000CF90BF90AF909F908F900895089583E05F
:1029A0008093272A089582E08093272A08952DB7DF
:1029B0003EB7215130402DBF3EBFEDB7FEB7319637
:1029C0009FEFADB7BEB711969C939183928313820C
:1029D0001482158291E0968328E131E027833087C5
:1029E0002AE030E02187328720E030E223873487F5
:1029F000858716866787108A0E94AB102DB73EB771
:102A00002F5E3F4F2DBF3EBF0895CF92DF92EF92D2
:102A1000FF920F931F9380E060E040E024E130E0FC
:102A200008E210E05CE2E52E51E0F52E98ECC92EAC
:102A3000D12C0E94420C1F910F91FF90EF90DF90DC
:102A4000CF9008958F929F92AF92BF92CF92DF92D4
:102A5000EF92FF920F931F93CF93DF935C014B0193
:102A600084E1289FE0011124A89680E060E040E026
:102A700024E130E08E01ECE2EE2EE1E0FE2E74E186
:102A8000C72ED12C0E94420C8DB79EB70D978DBFDB
:102A90009EBFEDB7FEB731960FEFADB7BEB711963B
:102AA0000C931182128213821482158211E0168314
:102AB00084E190E087839087C187D287A386B4861C
:102AC0000E94AB10EDB7FEB73196ADB7BEB7119609
:102AD0000C9311821282138214821582168388E16C
:102AE00091E087839087C187D28786E090E28387D1
:102AF00094870E94AB1000D0EDB7FEB73196ADB70A
:102B0000BEB711960C931182128213821482158221
:102B1000168388EC90E087839087C187D2878BE00B
:102B200090E283879487858696860E94AB108DB746
:102B30009EB70F968DBF9EBFDF91CF911F910F91D2
:102B4000FF90EF90DF90CF90BF90AF909F908F90CD
:102B500008956F927F928F929F92AF92BF92CF9281
:102B6000DF92EF92FF920F931F93CF93DF935C015D
:102B70004B013A0184E1089FE0011124A89680E00E
:102B800060E040E028EC30E08E01A4E6EA2EF12C73
:102B9000F4E1CF2ED12C0E94420C8DB79EB70D9739
:102BA0008DBF9EBFEDB7FEB731961FEFADB7BEB775
:102BB00011961C931183128313821482158201E0F3
:102BC000068384E190E087839087C187D287A386BC
:102BD000B4860E94AB10EDB7FEB73196ADB7BEB765
:102BE00011961C931183128313821482158206831B
:102BF0008CE291E087839087C187D2878EE090E254
:102C0000838794870E94AB108DB79EB70D968DBFBA
:102C10009EBF892819F1ADB7BEB71F97ADBFBEBF24
:102C2000EDB7FEB7319611961C9311831283138270
:102C300014821582068388EC90E087839087C18791
:102C4000D2878BE090E283879487658676860E94A0
:102C5000AB108DB79EB70F968DBF9EBFDF91CF9102
:102C60001F910F91FF90EF90DF90CF90BF90AF90AA
:102C70009F908F907F906F9008956F927F928F9228
:102C80009F92AF92BF92CF92DF92EF92FF920F93FB
:102C90001F93CF93DF935C014B013A0184E1089FBE
:102CA000E0011124A89680E060E040E024E130E0FB
:102CB0008E019CE2E92E91E0F92EB4E1CB2ED12CCD
:102CC0000E94420C8DB79EB70D978DBF9EBFEDB78A
:102CD000FEB73196ADB7BEB711961C921FEF1183A8
:102CE000128213821482158201E0068384E190E04F
:102CF00087839087C187D287A386B4860E94AB1052
:102D00008DB79EB70D968DBF9EBF892819F1ADB7BF
:102D1000BEB71F97ADBFBEBFEDB7FEB731961196D8
:102D20001C9311831283138214821582068388EC0C
:102D300090E087839087C187D2878BE090E283877A
:102D40009487658676860E94AB108DB79EB70F96E6
:102D50008DBF9EBFDF91CF911F910F91FF90EF909C
:102D6000DF90CF90BF90AF909F908F907F906F90AB
:102D70000895DF93CF93CDB7DEB76097CDBFDEBFA9
:102D8000CE01019660E070E040E150E00E947B08D7
:102D9000882381F589819A818093C6219093C721E8
:102DA0008B819C818093CF219093D0218D819E81B6
:102DB0008093D8219093D9218F8198858093E121A8
:102DC0009093E22189859A858093EA219093EB2163
:102DD0008B859C858093F3219093F4218D859E852E
:102DE0008093FC219093FD218F8598898093052203
:102DF000909306226096CDBFDEBFCF91DF910895FC
:102E0000CF92DF92EF92FF920F931F93CF93DF93B6
:102E1000EC018091D923882329F40E94B91681E01E
:102E20008093D92380E060E040E020E030E000E0E3
:102E300010E070E4E72E71E0F72E58E2C52ED12C99
:102E40000E94420C8DB79EB70D978DBF9EBFEDB708
:102E5000FEB731968FEFADB7BEB711968C938183D5
:102E6000828313821482158282E086831782108601
:102E700011861286C387D4870E94AB108DB79EB788
:102E80000D968DBF9EBFDF91CF911F910F91FF9047
:102E9000EF90DF90CF900895DF93CF9300D0CDB720
:102EA000DEB719821A828091902190E0FC01A3E0A4
:102EB000EE0FFF1FAA95E1F7E80FF91FE75DFD4D43
:102EC000878180939021CE010196BE016E5F7F4F76
:102ED0000E94521269812A81862F90E0820F911DF3
:102EE00020919021821B910970E041E050E021E0A7
:102EF00030E00E94D41A0F900F90CF91DF91089587
:102F00000E944C17089581E00E94F20A8091992155
:102F100090919A218093862A9093872A8091A2216A
:102F20009091A32180938A2A90938B2A8091AB2140
:102F30009091AC218093902A9093912A8091B42112
:102F40009091B52180938C2A90938D2A8091BD21F8
:102F50009091BE2180938E2A90938F2A8091172280
:102F6000909118228093922A9093932A1092882A03
:102F700080912022909121228093942A9093952AE7
:102F800081E00E94E00A08950E94831708958091CD
:102F9000FC219091FD218093A2219093A321809107
:102FA0000522909106228093AB219093AC210E9440
:102FB0004C170E94831708958091EA219091EB218C
:102FC0008093A2219093A3218091F3219091F421E9
:102FD0008093AB219093AC210E944C170E948317E1
:102FE00008958091D8219091D9218093A221909326
:102FF000A3218091E1219091E2218093AB219093D4
:10300000AC210E944C170E94831708958091C6211D
:103010009091C7218093A2219093A3218091CF21E9
:103020009091D0218093AB219093AC210E944C17BA
:103030000E948317089598E090938506A1E8B6E072
:103040009C9385EE8093A60A8CEB8093A70A80E17F
:103050008093A30A83E08093A50A88E18093A40A61
:10306000E2EAF0E080818160808380EA80932C0135
:103070008AE080932D0110922E0184E0809320013C
:103080001092210180ED809322018CE8809323012E
:103090009C93E0E0F1E08081806880830895FC01EA
:1030A000818187FD18C0818186FD15C0CB016087B5
:1030B0007187AA2797FDA095BA2F8B2F9927AA274A
:1030C000BB278287842F90E08483958380818068EA
:1030D000808380E0089581E008950F931F93CF933C
:1030E000DF93EC012FEF3FEFA0E0B0E070E001E0F4
:1030F00010EA1AC0FE01EA0FFB1F8081E82FF0E002
:1031000040E050E0CF01822793273695279580FF36
:1031100002C0202731274F5F5F4F4830510519F01B
:10312000F695E795EFCF1196A617B7071CF3C901DF
:10313000DF91CF911F910F910895282F90E038E1F2
:10314000862F822780FD02C0669503C0632766959F
:1031500060689F5F983011F02695F2CF862F089512
:103160000F931F93CF93DF93062FEC0110E060E0E5
:1031700005C089910E949D18682F1F5F1017C8F322
:10318000862FDF91CF911F910F9108958F929F927B
:10319000AF92BF92CF92DF92EF92FF920F931F9365
:1031A000CF93DF935C017B014A016901C1E0D0E06C
:1031B00008C0CE018E9DE0018F9DD00D9E9DD00D4B
:1031C0001124C501BE010E9464266E157F0588F793
:1031D00000E010E02AC0C501BE010E9464269B01E8
:1031E000CE01B7010E946426FB010115110531F4DF
:1031F000121613061CF06115710589F42A30310589
:1032000014F480E306C08114910411F487E501C031
:1032100087E3820FD6018D936D010F5F1F4FC501AC
:10322000BE010E9464265C01EF012097A1F6F60121
:103230001082DF91CF911F910F91FF90EF90DF905F
:10324000CF90BF90AF909F908F900895BF92CF92F4
:10325000DF92EF92FF920F931F93CF93DF936C0156
:103260007B01E801222319F490E2B92E02C080E329
:10327000B82EFE0102C0415050408191882311F4C4
:103280008A010AC014161506B4F3FACFC6016B2DD5
:10329000F70109950150104010161106BCF303C048
:1032A000C601F701099569916623D1F7DF91CF91A6
:1032B0001F910F91FF90EF90DF90CF90BF900895F6
:1032C0002F923F924F925F926F927F928F929F9236
:1032D000AF92BF92CF92DF92EF92FF920F931F9324
:1032E000DF93CF93CDB7DEB72C97CDBFDEBF2C01D8
:1032F0003B014A0169011E010894211C311CCBC00D
:103300000894811C911C653211F0C201C2C0F40105
:1033100071914F01703311F010E003C071914F01B2
:1033200011E0872F80538A3018F0AA24BB2431C0C3
:10333000AA24BB2412C02B3031055CF5C50163E023
:10334000880F991F6A95E1F7AA0CBB1CA80EB91E3D
:10335000A20EB31EF40171914F01872F80538A3062
:1033600028F4272F30E02053304011C0872F81569A
:10337000863028F4272F30E02755304008C0872FAB
:103380008154863030F4272F30E02753304037FF08
:10339000D2CF743639F1753680F4783509F444C0EB
:1033A000793538F4772309F47BC0753209F073C09E
:1033B0006EC0733609F06FC050C0753731F0783782
:1033C00099F1733709F067C052C042E0E42EF12C46
:1033D000EC0CFD1CF601808191816AE070E040E018
:1033E00050E032C0F6014081518157FD02C0C10159
:1033F00007C0509541955F4FFDE2F983CE010296DB
:103400009C0182E090E0C80ED91ECA016AE070E01B
:1034100040E050E00E94C618C201B301A501212F6F
:1034200081010E94261937C032E0E32EF12CEC0C0A
:10343000FD1CF6018081918140E050E0783511F467
:1034400041E050E060E170E091010E94C618C201C5
:10345000B301A501212F810116C086010E5F1F4F08
:10346000C201F6016081F3010995680114C022E0F0
:10347000E22EF12CEC0CFD1CF60100811181C20141
:10348000B301A50120E00E942619670104C0C20112
:1034900065E2F3010995F4016081662309F030CFFC
:1034A0002C96CDBFDEBFCF91DF911F910F91FF9082
:1034B000EF90DF90CF90BF90AF909F908F907F90D4
:1034C0006F905F904F903F902F900895DC01ED91A9
:1034D000FC9111976193ED93FC930895CF93DF9343
:1034E000482F50E081E090E0042E02C0880F991F21
:1034F0000A94E2F7982FF894C0E0D0E020E030E0A2
:10350000A0E4B6E060E8E0E4F6E015966C93159769
:1035100001C02196809148068923D9F3668301C0B2
:103520002196809148068923D9F72F5F3F4F253098
:10353000310559F77894FA01EE0FFF1FEA51FC4D5F
:103540008081918123E630E0AC01429FC001439F1E
:10355000900D529F900D11248C0F9D1F64E670E01A
:103560000E947826608371838091F0238A3F50F413
:103570008A3010F4C083D1838F5F8093F02360E0A2
:1035800070E00EC084E690E09C01C29FC001C39F22
:10359000900DD29F900D11240E94782664567040A1
:1035A000CB01DF91CF9108952F923F924F925F927E
:1035B0006F927F928F929F92AF92BF92CF92DF9243
:1035C000EF92FF920F931F93DF93CF93CDB7DEB7A8
:1035D0002697CDBFDEBF5C011A013901CB01A0E007
:1035E000B0E089839A83AB83BC83442455249C0137
:1035F000AD01221933094409550960E07DE780E0F7
:1036000090E00E948B2679018A012093CF2330938A
:10361000D0230027F7FC0095102FAFECB3E2AD8369
:10362000BE83CC24DD24C801B701A60195010E9408
:1036300045266093B9237093BA238093BB2390935C
:10364000BC23ED81FE813297ED83FE83882499248B
:10365000C801B701A40193010E944526AD81BE8136
:103660006D937C93C801B701A20191010E94452688
:103670006093C5237093C6238093C7239093C82378
:10368000C801B70129813A814B815C810E9445269E
:103690006093C9237093CA238093CB239093CC2348
:1036A0002696CDBFDEBFCF91DF911F910F91FF9086
:1036B000EF90DF90CF90BF90AF909F908F907F90D2
:1036C0006F905F904F903F902F9008952091CF235F
:1036D0003091D023442737FD4095542F6091B92372
:1036E0007091BA238091BB239091BC230E94AD2698
:1036F000C9010895EF92FF921F93CF93DF93CAE31E
:10370000D4E27E0110E0812F0E946E1AF7018193AE
:1037100091937F011F5F1530B1F740E020E030E06A
:1037200061E070E088819981459744F0CB01022ED9
:1037300002C0880F991F0A94E2F7482B2F5F3F4F72
:1037400024962330310571F78091E223882309F014
:1037500078C05091E323451780F5442371F580919B
:10376000DE23833029F08091DF238330A9F403C066
:1037700081E08093DD238091DF23833019F481E0A1
:103780008093DC231092E0231092DE231092DF233B
:103790001092E32350E007C081E08093E22310926F
:1037A000DE231092DF238091E023813009F05CC09A
:1037B0005091E1238093E22357C01092E2234330DB
:1037C00040F0443071F04093E12381E08093E023A6
:1037D00008C0413031F4552321F44093DE23109288
:1037E000DB238091DE23813021F4423011F44093B9
:1037F000DE238091DE23823031F4443069F483E0AB
:103800008093DE2302C0443039F4552329F481E04B
:103810008093DF231092DB238091DF23813021F41A
:10382000423011F44093DF238091DF23823029F46A
:10383000413019F483E08093DF234093E32350E089
:1038400013C0442311F050E00BC08091E02381307D
:1038500029F45091E1231092E02302C05091E32318
:103860001092E2234093E3238091DF23882321F405
:103870008091DE23882339F08091DB23863918F488
:103880008F5F8093DB234091DD23413021F08091D5
:10389000DC23813021F5552301F58091DB23843130
:1038A00018F484E18093DB232091DA238091DB23D9
:1038B000821768F4413011F051E001C054E030E06B
:1038C00090E001968217930714F41092DA23809106
:1038D000DA238F5F8093DA2315C0413021F0809185
:1038E000DC23813049F41092E2231092E3231092FA
:1038F000DE231092DF2350E01092DA231092DD23B2
:103900001092DC23852FDF91CF911F91FF90EF90D4
:103910000895CF92DF92EF92FF920F931F93CF9370
:10392000DF930E947A1BE82E8091E523E81611F0C0
:1039300010E001C01E2D0E947A1B112319F48E1570
:1039400009F41E2D8093E523112341F08091E42397
:10395000882321F484E18093E42308C08091E42348
:10396000882321F081508093E42310E0E090CD2360
:10397000F090CE23113011F481E006C0143019F418
:1039800001E080E002C080E000E02091CF23309190
:10399000D023CC24DD24C21AD30AEC14FD0409F090
:1039A000DAC0882329F4002309F4D5C0E7015AC0FE
:1039B0004091B9235091BA236091BB237091BC23ED
:1039C00084EF91E0289FE001299FD00D389FD00D12
:1039D0001124CE01AA2797FDA095BA2F48175907A1
:1039E0006A077B071CF484E690E002C08AEF90E04F
:1039F000289FF001299FF00D389FF00D112480EDD4
:103A000097E0DC012A9FC0012B9F900D3A9F900DFB
:103A10001124AA2797FDA095BA2F481759076A07BE
:103A20007B070CF4EF0180E797E1FC012E9FC001BA
:103A30002F9F900D3E9F900D1124AA2797FDA095D2
:103A4000BA2F481759076A077B074CF088EE93E0B6
:103A5000289FE001299FD00D389FD00D112400230D
:103A600009F47AC04091B9235091BA236091BB23E5
:103A70007091BC2380E197E2DC012A9FC0012B9F5B
:103A8000900D3A9F900D1124AA2797FDA095BA2F6B
:103A900084179507A607B7074CF088EE93E0289F98
:103AA000E001299FD00D389FD00D112480E797E1C8
:103AB000FC012E9FC0012F9F900D3E9F900D112461
:103AC000AA2797FDA095BA2F84179507A607B707D1
:103AD0004CF084EF91E0289FE001299FD00D389FA2
:103AE000D00D112480ED97E0DC012A9FC0012B9FAF
:103AF000900D3A9F900D1124AA2797FDA095BA2FFB
:103B000084179507A607B7074CF08AEF90E0289F27
:103B1000E001299FD00D389FD00D112484EF91E052
:103B2000FC012E9FC0012F9F900D3E9F900D1124F0
:103B3000AA2797FDA095BA2F84179507A607B70760
:103B40005CF084E690E0289FE001299FD00D389F2B
:103B5000D00D112401C0E7011330A1F1143030F46D
:103B6000113069F0123009F0B3C029C0153009F4E2
:103B70005AC0153080F1163009F0AAC099C09E01D4
:103B8000442737FD4095542F8091B9239091BA2353
:103B9000A091BB23B091BC23280F391F4A1F5B1F84
:103BA0008091C9239091CA23A091CB23B091CC23BB
:103BB000281739074A075B070CF082C02BC00E9408
:103BC000BF1286C08091C9239091CA23A091CB23B4
:103BD000B091CC2375C0CE01AA2797FDA095BA2F2E
:103BE0002091B9233091BA234091BB235091BC233B
:103BF000281B390B4A0B5B0B8091C5239091C62380
:103C0000A091C723B091C82382179307A407B507D3
:103C10000CF056C02093B9233093BA234093BB23B2
:103C20005093BC2355C0EC14FD0479F488E893E16B
:103C3000AC01249FC001259F900D349F900D11244D
:103C4000AA2797FDA095BA2F3BC0E090C523F0901E
:103C5000C6230091C7231091C8236091C923709196
:103C6000CA238091CB239091CC236E197F09800BBE
:103C7000910B9E01442737FD4095542F0E94AD269D
:103C8000CA01B90122E030E040E050E00E94AD26D8
:103C9000C29FC001C39F900DD29F900D1124AA27EF
:103CA00097FDA095BA2F8E0D9F1DA01FB11F08C0B4
:103CB0008091C5239091C623A091C723B091C823BA
:103CC0008093B9239093BA23A093BB23B093BC23D2
:103CD000DF91CF911F910F91FF90EF90DF90CF90E8
:103CE000089583E06AE070E00E944C0980E88093C8
:103CF000400683E00E94A00A83E06AE070E00E9430
:103D00004C090E948A1F8823A1F70E94891CF1CFC9
:103D1000109260081092610808958093F12308952D
:103D2000F89410920008109201088FEF80934606D5
:103D3000109200091092010983E08093660684E0E6
:103D400080932106809325060000FECF1F920F92DC
:103D50000FB60F9208B60F9209B60F92112418BE33
:103D600019BE2F933F934F935F936F937F938F93DE
:103D70009F93AF93BF93EF93FF9383E60E94901EB0
:103D800088ED84BF81E080937900FF91EF91BF912E
:103D9000AF919F918F917F916F915F914F913F91E3
:103DA0002F910F9009BE0F9008BE0F900FBE0F907D
:103DB0001F90189588ED84BF81E080935300809315
:103DC000500088E08093550001C0000080915100B0
:103DD00080FFFBCF81E08093560080936800809144
:103DE000500080618093500088ED84BF10924100A4
:103DF00001C000008091510084FFFBCF88ED84BF9B
:103E000024E02093400081E08093400880E180938B
:103E100041081092420810924308109244081092F0
:103E2000460883E08093470880E89EE38093680813
:103E3000909369082093A2000E941B18E0E7F0E02D
:103E40008CE18093700087E08183828389E783839C
:103E50008BE7848388E6858308950E94DA1E81E7D4
:103E60009EE160E045E958E220E931E00E94D9088E
:103E700089E191E262E045E454E22CEB32E00E94F9
:103E8000D9088CE790E261E044E057E220E931E0B4
:103E90000E94D90882E080931A2410921B24109269
:103EA0001C2481E080931D2410921E2410921F2454
:103EB00080932024109221241092222410922324F3
:103EC0001092242410922524109226241092272444
:103ED000109228240E946F0A000081E00E942F099E
:103EE0008093F2239093F32380E00E942F09809324
:103EF000F4239093F52382E00E942F098093F62308
:103F00009093F72383E00E942F098093F8239093E6
:103F1000F923E2CF8091FB23813011F087E00895EF
:103F20008091F42A0895FF920F931F938C01FC0156
:103F3000F280128263810E94B018F801F2821F9110
:103F40000F91FF9008950F931F938C011092252AD3
:103F500084E08093992AF8011282C80163810E944B
:103F6000B018F801828380E291E0B80143810E9499
:103F70004F181F910F9108951F93CF93DF93EC017A
:103F8000162F88818733E1F586E99AE20E94931F14
:103F90009091982A8917A1F58981811711F012E66D
:103FA00037C08C32E9F08D3228F4863139F1813214
:103FB00029F406C0823411F18D3401F113E621C0D9
:103FC00081E00E94F20AA6E8BAE2FE01349680E19E
:103FD00001900D928150E1F781E08093FA230CC0AB
:103FE00080E00E94F20AA4EFBAE2FE0134968AE56C
:103FF00001900D928150E1F70E94E00A10E001C0AB
:1040000013E0CE016FEF70E04EE550E00E94CF2646
:10401000812FDF91CF911F9108951F920F920FB6BC
:104020000F9208B60F9209B60F92112418BE19BE4E
:104030002F933F934F935F936F937F938F939F93B0
:10404000AF93BF93EF93FF938091A10A84FD04C0C7
:104050008091A10A83FF05C01092252A84E08093F5
:10406000992A9091252A9E3598F48091A00AE92FEB
:10407000F0E0EA56F54D80839F5F9093252A80916A
:10408000992A891751F481E061E00E94520A05C023
:104090001092252A84E08093992AFF91EF91BF9195
:1040A000AF919F918F917F916F915F914F913F91D0
:1040B0002F910F9009BE0F9008BE0F900FBE0F906A
:1040C0001F9018951F93182F81E062E04CE251E099
:1040D0000E94FF0980FD02C094E606C086E99AE2CC
:1040E000612F0E94BC1F982F1092252A84E0809394
:1040F000992A892F1F9108959F92AF92BF92CF92D4
:10410000DF92EF92FF920F931F9381E068EE73E0CE
:104110000E944C0917E361E2962E04E05CE2A52EB2
:1041200046E1B42E34E1C32E2DE4D22E95E0E92EE3
:1041300082E4F82E81E00E94A00A81E068E572E046
:104140000E944C098091FC23882391F41093282A23
:104150009092292A00932B2A88E29AE20E94A31FB8
:1041600081E20E946220882319F481E08093FC237D
:104170001093282AA092292A00932B2A88E29AE2F7
:104180000E94A31F8CE20E946220882321F481E018
:104190008093FB2302C01092FB238091FC2381308B
:1041A00049F61093282AB092292AC0922B2A0E94FD
:1041B000F20AACE2BAE2E6E8FAE280E101900D929E
:1041C0008150E1F781E00E94E00A88E29AE20E94D1
:1041D000A31F86E10E9462208091262A813079F413
:1041E0001092262A1093282AF092292A00932B2A2B
:1041F00088E29AE20E94A31F82E40E9462208091DA
:10420000272A882309F496CF1093282AD092292AA6
:10421000E0922B2A80932C2A88E29AE20E94A31F24
:104220008DE40E946220882309F084CF1092272A0F
:1042300081CF2F923F925F926F927F928F929F9247
:10424000AF92BF92CF92DF92EF92FF920F931F93A4
:10425000CF93DF9382E061E00E94FA100E94A412E3
:104260000E949E0B80E068EE73E00E944C0980E0A3
:104270000E94A00A80E06CE271E00E944C098091EB
:10428000FA23882309F440C081E00E94F20A809159
:10429000862A9091872A8093992190939A218091E0
:1042A0008A2A90918B2A8093A2219093A3218091B6
:1042B0008C2A90918D2A8093B4219093B52180917E
:1042C0008E2A90918F2A8093BD219093BE21809158
:1042D000902A9091912A8093AB219093AC21809168
:1042E000922A9091932A809317229093182280917A
:1042F000942A9091952A809320229093212281E004
:104300000E94E00A1092FA239091F42A8091FE23F1
:10431000981721F00E949E0B0E94A0128091F42A0F
:104320008093FE23882319F40E946F13A0CF84305A
:1043300009F074C08DB79EB70D978DBF9EBFEDB7C6
:10434000FEB73196FF24FA94ADB7BEB71196FC9232
:1043500011821282138214821582B2E0EB2EE68261
:1043600004E110E00783108788E290E0818792875C
:104370008DE390E2838794870E94AB10EDB7FEB780
:104380003196ADB7BEB71196FC921182128213829C
:1043900014821582E6820783108780E590E081878A
:1043A000928784E490E2838794870E94AB102091E7
:1043B0004C2B30914D2B00D000D0EDB7FEB731968D
:1043C000ADB7BEB71196FC92F182F28213821482CD
:1043D0001582E6820783108788E790E081879287BD
:1043E00081E590E283879487C90168EE73E00E94BB
:1043F000782665877687C90168EE73E00E94782683
:1044000064E670E00E9478266787708B0E94AB108C
:10441000EDB7FEB77196EDBFFEBF29CF8DB79EB742
:104420000F978DBF9EBFEDB7FEB73196FF24FA946C
:10443000ADB7BEB71196FC9211821282138214821C
:10444000158283E0868382E291E0878390871186DC
:10445000128686E690E28387948781E090E08587E4
:1044600096870E94AB102091F52A3091F62A00D051
:10447000EDB7FEB73196ADB7BEB71196FC92F1829B
:104480001282138214821582A2E0EA2EE68217823B
:1044900010861186128689E690E283879487C90187
:1044A00068EE73E00E94782665877687C90168EE1A
:1044B00073E00E9478266AE070E00E9478266787A1
:1044C000708B0E94AB102091F72A3091F82AEDB73B
:1044D000FEB73196ADB7BEB71196FC92F18212824B
:1044E000138214821582E68280EA90E087839087A7
:1044F0001186128687E790E283879487C90168EE68
:1045000073E00E94782665877687C90168EE73E0BC
:104510000E9478266AE070E00E9478266787708B98
:104520000E94AB10C091022BD091032B6091FA2A0C
:104530007091FB2A8091FC2A9091FD2A20E13EE0B7
:1045400040E050E00E948B2689019A01ADB7BEB7CA
:104550005196ADBFBEBFB3E0073E1B0710F5EDB7E8
:10456000FEB73F97EDBFFEBF3196ADB7BEB7119610
:10457000FC92F182F282138214821582E682178203
:10458000108680E290E08187928783E890E28387BB
:104590009487058716870E94AB10ADB7BEB71F96EC
:1045A00031C0EDB7FEB77197EDBFFEBF3196ADB725
:1045B000BEB71196FC92F182F282138214821582A8
:1045C000E6821782108680E290E0818792878DE8EC
:1045D00090E283879487C80168EE73E00E946426A6
:1045E00065877687C80168EE73E00E9464266AE0FA
:1045F00070E00E9464266787708B0E94AB10ADB795
:10460000BEB75196ADBFBEBFEDB7FEB77397EDBF56
:10461000FEBF31961FEFADB7BEB711961C93118345
:10462000128313821482158282E0868380EA90E0EE
:104630008783908780E290E0818792878CE990E27F
:1046400083879487CE0160E17EE00E9464266587BF
:104650007687CE0160E17EE00E9464266CE370E024
:104660000E9464266787708BCE016CE370E00E9425
:104670006426818B928B0E94AB10ADB7BEB71696A5
:10468000ADBFBEBFEDB7FEB7319611961C93118337
:10469000128313821482158201E006838FE090E07A
:1046A0008783908770E4E72EF12CE186F2868BEA0F
:1046B00090E2838794870E94AB10EDB7FEB73196E6
:1046C000ADB7BEB711961C93118312831382148267
:1046D000158206838CE390E087839087E186F286DB
:1046E0008EEA90E2838794870E94AB1064EFA62E37
:1046F0006AE2B62EC0E5D0E088249924ADB7BEB7F3
:104700001D96ADBFBEBF77247A94662463945AEA9F
:10471000552E4FE0242E312C182D0894811C911C0D
:10472000EDB7FEB73F97EDBFFEBF3196ADB7BEB751
:1047300011967C9271827282138214821582668233
:1047400017821086C187D28786E690E28387948796
:10475000858696860E94AB10ADB7BEB71F96ADBFDB
:10476000BEBF8091F92A181708F064C0EDB7FEB7F4
:104770003F97EDBFFEBF3196ADB7BEB711967C92A5
:104780007182728213821482158266822782308639
:10479000C187D28782EB90E283879487D5015A96AE
:1047A0008D919C915B97858796870E94AB10F50150
:1047B000C48CD58CE68CF78C00D00DB71EB70F5F7C
:1047C0001F4FADB7BEB711967C92F801718272820D
:1047D00013821482158266828CE390E0878390872F
:1047E000C187D287A9EBB0E2A387B487C701B6011E
:1047F00020E13EE040E050E00E948B26F801258752
:104800003687C701B60120E13EE040E050E00E945B
:104810008B26DC01CB0164E270E00E946426D801A3
:104820001F966D937C9350970E94AB10EDB7FEB727
:10483000719626C08DB79EB70F978DBF9EBFEDB7FF
:10484000FEB73196ADB7BEB711965C9251825282D7
:10485000138214821582668227823086C187D287AE
:1048600082EB90E283879487D5015A968D919C9133
:104870005B97858796870E94AB10EDB7FEB73F9692
:10488000EDBFFEBF8AE090E0A80EB91EC03AD10588
:1048900011F0609641CFADB7BEB71D97ADBFBEBF9B
:1048A000EDB7FEB731961FEF11961C93118312835B
:1048B00013821482158201E00683C783D08730E516
:1048C000E32EF12CE186F28685EC90E283879487D3
:1048D0000E94AB1000D0EDB7FEB73196ADB7BEB7B2
:1048E00011961C93118312831382148215820683FE
:1048F0002CEDC22ED12CC782D086E186F2868AECBE
:1049000090E28387948780914A2B90914B2B8587E7
:1049100096870E94AB100F900F90EDB7FEB73196BF
:10492000ADB7BEB711961C93118312831382148204
:1049300015820683C783D08790E6E92EF12CE186A5
:10494000F2868DE390E2838794870E94AB102091DA
:104950004C2B30914D2B00D000D0EDB7FEB73196E7
:10496000ADB7BEB711961C931183128313821482C4
:1049700015820683C782D086E186F28684ED90E2B6
:1049800083879487C90168EE73E00E947826658763
:104990007687C90168EE73E00E94782664E670E0CD
:1049A0000E9478266787708B0E94AB100F900F9043
:1049B0000F900F90EDB7FEB73196ADB7BEB7119619
:1049C0001C93118312831382148215820683C7837A
:1049D000D08780E7E82EF12CE186F28682EE90E225
:1049E000838794870E94AB1000D0EDB7FEB7319655
:1049F000ADB7BEB711961C93118312831382148234
:104A000015820683C782D086E186F28687EE90E221
:104A1000838794878091862A9091872A85879687B5
:104A20000E94AB100F900F90EDB7FEB73196ADB767
:104A3000BEB711961C9311831283138214821582C0
:104A40000683C783D087B0E8EB2EF12CE186F2868F
:104A500082EF90E2838794870E94AB1000D0EDB77D
:104A6000FEB73196ADB7BEB711961C931183128372
:104A70001382148215820683C782D086E186F2866D
:104A800087EF90E28387948780910A2B90910B2B7C
:104A9000858796870E94AB100F900F90EDB7FEB7F9
:104AA0003196ADB7BEB711961C9311831283138252
:104AB000148215820683C783D087A0E9EA2EF12CE1
:104AC000E186F28682E091E2838794870E94AB10B0
:104AD00000D0EDB7FEB73196ADB7BEB711961C93B7
:104AE000118312831382148215820683C782D086B3
:104AF000E186F28686E091E28387948780910C2B91
:104B000090910D2B858796870E94AB10ADB7BEB7ED
:104B10001F96ADBFBEBF8091F42A833009F477C0E1
:104B2000843030F4813071F0823008F048C065C0C4
:104B3000863009F476C0873009F464C0853009F006
:104B400075C06AC08091FD23893190F01092FD23D9
:104B500080E060E040E020E030E000EB10E0FFE3C8
:104B6000EF2EF1E0FF2EE4E2CE2ED12C0E94420C7B
:104B70008CE69BE26FE071E20E94D6268091FD23D5
:104B8000873011F08A3019F48F5F8093FD23809174
:104B9000FD23C82FD0E020E030E00AC0F901E25B3D
:104BA000F44DD901A459B44D8C9180832F5F3F4FB0
:104BB0002C173D079CF3C25BD44D18823DC08091F9
:104BC000FD23823028F48EE49BE268E271E232C079
:104BD00010924E2B80E060E040E020E030E000EBFF
:104BE00010E07FE3E72E71E0F72E54E2C52ED12CC2
:104BF0000E94420C1092FD231FC08EE49BE260E4F1
:104C000071E218C08EE49BE26DE471E213C08EE4A1
:104C10009BE261E571E20EC08EE49BE26BE571E21E
:104C200009C08EE49BE261E771E204C08EE49BE27E
:104C300063E871E20E94D626EDB7FEB73D97EDBF5F
:104C4000FEBF3196ADB7BEB711961C928FEF818330
:104C5000128213821482158282E086831782108664
:104C600080EB90E0818792878EE49BE28387948734
:104C70000E94AB108091FD238F5F8093FD23ADB721
:104C8000BEB71D96ADBFBEBFF2CA629FD001739F73
:104C9000F001829FE00DF11D649FE00DF11D929FD8
:104CA000F00D839FF00D749FF00D659FF00D992717
:104CB000729FB00DE11DF91F639FB00DE11DF91F3B
:104CC000BD01CF0111240895AA1BBB1B51E107C0F0
:104CD000AA1FBB1FA617B70710F0A61BB70B881F8C
:104CE000991F5A95A9F780959095BC01CD0108951B
:104CF00097FB092E07260AD077FD04D0E5DF06D002
:104D000000201AF4709561957F4F0895F6F79095FD
:104D100081959F4F0895A1E21A2EAA1BBB1BFD018E
:104D20000DC0AA1FBB1FEE1FFF1FA217B307E4078A
:104D3000F50720F0A21BB30BE40BF50B661F771FE2
:104D4000881F991F1A9469F76095709580959095C2
:104D50009B01AC01BD01CF01089597FB092E0526EB
:104D60000ED057FD04D0D7DF0AD0001C38F4509580
:104D70004095309521953F4F4F4F5F4F0895F6F77F
:104D800090958095709561957F4F8F4F9F4F0895B7
:104D9000FB01DC0105900D920020E1F70895DC0194
:104DA00001C06D9341505040E0F70895FB01DC01D4
:104DB00001900D920020E1F70895E0ECF1E0A78565
:104DC000A7FDFDCFA485A860A4876050704F0C9408
:104DD000E926FB01DC0102C001900D9241505040D8
:084DE000D8F70895F894FFCF05
:104DE80025647625640065646974002564003C3D8B
:104DF80000553A202564206D56202000533A20257E
:104E080064206D41202000493A202564206D41200E
:104E18002000503A2025642025202020005375705A
:104E2800706C7900756E646572766F6C7461676515
:104E380000537570706C7920253032642E2530311E
:104E4800645620202000256400253032642E253049
:104E58003264205620200025642E253032642041FB
:104E680020200025303364206D4168200025303132
:104E7800642E2530326420416820200025643A25BC
:104E88003032643A253032642020006D56006D417E
:104E9800680025303464202000253033642E253006
:104EA800326420200054656D700025303264204340
:104EB80020202000253032642E25303164562020F1
:104EC8002000497365740025303464206D4120202A
:104ED8002000557365740025303464206D562020F9
:104EE800200050574D0020253034642020200042F7
:104EF8006174746572792069732063686172676987
:104F08006E672E2E2E2E2E004261747465727920E3
:104F180066756C6C202D206A6F6220646F6E650068
:104F280057616974696E67202020202000202020A6
:104F3800004261742E4572722020004D61782E2047
:104F4800636170616369747920726561636865641F
:104F5800004D61782E2074696D6520726561636803
:104F68006564005761616172676821212120200012
:104F780001000001FF00FF00FF000064001027FF90
:104F8800FF010000B80B68100A00050000B80B68A4
:104F980010640005000000001027640002000001F2
:104FA8000070170100030000B80B68100A00050024
:104FB80000B80B68106400050000AC0D68100A000A
:104FC800050000B80B68106400050000D007740ED7
:104FD8000A00050000B80B68106400050000D0073F
:104FE80004100A00050000B80B68106400050000F2
:104FF800B80B68100A00050000010010270A000419
:105008000000401F204EF401050A0F0000000001B7
:105018000000130F000000000900001B0F0000999A
:1050280021000000310F0000A221000000470F00FE
:1050380000AB21000000600F0000B42100000073E5
:105048000F0000BD21000000820F000000000F00CB
:1050580000880FCE140000000000990FC717000049
:10506800000100A10F06180000000100AD0FF117A4
:105078000000000100B90FDC170000000100C50F97
:1050880080170000000100CF0F00000000010100A0
:10509800CF0F00000000070700D60F000000001522
:1050A8000700E30F000000002A0700E70F000020B8
:1050B80022000700F20FCF1400000007000010D3F1
:1050C800140000000700CF0F000000001010000EB1
:1050D80010000000001C10001E10000000001F102F
:1050E800002A1000000000221000990F00000000A4
:1050F800251000C50F000000002810003210000025
:105108000000011000CF0F0000000016160041102B
:105118000000C6210016004E100000CF2100160026
:10512800CF0F0000000017170062100000D8210000
:1051380017004E100000E121001700CF0F000000FB
:105148000018180070100000EA210018004E100026
:1051580000F321001800CF0F000000001919007E8D
:10516800100000FC210019004E1000000522001953
:1051780000CF0F000000001A1A008E1000000E2247
:10518800001A00CF0F00000000111100A01000004D
:1051980017220011000000000000000000000000BD
:1051A800006300000000000000007D000000000017
:0251B8000000F5
:00000001FF
