:100000000C9465080C94831F0C9486080C94860845
:100010000C9486080C9486080C9486080C94860828
:100020000C9486080C9486080C9486080C94860818
:100030000C9486080C9486080C9486080C94860808
:100040000C9486080C9486080C9486080C948608F8
:100050000C9486080C9486080C94660B0C94860805
:100060000C9486080C9486080C9486080C948608D8
:100070000C9486080C9486080C9486080C948608C8
:100080000C9486080C9486080C9486080C948608B8
:100090000C9486080C9486080C9486080C948608A8
:1000A0000C9486080C9486080C9486080C94860898
:1000B0000C9486080C9486080C9486080C94860888
:1000C0000C9486080C9486080C9486080C94860878
:1000D0000C9486080C9486080C9486080C94860868
:1000E0000C9486080C9486080C94EA200C948608DC
:1000F0000C9486080C9486080C9486080C94860848
:100100000C9486080C9486080C9486080C94860837
:100110000C9486080C9486080C9486080C94860827
:100120000C9486080C9486080C9486080C94860817
:100130000C9486080C9486080C9486080C94860807
:100140000C9486080C9486080C9486080C948608F7
:100150000C9486080C9486080C9486080C948608E7
:100160000C9486080C9486080C9486080C948608D7
:100170000C9486080C948608010000000000000022
:10018000000000000000000000000000000000006F
:1001900000000000000000000000000001038000DB
:1001A000800080008000800080008000800080004F
:1001B000800000008000000000000000000000003F
:1001C00004039000900090009000000000000000E8
:1001D000000000000000000000000000000000001F
:1001E0000000000009031100110011002200FF802F
:1001F000220022002200FF8044004400440000004E
:100200000000000000000000070210003C00520047
:1002100092009000900070001C00120012009200EA
:100220005400380010000000000000000C03708033
:10023000890089008A008A00720004E00510091014
:100240000910111010E00000000000000000000084
:100250000A03300048008400840028003000484031
:100260008480850084004900308000000000000088
:10027000000000000103800080008000800000007A
:10028000000000000000000000000000000000006E
:1002900000000000000000000303200040004000B8
:1002A000400080008000800080008000800080008E
:1002B00040004000400020000000000003038000D8
:1002C00040004000400020002000200020002000CE
:1002D000200020004000400040008000000000009E
:1002E00005032000F800200050005000000000002E
:1002F00000000000000000000000000000000000FE
:10030000000000000706100010001000FE001000A2
:1003100010001000000000000000000000000000BD
:100320000000000000000000010E8000800080003E
:1003300000000000000000000000000000000000BD
:10034000000000000000000000000000040BF000AE
:10035000000000000000000000000000000000009D
:10036000000000000000000000000000000000008D
:10037000010E8000000000000000000000000000EE
:10038000000000000000000000000000000000006D
:1003900000000000040310001000200020002000D6
:1003A000200040004000400040008000800000002D
:1003B0000000000000000000070338004400820035
:1003C000820082008200820082008200820044005B
:1003D00038000000000000000000000004031000CE
:1003E00030005000900010001000100010001000AD
:1003F00010001000100000000000000000000000CD
:1004000007033C00440082000200020004000400D4
:100410000800100020004000FE0000000000000066
:1004200000000000070338004400840004000C00B2
:1004300038000400020002008200C40038000000FE
:1004400000000000000000000803020006000A008F
:1004500012001200220042008200FF00020002008F
:1004600002000000000000000000000007037E0002
:10047000400040008000F8008400020002000200FA
:10048000820044003800000000000000000000006E
:1004900007033800440082008000B800C4008200D6
:1004A000820082008200440038000000000000004A
:1004B000000000000703FE0004000400080008001C
:1004C000100010001000100020002000200000008C
:1004D0000000000000000000070338004400820014
:1004E0008200440038004400820082008200440000
:1004F0003800000000000000000000000703380082
:100500004400820082008200820046003A0002001D
:1005100082004400380000000000000000000000DD
:100520000106800000000000000000000000000044
:10053000000080000000000000000000000000003B
:100540000000000001068000000000000000000024
:10055000000000000000800080008000000000001B
:100560000000000000000000070602001C00600000
:10057000800060001C00020000000000000000007D
:100580000000000000000000000000000707FE005F
:10059000000000000000FE0000000000000000005D
:1005A000000000000000000000000000000000004B
:1005B0000706800070000C0002000C007000800034
:1005C000000000000000000000000000000000002B
:1005D000000000000703380044008200820002008F
:1005E00004000800100010001000000010000000BF
:1005F00000000000000000000F0307E018182004AE
:1006000043A444628822902290429042904488C839
:1006100047702002180C07F00000000009030800D2
:100620001400140014002200220022007F00410068
:100630004100808080800000000000000000000079
:100640000903FF008100808080808100FE0081001E
:100650008080808080808100FE000000000000001B
:10066000000000000A031F0020804040800080003E
:100670008000800080008000404020801F0000003B
:1006800000000000000000000A03FE0081008080DE
:100690008040804080408040804080408080810059
:1006A000FE00000000000000000000000903FF80C1
:1006B0008000800080008000FF00800080008000BB
:1006C00080008000FF8000000000000000000000AB
:1006D0000803FF0080008000800080008000FE0092
:1006E000800080008000800080000000000000008A
:1006F000000000000A031E002100408080008000EE
:10070000800087C080408040408021001E000000A3
:1007100000000000000000000903808080808080CD
:1007200080808080FF80808080808080808080804A
:100730008080000000000000000000000103800035
:1007400080008000800080008000800080008000A9
:100750008000800080000000000000000000000019
:100760000603040004000400040004000400040064
:100770000400840084008400780000000000000071
:10078000000000000903808081008200840088004E
:100790009800A800C40082008200810080800000D0
:1007A00000000000000000000703800080008000BF
:1007B0008000800080008000800080008000800039
:1007C000FE00000000000000000000000B0380207D
:1007D000C060C060A0A0A0A0912091208A208A20A3
:1007E0008A20842084200000000000000000000017
:1007F00009038080C080A080A0809080888088804D
:1008000084808280828081808080000000000000DF
:10081000000000000A031E0021004080804080404C
:100820008040804080408040408021001E000000C9
:1008300000000000000000000903FE00810080802D
:10084000808080808100FE00800080008000800029
:100850008000000000000000000000000A031E00ED
:100860002100408080408040804080408040804027
:1008700046C021801EC000000000000000000000F3
:100880000903FE0081008080808080808100FE005E
:10089000840082008200810080800000000000004F
:1008A0000000000009033E004100808080004000FD
:1008B0003800070000800080808041003E0000007A
:1008C00000000000000000000903FF80080008008D
:1008D00008000800080008000800080008000800D8
:1008E00008000000000000000000000009038080F4
:1008F00080808080808080808080808080808080F8
:10090000808041003E000000000000000000000068
:1009100009038080808041004100410022002200C4
:10092000220014001400080008000000000000006D
:10093000000000000F03810282824284428444440A
:100940004444244828282828282810101010000083
:1009500000000000000000000B0340402080110058
:1009600011000A0004000A0011001100208040401C
:1009700080200000000000000000000009038080CB
:100980004100410022001400140008000800080083
:10099000080008000800000000000000000000003F
:1009A00009037F8001000200020004000800080023
:1009B0001000200020004000FF8000000000000028
:1009C000000000000303E000800080008000800041
:1009D0008000800080008000800080008000800017
:1009E0008000E00000000000040380008000400060
:1009F00040004000400020002000200020001000A7
:100A00001000000000000000000000000303E000F0
:100A100020002000200020002000200020002000D6
:100A200020002000200020002000E0000000000046
:100A30000703100028002800440044008200000042
:100A400000000000000000000000000000000000A6
:100A5000000000000911FF800000000000000000FD
:100A60000000000000000000000000000000000086
:100A700000000000000000000203800040000000B1
:100A80000000000000000000000000000000000066
:100A900000000000000000000000000007063C000D
:100AA000420082000E0072008200820086007A00FE
:100AB0000000000000000000000000000000000036
:100AC0000703800080008000B800C400820082001C
:100AD000820082008200C400B80000000000000014
:100AE00000000000060638004400800080008000FE
:100AF000800080004400380000000000000000007A
:100B000000000000000000000703020002000200D5
:100B10003A00460082008200820082008200460085
:100B20003A00000000000000000000000706380046
:100B3000440082008200FE008000820044003800F1
:100B400000000000000000000000000000000000A5
:100B50000403300040004000F0004000400040002E
:100B60004000400040004000400000000000000045
:100B70000000000007063A00460082008200820062
:100B80008200820046003A000200840078000000E3
:100B900000000000000000000603800080008000CC
:100BA000B800C400840084008400840084008400B1
:100BB000840000000000000000000000010380002D
:100BC0000000000080008000800080008000800025
:100BD0008000800080000000000000000000000095
:100BE000030320000000000020002000200020005F
:100BF0002000200020002000200020002000C00055
:100C00000000000007038000800080008200840054
:100C100088009000B000C8008800840082000000B6
:100C20000000000000000000010380008000800040
:100C300080008000800080008000800080008000B4
:100C40008000000000000000000000000B06B9C09A
:100C5000C620842084208420842084208420842032
:100C60000000000000000000000000000000000084
:100C70000606B800C4008400840084008400840058
:100C8000840084000000000000000000000000005C
:100C90000000000007063800440082008200820045
:100CA00082008200440038000000000000000000C4
:100CB00000000000000000000706B800C400820029
:100CC0008200820082008200C400B80080008000A0
:100CD00080000000000000000000000007063A004D
:100CE00046008200820082008200820046003A00B4
:100CF00002000200020000000000000000000000EE
:100D00000406B000C00080008000800080008000E9
:100D100080008000000000000000000000000000D3
:100D20000000000006067800840080008000780043
:100D300004000400840078000000000000000000AF
:100D40000000000000000000040440004000F0002B
:100D50004000400040004000400040004000700063
:100D600000000000000000000000000006068400F3
:100D70008400840084008400840084008C0074005B
:100D80000000000000000000000000000000000063
:100D90000706820082004400440028002800280042
:100DA0001000100000000000000000000000000023
:100DB000000000000B06842084204A404A40514035
:100DC00051405140208020800000000000000000C1
:100DD0000000000000000000070682004400280018
:100DE00028001000280028004400820000000000B5
:100DF0000000000000000000000000000706820064
:100E000082008400440044002800280028001000CC
:100E10001000100060000000000000000000000052
:100E20000706FE0004000800080010002000200053
:100E30004000FE0000000000000000000000000074
:100E40000000000005031800200020002000200002
:100E500020002000C00020002000200020002000F2
:100E600020001800000000000103800080008000C6
:100E70008000800080008000800080008000800072
:100E80008000800080008000000000000503C0009A
:100E9000200020002000200020002000180020005A
:100EA00020002000200020002000C00000000000E2
:100EB0000808718E00000000000000000000000023
:100EC0000000000000000000000000000000000022
:100ED000000000000805FF00810081008100810002
:100EE0008100810081008100FF00000000000000FF
:100EF0000000000000000000506F776572656420FC
:100F0000627900464142004F530052656164792E78
:100F10002E2E00507265736574730043757272658E
:100F20006E7420536574706F696E740043656C6CE9
:100F300020566F6C74616765205345540042616CA4
:100F40002E2041637469762E20566F6C746167653C
:100F5000004D6178204361706163697479004D616F
:100F6000782054696D650053657475700053686F1F
:100F700077204C6173742056616C756573005374EF
:100F80006F7261676500436861726765204C6950E4
:100F90006F0053746F72616765206869676800430A
:100FA0006861726765204C694665004368617267D5
:100FB00065204C69496F00436861726765204C6920
:100FC000506F206C6F7700286261636B290050724C
:100FD000657365742053657475700050776D004DAE
:100FE000696E20537570706C790043616C69627230
:100FF0006174696F6E20480043616C69627261744C
:10100000696F6E204C004C69746869756D20506F73
:101010006C796D6572004C69746869756D20506FEC
:101020006C796D6572206C6F77004C6974686975B6
:101030006D20496F6E004C694665506F3400286220
:1010400061636B20746F204D61696E29004C69509B
:101050006F20566F6C74616765006261636B20611D
:101060006E642073617665004C69506F20566F6C1A
:1010700074616765206C6F77004C69496F6E20560C
:101080006F6C74616765004C694665506F3420561B
:101090006F6C742E0053746F7261676520566F6CAD
:1010A000746167650053746F7261676520566F6C79
:1010B0007461676520686967680052656672657368
:1010C000682D706572696F64000011241FBECFEF38
:1010D000DFE2DEBFCDBF18BE19BE1ABE1BBE14E2D2
:1010E000A0E0B0E2EEEAF0E502C005900D92A63570
:1010F000B107D9F71CE2A6E5B4E201C01D92AE30FB
:10110000B107E1F70E940A200C9455280C940000C6
:10111000CF92DF92EF92FF920F931F93DF93CF93C3
:1011200000D0CDB7DEB76C018B017A0119821A822B
:10113000F8940E94F2270E0D1F1DCE010196B801F2
:1011400042E050E00E94F227C6016E2D0E944A192B
:10115000789440E029813A818217930709F041E0B1
:10116000842F0F900F90CF91DF911F910F91FF90DF
:10117000EF90DF90CF900895CF92DF92EF92FF92A1
:101180000F931F93DF93CF9300D0CDB7DEB76C01E1
:101190007B018A0119821A82F8940E94FE27C601F7
:1011A000602F0E944A1989839A83E00EF11ECE01B6
:1011B0000196B70142E050E00E94FE2778940F901C
:1011C0000F90CF91DF911F910F91FF90EF90DF90E3
:1011D000CF90089540E050E061E070E0FA01EE0F3A
:1011E000FF1FE40FF51FED57FB4D848D958D892B67
:1011F000A9F0848D958D0197848F958F848D958D21
:10120000892B61F420919524838DFB0102C0EE0FA0
:10121000FF1F8A95E2F72E2B209395244F5F5F4F97
:1012200046305105D9F608950F931F938C01A62FD0
:10123000BA01A90180E090E02A2F265505C0FB01E4
:10124000E80FF91F2083019684179507C0F3B0E0DB
:10125000FD01EE0FFF1FED57FB4D65A776A7CA01F5
:101260008397FB01E80FF91F02C0119201968417C2
:101270009507D8F32091952481E090E00A2E02C0D2
:10128000880F991F0A94E2F7282B20939524415048
:101290005040640F751FAA0FBB1FAD57BB4D53962F
:1012A0006D937C9354975396ED91FC91549731979D
:1012B00010835396ED91FC915497008353968D9132
:1012C0009C915497839753968D939C9354971F9119
:1012D0000F91089590E0FC01EE0FFF1FED57FB4DBD
:1012E000A5A5B6A520E030E0AC0146555F4F73964A
:1012F0008C9190E08417950741F411962F5F3F4F32
:10130000808191818A179B0798F7C90108958630DB
:1013100020F087E00E946A1F0895F89490E0FC0195
:10132000EE0FFF1FE80FF91FED57FB4D648F758F10
:10133000789408958091952480FF02C080E00BC0CE
:10134000869580FF02C081E006C0869580FD02C0C0
:1013500023E002C082E0282FA22FB0E0AD57BB4DA2
:101360001D968C911D978F3FF1F01D96EC911D9766
:10137000F0E0ED57FB4D82858F3FA9F01D96EC9173
:10138000F0E0ED57FB4D22858091952490E0022EF0
:1013900002C0959587950A94E2F780FD04C08DE41C
:1013A0000E946A1F23E0822F0895F8940F921F92E3
:1013B0002F923F924F925F926F927F928F929F9265
:1013C000AF92BF92CF92DF92EF92FF920F931F9353
:1013D0002F933F934F935F936F937F938F939F933D
:1013E000AF93BF93CF93DF93EF93FF930FB60F921B
:1013F0001124E0919424F0E08DB79EB703E814E245
:10140000EE0FFF1FE00FF11F838B948B0E949A0950
:10141000809394248091942490E0880F991F080F62
:10142000191FF801838994898DBF9EBF0F900FBE4D
:10143000FF91EF91DF91CF91BF91AF919F918F91EC
:101440007F916F915F914F913F912F911F910F91DC
:10145000FF90EF90DF90CF90BF90AF909F908F90D4
:101460007F906F905F904F903F902F901F900F90C4
:10147000789408950F931F93182F062F862FBA0183
:101480000E948709F894E0919424F0E0ED57FB4D19
:1014900084818123F1F4E0919424F0E0ED57FB4D39
:1014A0001783309195242091942481E090E002C02C
:1014B000880F991F2A95E2F78095832380939524BE
:1014C0000E94D509F894E0919424F0E0ED57FB4D8B
:1014D0001782E0919424F0E0ED57FB4D2481212305
:1014E000E0919424F0E0ED57FB4D84811095812329
:1014F0008483222361F0802F90E0FC01EE0FFF1F18
:10150000E80FF91FED57FB4D148E158E01C000003A
:101510007894822F1F910F910895F894482F50E0EE
:10152000FA01ED57FB4D8481862B848387818623C6
:1015300079F02091952481E090E002C0880F991FF6
:101540004A95E2F7282B209395240E94D509089507
:10155000789408958FEF80939024809391248093C2
:1015600092248093932480938D2480938E2480935F
:101570008F24EDB7FEB78EE09CE28093B624909363
:10158000B7242DEA01C022938091B6249091B7240C
:101590008E179F07C0F31092832410928424109218
:1015A00085241092862483E0809394247894789400
:1015B0000E94D5090895E82F863010F087E015C005
:1015C00080919424833011F484E00FC02E2F30E0FA
:1015D000F901EE0FFF1FE20FF31FED57FB4D938D47
:1015E00080919424981721F089E00E946A1F089541
:1015F000F894F901EE0FFF1FE20FF31FED57FB4DBB
:10160000848D958D892B29F488E00E946A1F789437
:101610000895309195242091942481E090E002C0B7
:10162000880F991F2A95E2F780958323809395244C
:101630000E94D5090895833024F086E00E946A1F35
:101640000895F894E82FFF27E7FDF095ED57FB4D3F
:101650008FEF82870E94D5090895EF92FF920F9332
:101660001F93CF93DF93182F833024F085E00E94DF
:101670006A1F25C0F894C82FDD27C7FDD095CD5728
:10168000DB4D0AE0E02EF12CEC0EFD1E0FEF0FC03B
:10169000E0919424F0E0ED57FB4D15870E94D509A9
:1016A000F894E0919424F0E0ED57FB4D0587F701A5
:1016B00080818F3F69F7809194248A877894DF91A5
:1016C000CF911F910F91FF90EF9008950F921F926D
:1016D0002F923F924F925F926F927F928F929F9242
:1016E000AF92BF92CF92DF92EF92FF920F931F9330
:1016F0002F933F934F935F936F937F938F939F931A
:10170000AF93BF93CF93DF93EF93FF930FB60F92F7
:101710001124E0919424F0E08DB79EB703E814E221
:10172000EE0FFF1FE00FF11F838B948B0E94651F4C
:10173000F80180819181A281B3810196A11DB11D23
:1017400080839183A283B3830E94EA080E949A094E
:10175000809394248091942490E0880F991F080F1F
:10176000191FF801838994898DBF9EBF0F900FBE0A
:10177000FF91EF91DF91CF91BF91AF919F918F91A9
:101780007F916F915F914F913F912F911F910F9199
:10179000FF90EF90DF90CF90BF90AF909F908F9091
:1017A0007F906F905F904F903F902F901F900F9081
:1017B000189522E0209326068AE28093040681E0B1
:1017C0008093660680936506209325061092040692
:1017D0008093660680936506209325061092040682
:1017E0008093660680936506209325068093040601
:1017F0008093660680936506209325069FE3909369
:1018000004068093660680936506209326069BE275
:1018100090930406809366068093650620932506C0
:101820001092040680936606809365062093250631
:101830001092040680936606809365062093250621
:101840001092040680936606809365062093250611
:101850009FEE90930406809366068093650620931E
:1018600026069CE2909304068093660680936506A4
:101870002093250610920406809156248130B9F4F5
:1018800090E021E012C02093660620936506209325
:1018900066062093650620936606209365068F5F93
:1018A000803A89F79F5F903F39F180E0ECCF82303A
:1018B00019F520E081E01EC08093660680936506DE
:1018C000809366068093650680936606809365061E
:1018D000809366068093650680936606809365060E
:1018E00080936606809365069F5F903A29F72F5F85
:1018F000203F11F090E0E0CF0895BF92CF92DF92A9
:10190000EF92FF920F931F93DF93CF93CDB7DEB784
:101910002697CDBFDEBFB82E2B833C830D831E835D
:1019200070915624713021F0B0E0A0E050E012C078
:10193000862F8F70BB2DB295B07FB82BA42FA295A8
:10194000A07F8B2D8F70A82B842F8F70562F5295D0
:10195000507F582B32E0309326068AE280930406AB
:1019600021E020936606209365068C81309325063E
:101970008093040620936606209365068B8130933E
:1019800025068093040620936606209365068B81C6
:101990009C8101978E0D9F1D89839A83FE0131964C
:1019A0008181309325068093040620936606209358
:1019B0006506898130932506809304062093660688
:1019C00020936506309326068BE2809304062093CD
:1019D0006606209365068E81309325068093040663
:1019E00020936606209365068D81309325068093AB
:1019F000040620936606209365068D819E810197DB
:101A00008C0D9D1D89839A83818130932506809357
:101A10000406209366062093650689813093250687
:101A2000809304062093660620936506309326066D
:101A30008CE280930406209366062093650671303D
:101A400081F5CE9CB001CF9C700DDE9C700D1124F1
:101A500080E020E030E042E091E01FC0882351F0B8
:101A6000409325065093040690936606909365066E
:101A700080E011C040932506B0930406909366065B
:101A80009093650640932506A093040690936606FE
:101A90009093650681E02F5F3F4F26173707F0F2DE
:101AA0002AC0723041F5CE9CF001CF9CF00DDE9C37
:101AB000F00D112480E090E032E021E019C0309375
:101AC0002506B0920406209366062093650630939F
:101AD00025066093040620936606209365063093DE
:101AE000250640930406209366062093650601961A
:101AF0008E179F0720F32696CDBFDEBFCF91DF91D3
:101B00001F910F91FF90EF90DF90CF90BF900895BD
:101B10002F923F924F925F926F927F928F929F92FD
:101B2000AF92BF92CF92DF92EF92FF920F931F93EB
:101B3000DF93CF93CDB7DEB72A97CDBFDEBFE82FB7
:101B400068874987622E702E2E2CDC2CAA868B8209
:101B50009C828052803610F000008CC2AE2EBB24D6
:101B600084E290E0A89EF001A99EF00DB89EF00DD1
:101B70001124E850F34024912D833196149172E0A2
:101B8000709326068AE28093040661E060936606FD
:101B9000609365068C81709325068093040660939C
:101BA0006606609365068B81709325068093040614
:101BB00060936606609365063A85A32FB0E0822F96
:101BC00090E002968A9F70018B9FF00C9A9FF00C18
:101BD00011248B819C8101978E0D9F1D89839A838F
:101BE000FE013196818170932506809304066093EF
:101BF00066066093650689817093250680930406C6
:101C00006093660660936506709326068BE2809368
:101C10000406609366066093650688A170932506A6
:101C20008093040660936606609365068F8D7093BB
:101C300025068093040660936606609365062F8DE3
:101C400038A121503040CD01880F991FAC0103E02D
:101C5000440F551F0A95E1F7840F951F280F391F70
:101C600029833A83818170932506809304066093CB
:101C70006606609365068981709325068093040645
:101C80006093660660936506709326068CE28093E7
:101C90000406609366066093650680915624813041
:101CA00009F00DC189858F703884329430EF33226A
:101CB000382A8FE068224984429420EF4222462845
:101CC000872D8F70729490EF7922782A9C2D9295AF
:101CD000907F592E582AEFE0DE22C22CC29480EF6A
:101CE000C822CD2868846E22692AE12FF0E0EA9F9D
:101CF0004001EB9F900CFA9F900C112430E050E0D3
:101D000012E071E024C0552391F010932506509203
:101D10000406709366067093650610932506C092BC
:101D20000406709366067093650650E009C0109330
:101D3000250670920406709366067093650651E05E
:101D40002F5F822F90E08E159F05ECF23F5F832F6F
:101D500090E08815990514F420E0F3CFC501880FB1
:101D6000991F4C0113E0880C991C1A95E1F7880E15
:101D7000991E21EC3DEF820E931ECD01880F991F15
:101D80008E839F83AA24BB24A2E1EA2EF12CEE1AB3
:101D9000FF0A62E071E084C0242F30E0C90187703F
:101DA0009070892B19F4FD011196A4908A2D90E072
:101DB000209530952770307002C0959587952A95AB
:101DC000E2F78170907020E034C00097A1F05523B5
:101DD00069F060932506609204067093660670931E
:101DE0006506609325064092040613C0609325069D
:101DF0003092040618C0552391F060932506509246
:101E00000406709366067093650660932506C0927B
:101E10000406709366067093650650E009C06093EF
:101E2000250670920406709366067093650651E06D
:101E30002F5FEA852E1748F24F5FFD814F1708F498
:101E4000ABCF20E01EC0552391F060932506509241
:101E50000406709366067093650660932506C0922B
:101E60000406709366067093650650E009C060939F
:101E7000250670920406709366067093650651E01D
:101E80002F5F822F90E0EE81FF818E179F07DCF29B
:101E9000D394FA85DF1618F4D80140E0CECFB3947E
:101EA0008B2D90E08E159F050CF0E4C08C01080D81
:101EB000191D000F111F08581E4FDD24EACF823074
:101EC00009F0D8C0612F70E06A9FF0016B9FF00DA0
:101ED0007A9FF00D112430E052E041E01FC0509392
:101EE000250670920406409366064093650650935B
:101EF000250620920406409366064093650650939B
:101F00002506D092040640936606409365062F5F2F
:101F1000822F90E08E159F0514F33F5F832F90E092
:101F20008E179F0714F420E0F3CFC501880F991F87
:101F30008C0143E0000F111F4A95E1F7080F191FAC
:101F40000F5312402D01440C551CE0E0BB2422E14C
:101F5000822E912C861A970A92E0C92E41E07CC00D
:101F6000252F30E0C90187709070892B21F4FB0187
:101F70006F5F7F4FE4918E2F90E020953095277012
:101F8000307002C0959587952A95E2F78170907020
:101F900020E032C00097B9F0C09225063885309312
:101FA00004064093660640936506C0922506F985AF
:101FB000F09304064093660640936506C09225069A
:101FC0006092040614C0C0922506709204064093E5
:101FD000660640936506C09225062092040640934B
:101FE000660640936506C0922506D092040640938B
:101FF0006606409365062F5F3A85231758F25F5FA8
:102000008D81581708F4ACCF20E019C0C092250686
:10201000709204064093660640936506C0922506BA
:10202000209204064093660640936506C0922506FA
:10203000D092040640936606409365062F5F822F78
:1020400090E08415950514F3F3949A85F91618F425
:10205000BD0150E0D5CFB3948B2D90E08815990544
:102060004CF4DC01A00FB11FAA0FBB1FA858BE4F34
:10207000FF24EBCF2A96CDBFDEBFCF91DF911F911A
:102080000F91FF90EF90DF90CF90BF90AF909F9017
:102090008F907F906F905F904F903F902F9008951A
:1020A0002F923F924F925F926F927F928F929F9268
:1020B000AF92BF92CF92DF92EF92FF920F931F9356
:1020C000DF93CF93CDB7DEB72897CDBFDEBF8D832B
:1020D0006E834F832887D02EFE2C1C2D2C2D30E0B4
:1020E0002B833C83C901880F991FFC0123E0EE0F6D
:1020F000FF1F2A95E1F7E80FF91FE983FA8325010D
:10210000140104E2B02E46C04B9DF0011124E850AA
:10211000F340E4916E2E77242B813C81629EC001B6
:10212000639E900D729E900D1124840D951D20913B
:102130005724309158242817390730F489819A811F
:10214000280E391E44245524ED8DFE8D3196ED8FD9
:10215000FE8F00D0EDB7FEB721823282842F6D81D1
:102160004E812F810885ED2CCF2CA12E42010E949B
:10217000880D22E030E0620E731EEB81FC816E9EC2
:10218000C0016F9E900D7E9E900D1124480E591E29
:102190000F900F90ED8DFE8D4081442309F0B4CF58
:1021A0002896CDBFDEBFCF91DF911F910F91FF9099
:1021B000EF90DF90CF90BF90AF909F908F907F90E7
:1021C0006F905F904F903F902F9008958F929F92C5
:1021D000AF92BF92CF92EF92FF920F931F93DF9334
:1021E000CF93CDB7DEB7A097CDBFDEBF8E010D5F19
:1021F0001F4F8EE1F80111928A95E9F7FE01FB96D7
:1022000009831A837E010894E11CF11CC70163E471
:102210007BE149AD5AAD9F010E943D1AC70160E0C4
:102220000E94431B00D0EDB7FEB7018312838EA539
:102230006FA548A929A90AA9EBA8CCA8ADA8BEA852
:102240008FA898AC0E9450100F900F90A096CDBF11
:10225000DEBFCF91DF911F910F91FF90EF90CF9054
:10226000BF90AF909F908F900895EF92FF920F9341
:102270001F93182F062F8FEF8093000682E0E82E21
:10228000E09221068FE080936106FF24F394F092A0
:10229000650684E08093660688E080936606E09297
:1022A0002606E09265068093650680E064EF71E0A3
:1022B0000E94870980E00E94DB0A1230A9F4109383
:1022C00026068AE380930406F0926606F09265067D
:1022D0001093250687E080930406F0926606F0923C
:1022E0006506109356247AC0113009F077C0E09249
:1022F00026068AE38093040610936606109365060B
:10230000E092250683E080930406109366061093FE
:10231000650610935624E09226068DE2809304060B
:10232000109366061093650690E080E032E021E0AD
:102330003093250680930406209366062093650655
:102340009F5F805F9031A1F780E022E091E02093D1
:1023500025061092040690936606909365068F5F9B
:102360008033A9F790E080E032E021E03093250649
:102370008093040620936606209365069F5F805F26
:102380009031A1F780E022E091E0209325061092A1
:10239000040690936606909365068F5F8033A9F7D5
:1023A00090E080E032E021E030932506809304063F
:1023B00020936606209365069F5F805F9031A1F7AA
:1023C00080E022E091E0209325061092040690938D
:1023D0006606909365068F5F8033A9F7023001F19E
:1023E000033020F4013009F066C006C0033031F13B
:1023F000043009F060C03FC092E09093260686E367
:102400008093040600936606009365069093250664
:1024100080E780930406009366060093650622C059
:102420000093260686E38093040691E09093660667
:10243000909365060093250680ED2BC022E0209343
:10244000260686E38093040691E0909366069093B7
:1024500065062093250680EA80930406909366061D
:102460009093650680E491E08093572490935824DC
:1024700080EF90E01CC022E02093260686E3809344
:10248000040691E0909366069093650620932506D6
:1024900080E180930406909366069093650680EF32
:1024A00090E0809357249093582480E491E08093A7
:1024B000592490935A2422E02093260681E18093A8
:1024C000040691E090936606909365062093260695
:1024D00088E38093040690936606909365062093A4
:1024E000260683E180930406909366069093650622
:1024F0002093260689E280930406909366069093C3
:10250000650684E080932106809325060E94D90BFE
:102510001F910F91FF90EF900895CF93DF93DC010F
:10252000EB0180918E2190E0FC0173E0EE0FFF1F24
:102530007A95E1F7E80FF91FEE5BFD4D5781252FE6
:102540002F5F40E030E014C0822F90E0FC0163E098
:10255000EE0FFF1F6A95E1F7E80FF91FEE5BFD4DE7
:102560008781851721F4442309F4422F3F5F2F5FB1
:10257000283350F33C934883DF91CF910895FC01B9
:10258000DB01E081E930B0F040918E215C91242F95
:1025900030E0251B31098E2F90E00497281739076A
:1025A00024F0E850E50FEC9308952430310514F041
:1025B00044504C93089581E0809390210895DF93D7
:1025C000CF9300D0CDB7DEB7CE010196BE016E5FCE
:1025D0007F4F0E948D126981862F90E070E041E06C
:1025E00050E021E030E00E94B11B0F900F90CF919E
:1025F000DF9108950F931F93DF93CF9300D0CDB752
:10260000DEB719821A8282E00E942D0B80918E2102
:1026100090E0FC01B3E0EE0FFF1FBA95E1F7E80F81
:10262000F91FEE5BFD4D86818823D9F080938E21C2
:10263000CE010196BE016E5F7F4F0E948D126981AF
:102640002A81862F90E0820F911D20918E21821B7E
:10265000910970E041E050E021E030E00E94B11BC0
:102660006FC00481158101151105D1F1809191216F
:10267000882329F50E94431CF801808391830E94DE
:102680007718CE010196BE016E5F7F4F0E948D12BA
:1026900069812A81862F90E0820F911D20918E21E1
:1026A000821B910970E041E050E021E030E00E949F
:1026B000B11B81E0809391218093902141C0F8016A
:1026C0006481758142815381268137818081918126
:1026D0000E94B11B1092912181E080938F2130C024
:1026E00082819381892B61F1CE010196BE016E5FDB
:1026F0007F4F0E948D1269812A81862F90E0820F80
:10270000911D20918E21821B910970E041E050E0E3
:1027100021E030E00E94B11B81E080939021809104
:102720008E2190E0FC01A3E0EE0FFF1FAA95E1F7D8
:10273000E80FF91FEE5BFD4D0280F381E02D099556
:1027400082E00E941B0B0F900F90CF91DF911F91A1
:102750000F9108958F929F92AF92BF92CF92DF9286
:10276000EF92FF920F931F93DF93CF93CDB7DEB716
:102770006697CDBFDEBF19821A82F894D0908E2161
:102780007894809191218823B1F0CE010196BE0109
:102790006E5F7F4F0E948D120E94431C8093B8246D
:1027A0009093B924D9809A81D90ED81AF894D092EE
:1027B0008E2178944CC00E94431CBC0180939221CE
:1027C0009093932180919421909195216817790796
:1027D00021F480918F218823D1F110928F21609371
:1027E0009421709395218D2D90E07C0153E0EE0CA7
:1027F000FF1C5A95E1F7E80EF91E42E452E2E40E9E
:10280000F51ED70118968C91189783702D913C91E5
:102810001197813031F41496ED91FC911597C9010F
:1028200011C08E010D5F1F4FC801B9010E94DD2745
:102830006091942170919521D7011496ED91FC91AE
:102840001597C801408520915B240E945D158091F9
:102850005C248D1529F480919021882309F4C9C046
:10286000D0925C24CE010196BE016E5F7F4F0E9424
:102870008D12F980B8E0BF1510F448E0F42E8D2DCC
:1028800090E0FC0133E0EE0FFF1F3A95E1F7E80F0F
:10289000F91FEE5BFD4D978180919621891721F4F8
:1028A00080919021882309F190939621892F90E0BF
:1028B000FC0123E0EE0FFF1F2A95E1F7E80FF91F57
:1028C000EE5BFD4D8085837060817181813011F4F4
:1028D000CB0107C08E010D5F1F4FC8010E94DD278D
:1028E000C8010E9454170E944015109290218A81BD
:1028F000ED2DE81B8E2F8F5F69810E941215CE018E
:102900000196BE016E5F7F4F0E94BF12CA8010E029
:102910008F2C992483E0A82EB12CAC0EBD1E5FC075
:10292000C90103E0880F991F0A95E1F7CD1461F5FD
:1029300010935B247C01E20EF31E42E452E2E40EAB
:10294000F51ED70118968C91189783706D917C9124
:102950001197813041F41496ED91FC9115974081C7
:102960005181CB010BC0C5010E94DD27D701149610
:10297000ED91FC91159740815181C501BF012085E2
:10298000012F0E94E41529C07C01E20EF31EE2E44F
:10299000F2E2EE0EFF1ED70118968C911897837005
:1029A0006D917C911197813041F41496ED91FC91D9
:1029B000159740815181CB010BC0C5010E94DD27D5
:1029C000D7011496ED91FC91159740815181C50175
:1029D000BF012085012F0E9478161F5FC3942C2D04
:1029E00030E08A81F401E80FF11D2E173F070CF447
:1029F00097CF6696CDBFDEBFCF91DF911F910F912C
:102A0000FF90EF90DF90CF90BF90AF909F908F900E
:102A10000895089583E08093AB2A089582E080931F
:102A2000AB2A08952DB73EB7215130402DBF3EBF90
:102A3000EDB7FEB731969FEFADB7BEB711969C9339
:102A40009183928313821482158291E0968328E108
:102A500031E0278330872AE030E02187328720E089
:102A600030E223873487858716866787108A0E941D
:102A7000E6102DB73EB72F5E3F4F2DBF3EBF0895E6
:102A8000CF92DF92EF92FF920F931F9380E060E06E
:102A900040E024E130E008E210E05CE2E52E51E0A5
:102AA000F52E98ECC92ED12C0E947D0C1F910F9110
:102AB000FF90EF90DF90CF9008958F929F92AF920A
:102AC000BF92CF92DF92EF92FF920F931F93CF931B
:102AD000DF935C014B0184E1289FE0011124A8965B
:102AE00080E060E040E024E130E08E01ECE2EE2E98
:102AF000E1E0FE2E74E1C72ED12C0E947D0C8DB733
:102B00009EB70D978DBF9EBFEDB7FEB731960FEF05
:102B1000ADB7BEB711960C93118212821382148244
:102B2000158211E0168384E190E087839087C18746
:102B3000D287A386B4860E94E610EDB7FEB7319621
:102B4000ADB7BEB711960C93118212821382148214
:102B50001582168388E191E087839087C187D287A9
:102B600086E090E2838794870E94E61000D0EDB75C
:102B7000FEB73196ADB7BEB711960C931182128293
:102B8000138214821582168388EC90E087839087E5
:102B9000C187D2878BE090E283879487858696866B
:102BA0000E94E6108DB79EB70F968DBF9EBFDF9136
:102BB000CF911F910F91FF90EF90DF90CF90BF903A
:102BC000AF909F908F9008956F927F928F929F9277
:102BD000AF92BF92CF92DF92EF92FF920F931F932B
:102BE000CF93DF935C014B013A0184E1089FE00140
:102BF0001124A89680E060E040E028EC30E08E01EF
:102C0000A4E6EA2EF12CF4E1CF2ED12C0E947D0C0B
:102C10008DB79EB70D978DBF9EBFEDB7FEB73196AE
:102C20001FEFADB7BEB711961C93118312831382A9
:102C30001482158201E0068384E190E08783908707
:102C4000C187D287A386B4860E94E610EDB7FEB78F
:102C50003196ADB7BEB711961C93118312831382C0
:102C60001482158206838CE291E087839087C18766
:102C7000D2878EE090E2838794870E94E6108DB71A
:102C80009EB70D968DBF9EBF892819F1ADB7BEB70F
:102C90001F97ADBFBEBFEDB7FEB7319611961C931F
:102CA00011831283138214821582068388EC90E0CC
:102CB00087839087C187D2878BE090E28387948750
:102CC000658676860E94E6108DB79EB70F968DBFFB
:102CD0009EBFDF91CF911F910F91FF90EF90DF90FA
:102CE000CF90BF90AF909F908F907F906F900895FE
:102CF0006F927F928F929F92AF92BF92CF92DF920C
:102D0000EF92FF920F931F93CF93DF935C014B01E0
:102D10003A0184E1089FE0011124A89680E060E078
:102D200040E024E130E08E019CE2E92E91E0F92EB2
:102D3000B4E1CB2ED12C0E947D0C8DB79EB70D97A0
:102D40008DBF9EBFEDB7FEB73196ADB7BEB711963A
:102D50001C921FEF1183128213821482158201E0EC
:102D6000068384E190E087839087C187D287A3861A
:102D7000B4860E94E6108DB79EB70D968DBF9EBF9C
:102D8000892819F1ADB7BEB71F97ADBFBEBFEDB76C
:102D9000FEB7319611961C9311831283138214820D
:102DA0001582068388EC90E087839087C187D2875D
:102DB0008BE090E283879487658676860E94E61092
:102DC0008DB79EB70F968DBF9EBFDF91CF911F919C
:102DD0000F91FF90EF90DF90CF90BF90AF909F90BA
:102DE0008F907F906F900895DF93CF93CDB7DEB72C
:102DF0006897CDBFDEBFCE01019660E070E048E18C
:102E000050E00E948808882309F048C089819A818F
:102E10008093C4219093C5218B819C818093CD2187
:102E20009093CE218D819E818093E8219093E9211A
:102E30008F8198858093F1219093F22189859A85DD
:102E40008093FA219093FB218B859C8580930322AC
:102E5000909304228D859E8580930C2290930D2261
:102E60008F859889809315229093162289899A8953
:102E70008093D6219093D7218B899C898093DF21E1
:102E80009093E0218D899E8980931E2290931F222A
:102E90008F89988D80932722909328226896CDBFA2
:102EA000DEBFCF91DF910895CF92DF92EF92FF9234
:102EB0000F931F93CF93DF93EC0180915D248823C0
:102EC00029F40E94F41681E080935D2480E060E0A4
:102ED00040E020E030E000E010E070E4E72E71E038
:102EE000F72E58E2C52ED12C0E947D0C8DB79EB7CF
:102EF0000D978DBF9EBFEDB7FEB731968FEFADB783
:102F0000BEB711968C9381838283138214821582BB
:102F100082E086831782108611861286C387D48743
:102F20000E94E6108DB79EB70D968DBF9EBFDF91B4
:102F3000CF911F910F91FF90EF90DF90CF90089568
:102F4000DF93CF93CDB7DEB76897CDBFDEBF80915B
:102F5000C4219091C52189839A838091CD2190913C
:102F6000CE218B839C838091E8219091E9218D83F0
:102F70009E838091F1219091F2218F839887809197
:102F8000FA219091FB2189879A8780910322909161
:102F900004228B879C8780910C2290910D228D8733
:102FA0009E8780911522909116228F87988B809111
:102FB000D6219091D721898B9A8B8091DF21909196
:102FC000E0218B8B9C8B80911E2290911F228D8BF8
:102FD0009E8B80912722909128228F8B988FCE01F3
:102FE000019660E070E048E150E00E94BC086896FD
:102FF000CDBFDEBFCF91DF910895DF93CF9300D097
:10300000CDB7DEB719821A8280918E2190E0FC0143
:10301000A3E0EE0FFF1FAA95E1F7E80FF91FEE5BA3
:10302000FD4D878180938E21CE010196BE016E5F9A
:103030007F4F0E948D1269812A81862F90E0820F36
:10304000911D20918E21821B910970E041E050E09A
:1030500021E030E00E94B11B0F900F90CF91DF91E3
:1030600008950E94A0170E94FD17089581E00E9414
:103070002D0B809197219091982180930A2B90930A
:103080000B2B8091A0219091A12180930E2B9093E6
:103090000F2B8091A9219091AA218093142B9093BA
:1030A000152B8091B2219091B3218093102B909396
:1030B000112B8091BB219091BC218093122B909376
:1030C000132B80913022909131228093162B909374
:1030D000172B10920C2B8091392290913A228093D9
:1030E000182B9093192B81E00E941B0B08950E94CE
:1030F0003618089580911E2290911F228093A0215E
:103100009093A12180912722909128228093A92138
:103110009093AA210E94FD170E943618089580916D
:103120000C2290910D228093A0219093A121809157
:103130001522909116228093A9219093AA210E9492
:10314000FD170E94361808958091FA219091FB2175
:103150008093A0219093A121809103229091042239
:103160008093A9219093AA210E94FD170E943618EE
:1031700008958091E8219091E9218093A021909376
:10318000A1218091F1219091F2218093A921909326
:10319000AA210E94FD170E94361808958091D62119
:1031A0009091D7218093A0219093A1218091DF213C
:1031B0009091E0218093A9219093AA210E94FD176C
:1031C0000E94361808958091C4219091C521809362
:1031D000A0219093A1218091CD219091CE21809327
:1031E000A9219093AA210E94FD170E9436180895E4
:1031F00098E090938506A1E8B6E09C9385EE8093D5
:10320000A60A8CEB8093A70A80E18093A30A83E04F
:103210008093A50A88E18093A40AE2EAF0E0808125
:103220008160808380EA80932C018AE080932D0165
:1032300010922E0184E0809320011092210180EDF4
:10324000809322018CE8809323019C93E0E0F1E0DD
:103250008081806880830895FC01818187FD18C08A
:10326000818186FD15C0CB0160877187AA2797FDF4
:10327000A095BA2F8B2F9927AA27BB278287842F47
:1032800090E08483958380818068808380E00895C6
:1032900081E008950F931F93CF93DF93EC012FEFFD
:1032A0003FEFA0E0B0E070E001E010EA1AC0FE01DC
:1032B000EA0FFB1F8081E82FF0E040E050E0CF01F3
:1032C000822793273695279580FF02C02027312734
:1032D0004F5F5F4F4830510519F0F695E795EFCFF6
:1032E0001196A617B7071CF3C901DF91CF911F9163
:1032F0000F910895282F90E038E1862F822780FDD6
:1033000002C0669503C06327669560689F5F98302A
:1033100011F02695F2CF862F08950F931F93CF9328
:10332000DF93062FEC0110E060E005C089910E9458
:103330007A19682F1F5F1017C8F3862FDF91CF917E
:103340001F910F9108958F929F92AF92BF92CF924B
:10335000DF92EF92FF920F931F93CF93DF935C0165
:103360007B014A016901C1E0D0E008C0CE018E9D19
:10337000E0018F9DD00D9E9DD00D1124C501BE0191
:103380000E9479276E157F0588F700E010E02AC0BB
:10339000C501BE010E9479279B01CE01B7010E94A1
:1033A0007927FB010115110531F4121613061CF0E3
:1033B0006115710589F42A30310514F480E306C0E3
:1033C0008114910411F487E501C087E3820FD601CF
:1033D0008D936D010F5F1F4FC501BE010E947927BC
:1033E0005C01EF012097A1F6F6011082DF91CF91E9
:1033F0001F910F91FF90EF90DF90CF90BF90AF9013
:103400009F908F900895BF92CF92DF92EF92FF929C
:103410000F931F93CF93DF936C017B01E80122236D
:1034200019F490E2B92E02C080E3B82EFE0102C06A
:10343000415050408191882311F48A010AC014162A
:103440001506B4F3FACFC6016B2DF70109950150AB
:10345000104010161106BCF303C0C601F701099510
:1034600069916623D1F7DF91CF911F910F91FF9062
:10347000EF90DF90CF90BF9008952F923F924F92A0
:103480005F926F927F928F929F92AF92BF92CF92F4
:10349000DF92EF92FF920F931F93DF93CF93CDB7FD
:1034A000DEB72C97CDBFDEBF2C013B014A0169017D
:1034B0001E010894211C311CCBC00894811C911C56
:1034C000653211F0C201C2C0F40171914F01703335
:1034D00011F010E003C071914F0111E0872F80536C
:1034E0008A3018F0AA24BB2431C0AA24BB2412C0FD
:1034F0002B3031055CF5C50163E0880F991F6A9593
:10350000E1F7AA0CBB1CA80EB91EA20EB31EF40153
:1035100071914F01872F80538A3028F4272F30E094
:103520002053304011C0872F8156863028F4272F32
:1035300030E02755304008C0872F8154863030F462
:10354000272F30E02753304037FFD2CF743639F180
:10355000753680F4783509F444C0793538F477232A
:1035600009F47BC0753209F073C06EC0733609F080
:103570006FC050C0753731F0783799F1733709F063
:1035800067C052C042E0E42EF12CEC0CFD1CF601A9
:10359000808191816AE070E040E050E032C0F60145
:1035A0004081518157FD02C0C10107C0509541952E
:1035B0005F4FFDE2F983CE0102969C0182E090E02C
:1035C000C80ED91ECA016AE070E040E050E00E94D7
:1035D000A319C201B301A501212F81010E94031A81
:1035E00037C032E0E32EF12CEC0CFD1CF60180819B
:1035F000918140E050E0783511F441E050E060E125
:1036000070E091010E94A319C201B301A501212F0D
:10361000810116C086010E5F1F4FC201F601608155
:10362000F3010995680114C022E0E22EF12CEC0CA4
:10363000FD1CF60100811181C201B301A50120E04A
:103640000E94031A670104C0C20165E2F3010995F3
:10365000F4016081662309F030CF2C96CDBFDEBF28
:10366000CF91DF911F910F91FF90EF90DF90CF905E
:10367000BF90AF909F908F907F906F905F904F9092
:103680003F902F900895DC01ED91FC91119761938B
:10369000ED93FC930895CF93DF93482F50E081E0A2
:1036A00090E0042E02C0880F991F0A94E2F7982F29
:1036B000F894C0E0D0E020E030E0A0E4B6E060E8BC
:1036C000E0E4F6E015966C93159701C02196809181
:1036D00048068923D9F3668301C021968091480664
:1036E0008923D9F72F5F3F4F2530310559F778945B
:1036F000FA01EE0FFF1FE659FB4D8081918123E611
:1037000030E0AC01429FC001439F900D529F900D4D
:1037100011248C0F9D1F64E670E00E948D2760834A
:103720007183809174248A3F50F48A3010F4C083EE
:10373000D1838F5F8093742460E070E00EC084E6D4
:1037400090E09C01C29FC001C39F900DD29F900D3D
:1037500011240E948D2764567040CB01DF91CF91D8
:1037600008952F923F924F925F926F927F928F9225
:103770009F92AF92BF92CF92DF92EF92FF920F9300
:103780001F93DF93CF93CDB7DEB72697CDBFDEBFB4
:103790005C011A013901CB01A0E0B0E089839A8372
:1037A000AB83BC83442455249C01AD012219330909
:1037B0004409550960E07DE780E090E00E94A02781
:1037C00079018A0120935424309355240027F7FC73
:1037D0000095102FA4E5B4E2AD83BE83CC24DD2494
:1037E000C801B701A60195010E945A2760933E24A3
:1037F00070933F248093402490934124ED81FE8177
:103800003297ED83FE8388249924C801B701A4016F
:1038100093010E945A27AD81BE816D937C93C801AC
:10382000B701A20191010E945A2760934A24709324
:103830004B2480934C2490934D24C801B7012981D7
:103840003A814B815C810E945A2760934E24709389
:103850004F2480935024909351242696CDBFDEBFF1
:10386000CF91DF911F910F91FF90EF90DF90CF905C
:10387000BF90AF909F908F907F906F905F904F9090
:103880003F902F900895209154243091552444273F
:1038900037FD4095542F60913E2470913F248091D4
:1038A0004024909141240E94C227C9010895EF92BB
:1038B000FF921F93CF93DF93CEEBD4E27E0110E013
:1038C000812F0E944B1BF701819391937F011F5F12
:1038D0001530B1F740E020E030E061E070E0888131
:1038E0009981459744F0CB01022E02C0880F991FA1
:1038F0000A94E2F7482B2F5F3F4F2496233031057F
:1039000071F780916624882309F078C0509167246C
:10391000451780F5442371F580916224833029F0A6
:10392000809163248330A9F403C081E080936124F3
:1039300080916324833019F481E080936024109295
:10394000642410926224109263241092672450E041
:1039500007C081E080936624109262241092632451
:1039600080916424813009F05CC05091652480937B
:10397000662457C010926624433040F0443071F002
:103980004093652481E08093642408C0413031F481
:10399000552321F44093622410925F248091622485
:1039A000813021F4423011F44093622480916224EA
:1039B000823031F4443069F483E08093622402C0A1
:1039C000443039F4552329F481E080936324109224
:1039D0005F2480916324813021F4423011F44093BC
:1039E000632480916324823029F4413019F483E008
:1039F000809363244093672450E013C0442311F064
:103A000050E00BC080916424813029F450916524EA
:103A10001092642402C0509167241092662440934F
:103A2000672480916324882321F480916224882371
:103A300039F080915F24863918F48F5F80935F247A
:103A400040916124413021F080916024813021F542
:103A5000552301F580915F24843118F484E180932B
:103A60005F2420915E2480915F24821768F44130A6
:103A700011F051E001C054E030E090E0019682176F
:103A8000930714F410925E2480915E248F5F8093DC
:103A90005E2415C0413021F080916024813049F4CA
:103AA000109266241092672410926224109263246C
:103AB00050E010925E241092612410926024852FB1
:103AC000DF91CF911F91FF90EF900895CF92DF92F9
:103AD000EF92FF920F931F93CF93DF930E94571C97
:103AE000E82E80916924E81611F010E001C01E2D27
:103AF0000E94571C112319F48E1509F41E2D809372
:103B00006924112341F080916824882321F484E101
:103B10008093682408C080916824882321F0815014
:103B20008093682410E0E0905224F09053241130E8
:103B300011F481E006C0143019F401E080E002C005
:103B400080E000E02091542430915524CC24DD24E1
:103B5000C21AD30AEC14FD0409F0DAC0882329F450
:103B6000002309F4D5C0E7015AC040913E2450918A
:103B70003F24609140247091412484EF91E0289F7C
:103B8000E001299FD00D389FD00D1124CE01AA2726
:103B900097FDA095BA2F481759076A077B071CF4B1
:103BA00084E690E002C08AEF90E0289FF001299F10
:103BB000F00D389FF00D112480ED97E0DC012A9F75
:103BC000C0012B9F900D3A9F900D1124AA2797FDBD
:103BD000A095BA2F481759076A077B070CF4EF0125
:103BE00080E797E1FC012E9FC0012F9F900D3E9F23
:103BF000900D1124AA2797FDA095BA2F48175907B1
:103C00006A077B074CF088EE93E0289FE001299F2C
:103C1000D00D389FD00D1124002309F47AC04091B3
:103C20003E2450913F24609140247091412480E1D2
:103C300097E2DC012A9FC0012B9F900D3A9F900DC7
:103C40001124AA2797FDA095BA2F84179507A607D8
:103C5000B7074CF088EE93E0289FE001299FD00D34
:103C6000389FD00D112480E797E1FC012E9FC00101
:103C70002F9F900D3E9F900D1124AA2797FDA09590
:103C8000BA2F84179507A607B7074CF084EF91E089
:103C9000289FE001299FD00D389FD00D112480ED81
:103CA00097E0DC012A9FC0012B9F900D3A9F900D59
:103CB0001124AA2797FDA095BA2F84179507A60768
:103CC000B7074CF08AEF90E0289FE001299FD00DC4
:103CD000389FD00D112484EF91E0FC012E9FC0018C
:103CE0002F9F900D3E9F900D1124AA2797FDA09520
:103CF000BA2F84179507A607B7075CF084E690E013
:103D0000289FE001299FD00D389FD00D112401C0BC
:103D1000E7011330A1F1143030F4113069F01230A2
:103D200009F0B3C029C0153009F45AC0153080F12C
:103D3000163009F0AAC099C09E01442737FD40956E
:103D4000542F80913E2490913F24A0914024B09123
:103D50004124280F391F4A1F5B1F80914E249091E8
:103D60004F24A0915024B0915124281739074A07B5
:103D70005B070CF082C02BC00E94FA1286C08091B3
:103D80004E2490914F24A0915024B091512475C09D
:103D9000CE01AA2797FDA095BA2F20913E243091FD
:103DA0003F244091402450914124281B390B4A0B59
:103DB0005B0B80914A2490914B24A0914C24B091AC
:103DC0004D2482179307A407B5070CF056C0209323
:103DD0003E2430933F24409340245093412455C0C7
:103DE000EC14FD0479F488E893E1AC01249FC00150
:103DF000259F900D349F900D1124AA2797FDA09523
:103E0000BA2F3BC0E0904A24F0904B2400914C2400
:103E100010914D2460914E2470914F248091502434
:103E2000909151246E197F09800B910B9E014427BC
:103E300037FD4095542F0E94C227CA01B90122E0E4
:103E400030E040E050E00E94C227C29FC001C39F03
:103E5000900DD29F900D1124AA2797FDA095BA2FFF
:103E60008E0D9F1DA01FB11F08C080914A24909104
:103E70004B24A0914C24B0914D2480933E249093E8
:103E80003F24A0934024B0934124DF91CF911F9110
:103E90000F91FF90EF90DF90CF90089583E06AE05C
:103EA00070E00E94870980E88093400683E00E94CA
:103EB000DB0A83E06AE070E00E9487090E946720C5
:103EC0008823A1F70E94661DF1CF1092600810921E
:103ED00061080895809375240895F894109200085D
:103EE000109201088FEF80934606109200091092FD
:103EF000010983E08093660684E080932106809325
:103F000025060000FECF1F920F920FB60F9208B643
:103F10000F9209B60F92112418BE19BE2F933F932A
:103F20004F935F936F937F938F939F93AF93BF93C1
:103F3000EF93FF9383E60E946D1F88ED84BF81E0BD
:103F400080937900FF91EF91BF91AF919F918F91F5
:103F50007F916F915F914F913F912F910F9009BE8B
:103F60000F9008BE0F900FBE0F901F90189588ED10
:103F700084BF81E0809353008093500088E0809359
:103F8000550001C000008091510080FFFBCF81E00F
:103F900080935600809368008091500080618093E8
:103FA000500088ED84BF1092410001C00000809154
:103FB000510084FFFBCF88ED84BF24E020934000B4
:103FC00081E08093400880E180934108109242088C
:103FD00010924308109244081092460883E08093A0
:103FE000470880E89EE380936808909369082093CF
:103FF000A2000E94F818E0E7F0E08CE180937000E6
:1040000087E08183828389E783838BE7848388E6E3
:10401000858308950E94B71F8EE49FE160E049E127
:1040200059E220E931E00E94140986EF91E262E052
:1040300049EC54E22CEB32E00E94140989E591E24C
:1040400061E048E857E220E931E00E94140982E08B
:1040500080939E2410929F241092A02481E080934C
:10406000A1241092A2241092A3248093A42410923D
:10407000A5241092A6241092A7241092A82410928E
:10408000A9241092AA241092AB241092AC240E946E
:10409000AA0A000081E00E946A0980937624909326
:1040A000772480E00E946A09809378249093792491
:1040B00082E00E946A0980937A2490937B2483E0B3
:1040C0000E946A0980937C2490937D24E2CF8091A2
:1040D0007F24813011F087E008958091782B089536
:1040E000FF920F931F938C01FC01F2801282638177
:1040F0000E948D19F801F2821F910F91FF9008958F
:104100000F931F938C011092A92A84E080931D2B9A
:10411000F8011282C80163810E948D19F80182831F
:1041200080E291E0B80143810E942C191F910F9108
:1041300008951F93CF93DF93EC01162F8881873367
:10414000E1F58AE19BE20E94702090911C2B891777
:10415000A1F58981811711F012E637C08C32E9F0A0
:104160008D3228F4863139F1813229F406C0823447
:1041700011F18D3401F113E621C081E00E942D0B75
:10418000AAE0BBE2FE01349680E101900D928150DD
:10419000E1F781E080937E240CC080E00E942D0B2B
:1041A000A8E7BBE2FE0134968AE501900D928150AA
:1041B000E1F70E941B0B10E001C013E0CE016FEF8E
:1041C00070E04EE550E00E94E427812FDF91CF910F
:1041D0001F9108951F920F920FB60F9208B60F927B
:1041E00009B60F92112418BE19BE2F933F934F9317
:1041F0005F936F937F938F939F93AF93BF93EF934F
:10420000FF938091A10A84FD04C08091A10A83FFDD
:1042100005C01092A92A84E080931D2B9091A92AB1
:104220009E3598F48091A00AE92FF0E0E65EF44D07
:1042300080839F5F9093A92A80911D2B891751F449
:1042400081E061E00E948D0A05C01092A92A84E0F5
:1042500080931D2BFF91EF91BF91AF919F918F9113
:104260007F916F915F914F913F912F910F9009BE78
:104270000F9008BE0F900FBE0F901F9018951F93C0
:10428000182F81E062E04CE251E00E943A0A80FD82
:1042900002C094E606C08AE19BE2612F0E94992049
:1042A000982F1092A92A84E080931D2B892F1F91AB
:1042B00008959F92AF92BF92CF92DF92EF92FF92BA
:1042C0000F931F9381E068EE73E00E94870917E364
:1042D00061E2962E04E05CE2A52E46E1B42E34E1C4
:1042E000C32E2DE4D22E95E0E92E82E4F82E81E053
:1042F0000E94DB0A81E068E572E00E9487098091F4
:104300008024882391F41093AC2A9092AD2A0093D4
:10431000AF2A8CEA9AE20E94802081E20E943F212B
:10432000882319F481E0809380241093AC2AA09212
:10433000AD2A0093AF2A8CEA9AE20E9480208CE298
:104340000E943F21882321F481E080937F2402C0D2
:1043500010927F2480918024813049F61093AC2AFA
:10436000B092AD2AC092AF2A0E942D0BA0EBBAE208
:10437000EAE0FBE280E101900D928150E1F781E0FB
:104380000E941B0B8CEA9AE20E94802086E10E9428
:104390003F218091AA2A813079F41092AA2A1093A1
:1043A000AC2AF092AD2A0093AF2A8CEA9AE20E94DE
:1043B000802082E40E943F218091AB2A882309F467
:1043C00096CF1093AC2AD092AD2AE092AF2A809378
:1043D000B02A8CEA9AE20E9480208DE40E943F215C
:1043E000882309F084CF1092AB2A81CF2F923F927D
:1043F0005F926F927F928F929F92AF92BF92CF9275
:10440000DF92EF92FF920F931F93DF93CF9300D031
:104410000F92CDB7DEB782E061E00E9435110E94B5
:10442000DF120E94D90B80E068EE73E00E948709DA
:1044300019822224332480E00E94DB0A80E06CE2AF
:1044400071E00E94870980917E24882309F440C08E
:1044500081E00E942D0B80910A2B90910B2B809371
:1044600097219093982180910E2B90910F2B809300
:10447000A0219093A1218091102B9091112B8093DA
:10448000B2219093B3218091122B9091132B8093A2
:10449000BB219093BC218091142B9091152B80937C
:1044A000A9219093AA218091162B9091172B80938C
:1044B0003022909331228091182B9091192B809368
:1044C000392290933A2281E00E941B0B10927E24A5
:1044D0009091782B80918224981721F00E94D90B1B
:1044E0000E94DB128091782B80938224882319F418
:1044F0000E94AA13A0CF843009F090C08DB79EB758
:104500000F978DBF9EBFEDB7FEB731961FEFADB7CA
:10451000BEB711961C9311831283138214821582E5
:1045200002E00683178210868AE090E081879287F6
:104530008DE390E283879487258636860E94E61075
:104540000F900F90EDB7FEB73196ADB7BEB711968D
:104550001C93118212821382148215820683A4E1B5
:10456000EA2EF12CE782F08688E290E0818792873C
:1045700087E490E2838794870E94E610EDB7FEB748
:104580003196ADB7BEB711961C9311821282138279
:10459000148215820683E782F08680E590E08187A9
:1045A00092878EE490E2838794870E94E6102091A0
:1045B000D02B3091D12B00D000D0EDB7FEB7319683
:1045C000ADB7BEB711961C93118312831382148268
:1045D00015820683E782F08688E790E081879287DC
:1045E0008BE590E283879487C90168EE73E00E94AF
:1045F0008D2765877687C90168EE73E00E948D2755
:1046000064E670E00E948D276787708B0E94E61039
:10461000EDB7FEB77196EDBFFEBF0DCF2091792BA0
:1046200030917A2B8DB79EB741978DBF9EBFEDB766
:10463000FEB731961FEFADB7BEB711961C9311832D
:10464000128213821482158202E00683178210867A
:104650001186128680E790E283879487C90168EE0D
:1046600073E00E948D2765877687C90168EE73E045
:104670000E948D276AE070E00E948D276787708B0B
:104680000E94E61020917B2B30917C2BEDB7FEB77A
:104690003196ADB7BEB711961C9311831282138267
:1046A00014821582068380EA90E0878390871186C2
:1046B00012868EE790E283879487C90168EE73E0E3
:1046C0000E948D2765877687C90168EE73E00E9496
:1046D0008D276AE070E00E948D276787708B0E94AB
:1046E000E61060917E2B70917F2B8091802B9091B2
:1046F000812B20E13EE040E050E00E94A02719011C
:10470000ADB7BEB75196ADBFBEBFB3E0273E3B07C6
:1047100020F5EDB7FEB73F97EDBFFEBF3196ADB7C1
:10472000BEB711961C9311831283138214821582D3
:1047300006831782108680E290E0818792878DE35E
:1047400090E283879487258736870E94E61091E060
:104750009983ADB7BEB71F9646C0B981B13081F419
:1047600080E060E040E020E030E000E210E0EFE9CF
:10477000EE2EF12C74E2C72ED12C0E947D0C1982F2
:10478000EDB7FEB77197EDBFFEBF31968FEFADB7B6
:10479000BEB711968C938183828313821482158213
:1047A00082E086831782108680E290E0818792877C
:1047B0008AE890E283879487C10168EE73E00E94E3
:1047C000792765877687C10168EE73E00E947927B3
:1047D0006AE070E00E9479276787708B0E94E6107C
:1047E000ADB7BEB75196ADBFBEBF2091862B3091FD
:1047F000872BEDB7FEB77397EDBFFEBF31961FEF66
:10480000ADB7BEB711961C93118312831382148225
:10481000158282E0868380EA90E08783908780E239
:1048200090E08187928787E990E283879487C90126
:1048300060E17EE00E94792765877687C90160E1A3
:104840007EE00E9479276CE370E00E9479276787F9
:10485000708BC9016CE370E00E947927818B928B89
:104860000E94E610ADB7BEB71696ADBFBEBFEDB79E
:10487000FEB7319611961C93118312831382148212
:10488000158201E006838FE090E08783908760E4E3
:10489000E62EF12CE186F28686EA90E28387948701
:1048A0000E94E610EDB7FEB73196ADB7BEB71196D0
:1048B0001C931183128313821482158206838CE366
:1048C00090E087839087E186F28689EA90E2838789
:1048D00094870E94E61058E7A52E5BE2B52EA0E56E
:1048E000B0E0AA83BB8388249924EDB7FEB73D9638
:1048F000EDBFFEBF77247A94662463944AEA542E6F
:10490000182D0894811C911C8DB79EB70F978DBFF1
:104910009EBFEDB7FEB73196ADB7BEB711967C928C
:1049200071827282138214821582668217821086C7
:104930008A819B8181879287ADEAB0E2A387B487A1
:10494000858696860E94E610EDB7FEB73F96EDBFCE
:10495000FEBF80917D2B181708F06EC08DB79EB7F3
:104960000F978DBF9EBFEDB7FEB73196ADB7BEB7FF
:1049700011967C92718272821382148215826682F1
:104980008FE090E087839087AA81BB81A187B2875F
:1049900080EB90E283879487D5015A968D919C9104
:1049A0005B97858796870E94E610F501C48CD58CAD
:1049B000E68CF78C00D00DB71EB70F5F1F4FADB759
:1049C000BEB711967C92F8017182728213821482B2
:1049D000158266828CE390E087839087AA81BB81F1
:1049E000A187B28787EB90E283879487C701B601DE
:1049F00020E13EE040E050E00E94A027D8011D9653
:104A00002D933C931E97C701B60120E13EE040E0A4
:104A100050E00E94A027DC01CB0164E270E00E941C
:104A20007927F8016787708B0E94E6108DB79EB7D3
:104A300041968DBF9EBF2AC0ADB7BEB71F97ADBF11
:104A4000BEBFEDB7FEB7319611965C92518252828D
:104A500013821482158266828FE090E087839087AC
:104A6000AA81BB81A187B28780EB90E2838794877C
:104A7000D5015A968D919C915B97858796870E9468
:104A8000E610EDB7FEB73F96EDBFFEBF8AE090E0BF
:104A9000A80EB91EAA81BB81A03AB10521F050969B
:104AA000AA83BB832DCFEDB7FEB73D97EDBFFEBF09
:104AB00031961FEFADB7BEB711961C9311831283C9
:104AC00013821482158201E006838A819B81878389
:104AD000908730E5E32EF12CE186F286A3ECB0E27C
:104AE000A387B4870E94E61000D0EDB7FEB73196D9
:104AF000ADB7BEB711961C93118312831382148233
:104B0000158206832CEDC22ED12CC782D086E18679
:104B1000F28688EC90E2838794878091CE2B9091E7
:104B2000CF2B858796870E94E6100F900F90EDB7E8
:104B3000FEB73196ADB7BEB711961C9311831283A1
:104B400013821482158206838A819B8187839087D2
:104B500090E6E92EF12CE186F286A7E4B0E2A38785
:104B6000B4870E94E6102091D02B3091D12B00D039
:104B700000D0EDB7FEB73196ADB7BEB711961C9316
:104B8000118312831382148215820683C782D08612
:104B9000E186F28682ED90E283879487C90168EE10
:104BA00073E00E948D2765877687C90168EE73E000
:104BB0000E948D2764E670E00E948D276787708BC6
:104BC0000E94E6100F900F900F900F90EDB7FEB778
:104BD0003196ADB7BEB711961C9311831283138221
:104BE0001482158206838A819B818783908780E760
:104BF000E82EF12CE186F286A0EEB0E2A387B4871E
:104C00000E94E61000D0EDB7FEB73196ADB7BEB743
:104C100011961C93118312831382148215820683CA
:104C2000C782D086E186F28685EE90E283879487FC
:104C300080910A2B90910B2B858796870E94E61016
:104C40000F900F90EDB7FEB73196ADB7BEB7119686
:104C50001C931183128313821482158206838A8126
:104C60009B8187839087B0E8EB2EF12CE186F2865A
:104C7000A0EFB0E2A387B4870E94E61000D0EDB7A2
:104C8000FEB73196ADB7BEB711961C931183128350
:104C90001382148215820683C782D086E186F2864B
:104CA00085EF90E28387948780918E2B90918F2B54
:104CB000858796870E94E6100F900F90EDB7FEB79C
:104CC0003196ADB7BEB711961C9311831283138230
:104CD0001482158206838A819B8187839087A0E94D
:104CE000EA2EF12CE186F286A0E0B1E2A387B48738
:104CF0000E94E61000D0EDB7FEB73196ADB7BEB753
:104D000011961C93118312831382148215820683D9
:104D1000C782D086E186F28684E091E28387948719
:104D20008091902B9091912B858796870E94E61019
:104D3000ADB7BEB71F96ADBFBEBF8091782B833095
:104D400009F478C0843030F4813071F0823008F09A
:104D500049C066C0863009F477C0873009F465C061
:104D6000853009F076C06BC080918124893190F044
:104D70001092812480E060E040E020E030E000EB31
:104D800010E0FFE3EF2EF1E0FF2EE4E2CE2ED12C77
:104D90000E947D0C80EF9BE26DE071E20E94EB27A8
:104DA00080918124873011F08A3019F48F5F8093CD
:104DB000812480918124482F50E020E030E00AC017
:104DC000F901EE52F44DD901A051B44D8C9180837C
:104DD0002F5F3F4F241735079CF34E52544DFA0175
:104DE00010823DC080918124823028F482ED9BE2C4
:104DF00066E271E232C01092D22B80E060E040E0C7
:104E000020E030E000EB10E07FE3E72E71E0F72ECA
:104E100054E2C52ED12C0E947D0C109281241FC01B
:104E200082ED9BE26EE371E218C082ED9BE26BE4DF
:104E300071E213C082ED9BE26FE471E20EC082ED7D
:104E40009BE269E571E209C082ED9BE26FE671E2E7
:104E500004C082ED9BE261E871E20E94EB278DB70E
:104E60009EB70D978DBF9EBFEDB7FEB73196ADB71C
:104E7000BEB711961C928FEF818312821382148227
:104E8000158282E086831782108680EB90E081870E
:104E9000928782ED9BE2838794870E94E61080913F
:104EA00081248F5F80938124ADB7BEB71D96ADBFBF
:104EB000BEBFC1CA629FD001739FF001829FE00D07
:104EC000F11D649FE00DF11D929FF00D839FF00D89
:104ED000749FF00D659FF00D9927729FB00DE11D35
:104EE000F91F639FB00DE11DF91FBD01CF01112412
:104EF0000895AA1BBB1B51E107C0AA1FBB1FA61721
:104F0000B70710F0A61BB70B881F991F5A95A9F772
:104F100080959095BC01CD01089597FB092E072639
:104F20000AD077FD04D0E5DF06D000201AF4709592
:104F300061957F4F0895F6F7909581959F4F08955D
:104F4000A1E21A2EAA1BBB1BFD010DC0AA1FBB1F8D
:104F5000EE1FFF1FA217B307E407F50720F0A21BFF
:104F6000B30BE40BF50B661F771F881F991F1A946C
:104F700069F760957095809590959B01AC01BD0196
:104F8000CF01089597FB092E05260ED057FD04D0BA
:104F9000D7DF0AD0001C38F4509540953095219504
:104FA0003F4F4F4F5F4F0895F6F79095809570955E
:104FB00061957F4F8F4F9F4F0895FB01DC01059056
:104FC0000D920020E1F70895DC0101C06D9341507E
:104FD0005040E0F70895FB01DC0101900D920020A4
:104FE000E1F70895E0ECF1E0A785A7FDFDCFA485EA
:104FF000A860A4876050704F0C943C28DC01A40F7B
:10500000B51F4150504048F0CB01840F951F2E91A1
:105010000E940F2841505040D0F70895262F0E943B
:1050200049280080021619F00E941A28019701975A
:105030000895262FE0ECF1E0378537FDFDCF34856C
:10504000377F3487378531FF09C036E3328738ED43
:1050500034BF31E03387378537FDFDCF33E3328707
:10506000808391831282248325E3228728ED31E017
:1050700024BF338701960895FB01DC0102C0019033
:105080000D9241505040D8F7089503D08081992760
:105090000895E0ECF1E0378537FDFDCF34853860C9
:0E50A0003487FC01E050F04F0895F894FFCFE4
:1050AE0025647625640065646974002564003C3DC2
:1050BE0000553A202564206D56202000533A2025B5
:1050CE0064206D41202000493A202564206D412046
:1050DE002000503A20256420252020200025303342
:1050EE0064206D41682000537570706C7900756E88
:1050FE00646572766F6C7461676500537570706C61
:10510E007920253032642E2530316456202020003F
:10511E00253032642E25303264205620200025643E
:10512E002E253032642041202000253031642E257A
:10513E003032642041680025643A253032643A25C5
:10514E003032642020006D56006D416800256400E9
:10515E0025303464202000253033642E253032640F
:10516E0020200054656D70002530326420432020CD
:10517E002000253032642E25303164562020200048
:10518E00497365740025303464206D412020200061
:10519E00557365740025303464206D562020200030
:1051AE0050574D0020253034642020200042617479
:1051BE0074657279206973206368617267696E67BE
:1051CE002E2E2E2E2E004261747465727920667515
:1051DE006C6C202D206A6F6220646F6E65005761C3
:1051EE006974696E67202020202000202020004254
:1051FE0061742E4572722020004D61782E206361FD
:10520E007061636974792072656163686564004DCD
:10521E0061782E2074696D652072656163686564BE
:10522E000057616161726768212121202000010011
:10523E000001FF00FF00FF000064001027FFFF01C8
:10524E000000E40C9A100A00050000800CCC1064DB
:10525E0000050000FA003075FA0002000000002878
:10526E00231400030000E40C9A100A0005000080CD
:10527E000CCC106400050000E40C9A100A00050026
:10528E0000800CCC106400050000E40C9A100A009B
:10529E00050000800CCC106400050000E40C9A1090
:1052AE000A00050000800CCC106400050000E40C20
:1052BE009A100A00050000800CCC10640005000056
:1052CE00E40C9A100A00050000800CCC1064000556
:1052DE000000010010270A00040000401F204EF4B9
:1052EE0001050A0F00000000010000130F0000006E
:1052FE00000900001B0F000097210000002C0F007A
:10530E0000A0210000003D0F0000A9210000005167
:10531E000F0000B2210000005E0F0000BB21000054
:10532E0000670F000000001000006D0F091500004F
:10533E000000007E0F8F180000000100860FE3189A
:10534E000000000100920F7A1800000001009F0F6C
:10535E00A4180000000100AB0FB9180000000100F6
:10536E00B70FCE180000000100C70F0000000001AB
:10537E000100C70F00000000070700CE0F0000005D
:10538E0000160700DB0F00000000360700DF0F00DD
:10539E00003922000700EA0F0A150000000700F886
:1053AE000F0E150000000700C70F000000001111BE
:1053BE00000610000000001E110016100000000074
:1053CE002211002A100000000026110036100000E5
:1053DE0000002A11007E0F000000002E1100920F17
:1053EE00000000003211003E10000000000111000C
:1053FE00C70F000000001717004D100000C4210059
:10540E0017003D0F0000CD210017005A1031180073
:10541E0000001700C70F00000000181800681000E9
:10542E0000D6210018003D0F0000DF210018005AA1
:10543E001031180000001800C70F000000001919E5
:10544E000079100000E8210019003D0F0000F12145
:10545E000019005A1031180000001900C70F000083
:10546E0000001A1A0087100000FA21001A003D0FE2
:10547E0000000322001A005A1031180000001A0012
:10548E00C70F000000001B1B00951000000C22002F
:10549E001B003D0F00001522001B005A1031180092
:1054AE0000001B00C70F000000001C1C00A5100010
:1054BE00001E22001C003D0F00002722001C005A77
:1054CE001031180000001C00C70F0000000012125F
:1054DE0000BA100000302200120000000000000090
:1054EE000000000000006300000000000000007DCE
:0654FE00000000000000A8
:00000001FF
