:100000000C9440080C94B5230C9461080C9461087E
:100010000C9461080C9461080C9461080C946108BC
:100020000C9461080C9461080C9461080C946108AC
:100030000C9461080C9461080C9461080C9461089C
:100040000C9461080C9461080C9461080C9461088C
:100050000C9461080C9461080C94870C0C94610852
:100060000C9461080C9461080C9461080C9461086C
:100070000C9461080C9461080C9461080C9461085C
:100080000C9461080C9461080C9461080C9461084C
:100090000C9461080C9461080C9461080C9461083C
:1000A0000C9461080C9461080C9461080C9461082C
:1000B0000C9461080C9461080C9461080C9461081C
:1000C0000C9461080C9461080C9461080C9461080C
:1000D0000C9461080C9461080C9461080C946108FC
:1000E0000C9461080C9461080C941C250C94610814
:1000F0000C9461080C9461080C9461080C946108DC
:100100000C9461080C9461080C9461080C946108CB
:100110000C9461080C9461080C9461080C946108BB
:100120000C9461080C9461080C9461080C946108AB
:100130000C9461080C9461080C9461080C9461089B
:100140000C9461080C9461080C9461080C9461088B
:100150000C9461080C9461080C9461080C9461087B
:100160000C9461080C9461080C9461080C9461086B
:100170000C9461080C94610801000000000000006C
:10018000000000000000000000000000000000006F
:1001900000000000000000000000000001038000DB
:1001A000800080008000800080008000800080004F
:1001B000800000008000000000000000000000003F
:1001C00004039000900090009000000000000000E8
:1001D000000000000000000000000000000000001F
:1001E0000000000009031100110011002200FF802F
:1001F000220022002200FF8044004400440000004E
:100200000000000000000000070210003C00520047
:1002100092009000900070001C00120012009200EA
:100220005400380010000000000000000C03708033
:10023000890089008A008A00720004E00510091014
:100240000910111010E00000000000000000000084
:100250000A03300048008400840028003000484031
:100260008480850084004900308000000000000088
:10027000000000000103800080008000800000007A
:10028000000000000000000000000000000000006E
:1002900000000000000000000303200040004000B8
:1002A000400080008000800080008000800080008E
:1002B00040004000400020000000000003038000D8
:1002C00040004000400020002000200020002000CE
:1002D000200020004000400040008000000000009E
:1002E00005032000F800200050005000000000002E
:1002F00000000000000000000000000000000000FE
:10030000000000000706100010001000FE001000A2
:1003100010001000000000000000000000000000BD
:100320000000000000000000010E8000800080003E
:1003300000000000000000000000000000000000BD
:10034000000000000000000000000000040BF000AE
:10035000000000000000000000000000000000009D
:10036000000000000000000000000000000000008D
:10037000010E8000000000000000000000000000EE
:10038000000000000000000000000000000000006D
:1003900000000000040310001000200020002000D6
:1003A000200040004000400040008000800000002D
:1003B0000000000000000000070338004400820035
:1003C000820082008200820082008200820044005B
:1003D00038000000000000000000000004031000CE
:1003E00030005000900010001000100010001000AD
:1003F00010001000100000000000000000000000CD
:1004000007033C00440082000200020004000400D4
:100410000800100020004000FE0000000000000066
:1004200000000000070338004400840004000C00B2
:1004300038000400020002008200C40038000000FE
:1004400000000000000000000803020006000A008F
:1004500012001200220042008200FF00020002008F
:1004600002000000000000000000000007037E0002
:10047000400040008000F8008400020002000200FA
:10048000820044003800000000000000000000006E
:1004900007033800440082008000B800C4008200D6
:1004A000820082008200440038000000000000004A
:1004B000000000000703FE0004000400080008001C
:1004C000100010001000100020002000200000008C
:1004D0000000000000000000070338004400820014
:1004E0008200440038004400820082008200440000
:1004F0003800000000000000000000000703380082
:100500004400820082008200820046003A0002001D
:1005100082004400380000000000000000000000DD
:100520000106800000000000000000000000000044
:10053000000080000000000000000000000000003B
:100540000000000001068000000000000000000024
:10055000000000000000800080008000000000001B
:100560000000000000000000070602001C00600000
:10057000800060001C00020000000000000000007D
:100580000000000000000000000000000707FE005F
:10059000000000000000FE0000000000000000005D
:1005A000000000000000000000000000000000004B
:1005B0000706800070000C0002000C007000800034
:1005C000000000000000000000000000000000002B
:1005D000000000000703380044008200820002008F
:1005E00004000800100010001000000010000000BF
:1005F00000000000000000000F0307E018182004AE
:1006000043A444628822902290429042904488C839
:1006100047702002180C07F00000000009030800D2
:100620001400140014002200220022007F00410068
:100630004100808080800000000000000000000079
:100640000903FF008100808080808100FE0081001E
:100650008080808080808100FE000000000000001B
:10066000000000000A031F0020804040800080003E
:100670008000800080008000404020801F0000003B
:1006800000000000000000000A03FE0081008080DE
:100690008040804080408040804080408080810059
:1006A000FE00000000000000000000000903FF80C1
:1006B0008000800080008000FF00800080008000BB
:1006C00080008000FF8000000000000000000000AB
:1006D0000803FF0080008000800080008000FE0092
:1006E000800080008000800080000000000000008A
:1006F000000000000A031E002100408080008000EE
:10070000800087C080408040408021001E000000A3
:1007100000000000000000000903808080808080CD
:1007200080808080FF80808080808080808080804A
:100730008080000000000000000000000103800035
:1007400080008000800080008000800080008000A9
:100750008000800080000000000000000000000019
:100760000603040004000400040004000400040064
:100770000400840084008400780000000000000071
:10078000000000000903808081008200840088004E
:100790009800A800C40082008200810080800000D0
:1007A00000000000000000000703800080008000BF
:1007B0008000800080008000800080008000800039
:1007C000FE00000000000000000000000B0380207D
:1007D000C060C060A0A0A0A0912091208A208A20A3
:1007E0008A20842084200000000000000000000017
:1007F00009038080C080A080A0809080888088804D
:1008000084808280828081808080000000000000DF
:10081000000000000A031E0021004080804080404C
:100820008040804080408040408021001E000000C9
:1008300000000000000000000903FE00810080802D
:10084000808080808100FE00800080008000800029
:100850008000000000000000000000000A031E00ED
:100860002100408080408040804080408040804027
:1008700046C021801EC000000000000000000000F3
:100880000903FE0081008080808080808100FE005E
:10089000840082008200810080800000000000004F
:1008A0000000000009033E004100808080004000FD
:1008B0003800070000800080808041003E0000007A
:1008C00000000000000000000903FF80080008008D
:1008D00008000800080008000800080008000800D8
:1008E00008000000000000000000000009038080F4
:1008F00080808080808080808080808080808080F8
:10090000808041003E000000000000000000000068
:1009100009038080808041004100410022002200C4
:10092000220014001400080008000000000000006D
:10093000000000000F03810282824284428444440A
:100940004444244828282828282810101010000083
:1009500000000000000000000B0340402080110058
:1009600011000A0004000A0011001100208040401C
:1009700080200000000000000000000009038080CB
:100980004100410022001400140008000800080083
:10099000080008000800000000000000000000003F
:1009A00009037F8001000200020004000800080023
:1009B0001000200020004000FF8000000000000028
:1009C000000000000303E000800080008000800041
:1009D0008000800080008000800080008000800017
:1009E0008000E00000000000040380008000400060
:1009F00040004000400020002000200020001000A7
:100A00001000000000000000000000000303E000F0
:100A100020002000200020002000200020002000D6
:100A200020002000200020002000E0000000000046
:100A30000703100028002800440044008200000042
:100A400000000000000000000000000000000000A6
:100A5000000000000911FF800000000000000000FD
:100A60000000000000000000000000000000000086
:100A700000000000000000000203800040000000B1
:100A80000000000000000000000000000000000066
:100A900000000000000000000000000007063C000D
:100AA000420082000E0072008200820086007A00FE
:100AB0000000000000000000000000000000000036
:100AC0000703800080008000B800C400820082001C
:100AD000820082008200C400B80000000000000014
:100AE00000000000060638004400800080008000FE
:100AF000800080004400380000000000000000007A
:100B000000000000000000000703020002000200D5
:100B10003A00460082008200820082008200460085
:100B20003A00000000000000000000000706380046
:100B3000440082008200FE008000820044003800F1
:100B400000000000000000000000000000000000A5
:100B50000403300040004000F0004000400040002E
:100B60004000400040004000400000000000000045
:100B70000000000007063A00460082008200820062
:100B80008200820046003A000200840078000000E3
:100B900000000000000000000603800080008000CC
:100BA000B800C400840084008400840084008400B1
:100BB000840000000000000000000000010380002D
:100BC0000000000080008000800080008000800025
:100BD0008000800080000000000000000000000095
:100BE000030320000000000020002000200020005F
:100BF0002000200020002000200020002000C00055
:100C00000000000007038000800080008200840054
:100C100088009000B000C8008800840082000000B6
:100C20000000000000000000010380008000800040
:100C300080008000800080008000800080008000B4
:100C40008000000000000000000000000B06B9C09A
:100C5000C620842084208420842084208420842032
:100C60000000000000000000000000000000000084
:100C70000606B800C4008400840084008400840058
:100C8000840084000000000000000000000000005C
:100C90000000000007063800440082008200820045
:100CA00082008200440038000000000000000000C4
:100CB00000000000000000000706B800C400820029
:100CC0008200820082008200C400B80080008000A0
:100CD00080000000000000000000000007063A004D
:100CE00046008200820082008200820046003A00B4
:100CF00002000200020000000000000000000000EE
:100D00000406B000C00080008000800080008000E9
:100D100080008000000000000000000000000000D3
:100D20000000000006067800840080008000780043
:100D300004000400840078000000000000000000AF
:100D40000000000000000000040440004000F0002B
:100D50004000400040004000400040004000700063
:100D600000000000000000000000000006068400F3
:100D70008400840084008400840084008C0074005B
:100D80000000000000000000000000000000000063
:100D90000706820082004400440028002800280042
:100DA0001000100000000000000000000000000023
:100DB000000000000B06842084204A404A40514035
:100DC00051405140208020800000000000000000C1
:100DD0000000000000000000070682004400280018
:100DE00028001000280028004400820000000000B5
:100DF0000000000000000000000000000706820064
:100E000082008400440044002800280028001000CC
:100E10001000100060000000000000000000000052
:100E20000706FE0004000800080010002000200053
:100E30004000FE0000000000000000000000000074
:100E40000000000005031800200020002000200002
:100E500020002000C00020002000200020002000F2
:100E600020001800000000000103800080008000C6
:100E70008000800080008000800080008000800072
:100E80008000800080008000000000000503C0009A
:100E9000200020002000200020002000180020005A
:100EA00020002000200020002000C00000000000E2
:100EB0000808718E00000000000000000000000023
:100EC0000000000000000000000000000000000022
:100ED000000000000805FF00810081008100810002
:100EE0008100810081008100FF00000000000000FF
:100EF0000000000000000000506F776572656420FC
:100F0000627900464142004F530052656164792E78
:100F10002E2E00507265736574730043757272658E
:100F20006E7420536574706F696E740043656C6CE9
:100F300020566F6C74616765205345540042616CA4
:100F40002E2041637469762E20566F6C746167653C
:100F5000004D6178204361706163697479004D616F
:100F6000782054696D650053657475700053686F1F
:100F700077204C6173742056616C756573005374EF
:100F80006F7261676500436861726765204C6950E4
:100F90006F00436861726765204C69496F00436860
:100FA00061726765204C69466500446973636861D6
:100FB00072676500286261636B2900507265736512
:100FC000742053657475700050776D004D696E2004
:100FD000537570706C790043616C696272617469F9
:100FE0006F6E20480043616C6962726174696F6E54
:100FF000204C004C69746869756D20506F6C796D78
:101000006572004C69746869756D20496F6E004C9B
:10101000694665506F3400286261636B20746F20ED
:101020004D61696E29004C69506F20566F6C746178
:101030006765004C69496F6E20566F6C7461676517
:10104000004C694665506F3420566F6C742E005307
:10105000746F7261676520566F6C746167650044D8
:10106000697363686172676520566F6C7461676548
:1010700000526566726573682D706572696F6400F1
:1010800011241FBECFEFDFE2DEBFCDBF18BE19BEF9
:101090001ABE1BBE13E2A0E0B0E2E0E0F7E502C03A
:1010A00005900D92AE37B107D9F71AE2AEE7B3E279
:1010B00001C01D92AA3FB107E1F70E943C240C94A5
:1010C0007E2B0C940000A0E3B0E0E9E6F8E00C947D
:1010D0001D2BA8E04E010894811C911CF401BA2F2D
:1010E0001192BA95E9F729833A834B835C836D8328
:1010F0007E838F839887CE010996FC011192AA9571
:10110000E9F7A986BA86CB86DC86ED86FE860F8750
:10111000188B29813A814B815C812DA73EA74FA76F
:1011200058AB79018A018FEF9FEFA0E0B0E0E82291
:10113000F9220A231B231A014424552429853A85C0
:101140004B855C8529A73AA74BA75CA759016A0183
:10115000A822B922CA22DB223A0188249924C60196
:10116000B501A80197010E949A2A6DA37EA38FA3BF
:1011700098A7C401B3010E949A2A69A37AA38BA3FA
:101180009CA3C601B501A20191010E949A2A7B018C
:101190008C01C401B3010E949A2A5B016C0189A1F0
:1011A0009AA1ABA1BCA18E0D9F1DA01FB11F89A349
:1011B0009AA3ABA3BCA32DA13EA14FA158A5CA01E0
:1011C000AA27BB2729A13AA14BA15CA1280F391F4F
:1011D0004A1F5B1F29A33AA34BA35CA32E153F050F
:1011E0004007510740F480E090E0A1E0B0E0A80E95
:1011F000B91ECA1EDB1E89A19AA1ABA1BCA19D018B
:10120000442755272A0D3B1D4C1D5D1D2D8F3E8FFC
:101210004F8F58A36C01BB24AA248DA19EA1AFA11E
:10122000B8A5A070B070A80EB91ECA1EDB1EA98E8C
:10123000BA8ECB8EDC8E9A8C8B8C7C8C9E8D6F8D37
:1012400078A1FE01719688E0DF011D928A95E9F789
:101250002D8B9E8B6F8B788F2D853E854F85588982
:101260006DA57EA58FA598A90E949A2A7B018C0165
:101270002D813E814F81588569A57AA58BA59CA5B6
:101280000E949A2AE60EF71E081F191F6D897E8993
:101290008F89988D6E0D7F1D801F911F6D8B7E8BAA
:1012A0008F8B988FEE892A2D392D482D572D7E2F23
:1012B0008F89988DE096E2E10C94392BEF92FF92A2
:1012C0000F93DF93CF93CDB7DEB76097CDBFDEBF6F
:1012D000A82F002309F461C07E010894E11CF11CD1
:1012E00088E0F70111928A95E9F729833A834B83C5
:1012F0005C836D837E83AF83988780E2801BE82FB9
:10130000FF27E7FDF09549815A816B817C81181692
:1013100084F019861A861B861C86882799278E1BBF
:101320009F0B04C0440F551F661F771F8A95D2F785
:1013300028C0202F332727FD3095DB01CA01022E5C
:1013400004C0880F991FAA1FBB1F0A94D2F7898770
:101350009A87AB87BC8704C0769567955795479564
:10136000EA95D2F78D819E81AF81B88504C0880F40
:10137000991FAA1FBB1F2A95D2F7482B592B6A2BFE
:101380007B2B4D875E876F87788B29853A854B85C8
:101390005C856D857E85AF8598898A2F6096CDBFE7
:1013A000DEBFCF91DF910F91FF90EF900895CF9224
:1013B000DF92EF92FF920F931F93DF93CF9300D0B2
:1013C000CDB7DEB76C018B017A0119821A82F894CD
:1013D0000E94692B0E0D1F1DCE010196B80142E03F
:1013E00050E00E94692BC6016E2D0E945E1B78940E
:1013F00040E029813A818217930709F041E0842F68
:101400000F900F90CF91DF911F910F91FF90EF9070
:10141000DF90CF90089540E050E061E070E0FA0185
:10142000EE0FFF1FE40FF51FE755FC4D848D958DE2
:10143000892BA9F0848D958D0197848F958F848D4C
:10144000958D892B61F42091BB23838DFB0102C014
:10145000EE0FFF1F8A95E2F72E2B2093BB234F5FE1
:101460005F4F46305105D9F608950F931F938C01B5
:10147000A62FBA01A90180E090E02A2F265505C0C9
:10148000FB01E80FF91F2083019684179507C0F32D
:10149000B0E0FD01EE0FFF1FE755FC4D65A776A7F5
:1014A000CA018397FB01E80FF91F02C01192019650
:1014B00084179507D8F32091BB2381E090E00A2E92
:1014C00002C0880F991F0A94E2F7282B2093BB23B0
:1014D00041505040640F751FAA0FBB1FA755BC4D4C
:1014E00053966D937C9354975396ED91FC9154973A
:1014F000319710835396ED91FC9154970083539646
:101500008D919C915497839753968D939C93549768
:101510001F910F91089590E0FC01EE0FFF1FE7551A
:10152000FC4DA5A5B6A520E030E0AC0146555F4FC7
:1015300073968C9190E08417950741F411962F5F74
:101540003F4F808191818A179B0798F7C9010895C1
:10155000863020F087E00E949C230895F89490E064
:10156000FC01EE0FFF1FE80FF91FE755FC4D648FDC
:10157000758F789408958091BB2380FF02C080E02E
:101580000BC0869580FF02C081E006C0869580FD75
:1015900002C023E002C082E0282FA22FB0E0A755AE
:1015A000BC4D1D968C911D978F3FF1F01D96EC91CF
:1015B0001D97F0E0E755FC4D82858F3FA9F01D9601
:1015C000EC91F0E0E755FC4D22858091BB2390E043
:1015D000022E02C0959587950A94E2F780FD04C01B
:1015E0008DE40E949C2323E0822F0895F8940F92AB
:1015F0001F922F923F924F925F926F927F928F92A3
:101600009F92AF92BF92CF92DF92EF92FF920F9391
:101610001F932F933F934F935F936F937F938F937A
:101620009F93AF93BF93CF93DF93EF93FF930FB647
:101630000F921124E091BA23F0E08DB79EB709EA2A
:1016400013E2EE0FFF1FE00FF11F838B948B0E94BC
:10165000BB0A8093BA238091BA2390E0880F991F28
:10166000080F191FF801838994898DBF9EBF0F90C1
:101670000FBEFF91EF91DF91CF91BF91AF919F91FD
:101680008F917F916F915F914F913F912F911F911A
:101690000F91FF90EF90DF90CF90BF90AF909F9011
:1016A0008F907F906F905F904F903F902F901F9002
:1016B0000F90789408950F931F93182F062F862F5D
:1016C000BA010E94A80AF894E091BA23F0E0E75525
:1016D000FC4D84818123F1F4E091BA23F0E0E755D9
:1016E000FC4D17833091BB232091BA2381E090E019
:1016F00002C0880F991F2A95E2F780958323809373
:10170000BB230E94F60AF894E091BA23F0E0E75573
:10171000FC4D1782E091BA23F0E0E755FC4D24819F
:101720002123E091BA23F0E0E755FC4D8481109528
:1017300081238483222361F0802F90E0FC01EE0F4F
:10174000FF1FE80FF91FE755FC4D148E158E01C0E1
:1017500000007894822F1F910F910895F894482FDC
:1017600050E0FA01E755FC4D8481862B8483878104
:10177000862379F02091BB2381E090E002C0880F9E
:10178000991F4A95E2F7282B2093BB230E94F60A63
:101790000895789408958FEF8093B6238093B723AC
:1017A0008093B8238093B9238093B3238093B42389
:1017B0008093B523EDB7FEB78AEF9AE28093DC23DE
:1017C0009093DD232DEA01C022938091DC23909138
:1017D000DD238E179F07C0F31092A9231092AA232E
:1017E0001092AB231092AC2383E08093BA237894B9
:1017F00078940E94F60A0895E82F863010F087E06A
:1018000015C08091BA23833011F484E00FC02E2FCD
:1018100030E0F901EE0FFF1FE20FF31FE755FC4D1B
:10182000938D8091BA23981721F089E00E949C2320
:101830000895F894F901EE0FFF1FE20FF31FE7552B
:10184000FC4D848D958D892B29F488E00E949C2382
:10185000789408953091BB232091BA2381E090E0E1
:1018600002C0880F991F2A95E2F780958323809301
:10187000BB230E94F60A0895833024F086E00E947C
:101880009C230895F894E82FFF27E7FDF095E7558E
:10189000FC4D8FEF82870E94F60A0895EF92FF9227
:1018A0000F931F93CF93DF93182F833024F085E09D
:1018B0000E949C2325C0F894C82FDD27C7FDD09532
:1018C000C755DC4D0AE0E02EF12CEC0EFD1E0FEFAB
:1018D0000FC0E091BA23F0E0E755FC4D15870E9458
:1018E000F60AF894E091BA23F0E0E755FC4D05873D
:1018F000F70180818F3F69F78091BA238A877894B6
:10190000DF91CF911F910F91FF90EF9008950F926B
:101910001F922F923F924F925F926F927F928F927F
:101920009F92AF92BF92CF92DF92EF92FF920F936E
:101930001F932F933F934F935F936F937F938F9357
:101940009F93AF93BF93CF93DF93EF93FF930FB624
:101950000F921124E091BA23F0E08DB79EB709EA07
:1019600013E2EE0FFF1FE00FF11F838B948B0E9499
:101970009723F80180819181A281B3810196A11DF5
:10198000B11D80839183A283B3830E940B0A0E94BE
:10199000BB0A8093BA238091BA2390E0880F991FE5
:1019A000080F191FF801838994898DBF9EBF0F907E
:1019B0000FBEFF91EF91DF91CF91BF91AF919F91BA
:1019C0008F917F916F915F914F913F912F911F91D7
:1019D0000F91FF90EF90DF90CF90BF90AF909F90CE
:1019E0008F907F906F905F904F903F902F901F90BF
:1019F0000F90189522E0209326068AE28093040631
:101A000081E08093660680936506209325061092F8
:101A1000040680936606809365062093250610923F
:101A200004068093660680936506209325068093BE
:101A300004068093660680936506209325069FE33F
:101A4000909304068093660680936506209326068D
:101A50009BE290930406809366068093650620932C
:101A600025061092040680936606809365062093EF
:101A700025061092040680936606809365062093DF
:101A800025061092040680936606809365062093CF
:101A900025069FEE90930406809366068093650664
:101AA000209326069CE2909304068093660680931A
:101AB0006506209325061092040680917E238130CE
:101AC000B9F490E021E012C02093660620936506E9
:101AD000209366062093650620936606209365068C
:101AE0008F5F803A89F79F5F903F39F180E0ECCFBC
:101AF000823019F520E081E01EC080936606809355
:101B000065068093660680936506809366068093DB
:101B100065068093660680936506809366068093CB
:101B2000650680936606809365069F5F903A29F765
:101B30002F5F203F11F090E0E0CF08950F931F93A7
:101B4000DF93CF9300D000D0CDB7DEB7E82F298345
:101B50003A830B831C8320917E23213019F050E0BF
:101B600070E009C0862F8F705E2F5295507F582BE2
:101B7000742F7295707F32E0309326068AE280934C
:101B8000040691E090936606909365068A813093EF
:101B900025068093040690936606909365068981D6
:101BA000309325068093040690936606909365060D
:101BB000309326068BE280930406909366069093FA
:101BC00065068C8130932506809304069093660603
:101BD000909365068B81309325068093040690933D
:101BE000660690936506309326068CE28093040681
:101BF0009093660690936506213089F4309325060C
:101C000050930406209366062093650630932506BC
:101C10007093040620936606209365061AC022304E
:101C2000C1F420932506E0930406909366069093F2
:101C300065062093250660930406909366069093AC
:101C400065062093250640930406909366069093BC
:101C500065062496CDBFDEBFCF91DF911F910F9116
:101C600008952F923F924F925F926F927F928F9240
:101C70009F92AF92BF92CF92DF92EF92FF920F931B
:101C80001F93DF93CF93CDB7DEB72597CDBFDEBFD0
:101C900089836A834B833901580122E02093260609
:101CA0008AE28093040681E080936606809365064D
:101CB000209325061092040680936606809365069D
:101CC000209325061092040680936606809365068D
:101CD000209325068093040680936606809365060C
:101CE000209325069FE390930406809366068093D5
:101CF0006506209326069BE2909304068093660671
:101D0000809365062093250610920406809366064C
:101D1000809365062093250610920406809366063C
:101D2000809365062093250610920406809366062C
:101D300080936506209325069FEE9093040680937A
:101D4000660680936506C601801B910B97012619D4
:101D5000370997FD04C071E0272E312C06C09095FD
:101D600081959F4F22242A94322C37FD04C061E0D4
:101D7000462E512C06C0309521953F4F44244A945D
:101D8000542C4C01880C991CC901880F991F8C8315
:101D90009D8389816A814B81930185010E949E0DFB
:101DA000EC81FD818E169F06F4F4CF019595879501
:101DB0006401C81AD90A13C0D7FC06C0A20CB31C10
:101DC0008C819D81C81AD90A640C751CC80CD91C59
:101DD00089816A814B81930185010E949E0D6E1459
:101DE0007F0451F71EC0C40195958795EC80FD8056
:101DF000E81AF90A13C0F7FC04C0640C751CE81853
:101E0000F908A20CB31CEC81FD81EE0EFF1E898146
:101E10006A814B81930185010E949E0DAC14BD0423
:101E200051F72596CDBFDEBFCF91DF911F910F9166
:101E3000FF90EF90DF90CF90BF90AF909F908F90EA
:101E40007F906F905F904F903F902F900895BF923A
:101E5000CF92DF92EF92FF920F931F93DF93CF9376
:101E6000CDB7DEB72697CDBFDEBFB82E2B833C8320
:101E70000D831E8370917E23713021F0B0E0A0E0CD
:101E800050E012C0862F8F70BB2DB295B07FB82B5B
:101E9000A42FA295A07F8B2D8F70A82B842F8F70DD
:101EA000562F5295507F582B32E0309326068AE207
:101EB0008093040621E020936606209365068C81BA
:101EC00030932506809304062093660620936506CA
:101ED0008B81309325068093040620936606209319
:101EE00065068B819C8101978E0D9F1D89839A8346
:101EF000FE0131968181309325068093040620935C
:101F00006606209365068981309325068093040632
:101F10002093660620936506309326068BE2809315
:101F2000040620936606209365068E81309325066D
:101F30008093040620936606209365068D81309376
:101F400025068093040620936606209365068D81FE
:101F50009E8101978C0D9D1D89839A838181309389
:101F600025068093040620936606209365068981E2
:101F70003093250680930406209366062093650619
:101F8000309326068CE28093040620936606209305
:101F90006506713081F5CE9CB001CF9C700DDE9C42
:101FA000700D112480E020E030E042E091E01FC09D
:101FB000882351F0409325065093040690936606BB
:101FC0009093650680E011C040932506B093040607
:101FD000909366069093650640932506A0930406A9
:101FE000909366069093650681E02F5F3F4F26171A
:101FF0003707F0F22AC0723041F5CE9CF001CF9C39
:10200000F00DDE9CF00D112480E090E032E021E044
:1020100019C030932506B0920406209366062093DB
:102020006506309325066093040620936606209388
:102030006506309325064093040620936606209398
:10204000650601968E179F0720F32696CDBFDEBF4B
:10205000CF91DF911F910F91FF90EF90DF90CF9084
:10206000BF9008952F923F924F925F926F927F920E
:102070008F929F92AF92BF92CF92DF92EF92FF9298
:102080000F931F93DF93CF93CDB7DEB72A97CDBFC2
:10209000DEBF68874987622E702E2E2CDC2CAA8624
:1020A0008B829C82A82EBB2484E290E0A89EF00143
:1020B000A99EF00DB89EF00D1124E850F340249134
:1020C0002D833196149172E0709326068AE28093F4
:1020D000040661E060936606609365068C817093E8
:1020E00025068093040660936606609365068B81DF
:1020F00070932506809304066093660660936506D8
:102100003A85A32FB0E0822F90E002968A9F70015B
:102110008B9FF00C9A9FF00C11248B819C8101976E
:102120008E0D9F1D89839A83FE0131968181709364
:102130002506809304066093660660936506898190
:102140007093250680930406609366066093650687
:10215000709326068BE28093040660936606609374
:10216000650688A170932506809304066093660631
:10217000609365068F8D70932506809304066093A7
:102180006606609365062F8D38A121503040CD0141
:10219000880F991FAC0103E0440F551F0A95E1F722
:1021A000840F951F280F391F29833A8381817093EB
:1021B0002506809304066093660660936506898110
:1021C0007093250680930406609366066093650607
:1021D000709326068CE280930406609366066093F3
:1021E000650680917E23813009F00DC189858F704D
:1021F0003884329430EF3322382A8FE068224984C1
:10220000429420EF42224628872D8F70729490EFDF
:102210007922782A9C2D9295907F592E582AEFE0AA
:10222000DE22C22CC29480EFC822CD2868846E22A0
:10223000692AE12FF0E0EA9F4001EB9F900CFA9FA2
:10224000900C112430E050E012E071E024C05523DE
:1022500091F01093250650920406709366067093D1
:10226000650610932506C092040670936606709367
:10227000650650E009C0109325067092040670931D
:1022800066067093650651E02F5F822F90E08E15F1
:102290009F05ECF23F5F832F90E08815990514F4B9
:1022A00020E0F3CFC501880F991F4C0113E0880C83
:1022B000991C1A95E1F7880E991E21EC3DEF820ECC
:1022C000931ECD01880F991F8E839F83AA24BB2460
:1022D000A2E1EA2EF12CEE1AFF0A62E071E084C05E
:1022E000242F30E0C90187709070892B19F4FD010B
:1022F0001196A4908A2D90E020953095277030702B
:1023000002C0959587952A95E2F78170907020E03C
:1023100034C00097A1F0552369F0609325066092C0
:1023200004067093660670936506609325064092D6
:10233000040613C0609325063092040618C0552386
:1023400091F0609325065092040670936606709390
:10235000650660932506C092040670936606709326
:10236000650650E009C060932506709204067093DC
:1023700066067093650651E02F5FEA852E1748F2D6
:102380004F5FFD814F1708F4ABCF20E01EC05523EF
:1023900091F0609325065092040670936606709340
:1023A000650660932506C0920406709366067093D6
:1023B000650650E009C0609325067092040670938C
:1023C00066067093650651E02F5F822F90E0EE81E4
:1023D000FF818E179F07DCF2D394FA85DF1618F47D
:1023E000D80140E0CECFB3948B2D90E08E159F05A1
:1023F0000CF0E4C08C01080D191D000F111F0858C6
:102400001E4FDD24EACF823009F0D8C0612F70E082
:102410006A9FF0016B9FF00D7A9FF00D112430E060
:1024200052E041E01FC0509325067092040640938D
:102430006606409365065093250620920406409355
:1024400066064093650650932506D0920406409395
:102450006606409365062F5F822F90E08E159F05DC
:1024600014F33F5F832F90E08E179F0714F420E052
:10247000F3CFC501880F991F8C0143E0000F111F96
:102480004A95E1F7080F191F0F5312402D01440C14
:10249000551CE0E0BB2422E1822E912C861A970A7B
:1024A00092E0C92E41E07CC0252F30E0C901877041
:1024B0009070892B21F4FB016F5F7F4FE4918E2F89
:1024C00090E0209530952770307002C095958795E3
:1024D0002A95E2F78170907020E032C00097B9F041
:1024E000C0922506388530930406409366064093D3
:1024F0006506C0922506F985F093040640936606AA
:1025000040936506C09225066092040614C0C092EE
:102510002506709204064093660640936506C092B5
:102520002506209204064093660640936506C092F5
:102530002506D092040640936606409365062F5FF9
:102540003A85231758F25F5F8D81581708F4ACCF96
:1025500020E019C0C09225067092040640936606DA
:1025600040936506C09225062092040640936606B5
:1025700040936506C0922506D092040640936606F5
:10258000409365062F5F822F90E08415950514F324
:10259000F3949A85F91618F4BD0150E0D5CFB394A1
:1025A0008B2D90E0881599054CF4DC01A00FB11F2C
:1025B000AA0FBB1FA858BE4FFF24EBCF2A96CDBF52
:1025C000DEBFCF91DF911F910F91FF90EF90DF90D1
:1025D000CF90BF90AF909F908F907F906F905F90C3
:1025E0004F903F902F9008952F923F924F925F927D
:1025F0006F927F928F929F92AF92BF92CF92DF9213
:10260000EF92FF920F931F93DF93CF93CDB7DEB777
:102610002897CDBFDEBF8D836E834F832887D02E52
:10262000FE2C1C2D2C2D30E02B833C83C901880F00
:10263000991FFC0123E0EE0FFF1F2A95E1F7E80F39
:10264000F91FE983FA832501140104E2B02E46C084
:102650004B9DF0011124E850F340E4916E2E772455
:102660002B813C81629EC001639E900D729E900DF5
:102670001124840D951D20917F23309180232817EC
:10268000390730F489819A81280E391E4424552453
:10269000ED8DFE8D3196ED8FFE8F00D0EDB7FEB73C
:1026A00021823282842F6D814E812F810885ED2C0D
:1026B000CF2CA12E42010E94321022E030E0620EA7
:1026C000731EEB81FC816E9EC0016F9E900D7E9EFD
:1026D000900D1124480E591E0F900F90ED8DFE8D18
:1026E0004081442309F0B4CF2896CDBFDEBFCF91FF
:1026F000DF911F910F91FF90EF90DF90CF90BF90EF
:10270000AF909F908F907F906F905F904F903F9091
:102710002F9008958F929F92AF92BF92CF92EF9297
:10272000FF920F931F93DF93CF93CDB7DEB7A097A0
:10273000CDBFDEBFFE01FB968E010D5F1F4F8EE108
:10274000D8011D928A95E9F709831A837E010894BE
:10275000E11CF11CC70167E57DE149AD5AAD9F0160
:102760000E94511CC70160E00E94571D00D0EDB7C8
:10277000FEB7018312838EA56FA548A929A90AA9CE
:10278000EBA8CCA8ADA8BEA88FA898AC0E94F41264
:102790000F900F90A096CDBFDEBFCF91DF911F911C
:1027A0000F91FF90EF90CF90BF90AF909F908F9040
:1027B0000895EF92FF920F931F93182F062F8FEF1C
:1027C0008093000682E0E82EE09221068FE080935D
:1027D0006106FF24F394F092650684E08093660618
:1027E00088E080936606E0922606E0926506809374
:1027F000650680E064EF71E00E94A80A80E00E9414
:10280000FC0B1230A9F4109326068AE38093040689
:10281000F0926606F09265061093250687E0809395
:102820000406F0926606F092650610937E237AC045
:10283000113009F077C0E09226068AE380930406FF
:102840001093660610936506E092250683E0809358
:102850000406109366061093650610937E23E0929B
:1028600026068DE280930406109366061093650693
:1028700090E080E032E021E030932506809304066A
:1028800020936606209365069F5F805F9031A1F7D5
:1028900080E022E091E020932506109204069093B8
:1028A0006606909365068F5F8033A9F790E080E01D
:1028B00032E021E0309325068093040620936606DB
:1028C000209365069F5F805F9031A1F780E022E052
:1028D00091E020932506109204069093660690934B
:1028E00065068F5F8033A9F790E080E032E021E059
:1028F0003093250680930406209366062093650690
:102900009F5F805F9031A1F780E022E091E020930B
:1029100025061092040690936606909365068F5FD5
:102920008033A9F7023001F1033020F4013009F0BF
:1029300066C006C0033031F1043009F060C03FC00A
:1029400092E09093260686E3809304060093660641
:10295000009365069093250680E780930406009314
:1029600066060093650622C00093260686E38093E0
:10297000040691E090936606909365060093250601
:1029800080ED2BC022E02093260686E38093040688
:1029900091E090936606909365062093250680EA61
:1029A00080930406909366069093650680E491E018
:1029B00080937F239093802380EF90E01CC022E0DF
:1029C0002093260686E38093040691E090936606A2
:1029D000909365062093250680E1809304069093EA
:1029E00066069093650680EF90E080937F23909336
:1029F000802380E491E0809381239093822322E0DE
:102A00002093260681E18093040691E09093660668
:102A1000909365062093260688E38093040690939E
:102A20006606909365062093260683E1809304064C
:102A300090936606909365062093260689E280931C
:102A40000406909366069093650684E080932106C1
:102A5000809325060E94FA0C1F910F91FF90EF9032
:102A60000895CF93DF93DC01EB018091392190E051
:102A7000FC0173E0EE0FFF1F7A95E1F7E80FF91FF5
:102A8000EE52FE4D5781252F2F5F40E030E014C0FD
:102A9000822F90E0FC0163E0EE0FFF1F6A95E1F7E3
:102AA000E80FF91FEE52FE4D8781851721F444236C
:102AB00009F4422F3F5F2F5F2C3250F33C93488341
:102AC000DF91CF910895FC01DB01E081E930B0F0A6
:102AD000409139215C91242F30E0251B31098E2F44
:102AE00090E004972817390724F0E850E50FEC939D
:102AF00008952430310514F044504C93089581E03A
:102B000080933B210895DF93CF9300D0CDB7DEB7FC
:102B1000CE010196BE016E5F7F4F0E943115698123
:102B2000862F90E070E041E050E021E030E00E942C
:102B3000A81F0F900F90CF91DF9108950F931F93CF
:102B4000DF93CF9300D0CDB7DEB719821A8282E02F
:102B50000E944E0C8091392190E0FC01B3E0EE0F11
:102B6000FF1FBA95E1F7E80FF91FEE52FE4D86817F
:102B70008823D9F080933921CE010196BE016E5F82
:102B80007F4F0E94311569812A81862F90E0820F44
:102B9000911D20913921821B910970E041E050E0A4
:102BA00021E030E00E94A81F6FC00481158101154B
:102BB0001105D1F180913C21882329F50E943A200A
:102BC000F801808391830E94B51ACE010196BE015F
:102BD0006E5F7F4F0E94311569812A81862F90E0B8
:102BE000820F911D20913921821B910970E041E0F3
:102BF00050E021E030E00E94A81F81E080933C215A
:102C000080933B2141C0F8016481758142815381E9
:102C100026813781808191810E94A81F10923C21DA
:102C200081E080933A2130C082819381892B61F1C8
:102C3000CE010196BE016E5F7F4F0E943115698102
:102C40002A81862F90E0820F911D20913921821BCD
:102C5000910970E041E050E021E030E00E94A81FBF
:102C600081E080933B218091392190E0FC01A3E039
:102C7000EE0FFF1FAA95E1F7E80FF91FEE52FE4D88
:102C80000280F381E02D099582E00E943C0C0F90B8
:102C90000F90CF91DF911F910F9108958F929F9286
:102CA000AF92BF92CF92DF92EF92FF920F931F935A
:102CB000DF93CF93CDB7DEB76597CDBFDEBF198267
:102CC0001A82F894D0903921789480913C218823FD
:102CD000B1F0CE010196BE016E5F7F4F0E943115AB
:102CE0000E943A208093DE239093DF23D9809A813B
:102CF000D90ED81AF894D092392178944CC00E94F9
:102D00003A20BC0180933D2190933E2180913F2148
:102D1000909140216817790721F480913A21882306
:102D2000D1F110923A2160933F21709340218D2D73
:102D300090E07C0153E0EE0CFF1C5A95E1F7E80EA1
:102D4000F91E42ED51E2E40EF51ED70118968C9162
:102D5000189783702D913C911197813031F414961E
:102D6000ED91FC911597C90111C08E010D5F1F4FA8
:102D7000C801B9010E94542B60913F2170914021FC
:102D8000D7011496ED91FC911597C80140852091CB
:102D900083230E940118809184238D1529F480914A
:102DA0003B21882309F4C9C0D0928423CE01019627
:102DB000BE016E5F7F4F0E943115F980B8E0BF15EC
:102DC00010F448E0F42E8D2D90E0FC0133E0EE0F7E
:102DD000FF1F3A95E1F7E80FF91FEE52FE4D97817C
:102DE00080914121891721F480913B21882309F1A9
:102DF00090934121892F90E0FC0123E0EE0FFF1F0B
:102E00002A95E1F7E80FF91FEE52FE4D8085837099
:102E100060817181813011F4CB0107C08E010D5F9B
:102E20001F4FC8010E94542BC8010E94DF190E9445
:102E3000E41710923B218A81ED2DE81B8E2F8F5FC6
:102E400069810E94B617CE010196BE016E5F7F4F69
:102E50000E946315CA8010E08F2C992483E0A82E6D
:102E6000B12CAC0EBD1E5FC0C90103E0880F991FD5
:102E70000A95E1F7CD1461F5109383237C01E20EEE
:102E8000F31E42ED51E2E40EF51ED70118968C9127
:102E9000189783706D917C911197813041F414964D
:102EA000ED91FC91159740815181CB010BC0C5017B
:102EB0000E94542BD7011496ED91FC9115974081F7
:102EC0005181C501BF012085012F0E94881829C0AA
:102ED0007C01E20EF31EE2EDF1E2EE0EFF1ED701E1
:102EE00018968C91189783706D917C911197813011
:102EF00041F41496ED91FC91159740815181CB01DD
:102F00000BC0C5010E94542BD7011496ED91FC9182
:102F1000159740815181C501BF012085012F0E9475
:102F20001C191F5FC3942C2D30E08A81F401E80F37
:102F3000F11D2E173F070CF497CF6596CDBFDEBF6E
:102F4000CF91DF911F910F91FF90EF90DF90CF9085
:102F5000BF90AF909F908F900895089583E08093E5
:102F6000D129089582E08093D12908952DB73EB7E5
:102F7000215130402DBF3EBFEDB7FEB731969FEFD8
:102F8000ADB7BEB711969C9391839283138214823E
:102F9000158291E0968328E131E0278330872AE08B
:102FA00030E02187328720E030E22387348785872D
:102FB00016866787108A0E948A132DB73EB72F5E48
:102FC0003F4F2DBF3EBF0895CF92DF92EF92FF9209
:102FD0000F931F9380E060E040E024E130E008E2DE
:102FE00010E05CE2E52E51E0F52E98ECC92ED12CD4
:102FF0000E94270F1F910F91FF90EF90DF90CF90CD
:1030000008958F929F92AF92BF92CF92DF92EF92EC
:10301000FF920F931F93CF93DF935C014B0184E1E9
:10302000289FE0011124A89680E060E040E024E1C0
:1030300030E08E01ECE2EE2EE1E0FE2E74E1C72ED0
:10304000D12C0E94270F8DB79EB70D978DBF9EBFC5
:10305000EDB7FEB731960FEFADB7BEB711960C9333
:103060001182128213821482158211E0168384E188
:1030700090E087839087C187D287A386B4860E9419
:103080008A13EDB7FEB73196ADB7BEB711960C9364
:1030900011821282138214821582168388E191E0D4
:1030A00087839087C187D28786E090E28387948761
:1030B0000E948A1300D0EDB7FEB73196ADB7BEB708
:1030C00011960C9311821282138214821582168338
:1030D00088EC90E087839087C187D2878BE090E26D
:1030E00083879487858696860E948A138DB79EB7BC
:1030F0000F968DBF9EBFDF91CF911F910F91FF90D3
:10310000EF90DF90CF90BF90AF909F908F900895F9
:103110006F927F928F929F92AF92BF92CF92DF92E7
:10312000EF92FF920F931F93CF93DF935C014B01BC
:103130003A0184E1089FE0011124A89680E060E054
:1031400040E028EC30E08E01A4E6EA2EF12CF4E118
:10315000CF2ED12C0E94270F8DB79EB70D978DBF14
:103160009EBFEDB7FEB731961FEFADB7BEB7119654
:103170001C931183128313821482158201E006834B
:1031800084E190E087839087C187D287A386B48645
:103190000E948A13EDB7FEB73196ADB7BEB7119650
:1031A0001C931183128313821482158206838CE28E
:1031B00091E087839087C187D2878EE090E28387F2
:1031C00094870E948A138DB79EB70D968DBF9EBFC0
:1031D000892819F1ADB7BEB71F97ADBFBEBFEDB718
:1031E000FEB7319611961C931183128313821482B9
:1031F0001582068388EC90E087839087C187D28709
:103200008BE090E283879487658676860E948A1396
:103210008DB79EB70F968DBF9EBFDF91CF911F9147
:103220000F91FF90EF90DF90CF90BF90AF909F9065
:103230008F907F906F9008956F927F928F929F9260
:10324000AF92BF92CF92DF92EF92FF920F931F93B4
:10325000CF93DF935C014B013A0184E1089FE001C9
:103260001124A89680E060E040E024E130E08E0187
:103270009CE2E92E91E0F92EB4E1CB2ED12C0E94F4
:10328000270F8DB79EB70D978DBF9EBFEDB7FEB7C9
:103290003196ADB7BEB711961C921FEF1183128203
:1032A00013821482158201E0068384E190E0878313
:1032B0009087C187D287A386B4860E948A138DB770
:1032C0009EB70D968DBF9EBF892819F1ADB7BEB7C9
:1032D0001F97ADBFBEBFEDB7FEB7319611961C93D9
:1032E00011831283138214821582068388EC90E086
:1032F00087839087C187D2878BE090E2838794870A
:10330000658676860E948A138DB79EB70F968DBF0D
:103310009EBFDF91CF911F910F91FF90EF90DF90B3
:10332000CF90BF90AF909F908F907F906F900895B7
:10333000DF93CF93CDB7DEB76097CDBFDEBFCE01B1
:10334000019660E070E040E150E00E94D7098823D8
:1033500081F589819A8180936F21909370218B816F
:103360009C8180937821909379218D819E81809397
:103370008121909382218F81988580938A219093D7
:103380008B2189859A8580939321909394218B85B5
:103390009C8580939C2190939D218D859E85809313
:1033A000A5219093A6218F8598898093AE21909333
:1033B000AF216096CDBFDEBFCF91DF910895CF9250
:1033C000DF92EF92FF920F931F93CF93DF93EC0165
:1033D00080918523882329F40E94981981E08093A5
:1033E000852380E060E040E020E030E000E010E095
:1033F00070E4E72E71E0F72E58E2C52ED12C0E9422
:10340000270F8DB79EB70D978DBF9EBFEDB7FEB747
:1034100031968FEFADB7BEB711968C9381838283BF
:1034200013821482158282E08683178210861186A9
:103430001286C387D4870E948A138DB79EB70D96D4
:103440008DBF9EBFDF91CF911F910F91FF90EF90A5
:10345000DF90CF900895DF93CF9300D0CDB7DEB744
:1034600019821A828091392190E0FC01A3E0EE0FCD
:10347000FF1FAA95E1F7E80FF91FEE52FE4D878175
:1034800080933921CE010196BE016E5F7F4F0E946D
:10349000311569812A81862F90E0820F911D20913C
:1034A0003921821B910970E041E050E021E030E0D9
:1034B0000E94A81F0F900F90CF91DF9108950E9456
:1034C0002B1A089581E00E944E0C80914221909128
:1034D00043218093302A9093312A80914B219091FF
:1034E0004C218093342A9093352A809154219091D5
:1034F000552180933C2A90933D2A20915D21309163
:103500005E2180E19EE0AC01249FC001259F900DCB
:10351000349F900D1124AA2797FDA095BA2F809370
:10352000362A9093372AA093382AB093392A80916B
:1035300066219091672180933A2A90933B2A80914B
:10354000C0219091C12180933E2A90933F2A1092EE
:10355000322A8091C9219091CA218093402A909368
:10356000412A81E00E943C0C08950E94621A08954D
:103570008091A5219091A62180934B2190934C217D
:103580008091AE219091AF21809354219093552149
:103590000E942B1A0E94621A0895809193219091A3
:1035A000942180934B2190934C2180919C21909168
:1035B0009D2180935421909355210E942B1A0E94A3
:1035C000621A0895809181219091822180934B21EC
:1035D00090934C2180918A2190918B21809354214A
:1035E000909355210E942B1A0E94621A089580918F
:1035F0006F219091702180934B2190934C21809169
:1036000078219091792180935421909355210E94A3
:103610002B1A0E94621A089598E090938506A1E8FB
:10362000B6E09C9385EE8093A60A8CEB8093A70A64
:1036300080E18093A30A83E08093A50A88E18093C8
:10364000A40AE2EAF0E080818160808380EA8093CE
:103650002C018AE080932D0110922E0184E080934A
:1036600020011092210180ED809322018CE880934B
:1036700023019C93E0E0F1E08081806880830895DD
:10368000FC01818187FD18C0818186FD15C0CB01B9
:1036900060877187AA2797FDA095BA2F8B2F99274E
:1036A000AA27BB278287842F90E08483958380811B
:1036B0008068808380E0089581E008950F931F93D0
:1036C000CF93DF93EC012FEF3FEFA0E0B0E070E08D
:1036D00001E010EA1AC0FE01EA0FFB1F8081E82F0B
:1036E000F0E040E050E0CF01822793273695279500
:1036F00080FF02C0202731274F5F5F4F48305105C0
:1037000019F0F695E795EFCF1196A617B7071CF3BA
:10371000C901DF91CF911F910F910895282F90E05B
:1037200038E1862F822780FD02C0669503C063279B
:10373000669560689F5F983011F02695F2CF862FCE
:1037400008950F931F93CF93DF93062FEC0110E0A2
:1037500060E005C089910E948E1B682F1F5F1017C3
:10376000C8F3862FDF91CF911F910F9108958F920B
:103770009F92AF92BF92CF92DF92EF92FF920F9300
:103780001F93CF93DF935C017B014A016901C1E084
:10379000D0E008C0CE018E9DE0018F9DD00D9E9D92
:1037A000D00D1124C501BE010E94B92A6E157F05F6
:1037B00088F700E010E02AC0C501BE010E94B92AC6
:1037C0009B01CE01B7010E94B92AFB010115110529
:1037D00031F4121613061CF06115710589F42A30B4
:1037E000310514F480E306C08114910411F487E5D7
:1037F00001C087E3820FD6018D936D010F5F1F4FCC
:10380000C501BE010E94B92A5C01EF012097A1F613
:10381000F6011082DF91CF911F910F91FF90EF90F1
:10382000DF90CF90BF90AF909F908F900895BF9200
:10383000CF92DF92EF92FF920F931F93CF93DF937C
:103840006C017B01E801222319F490E2B92E02C039
:1038500080E3B82EFE0102C0415050408191882380
:1038600011F48A010AC014161506B4F3FACFC60182
:103870006B2DF70109950150104010161106BCF38D
:1038800003C0C601F701099569916623D1F7DF915D
:10389000CF911F910F91FF90EF90DF90CF90BF904D
:1038A00008952F923F924F925F926F927F928F92E4
:1038B0009F92AF92BF92CF92DF92EF92FF920F93BF
:1038C0001F93DF93CF93CDB7DEB72C97CDBFDEBF6D
:1038D0002C013B014A0169011E010894211C311C85
:1038E000CBC00894811C911C653211F0C201C2C08A
:1038F000F40171914F01703311F010E003C0719128
:103900004F0111E0872F80538A3018F0AA24BB247E
:1039100031C0AA24BB2412C02B3031055CF5C5018F
:1039200063E0880F991F6A95E1F7AA0CBB1CA80EEB
:10393000B91EA20EB31EF40171914F01872F80535F
:103940008A3028F4272F30E02053304011C0872FD1
:103950008156863028F4272F30E02755304008C0A4
:10396000872F8154863030F4272F30E027533040A2
:1039700037FFD2CF743639F1753680F4783509F4D3
:1039800044C0793538F4772309F47BC0753209F0E7
:1039900073C06EC0733609F06FC050C0753731F018
:1039A000783799F1733709F067C052C042E0E42ECE
:1039B000F12CEC0CFD1CF601808191816AE070E035
:1039C00040E050E032C0F6014081518157FD02C015
:1039D000C10107C0509541955F4FFDE2F983CE01CB
:1039E00002969C0182E090E0C80ED91ECA016AE0EE
:1039F00070E040E050E00E94B71BC201B301A50196
:103A0000212F81010E94171C37C032E0E32EF12CD8
:103A1000EC0CFD1CF6018081918140E050E078358E
:103A200011F441E050E060E170E091010E94B71BA9
:103A3000C201B301A501212F810116C086010E5FCD
:103A40001F4FC201F6016081F3010995680114C09E
:103A500022E0E22EF12CEC0CFD1CF601008111811C
:103A6000C201B301A50120E00E94171C670104C038
:103A7000C20165E2F3010995F4016081662309F052
:103A800030CF2C96CDBFDEBFCF91DF911F910F912C
:103A9000FF90EF90DF90CF90BF90AF909F908F906E
:103AA0007F906F905F904F903F902F900895DC0132
:103AB000ED91FC9111976193ED93FC930895CF9351
:103AC000DF93482F50E081E090E0042E02C0880F81
:103AD000991F0A94E2F7982FF894C0E0D0E020E014
:103AE00030E0A0E4B6E060E8E0E4F6E015966C9320
:103AF000159701C02196809148068923D9F36683E2
:103B000001C02196809148068923D9F72F5F3F4F46
:103B10002530310559F77894FA01EE0FFF1FEF5663
:103B2000FC4D8081918123E630E0AC01429FC001D1
:103B3000439F900D529F900D11248C0F9D1F64E6A2
:103B400070E00E94CD2A6083718380919B238A3F1D
:103B500050F48A3010F4C083D1838F5F80939B230D
:103B600060E070E00EC084E690E09C01C29FC0015E
:103B7000C39F900DD29F900D11240E94CD2A6456B0
:103B80007040CB01DF91CF9108952F923F924F92D9
:103B90005F926F927F928F929F92AF92BF92CF92DD
:103BA000DF92EF92FF920F931F93DF93CF93CDB7E6
:103BB000DEB76897CDBFDEBF24EE33E229833A83B8
:103BC000790110E0812F0E945F1DD7018D939D9395
:103BD0007D011F5F1530B1F71F82188619861A867E
:103BE0001B821C821D821E82B1E0BC871D861E8640
:103BF0001F86188A198A1A8A1B8AE981FA8101901C
:103C0000F081E02DEF8BF88FFF0FEE0BFE2F8F89E9
:103C1000988D9C014E2F5E2F6E2F7E2F8E2F9E2F04
:103C200002E00E945E09122F732E642E552E362E4E
:103C3000272E8C8B9D8B0E945E09422E410E21E027
:103C4000411608F020E0370DE1E0371508F0E0E01C
:103C5000722E730E21E0731608F020E0E22B460D61
:103C600031E0461508F030E06E2E640E21E0641657
:103C700008F020E0322B550D41E0551508F040E0EA
:103C8000532E550E21E0551608F020E0422B630D0F
:103C900031E0631508F030E0342E360E21E03616A0
:103CA00008F020E0322B720D41E0721508F040E080
:103CB000232E270E21E0271608F020E0422BFC8956
:103CC0008F0F21E08F1708F020E0480F4B8731E07D
:103CD000481708F030E0232B1D89190F120F242DEF
:103CE000372D462D552D632D722D8B85912F02E09A
:103CF0000E945E099E8B240DE1E0241508F0E0E0AF
:103D0000370DF1E0371508F0F0E04E2E430EE1E0FC
:103D1000431608F0E0E0FE2B460DA1E0461508F042
:103D2000A0E07F2E740EE1E0741608F0E0E0AE2B08
:103D3000550DF1E0551508F0F0E00A2F050FE1E010
:103D4000051708F0E0E0FE2B630DA1E0631508F015
:103D5000A0E0BF2FB60FE1E0B61708F0E0E0AE2B11
:103D6000720D41E0721508F040E0A70FE1E0A717DF
:103D700008F0E0E04E2B3B85830F91E0831708F0BD
:103D800090E0642E680EE1E0681608F0E0E09E2BFB
:103D90004E89140F342D472D502F6B2F7A2F862DDF
:103DA000910FAC84BD84CE84DF84E888F9880A89C9
:103DB0001B890E94630849015A018B819C81AD8156
:103DC000BE81880D991DAA1DBB1D8B839C83AD836D
:103DD000BE83EF89F88DCF01AA2797FDA095BA2F52
:103DE0002F81388549855A85280F391F4A1F5B1F47
:103DF0002F83388749875A8749815A814E5F5F4FA1
:103E000049835A837C857F5F81E05C85751708F064
:103E100080E06D85680F81E09D85691708F080E07E
:103E20005E85580F81E0AE855A1708F080E04F8517
:103E3000480F81E0BF854B1708F080E03889380FC4
:103E400081E0E8893E1708F080E02989280F81E0A9
:103E5000F9892F1708F080E09A89890F91E0AA89E3
:103E60008A1708F090E07C876D875E874F87388BD4
:103E7000298B8A8BBB89B90FBB8BE981FA81EE5EF6
:103E8000F34209F0BACE8F819885A985BA858C97BF
:103E9000A105B1052CF42FEF3FEF4FEF5FEF11C0FD
:103EA0006B817C818D819E812F81388549855A85E2
:103EB0000E94022B245630404040504057FF01C022
:103EC0009895B901CA016896CDBFDEBFCF91DF9149
:103ED0001F910F91FF90EF90DF90CF90BF90AF9028
:103EE0009F908F907F906F905F904F903F902F901A
:103EF0000895CF93DF93EC01FB01A881B981019074
:103F0000F081E02D109719F4E883F9831EC0842F07
:103F100090E001978A9FB0018B9F700D9A9F700D62
:103F200011246E0F7F1F882777FD8095982F242FEF
:103F30002695620F711D811D911D242F30E040E0F8
:103F400050E00E94022B28833983DF91CF9108959E
:103F50002F923F924F925F926F927F928F929F9299
:103F6000AF92BF92CF92DF92EF92FF920F931F9387
:103F7000DF93CF93CDB7DEB72697CDBFDEBF5C0111
:103F80001A013901CB01A0E0B0E089839A83AB83A9
:103F9000BC83442455249C01AD01221933094409F2
:103FA000550960E07DE780E090E00E94E02A790119
:103FB0008A0120937823309379230027F7FC00951A
:103FC000102FA8E7B3E2AD83BE83CC24DD24C80163
:103FD000B701A60195010E949A2A6093622370930B
:103FE00063238093642390936523ED81FE81329750
:103FF000ED83FE8388249924C801B701A4019301AD
:104000000E949A2AAD81BE816D937C93C801B7014D
:10401000A20191010E949A2A60936E2370936F23EC
:104020008093702390937123C801B70129813A814D
:104030004B815C810E949A2A609372237093732350
:1040400080937423909375232696CDBFDEBFCF91C6
:10405000DF911F910F91FF90EF90DF90CF90BF9075
:10406000AF909F908F907F906F905F904F903F9018
:104070002F9008952091782330917923442737FD9C
:104080004095542F60916223709163238091642343
:10409000909165230E94022BC9010895EF92FF922F
:1040A0000F931F93DF93CF9300D000D0CDB7DEB72F
:1040B0007C018B010E94C51DAB01BC0149835A8361
:1040C000CA01AA2797FDA095BA2FF8018083918392
:1040D000A283B383FFEF4F3F5F07A9F080917A235C
:1040E00090917B238F5F9F4F29F440937A235093C5
:1040F0007B2312C08AE793E2BE016F5F7F4F48E0E7
:104100000E94791F09C040937A2350937B234093E8
:104110007C2350937D2310C020917C2330917D23FC
:1041200080917A2390917B23FFEF2F3F3F0749F443
:1041300080937C2390937D23F7011082118280E08D
:104140002FC0821B930B8B839C83C701BE016D5FC5
:104150007F4F44E00E94791FF701808191819C018B
:1041600097FF04C022273327281B390B253631053A
:104170001CF406960D9758F48FEF9FEF80937C23E5
:1041800090937D2380937A2390937B23D5CF809146
:104190007A2390917B2380937C2390937D2381E0ED
:1041A0002496CDBFDEBFCF91DF911F910F91FF907D
:1041B000EF900895E4EEF3E240E020E030E061E0CB
:1041C00070E080819181819744F0CB01022E02C082
:1041D000880F991F0A94E2F7482B2F5F3F4F3496C0
:1041E0002330310571F7842F08956F927F929F924B
:1041F000AF92BF92CF92DF92EF92FF920F931F93F5
:10420000CF93DF938FE893E260EE73E20E944E203B
:10421000982E0E94DA20A82E60908F237090902311
:104220006092AC267092AD26C0908823D0908923EE
:104230000894C11CD11CC0928823D0928923C091BC
:104240007623D0917723B090862342E0B41611F004
:1042500040E054C280918E23813009F44EC28430F4
:1042600019F440E011E019C0833021F440E010E07F
:1042700001E014C0853031F440E010E000E0FF249C
:10428000F3940DC0863039F440E010E000E0FF24E4
:10429000EE24E39405C010E040E000E0FF24EE24AB
:1042A000209178233091792388279927821B930BBB
:1042B000C817D90709F02FC1442369F4112309F065
:1042C00064C0002309F0DBC0FF2009F0F0C0EE203D
:1042D00009F007C120C1409162235091632360918E
:1042E00064237091652384EF91E0289FE001299F6A
:1042F000D00D389FD00D1124CE01AA2797FDA0958F
:10430000BA2F481759076A077B071CF484E690E028
:1043100002C08AEF90E0289FF001299FF00D389F9E
:10432000F00D112480ED97E0DC012A9FC0012B9F46
:10433000900D3A9F900D1124AA2797FDA095BA2FB2
:10434000481759076A077B070CF4EF0180E797E1EC
:10435000FC012E9FC0012F9F900D3E9F900D1124B8
:10436000AA2797FDA095BA2F481759076A077B0718
:104370004CF088EE93E0289FE001299FD00D389FF4
:10438000D00D1124112309F478C04091622350917B
:104390006323609164237091652380E197E2DC01DF
:1043A0002A9FC0012B9F900D3A9F900D1124AA27A0
:1043B00097FDA095BA2F84179507A607B7074CF06D
:1043C00088EE93E0289FE001299FD00D389FD00D03
:1043D000112480E797E1FC012E9FC0012F9F900DD3
:1043E0003E9F900D1124AA2797FDA095BA2F841700
:1043F0009507A607B7074CF084EF91E0289FE001EE
:10440000299FD00D389FD00D112480ED97E0DC015D
:104410002A9FC0012B9F900D3A9F900D1124AA272F
:1044200097FDA095BA2F84179507A607B7074CF0FC
:104430008AEF90E0289FE001299FD00D389FD00D92
:10444000112484EF91E0FC012E9FC0012F9F900D5D
:104450003E9F900D1124AA2797FDA095BA2F84178F
:104460009507A607B7074CF084E690E0289FE00187
:10447000299FD00D389FD00D11240023C1F080E179
:1044800097E2AC01249FC001259F900D349F900DB1
:104490001124AA2797FDA095BA2F809362239093A9
:1044A0006323A0936423B0936523C0E0D0E0FF2092
:1044B000C1F088E893E1DC012A9FC0012B9F900D99
:1044C0003A9F900D1124AA2797FDA095BA2F8093AB
:1044D000622390936323A0936423B0936523C0E089
:1044E000D0E0EE20C1F084E690E0FC012E9FC001F8
:1044F0002F9F900D3E9F900D1124AA2797FDA09508
:10450000BA2F8093622390936323A0936423B09384
:104510006523C0E0D0E0F1E0BF1679F1BF1648F0A6
:1045200042E0B41609F460C053E0B51609F0CFC0FC
:10453000C4C01092662310926723109268231092D1
:104540006923992019F4AA2009F4C1C01092882384
:10455000109289238091E0239091E123A091E2239E
:10456000B091E32380938A2390938B23A0938C2391
:10457000B0938D2381E08093862381E0981691F497
:104580008827992786199709AA2797FDA095BA2FFA
:104590008093662390936723A0936823B093692345
:1045A00082E017C080915E2390915F23A0916023E9
:1045B000B09161230097A105B10529F482E08093B1
:1045C000862383E006C085E080938723AA2019F024
:1045D00086E08093872310925E2310925F231092CF
:1045E00060231092612373C087E0809387238091BA
:1045F0008E23823021F1843029F1813009F051C0BD
:104600009E01442737FD4095542F8091622390915D
:104610006323A0916423B0916523280F391F4A1F9B
:104620005B1F8091722390917323A0917423B091AA
:104630007523281739074A075B075CF521C00E94DC
:104640009E152FC0CE01AA2797FDA095BA2F2091C5
:104650006223309163234091642350916523281B8A
:10466000390B4A0B5B0B80916E2390916F23A091C5
:104670007023B091712382179307A407B5074CF4F8
:1046800020936223309363234093642350936523E4
:1046900008C08093622390936323A0936423B09314
:1046A000652380918E2380933E2883E08093862328
:1046B00010928823109289230AC0992041F4A5E121
:1046C000CA16D10420F0AA2011F410928623A092D9
:1046D0008E23809186238093EE23A092AB26DF91D8
:1046E000CF911F910F91FF90EF90DF90CF90BF90EF
:1046F000AF909F907F906F90089541E010E0CDCDF6
:1047000083E06AE070E00E94A80A80E88093400697
:1047100083E00E94FC0B83E06AE070E00E94A80A3C
:104720000E9499248823A1F70E94F520F1CF1092CE
:10473000600810926108089580939C230895F8946E
:1047400010920008109201088FEF80934606109295
:1047500000091092010983E08093660684E080934B
:104760002106809325060000FECF1F920F920FB600
:104770000F9208B60F9209B60F92112418BE19BEF7
:104780002F933F934F935F936F937F938F939F9359
:10479000AF93BF93EF93FF9383E60E949F2388ED2F
:1047A00084BF81E080937900FF91EF91BF91AF9139
:1047B0009F918F917F916F915F914F913F912F9139
:1047C0000F9009BE0F9008BE0F900FBE0F901F9064
:1047D000189588ED84BF81E080935300809350004A
:1047E00088E08093550001C000008091510080FF57
:1047F000FBCF81E080935600809368008091500049
:1048000080618093500088ED84BF1092410001C008
:1048100000008091510084FFFBCF88ED84BF24E02D
:104820002093400081E08093400880E1809341081C
:1048300010924208109243081092440810924608C1
:1048400083E08093470880E89EE380936808909314
:1048500069082093A2000E940C1BE0E7F0E08CE1C5
:104860008093700087E08183828389E783838BE76D
:10487000848388E6858308950E94E92380E893E293
:1048800060E04FE358E220E931E00E94350A80E819
:1048900096E262E04FEE53E22CEB32E00E94350AE2
:1048A0008BE895E261E04EEA56E220E931E00E94B1
:1048B000350A82E08093C4231092C5231092C62348
:1048C00081E08093C7231092C8231092C92380935C
:1048D000CA231092CB231092CC231092CD23109296
:1048E000CE231092CF231092D0231092D123109276
:1048F000D2230E94CB0B000081E00E948B0A8093A0
:104900009D2390939E2380E00E948B0A80939F2397
:104910009093A02382E00E948B0A8093A12390931E
:10492000A22383E00E948B0A8093A3239093A42365
:10493000E2CF8091A623813011F085E00895809127
:10494000A02A0895FF920F931F938C01FC01F2801F
:10495000128263810E94A11BF801F2821F910F91C4
:10496000FF9008950F931F938C011092CF2984E03C
:104970008093452AF8011282C80163810E94A11B1D
:10498000F801828380E291E0B80143810E94401BDC
:104990001F910F9108951F93CF93DF93EC01162F72
:1049A00088818733E1F582E49AE20E94A224909103
:1049B000442A8917A1F58981811711F012E637C0C1
:1049C0008C32E9F08D3228F4863139F1813229F4C4
:1049D00006C0823411F18D3401F113E621C081E06B
:1049E0000E944E0CA0E3BAE2FE01349682E10190EF
:1049F0000D928150E1F781E08093A5230CC080E007
:104A00000E944E0CA0EABAE2FE0134968AE50190BB
:104A10000D928150E1F70E943C0C10E001C013E0C0
:104A2000CE016FEF70E04EE550E00E945B2B812FCE
:104A3000DF91CF911F9108951F920F920FB60F92A1
:104A400008B60F9209B60F92112418BE19BE2F9303
:104A50003F934F935F936F937F938F939F93AF9306
:104A6000BF93EF93FF938091A10A84FD04C08091CE
:104A7000A10A83FF05C01092CF2984E08093452AC4
:104A80009091CF299E3598F48091A00AE92FF0E00B
:104A9000EE5BF54D80839F5F9093CF298091452AEF
:104AA000891751F481E061E00E94AE0B05C01092BD
:104AB000CF2984E08093452AFF91EF91BF91AF9178
:104AC0009F918F917F916F915F914F913F912F9126
:104AD0000F9009BE0F9008BE0F900FBE0F901F9051
:104AE00018951F93182F81E062E04CE251E00E947C
:104AF0005B0B80FD02C094E606C082E49AE2612F5F
:104B00000E94CB24982F1092CF2984E08093452ACD
:104B1000892F1F910895AF92BF92CF92DF92EF92AB
:104B2000FF920F931F9381E068EE73E00E94A80A42
:104B300017E351E2A52E04E04CE2B42E36E1F32E49
:104B40002DE4C22E95E0D92E82E4E82E81E00E9469
:104B5000FC0B81E068E572E00E94A80A8091A7231F
:104B6000882391F41093D229A092D3290093D529B8
:104B700082ED99E20E94B22481E20E94712588238D
:104B800019F481E08093A7231093D229B092D329FE
:104B90000093D52982ED99E20E94B2248CE20E9412
:104BA0007125882321F481E08093A62302C010920E
:104BB000A6238091A723813049F61093D229F09241
:104BC000D329F092D5290E944E0CA6EDB9E2E0E37C
:104BD000FAE282E101900D928150E1F781E00E94BA
:104BE0003C0C82ED99E20E94B22486E10E9471257C
:104BF0008091D029813079F41092D0291093D22954
:104C0000E092D3290093D52982ED99E20E94B22443
:104C100082E40E9471258091D129882309F496CFDE
:104C20001093D229C092D329D092D5298093D62926
:104C300082ED99E20E94B2248DE40E9471258823BE
:104C400009F084CF1092D12981CF8F929F92AF9299
:104C5000BF92CF92DF92EF92FF920F931F935C016E
:104C6000F4E08F2E912C880E991E8FEF60E040E0CB
:104C700020EA30E08401E0E4EE2EE1E0FE2E640163
:104C80000E94310E8CE690E0A80EB91E8FEF60E016
:104C900040E020E431E065010E94310E8FEF60E0DA
:104CA00040E020EA30E085010E94310E8FEF60E0A5
:104CB00040E020EA30E0840170EAE72EF12C0E9407
:104CC000310E8FEF60E040E020EA30E050E4E52E66
:104CD00051E0F52E0E94310E8FEF60E040E020EAB7
:104CE00030E0850164010E94310E1F910F91FF9009
:104CF000EF90DF90CF90BF90AF909F908F900895EE
:104D00002F923F924F925F926F927F928F929F92DB
:104D1000AF92BF92CF92DF92EF92FF920F931F93C9
:104D2000DF93CF93CDB7DEB72A97CDBFDEBF82E04A
:104D300061E00E94D9130E9483150E94FA0C80E062
:104D400068EE73E00E94A80A77247A941E01089402
:104D5000211C311C80E00E94FC0B80E06CE271E0C1
:104D60000E94A80A8091A523882309F44AC081E003
:104D70000E944E0C8091302A9091312A80934221DA
:104D8000909343218091342A9091352A80934B212E
:104D900090934C216091362A7091372A8091382A5D
:104DA0009091392A20E13EE040E050E00E94E02A64
:104DB00020935D2130935E2180913A2A90913B2A85
:104DC000809366219093672180913C2A90913D2A9F
:104DD000809354219093552180913E2A90913F2AAF
:104DE0008093C0219093C1218091402A9091412AC3
:104DF0008093C9219093CA2181E00E943C0C1092BB
:104E0000A5239091A02A8091A823981721F00E94B1
:104E1000FA0C0E947F158091A02A8093A8238823F2
:104E200019F40E944E1696CF843009F041C02DB778
:104E30003EB72D5030402DBF3EBFEDB7FEB7319687
:104E4000ADB7BEB711967C92118212821382148282
:104E5000158213E016838AE590E0878390878CE3C0
:104E600090E0818792872DE330E2238734870E9488
:104E70008A13EDB7FEB73196ADB7BEB711967C92E7
:104E800011821282138214821582168384E190E0CB
:104E90008783908788E790E08187928724E430E2D7
:104EA000238734870E948A138DB79EB70D963FC320
:104EB000ADB7BEB71F97ADBFBEBFEDB7FEB731965A
:104EC00011967C921182128213821482158283E0E1
:104ED000868382E291E0878390871186128621E59E
:104EE00030E22387348781E090E0858796870E94AF
:104EF0008A132091A12A3091A22A00D0EDB7FEB7E3
:104F00003196ADB7BEB711967C9271821282138230
:104F10001482158292E0C92EC682178210861186ED
:104F2000128684E590E283879487C90168EE73E076
:104F30000E94CD2A65877687C90168EE73E00E94DA
:104F4000CD2A6AE070E00E94CD2A6787708B0E94AC
:104F50008A132091A32A3091A42AEDB7FEB7319687
:104F6000ADB7BEB711967C92718212821382148201
:104F70001582C68280EA90E0878390871186128628
:104F800082E690E283879487C90168EE73E00E940D
:104F9000CD2A65877687C90168EE73E00E94CD2A25
:104FA0006AE070E00E94CD2A6787708B0E948A13A6
:104FB000E090AE2AF090AF2A6091A62A7091A72ABD
:104FC0008091A82A9091A92A20E13EE040E050E09B
:104FD0000E94E02A89019A01ADB7BEB75196ADBFD4
:104FE000BEBFB3E0073E1B0710F5EDB7FEB73F9716
:104FF000EDBFFEBF3196ADB7BEB711967C92718200
:105000007282138214821582C6821782108680E211
:1050100090E0818792878EE690E283879487058768
:1050200016870E948A13ADB7BEB71F9631C0EDB781
:10503000FEB77197EDBFFEBF3196ADB7BEB7119603
:105040007C9271827282138214821582C6821782C8
:10505000108680E290E08187928788E790E28387DC
:105060009487C80168EE73E00E94B92A6587768745
:10507000C80168EE73E00E94B92A6AE070E00E94FD
:10508000B92A6787708B0E948A13ADB7BEB7519655
:10509000ADBFBEBFEDB7FEB77397EDBFFEBF319694
:1050A000ADB7BEB711967C92718272821382148260
:1050B000158282E0868380EA90E08783908780E291
:1050C00090E08187928726E830E223873487C70102
:1050D00060E17EE00E94B92A65877687C70160E1BA
:1050E0007EE00E94B92A6CE370E00E94B92A6787CB
:1050F000708BC7016CE370E00E94B92A818B928BA0
:105100000E948A138DB79EB743968DBF9EBF80E4E1
:1051100090E00E942526ADB7BEB71D97ADBFBEBFBC
:10512000EDB7FEB7319611967C927182728213822E
:1051300014821582FF24F394F6828FE090E0878337
:10514000908700E410E00187128725E930E2238789
:1051500034870E948A13EDB7FEB73196ADB7BEB75C
:1051600011967C9271827282138214821582F68269
:105170008CE390E0878390870187128728E930E2EB
:10518000238734870E948A138AEB882E8AE2982E1E
:1051900000E5A02EB12C11E0412E512C8DB79EB709
:1051A0000D968DBF9EBF66246394ADB7BEB71F97A3
:1051B000ADBFBEBFEDB7FEB7319611967C9271823E
:1051C0007282138214821582668217821086A186EB
:1051D000B28621E530E223873487458656860E94D1
:1051E0008A13942D9150ADB7BEB71F96ADBFBEBF09
:1051F0008091A52A981708F067C0EDB7FEB73F97D2
:10520000EDBFFEBF3196ADB7BEB711967C927182ED
:10521000728213821482158266822FE030E0278327
:105220003087A186B2868CE990E283879487D40187
:105230008D919C91858796870E948A13F401C28084
:10524000D380E480F58000D00DB71EB70F5F1F4FED
:10525000ADB7BEB711967C92F8017182728213824B
:105260001482158266822CE330E027833087A18682
:10527000B28683EA90E283879487C701B60120E172
:105280003EE040E050E00E94E02AD8011D962D93B8
:105290003C931E97C701B60120E13EE040E050E09C
:1052A0000E94E02ADC01CB0164E270E00E94B92A8E
:1052B000F8016787708B0E948A132DB73EB72F5E67
:1052C0003F4F2DBF3EBF29C08DB79EB70F978DBFF3
:1052D0009EBFEDB7FEB731962AEAADB7BEB71196BD
:1052E0002C932183228313821482158266828FE09D
:1052F00090E087839087A186B286ACE9B0E2A3876D
:10530000B487D4018D919C91858796870E948A13DA
:10531000EDB7FEB73F96EDBFFEBF20E130E0A20E35
:10532000B31E0894411C511C8AE090E0880E991E1F
:1053300090EBA916B10409F038CF8091A02A8230F1
:1053400081F0833028F4882381F08130D1F405C0C6
:10535000833099F08530A9F40CC0C1016FEA70E286
:1053600013C0C10168EB70E20FC0C10162EC70E2D2
:105370000BC0C1016CEC70E207C0C10164ED70E2CA
:1053800003C0C1016EED70E20E94622BADB7BEB7E3
:105390001D97ADBFBEBFEDB7FEB7319611961C92FB
:1053A0007182128213821482158282E086831782B0
:1053B000108600EB10E001871287238634860E9456
:1053C0008A1300D0EDB7FEB73196ADB7BEB71196D0
:1053D0007C9271827282138214821582BB24B394F0
:1053E000B682B8E7EB2EF12CE782F08601871287B0
:1053F0002BEE30E2238734878091302A9091312A36
:10540000858796870E948A13EDB7FEB73196ADB7B0
:10541000BEB711967C9271827282138214821582B9
:10542000B682A6EECA2ED12CC782D08601871287FB
:105430002BEF30E2238734878091F62A9091F72A68
:10544000858796870E948A13EDB7FEB73196ADB770
:10545000BEB711967C927182728213821482158279
:10546000B682E782F08600EC10E0018712872AE01E
:1054700031E2238734878091B62A9091B72A8587B5
:1054800096870E948A132091F82A3091F92A00D039
:10549000EDB7FEB73196ADB7BEB711967C9271826B
:1054A0007282138214821582B682C782D0860187E7
:1054B00012878AE191E283879487C90168EE73E0DD
:1054C0000E94CD2A65877687C90168EE73E00E9445
:1054D000CD2A64E670E00E94CD2A6787708B0E9417
:1054E0008A130F900F90EDB7FEB73196ADB7BEB7E8
:1054F00011967C9271827282138214821582B68216
:1055000088EC90E08783908780ED90E08187928798
:105510002DE231E2238734878091B82A9091B92A0D
:10552000858796870E948A138DB79EB70F968DBF89
:105530009EBF10CC629FD001739FF001829FE00D4F
:10554000F11D649FE00DF11D929FF00D839FF00D02
:10555000749FF00D659FF00D9927729FB00DE11DAE
:10556000F91F639FB00DE11DF91FBD01CF0111248B
:105570000895AA1BBB1B51E107C0AA1FBB1FA6179A
:10558000B70710F0A61BB70B881F991F5A95A9F7EC
:1055900080959095BC01CD01089597FB092E0726B3
:1055A0000AD077FD04D0E5DF06D000201AF470950C
:1055B00061957F4F0895F6F7909581959F4F0895D7
:1055C000A1E21A2EAA1BBB1BFD010DC0AA1FBB1F07
:1055D000EE1FFF1FA217B307E407F50720F0A21B79
:1055E000B30BE40BF50B661F771F881F991F1A94E6
:1055F00069F760957095809590959B01AC01BD0110
:10560000CF01089597FB092E05260ED057FD04D033
:10561000D7DF0AD0001C38F450954095309521957D
:105620003F4F4F4F5F4F0895F6F7909580957095D7
:1056300061957F4F8F4F9F4F08952F923F924F92CA
:105640005F926F927F928F929F92AF92BF92CF9212
:10565000DF92EF92FF920F931F93CF93DF93CDB71B
:10566000DEB7CA1BDB0B0FB6F894DEBF0FBECDBF93
:1056700009942A88398848885F846E847D848C8464
:105680009B84AA84B984C884DF80EE80FD800C816D
:105690001B81AA81B981CE0FD11D0FB6F894DEBF50
:1056A0000FBECDBFED010895FB01DC0105900D9209
:1056B0000020E1F70895DC0101C06D934150504096
:1056C000E0F70895FB01DC0101900D920020E1F765
:1056D0000895E0ECF1E0A785A7FDFDCFA485A860C3
:1056E000A4876050704F0C94752BFB01DC0102C045
:1056F00001900D9241505040D8F70895F894FFCF93
:1057000025647625640065646974002564003C3D69
:1057100000553A202564206D56202000533A20255C
:1057200064206D41202000493A202564206D4120ED
:105730002000503A20256420252020200053757039
:10574000706C7900756E646572766F6C74616765F4
:1057500000256400253032642E2530326420562026
:10576000200025642E253032642041202000253081
:105770003364206D41682000253031642E2530329D
:1057800064204168200025643A253032643A25308F
:1057900032642020006D56006D416800253034646D
:1057A000202000253033642E253032642020004331
:1057B000686172676520200046756C6C202020208F
:1057C0002000576169742020202020003F3F3F3F88
:1057D000202020004261742E457272202000576103
:1057E0006161726768212121202000536574702057
:1057F00025303464206D412020200054656D7020D8
:105800002530326420432020200053657470202509
:10581000303464206D562020200053757070202590
:105820003032642E25303164562020200050574DF0
:1058300020253034642020200001000001FF00FFFB
:1058400000FF000064001027FFFF010000B80B6894
:10585000100A00050000B80B681064000500000085
:10586000001027640002000001007017010003000F
:1058700000B80B68100A00050000B80B681064003F
:10588000050000AC0D68100A00050000B80B681098
:105890006400050000D007740E0A00050000B80B74
:1058A00068106400050000D00704100A000500001D
:1058B000B80B68106400050000B80B68100A0005FA
:1058C0000000010010270A00040000401F204EF4D1
:1058D00001050A0F00000000010000130F00000086
:1058E000000900001B0F000042210000002C0F00E7
:1058F000004B210000003D0F00005421000000512A
:105900000F00005D210000005E0F00006621000016
:1059100000670F000000000F00006D0FAD170000C2
:105920000000007E0FB81A0000000100860FF71A71
:105930000000000100920FE21A00000001009E0F1B
:10594000CD1A0000000100AA0F5F1A00000001003C
:10595000B40F00000000010100B40F0000000007B8
:105960000700BB0F00000000150700C80F00000073
:10597000002A0700CC0F0000C921000700D70FAE96
:10598000170000000700E50FB2170000000700B481
:105990000F00000000101000F30F000000001C10AA
:1059A000000310000000001F10000F100000000096
:1059B0002210007E0F00000000251000AA0F00003A
:1059C0000000281000171000000000011000B40FA4
:1059D00000000000161600261000006F21001600BF
:1059E0003D0F00007821001600B40F0000000017E2
:1059F00017003310000081210017003D0F00008ABE
:105A000021001700B40F000000001818004110001A
:105A10000093210018003D0F00009C21001800B4E5
:105A20000F000000001919004F100000A5210019F7
:105A3000003D0F0000AE21001900B40F000000006F
:105A40001A1A005F100000B721001A00B40F0000FE
:105A5000000011110071100000C0210011000000B1
:105A600000000000000000000000630000000000D3
:0E5A70000000007D000000000000FFFFFFFFAF
:00000001FF
