:100000000C9440080C9411200C9461080C94610825
:100010000C9461080C9461080C9461080C946108BC
:100020000C9461080C9461080C9461080C946108AC
:100030000C9461080C9461080C9461080C9461089C
:100040000C9461080C9461080C9461080C9461088C
:100050000C9461080C9461080C94130B0C946108C7
:100060000C9461080C9461080C9461080C9461086C
:100070000C9461080C9461080C9461080C9461085C
:100080000C9461080C9461080C9461080C9461084C
:100090000C9461080C9461080C9461080C9461083C
:1000A0000C9461080C9461080C9461080C9461082C
:1000B0000C9461080C9461080C9461080C9461081C
:1000C0000C9461080C9461080C9461080C9461080C
:1000D0000C9461080C9461080C9461080C946108FC
:1000E0000C9461080C9461080C9478210C946108BC
:1000F0000C9461080C9461080C9461080C946108DC
:100100000C9461080C9461080C9461080C946108CB
:100110000C9461080C9461080C9461080C946108BB
:100120000C9461080C9461080C9461080C946108AB
:100130000C9461080C9461080C9461080C9461089B
:100140000C9461080C9461080C9461080C9461088B
:100150000C9461080C9461080C9461080C9461087B
:100160000C9461080C9461080C9461080C9461086B
:100170000C9461080C94610801000000000000006C
:10018000000000000000000000000000000000006F
:1001900000000000000000000000000001038000DB
:1001A000800080008000800080008000800080004F
:1001B000800000008000000000000000000000003F
:1001C00004039000900090009000000000000000E8
:1001D000000000000000000000000000000000001F
:1001E0000000000009031100110011002200FF802F
:1001F000220022002200FF8044004400440000004E
:100200000000000000000000070210003C00520047
:1002100092009000900070001C00120012009200EA
:100220005400380010000000000000000C03708033
:10023000890089008A008A00720004E00510091014
:100240000910111010E00000000000000000000084
:100250000A03300048008400840028003000484031
:100260008480850084004900308000000000000088
:10027000000000000103800080008000800000007A
:10028000000000000000000000000000000000006E
:1002900000000000000000000303200040004000B8
:1002A000400080008000800080008000800080008E
:1002B00040004000400020000000000003038000D8
:1002C00040004000400020002000200020002000CE
:1002D000200020004000400040008000000000009E
:1002E00005032000F800200050005000000000002E
:1002F00000000000000000000000000000000000FE
:10030000000000000706100010001000FE001000A2
:1003100010001000000000000000000000000000BD
:100320000000000000000000010E8000800080003E
:1003300000000000000000000000000000000000BD
:10034000000000000000000000000000040BF000AE
:10035000000000000000000000000000000000009D
:10036000000000000000000000000000000000008D
:10037000010E8000000000000000000000000000EE
:10038000000000000000000000000000000000006D
:1003900000000000040310001000200020002000D6
:1003A000200040004000400040008000800000002D
:1003B0000000000000000000070338004400820035
:1003C000820082008200820082008200820044005B
:1003D00038000000000000000000000004031000CE
:1003E00030005000900010001000100010001000AD
:1003F00010001000100000000000000000000000CD
:1004000007033C00440082000200020004000400D4
:100410000800100020004000FE0000000000000066
:1004200000000000070338004400840004000C00B2
:1004300038000400020002008200C40038000000FE
:1004400000000000000000000803020006000A008F
:1004500012001200220042008200FF00020002008F
:1004600002000000000000000000000007037E0002
:10047000400040008000F8008400020002000200FA
:10048000820044003800000000000000000000006E
:1004900007033800440082008000B800C4008200D6
:1004A000820082008200440038000000000000004A
:1004B000000000000703FE0004000400080008001C
:1004C000100010001000100020002000200000008C
:1004D0000000000000000000070338004400820014
:1004E0008200440038004400820082008200440000
:1004F0003800000000000000000000000703380082
:100500004400820082008200820046003A0002001D
:1005100082004400380000000000000000000000DD
:100520000106800000000000000000000000000044
:10053000000080000000000000000000000000003B
:100540000000000001068000000000000000000024
:10055000000000000000800080008000000000001B
:100560000000000000000000070602001C00600000
:10057000800060001C00020000000000000000007D
:100580000000000000000000000000000707FE005F
:10059000000000000000FE0000000000000000005D
:1005A000000000000000000000000000000000004B
:1005B0000706800070000C0002000C007000800034
:1005C000000000000000000000000000000000002B
:1005D000000000000703380044008200820002008F
:1005E00004000800100010001000000010000000BF
:1005F00000000000000000000F0307E018182004AE
:1006000043A444628822902290429042904488C839
:1006100047702002180C07F00000000009030800D2
:100620001400140014002200220022007F00410068
:100630004100808080800000000000000000000079
:100640000903FF008100808080808100FE0081001E
:100650008080808080808100FE000000000000001B
:10066000000000000A031F0020804040800080003E
:100670008000800080008000404020801F0000003B
:1006800000000000000000000A03FE0081008080DE
:100690008040804080408040804080408080810059
:1006A000FE00000000000000000000000903FF80C1
:1006B0008000800080008000FF00800080008000BB
:1006C00080008000FF8000000000000000000000AB
:1006D0000803FF0080008000800080008000FE0092
:1006E000800080008000800080000000000000008A
:1006F000000000000A031E002100408080008000EE
:10070000800087C080408040408021001E000000A3
:1007100000000000000000000903808080808080CD
:1007200080808080FF80808080808080808080804A
:100730008080000000000000000000000103800035
:1007400080008000800080008000800080008000A9
:100750008000800080000000000000000000000019
:100760000603040004000400040004000400040064
:100770000400840084008400780000000000000071
:10078000000000000903808081008200840088004E
:100790009800A800C40082008200810080800000D0
:1007A00000000000000000000703800080008000BF
:1007B0008000800080008000800080008000800039
:1007C000FE00000000000000000000000B0380207D
:1007D000C060C060A0A0A0A0912091208A208A20A3
:1007E0008A20842084200000000000000000000017
:1007F00009038080C080A080A0809080888088804D
:1008000084808280828081808080000000000000DF
:10081000000000000A031E0021004080804080404C
:100820008040804080408040408021001E000000C9
:1008300000000000000000000903FE00810080802D
:10084000808080808100FE00800080008000800029
:100850008000000000000000000000000A031E00ED
:100860002100408080408040804080408040804027
:1008700046C021801EC000000000000000000000F3
:100880000903FE0081008080808080808100FE005E
:10089000840082008200810080800000000000004F
:1008A0000000000009033E004100808080004000FD
:1008B0003800070000800080808041003E0000007A
:1008C00000000000000000000903FF80080008008D
:1008D00008000800080008000800080008000800D8
:1008E00008000000000000000000000009038080F4
:1008F00080808080808080808080808080808080F8
:10090000808041003E000000000000000000000068
:1009100009038080808041004100410022002200C4
:10092000220014001400080008000000000000006D
:10093000000000000F03810282824284428444440A
:100940004444244828282828282810101010000083
:1009500000000000000000000B0340402080110058
:1009600011000A0004000A0011001100208040401C
:1009700080200000000000000000000009038080CB
:100980004100410022001400140008000800080083
:10099000080008000800000000000000000000003F
:1009A00009037F8001000200020004000800080023
:1009B0001000200020004000FF8000000000000028
:1009C000000000000303E000800080008000800041
:1009D0008000800080008000800080008000800017
:1009E0008000E00000000000040380008000400060
:1009F00040004000400020002000200020001000A7
:100A00001000000000000000000000000303E000F0
:100A100020002000200020002000200020002000D6
:100A200020002000200020002000E0000000000046
:100A30000703100028002800440044008200000042
:100A400000000000000000000000000000000000A6
:100A5000000000000911FF800000000000000000FD
:100A60000000000000000000000000000000000086
:100A700000000000000000000203800040000000B1
:100A80000000000000000000000000000000000066
:100A900000000000000000000000000007063C000D
:100AA000420082000E0072008200820086007A00FE
:100AB0000000000000000000000000000000000036
:100AC0000703800080008000B800C400820082001C
:100AD000820082008200C400B80000000000000014
:100AE00000000000060638004400800080008000FE
:100AF000800080004400380000000000000000007A
:100B000000000000000000000703020002000200D5
:100B10003A00460082008200820082008200460085
:100B20003A00000000000000000000000706380046
:100B3000440082008200FE008000820044003800F1
:100B400000000000000000000000000000000000A5
:100B50000403300040004000F0004000400040002E
:100B60004000400040004000400000000000000045
:100B70000000000007063A00460082008200820062
:100B80008200820046003A000200840078000000E3
:100B900000000000000000000603800080008000CC
:100BA000B800C400840084008400840084008400B1
:100BB000840000000000000000000000010380002D
:100BC0000000000080008000800080008000800025
:100BD0008000800080000000000000000000000095
:100BE000030320000000000020002000200020005F
:100BF0002000200020002000200020002000C00055
:100C00000000000007038000800080008200840054
:100C100088009000B000C8008800840082000000B6
:100C20000000000000000000010380008000800040
:100C300080008000800080008000800080008000B4
:100C40008000000000000000000000000B06B9C09A
:100C5000C620842084208420842084208420842032
:100C60000000000000000000000000000000000084
:100C70000606B800C4008400840084008400840058
:100C8000840084000000000000000000000000005C
:100C90000000000007063800440082008200820045
:100CA00082008200440038000000000000000000C4
:100CB00000000000000000000706B800C400820029
:100CC0008200820082008200C400B80080008000A0
:100CD00080000000000000000000000007063A004D
:100CE00046008200820082008200820046003A00B4
:100CF00002000200020000000000000000000000EE
:100D00000406B000C00080008000800080008000E9
:100D100080008000000000000000000000000000D3
:100D20000000000006067800840080008000780043
:100D300004000400840078000000000000000000AF
:100D40000000000000000000040440004000F0002B
:100D50004000400040004000400040004000700063
:100D600000000000000000000000000006068400F3
:100D70008400840084008400840084008C0074005B
:100D80000000000000000000000000000000000063
:100D90000706820082004400440028002800280042
:100DA0001000100000000000000000000000000023
:100DB000000000000B06842084204A404A40514035
:100DC00051405140208020800000000000000000C1
:100DD0000000000000000000070682004400280018
:100DE00028001000280028004400820000000000B5
:100DF0000000000000000000000000000706820064
:100E000082008400440044002800280028001000CC
:100E10001000100060000000000000000000000052
:100E20000706FE0004000800080010002000200053
:100E30004000FE0000000000000000000000000074
:100E40000000000005031800200020002000200002
:100E500020002000C00020002000200020002000F2
:100E600020001800000000000103800080008000C6
:100E70008000800080008000800080008000800072
:100E80008000800080008000000000000503C0009A
:100E9000200020002000200020002000180020005A
:100EA00020002000200020002000C00000000000E2
:100EB0000808718E00000000000000000000000023
:100EC0000000000000000000000000000000000022
:100ED000000000000805FF00810081008100810002
:100EE0008100810081008100FF00000000000000FF
:100EF0000000000000000000506F776572656420FC
:100F0000627900464142004F530052656164792E78
:100F10002E2E00507265736574730043757272658E
:100F20006E7420536574706F696E740043656C6CE9
:100F300020566F6C74616765205345540042616CA4
:100F40002E2041637469762E20566F6C746167653C
:100F5000004D6178204361706163697479004D616F
:100F6000782054696D650053657475700053686F1F
:100F700077204C6173742056616C756573005374EF
:100F80006F7261676500436861726765204C6950E4
:100F90006F00436861726765204C69496F00436860
:100FA00061726765204C69466500446973636861D6
:100FB00072676500286261636B2900507265736512
:100FC000742053657475700050776D004D696E2004
:100FD000537570706C790043616C696272617469F9
:100FE0006F6E20480043616C6962726174696F6E54
:100FF000204C004C69746869756D20506F6C796D78
:101000006572004C69746869756D20496F6E004C9B
:10101000694665506F3400286261636B20746F20ED
:101020004D61696E29004C69506F20566F6C746178
:101030006765004C69496F6E20566F6C7461676517
:10104000004C694665506F3420566F6C742E005307
:10105000746F7261676520566F6C746167650044D8
:10106000697363686172676520566F6C7461676548
:1010700000526566726573682D706572696F6400F1
:1010800011241FBECFEFDFE2DEBFCDBF18BE19BEF9
:101090001ABE1BBE13E2A0E0B0E2EAE4FFE402C025
:1010A00005900D92AA37B107D9F71AE2AAE7B3E281
:1010B00001C01D92A63FB107E1F70E9498200C9451
:1010C000A3270C940000CF92DF92EF92FF920F9330
:1010D0001F93DF93CF9300D0CDB7DEB76C018B01A8
:1010E0007A0119821A82F8940E948E270E0D1F1D14
:1010F000CE010196B80142E050E00E948E27C60161
:101100006E2D0E94EA19789440E029813A81821775
:10111000930709F041E0842F0F900F90CF91DF915A
:101120001F910F91FF90EF90DF90CF90089540E0D6
:1011300050E061E070E0FA01EE0FFF1FE40FF51FD1
:10114000EB55FC4D848D958D892BA9F0848D958D63
:101150000197848F958F848D958D892B61F42091D3
:10116000B723838DFB0102C0EE0FFF1F8A95E2F7C4
:101170002E2B2093B7234F5F5F4F46305105D9F692
:1011800008950F931F938C01A62FBA01A90180E047
:1011900090E02A2F265505C0FB01E80FF91F208398
:1011A000019684179507C0F3B0E0FD01EE0FFF1F15
:1011B000EB55FC4D65A776A7CA018397FB01E80FA5
:1011C000F91F02C01192019684179507D8F3209158
:1011D000B72381E090E00A2E02C0880F991F0A947D
:1011E000E2F7282B2093B72341505040640F751F1E
:1011F000AA0FBB1FAB55BC4D53966D937C93549770
:101200005396ED91FC915497319710835396ED913D
:10121000FC915497008353968D919C91549783979A
:1012200053968D939C9354971F910F91089590E03E
:10123000FC01EE0FFF1FEB55FC4DA5A5B6A520E068
:1012400030E0AC0146555F4F73968C9190E0841767
:10125000950741F411962F5F3F4F808191818A1746
:101260009B0798F7C9010895863020F087E00E9417
:10127000F81F0895F89490E0FC01EE0FFF1FE80FAF
:10128000F91FEB55FC4D648F758F7894089580910C
:10129000B72380FF02C080E00BC0869580FF02C0AC
:1012A00081E006C0869580FD02C023E002C082E096
:1012B000282FA22FB0E0AB55BC4D1D968C911D97E9
:1012C0008F3FF1F01D96EC911D97F0E0EB55FC4D32
:1012D00082858F3FA9F01D96EC91F0E0EB55FC4D17
:1012E00022858091B72390E0022E02C095958795C4
:1012F0000A94E2F780FD04C08DE40E94F81F23E009
:10130000822F0895F8940F921F922F923F924F923E
:101310005F926F927F928F929F92AF92BF92CF9285
:10132000DF92EF92FF920F931F932F933F934F9370
:101330005F936F937F938F939F93AF93BF93CF935D
:10134000DF93EF93FF930FB60F921124E091B62332
:10135000F0E08DB79EB705EA13E2EE0FFF1FE00F36
:10136000F11F838B948B0E9447098093B623809151
:10137000B62390E0880F991F080F191FF801838981
:1013800094898DBF9EBF0F900FBEFF91EF91DF91AB
:10139000CF91BF91AF919F918F917F916F915F910D
:1013A0004F913F912F911F910F91FF90EF90DF9000
:1013B000CF90BF90AF909F908F907F906F905F90F5
:1013C0004F903F902F901F900F90789408950F9317
:1013D0001F93182F062F862FBA010E943409F89404
:1013E000E091B623F0E0EB55FC4D84818123F1F4CC
:1013F000E091B623F0E0EB55FC4D17833091B72315
:101400002091B62381E090E002C0880F991F2A95B1
:10141000E2F7809583238093B7230E948209F89492
:10142000E091B623F0E0EB55FC4D1782E091B62336
:10143000F0E0EB55FC4D24812123E091B623F0E050
:10144000EB55FC4D8481109581238483222361F028
:10145000802F90E0FC01EE0FFF1FE80FF91FEB5506
:10146000FC4D148E158E01C000007894822F1F91C0
:101470000F910895F894482F50E0FA01EB55FC4D78
:101480008481862B84838781862379F02091B723FA
:1014900081E090E002C0880F991F4A95E2F7282B5F
:1014A0002093B7230E9482090895789408958FEFBE
:1014B0008093B2238093B3238093B4238093B52386
:1014C0008093AF238093B0238093B123EDB7FEB711
:1014D00086EF9AE28093D8239093D9232DEA01C016
:1014E00022938091D8239091D9238E179F07C0F320
:1014F0001092A5231092A6231092A7231092A8233E
:1015000083E08093B623789478940E9482090895AA
:10151000E82F863010F087E015C08091B623833025
:1015200011F484E00FC02E2F30E0F901EE0FFF1F01
:10153000E20FF31FEB55FC4D938D8091B623981766
:1015400021F089E00E94F81F0895F894F901EE0F48
:10155000FF1FE20FF31FEB55FC4D848D958D892BFA
:1015600029F488E00E94F81F789408953091B723F9
:101570002091B62381E090E002C0880F991F2A9540
:10158000E2F7809583238093B7230E948209089510
:10159000833024F086E00E94F81F0895F894E82F25
:1015A000FF27E7FDF095EB55FC4D8FEF82870E94FA
:1015B00082090895EF92FF920F931F93CF93DF93C9
:1015C000182F833024F085E00E94F81F25C0F8947E
:1015D000C82FDD27C7FDD095CB55DC4D0AE0E02EA6
:1015E000F12CEC0EFD1E0FEF0FC0E091B623F0E0E2
:1015F000EB55FC4D15870E948209F894E091B623C3
:10160000F0E0EB55FC4D0587F70180818F3F69F7CE
:101610008091B6238A877894DF91CF911F910F91A3
:10162000FF90EF9008950F921F922F923F924F924A
:101630005F926F927F928F929F92AF92BF92CF9262
:10164000DF92EF92FF920F931F932F933F934F934D
:101650005F936F937F938F939F93AF93BF93CF933A
:10166000DF93EF93FF930FB60F921124E091B6230F
:10167000F0E08DB79EB705EA13E2EE0FFF1FE00F13
:10168000F11F838B948B0E94F31FF801808191815D
:10169000A281B3810196A11DB11D80839183A28394
:1016A000B3830E9497080E9447098093B6238091D4
:1016B000B62390E0880F991F080F191FF80183893E
:1016C00094898DBF9EBF0F900FBEFF91EF91DF9168
:1016D000CF91BF91AF919F918F917F916F915F91CA
:1016E0004F913F912F911F910F91FF90EF90DF90BD
:1016F000CF90BF90AF909F908F907F906F905F90B2
:101700004F903F902F901F900F90189522E02093BC
:1017100026068AE28093040681E080936606809321
:101720006506209325061092040680936606809332
:101730006506209325061092040680936606809322
:1017400065062093250680930406809366068093A1
:101750006506209325069FE3909304068093660612
:1017600080936506209326069BE29093040680935F
:1017700066068093650620932506109204068093E2
:1017800066068093650620932506109204068093D2
:1017900066068093650620932506109204068093C2
:1017A000660680936506209325069FEE90930406B7
:1017B0008093660680936506209326069CE29093AC
:1017C0000406809366068093650620932506109292
:1017D000040680917A238130B9F490E021E012C0B0
:1017E000209366062093650620936606209365067F
:1017F00020936606209365068F5F803A89F79F5F86
:10180000903F39F180E0ECCF823019F520E081E0A3
:101810001EC080936606809365068093660680935B
:1018200065068093660680936506809366068093BE
:1018300065068093660680936506809366068093AE
:1018400065069F5F903A29F72F5F203F11F090E0E7
:10185000E0CF08950F931F93DF93CF9300D000D074
:10186000CDB7DEB7E82F29833A830B831C83209101
:101870007A23213019F050E070E009C0862F8F7074
:101880005E2F5295507F582B742F7295707F32E0E7
:10189000309326068AE28093040691E090936606D0
:1018A000909365068A813093250680930406909371
:1018B0006606909365068981309325068093040619
:1018C0009093660690936506309326068BE280938C
:1018D000040690936606909365068C8130932506E6
:1018E0008093040690936606909365068B813093EF
:1018F00025068093040690936606909365063093C0
:1019000026068CE280930406909366069093650603
:10191000213089F4309325065093040620936606FF
:10192000209365063093250670930406209366067F
:10193000209365061AC02230C1F420932506E09357
:10194000040690936606909365062093250660939F
:1019500004069093660690936506209325064093AF
:10196000040690936606909365062496CDBFDEBF6D
:10197000CF91DF911F910F9108952F923F924F9237
:101980005F926F927F928F929F92AF92BF92CF920F
:10199000DF92EF92FF920F931F93DF93CF93CDB718
:1019A000DEB72597CDBFDEBF89836A834B833901BC
:1019B000580122E0209326068AE28093040681E003
:1019C0008093660680936506209325061092040690
:1019D0008093660680936506209325061092040680
:1019E00080936606809365062093250680930406FF
:1019F0008093660680936506209325069FE3909367
:101A000004068093660680936506209326069BE273
:101A100090930406809366068093650620932506BE
:101A2000109204068093660680936506209325062F
:101A3000109204068093660680936506209325061F
:101A4000109204068093660680936506209325060F
:101A50009FEE909304068093660680936506C60108
:101A6000801B910B97012619370997FD04C071E07F
:101A7000272E312C06C0909581959F4F22242A94C1
:101A8000322C37FD04C061E0462E512C06C0309543
:101A900021953F4F44244A94542C4C01880C991CA6
:101AA000C901880F991F8C839D8389816A814B812D
:101AB000930185010E942A0CEC81FD818E169F0600
:101AC000F4F4CF01959587956401C81AD90A13C01B
:101AD000D7FC06C0A20CB31C8C819D81C81AD90A00
:101AE000640C751CC80CD91C89816A814B819301D7
:101AF00085010E942A0C6E147F0451F71EC0C40198
:101B000095958795EC80FD80E81AF90A13C0F7FCDB
:101B100004C0640C751CE818F908A20CB31CEC8115
:101B2000FD81EE0EFF1E89816A814B819301850143
:101B30000E942A0CAC14BD0451F72596CDBFDEBF20
:101B4000CF91DF911F910F91FF90EF90DF90CF9099
:101B5000BF90AF909F908F907F906F905F904F90CD
:101B60003F902F900895BF92CF92DF92EF92FF9215
:101B70000F931F93DF93CF93CDB7DEB72697CDBFDB
:101B8000DEBFB82E2B833C830D831E8370917A2396
:101B9000713021F0B0E0A0E050E012C0862F8F70CD
:101BA000BB2DB295B07FB82BA42FA295A07F8B2D13
:101BB0008F70A82B842F8F70562F5295507F582BE3
:101BC00032E0309326068AE28093040621E02093D7
:101BD0006606209365068C81309325068093040663
:101BE00020936606209365068B81309325068093AB
:101BF000040620936606209365068B819C810197DD
:101C00008E0D9F1D89839A83FE01319681813093C9
:101C10002506809304062093660620936506898135
:101C2000309325068093040620936606209365066C
:101C3000309326068BE28093040620936606209359
:101C400065068E81309325068093040620936606F0
:101C5000209365068D81309325068093040620939A
:101C60006606209365068D819E8101978C0D9D1DD2
:101C700089839A838181309325068093040620937B
:101C800066062093650689813093250680930406B5
:101C90002093660620936506309326068CE2809397
:101CA00004062093660620936506713081F5CE9C6C
:101CB000B001CF9C700DDE9C700D112480E020E0FF
:101CC00030E042E091E01FC0882351F040932506A8
:101CD00050930406909366069093650680E011C0C9
:101CE00040932506B093040690936606909365068C
:101CF00040932506A093040690936606909365068C
:101D000081E02F5F3F4F26173707F0F22AC072306D
:101D100041F5CE9CF001CF9CF00DDE9CF00D11241E
:101D200080E090E032E021E019C030932506B092C7
:101D3000040620936606209365063093250660937B
:101D4000040620936606209365063093250640938B
:101D50000406209366062093650601968E179F075A
:101D600020F32696CDBFDEBFCF91DF911F910F915B
:101D7000FF90EF90DF90CF90BF9008952F923F9209
:101D80004F925F926F927F928F929F92AF92BF928B
:101D9000CF92DF92EF92FF920F931F93DF93CF9337
:101DA000CDB7DEB72A97CDBFDEBF68874987622EE1
:101DB000702E2E2CDC2CAA868B829C82A82EBB2413
:101DC00084E290E0A89EF001A99EF00DB89EF00D6F
:101DD0001124E850F34024912D833196149172E040
:101DE000709326068AE28093040661E0609366069B
:101DF000609365068C81709325068093040660933A
:101E00006606609365068B817093250680930406B1
:101E100060936606609365063A85A32FB0E0822F33
:101E200090E002968A9F70018B9FF00C9A9FF00CB5
:101E300011248B819C8101978E0D9F1D89839A832C
:101E4000FE0131968181709325068093040660938C
:101E50006606609365068981709325068093040663
:101E60006093660660936506709326068BE2809306
:101E70000406609366066093650688A17093250644
:101E80008093040660936606609365068F8D709359
:101E900025068093040660936606609365062F8D81
:101EA00038A121503040CD01880F991FAC0103E0CB
:101EB000440F551F0A95E1F7840F951F280F391F0E
:101EC00029833A8381817093250680930406609369
:101ED00066066093650689817093250680930406E3
:101EE0006093660660936506709326068CE2809385
:101EF0000406609366066093650680917A238130BC
:101F000009F00DC189858F703884329430EF332207
:101F1000382A8FE068224984429420EF42224628E2
:101F2000872D8F70729490EF7922782A9C2D92954C
:101F3000907F592E582AEFE0DE22C22CC29480EF07
:101F4000C822CD2868846E22692AE12FF0E0EA9F3A
:101F50004001EB9F900CFA9F900C112430E050E070
:101F600012E071E024C0552391F0109325065092A1
:101F70000406709366067093650610932506C0925A
:101F80000406709366067093650650E009C01093CE
:101F9000250670920406709366067093650651E0FC
:101FA0002F5F822F90E08E159F05ECF23F5F832F0D
:101FB00090E08815990514F420E0F3CFC501880F4F
:101FC000991F4C0113E0880C991C1A95E1F7880EB3
:101FD000991E21EC3DEF820E931ECD01880F991FB3
:101FE0008E839F83AA24BB24A2E1EA2EF12CEE1A51
:101FF000FF0A62E071E084C0242F30E0C9018770DD
:102000009070892B19F4FD011196A4908A2D90E00F
:10201000209530952770307002C0959587952A9548
:10202000E2F78170907020E034C00097A1F0552352
:1020300069F06093250660920406709366067093BB
:102040006506609325064092040613C0609325063A
:102050003092040618C0552391F0609325065092E3
:102060000406709366067093650660932506C09219
:102070000406709366067093650650E009C060938D
:10208000250670920406709366067093650651E00B
:102090002F5FEA852E1748F24F5FFD814F1708F436
:1020A000ABCF20E01EC0552391F0609325065092DF
:1020B0000406709366067093650660932506C092C9
:1020C0000406709366067093650650E009C060933D
:1020D000250670920406709366067093650651E0BB
:1020E0002F5F822F90E0EE81FF818E179F07DCF239
:1020F000D394FA85DF1618F4D80140E0CECFB3941C
:102100008B2D90E08E159F050CF0E4C08C01080D1E
:10211000191D000F111F08581E4FDD24EACF823011
:1021200009F0D8C0612F70E06A9FF0016B9FF00D3D
:102130007A9FF00D112430E052E041E01FC050932F
:1021400025067092040640936606409365065093F8
:102150002506209204064093660640936506509338
:102160002506D092040640936606409365062F5FCD
:10217000822F90E08E159F0514F33F5F832F90E030
:102180008E179F0714F420E0F3CFC501880F991F25
:102190008C0143E0000F111F4A95E1F7080F191F4A
:1021A0000F5312402D01440C551CE0E0BB2422E1EA
:1021B000822E912C861A970A92E0C92E41E07CC0AB
:1021C000252F30E0C90187709070892B21F4FB0125
:1021D0006F5F7F4FE4918E2F90E0209530952770B0
:1021E000307002C0959587952A95E2F781709070BE
:1021F00020E032C00097B9F0C092250638853093B0
:1022000004064093660640936506C0922506F9854C
:10221000F09304064093660640936506C092250637
:102220006092040614C0C092250670920406409382
:10223000660640936506C0922506209204064093E8
:10224000660640936506C0922506D0920406409328
:102250006606409365062F5F3A85231758F25F5F45
:102260008D81581708F4ACCF20E019C0C092250624
:10227000709204064093660640936506C092250658
:10228000209204064093660640936506C092250698
:10229000D092040640936606409365062F5F822F16
:1022A00090E08415950514F3F3949A85F91618F4C3
:1022B000BD0150E0D5CFB3948B2D90E088159905E2
:1022C0004CF4DC01A00FB11FAA0FBB1FA858BE4FD2
:1022D000FF24EBCF2A96CDBFDEBFCF91DF911F91B8
:1022E0000F91FF90EF90DF90CF90BF90AF909F90B5
:1022F0008F907F906F905F904F903F902F900895B8
:102300002F923F924F925F926F927F928F929F9205
:10231000AF92BF92CF92DF92EF92FF920F931F93F3
:10232000DF93CF93CDB7DEB72897CDBFDEBF8D83C8
:102330006E834F832887D02EFE2C1C2D2C2D30E051
:102340002B833C83C901880F991FFC0123E0EE0F0A
:10235000FF1F2A95E1F7E80FF91FE983FA832501AA
:10236000140104E2B02E46C04B9DF0011124E85048
:10237000F340E4916E2E77242B813C81629EC00154
:10238000639E900D729E900D1124840D951D2091D9
:102390007B2330917C232817390730F489819A8177
:1023A000280E391E44245524ED8DFE8D3196ED8F77
:1023B000FE8F00D0EDB7FEB721823282842F6D816F
:1023C0004E812F810885ED2CCF2CA12E42010E9439
:1023D000BE0E22E030E0620E731EEB81FC816E9E29
:1023E000C0016F9E900D7E9E900D1124480E591EC7
:1023F0000F900F90ED8DFE8D4081442309F0B4CFF6
:102400002896CDBFDEBFCF91DF911F910F91FF9036
:10241000EF90DF90CF90BF90AF909F908F907F9084
:102420006F905F904F903F902F9008958F929F9262
:10243000AF92BF92CF92EF92FF920F931F93DF93D1
:10244000CF93CDB7DEB7A097CDBFDEBFFE01FB9621
:102450008E010D5F1F4F8EE1D8011D928A95E9F71D
:1024600009831A837E010894E11CF11CC70163EE05
:102470007BE149AD5AAD9F010E94DD1AC70160E0C2
:102480000E94E31B00D0EDB7FEB7018312838EA537
:102490006FA548A929A90AA9EBA8CCA8ADA8BEA8F0
:1024A0008FA898AC0E9480110F900F90A096CDBF7E
:1024B000DEBFCF91DF911F910F91FF90EF90CF90F2
:1024C000BF90AF909F908F900895EF92FF920F93DF
:1024D0001F93182F062F8FEF8093000682E0E82EBF
:1024E000E09221068FE080936106FF24F394F0923E
:1024F000650684E08093660688E080936606E09235
:102500002606E09265068093650680E064EF71E040
:102510000E94340980E00E94880A1230A9F41093C6
:1025200026068AE380930406F0926606F09265061A
:102530001093250687E080930406F0926606F092D9
:10254000650610937A237AC0113009F077C0E092C3
:1025500026068AE3809304061093660610936506A8
:10256000E092250683E0809304061093660610939C
:10257000650610937A23E09226068DE28093040686
:10258000109366061093650690E080E032E021E04B
:1025900030932506809304062093660620936506F3
:1025A0009F5F805F9031A1F780E022E091E020936F
:1025B00025061092040690936606909365068F5F39
:1025C0008033A9F790E080E032E021E030932506E7
:1025D0008093040620936606209365069F5F805FC4
:1025E0009031A1F780E022E091E02093250610923F
:1025F000040690936606909365068F5F8033A9F773
:1026000090E080E032E021E03093250680930406DC
:1026100020936606209365069F5F805F9031A1F747
:1026200080E022E091E0209325061092040690932A
:102630006606909365068F5F8033A9F7023001F13B
:10264000033020F4013009F066C006C0033031F1D8
:10265000043009F060C03FC092E09093260686E304
:102660008093040600936606009365069093250602
:1026700080E780930406009366060093650622C0F7
:102680000093260686E38093040691E09093660605
:10269000909365060093250680ED2BC022E02093E1
:1026A000260686E38093040691E090936606909355
:1026B00065062093250680EA8093040690936606BB
:1026C0009093650680E491E080937B2390937C2334
:1026D00080EF90E01CC022E02093260686E38093E2
:1026E000040691E090936606909365062093250674
:1026F00080E180930406909366069093650680EFD0
:1027000090E080937B2390937C2380E491E08093FE
:102710007D2390937E2322E02093260681E18093FF
:10272000040691E090936606909365062093260632
:1027300088E3809304069093660690936506209341
:10274000260683E1809304069093660690936506BF
:102750002093260689E28093040690936606909360
:10276000650684E080932106809325060E94860BEF
:102770001F910F91FF90EF900895CF93DF93DC01AD
:10278000EB018091392190E0FC0173E0EE0FFF1F17
:102790007A95E1F7E80FF91FEE52FE4D5781252F8C
:1027A0002F5F40E030E014C0822F90E0FC0163E036
:1027B000EE0FFF1F6A95E1F7E80FF91FEE52FE4D8D
:1027C0008781851721F4442309F4422F3F5F2F5F4F
:1027D0002C3250F33C934883DF91CF910895FC0154
:1027E000DB01E081E930B0F0409139215C91242F88
:1027F00030E0251B31098E2F90E004972817390708
:1028000024F0E850E50FEC9308952430310514F0DE
:1028100044504C93089581E080933B210895DF93C9
:10282000CF9300D0CDB7DEB7CE010196BE016E5F6B
:102830007F4F0E94BD136981862F90E070E041E0D8
:1028400050E021E030E00E94511C0F900F90CF919A
:10285000DF9108950F931F93DF93CF9300D0CDB7EF
:10286000DEB719821A8282E00E94DA0A8091392149
:1028700090E0FC01B3E0EE0FFF1FBA95E1F7E80F1F
:10288000F91FEE52FE4D86818823D9F080933921BD
:10289000CE010196BE016E5F7F4F0E94BD1369811C
:1028A0002A81862F90E0820F911D20913921821B71
:1028B000910970E041E050E021E030E00E94511CBD
:1028C0006FC00481158101151105D1F180913C2162
:1028D000882329F50E94E31CF801808391830E94DC
:1028E0004119CE010196BE016E5F7F4F0E94BD135C
:1028F00069812A81862F90E0820F911D20913921D4
:10290000821B910970E041E050E021E030E00E943C
:10291000511C81E080933C2180933B2141C0F80110
:1029200064817581428153812681378180819181C3
:102930000E94511C10923C2181E080933A2130C0CA
:1029400082819381892B61F1CE010196BE016E5F78
:102950007F4F0E94BD1369812A81862F90E0820FEC
:10296000911D20913921821B910970E041E050E0D6
:1029700021E030E00E94511C81E080933B21809156
:10298000392190E0FC01A3E0EE0FFF1FAA95E1F7CB
:10299000E80FF91FEE52FE4D0280F381E02D0995FC
:1029A00082E00E94C80A0F900F90CF91DF911F9193
:1029B0000F9108958F929F92AF92BF92CF92DF9224
:1029C000EF92FF920F931F93DF93CF93CDB7DEB7B4
:1029D0006597CDBFDEBF19821A82F894D090392155
:1029E000789480913C218823B1F0CE010196BE01FC
:1029F0006E5F7F4F0E94BD130E94E31C8093DA2319
:102A00009093DB23D9809A81D90ED81AF894D0926A
:102A1000392178944CC00E94E31CBC0180933D2175
:102A200090933E2180913F21909140216817790732
:102A300021F480913A218823D1F110923A216093B8
:102A40003F21709340218D2D90E07C0153E0EE0CEE
:102A5000FF1C5A95E1F7E80EF91E42ED51E2E40E33
:102A6000F51ED70118968C91189783702D913C9183
:102A70001197813031F41496ED91FC911597C901AD
:102A800011C08E010D5F1F4FC801B9010E94792747
:102A900060913F2170914021D7011496ED91FC91F6
:102AA0001597C801408520917F230E948D16809143
:102AB00080238D1529F480913B21882309F4C9C016
:102AC000D0928023CE010196BE016E5F7F4F0E949F
:102AD000BD13F980B8E0BF1510F448E0F42E8D2D39
:102AE00090E0FC0133E0EE0FFF1F3A95E1F7E80FAD
:102AF000F91FEE52FE4D978180914121891721F4F3
:102B000080913B21882309F190934121892F90E006
:102B1000FC0123E0EE0FFF1F2A95E1F7E80FF91FF4
:102B2000EE52FE4D8085837060817181813011F499
:102B3000CB0107C08E010D5F1F4FC8010E9479278E
:102B4000C8010E946B180E94701610923B218A8166
:102B5000ED2DE81B8E2F8F5F69810E944216CE01FA
:102B60000196BE016E5F7F4F0E94EF13CA8010E096
:102B70008F2C992483E0A82EB12CAC0EBD1E5FC013
:102B8000C90103E0880F991F0A95E1F7CD1461F59B
:102B900010937F237C01E20EF31E42ED51E2E40E1E
:102BA000F51ED70118968C91189783706D917C91C2
:102BB0001197813041F41496ED91FC911597408165
:102BC0005181CB010BC0C5010E947927D701149612
:102BD000ED91FC91159740815181C501BF01208580
:102BE000012F0E94141729C07C01E20EF31EE2EDB2
:102BF000F1E2EE0EFF1ED70118968C9118978370A4
:102C00006D917C911197813041F41496ED91FC9176
:102C1000159740815181CB010BC0C5010E947927D6
:102C2000D7011496ED91FC91159740815181C50112
:102C3000BF012085012F0E94A8171F5FC3942C2D70
:102C400030E08A81F401E80FF11D2E173F070CF4E4
:102C500097CF6596CDBFDEBFCF91DF911F910F91CA
:102C6000FF90EF90DF90CF90BF90AF909F908F90AC
:102C70000895089583E08093CD29089582E080939C
:102C8000CD2908952DB73EB7215130402DBF3EBF0D
:102C9000EDB7FEB731969FEFADB7BEB711969C93D7
:102CA0009183928313821482158291E0968328E1A6
:102CB00031E0278330872AE030E02187328720E027
:102CC00030E223873487858716866787108A0E94BB
:102CD00016122DB73EB72F5E3F4F2DBF3EBF089552
:102CE000CF92DF92EF92FF920F931F9380E060E00C
:102CF00040E024E130E008E210E05CE2E52E51E043
:102D0000F52E98ECC92ED12C0E94B30D1F910F9176
:102D1000FF90EF90DF90CF9008958F929F92AF92A7
:102D2000BF92CF92DF92EF92FF920F931F93CF93B8
:102D3000DF935C014B0184E1289FE0011124A896F8
:102D400080E060E040E024E130E08E01ECE2EE2E35
:102D5000E1E0FE2E74E1C72ED12C0E94B30D8DB799
:102D60009EB70D978DBF9EBFEDB7FEB731960FEFA3
:102D7000ADB7BEB711960C931182128213821482E2
:102D8000158211E0168384E190E087839087C187E4
:102D9000D287A386B4860E941612EDB7FEB731968D
:102DA000ADB7BEB711960C931182128213821482B2
:102DB0001582168388E191E087839087C187D28747
:102DC00086E090E2838794870E94161200D0EDB7C8
:102DD000FEB73196ADB7BEB711960C931182128231
:102DE000138214821582168388EC90E08783908783
:102DF000C187D2878BE090E2838794878586968609
:102E00000E9416128DB79EB70F968DBF9EBFDF91A1
:102E1000CF911F910F91FF90EF90DF90CF90BF90D7
:102E2000AF909F908F9008956F927F928F929F9214
:102E3000AF92BF92CF92DF92EF92FF920F931F93C8
:102E4000CF93DF935C014B013A0184E1089FE001DD
:102E50001124A89680E060E040E028EC30E08E018C
:102E6000A4E6EA2EF12CF4E1CF2ED12C0E94B30D72
:102E70008DB79EB70D978DBF9EBFEDB7FEB731964C
:102E80001FEFADB7BEB711961C9311831283138247
:102E90001482158201E0068384E190E087839087A5
:102EA000C187D287A386B4860E941612EDB7FEB7FB
:102EB0003196ADB7BEB711961C931183128313825E
:102EC0001482158206838CE291E087839087C18704
:102ED000D2878EE090E2838794870E9416128DB786
:102EE0009EB70D968DBF9EBF892819F1ADB7BEB7AD
:102EF0001F97ADBFBEBFEDB7FEB7319611961C93BD
:102F000011831283138214821582068388EC90E069
:102F100087839087C187D2878BE090E283879487ED
:102F2000658676860E9416128DB79EB70F968DBF66
:102F30009EBFDF91CF911F910F91FF90EF90DF9097
:102F4000CF90BF90AF909F908F907F906F9008959B
:102F50006F927F928F929F92AF92BF92CF92DF92A9
:102F6000EF92FF920F931F93CF93DF935C014B017E
:102F70003A0184E1089FE0011124A89680E060E016
:102F800040E024E130E08E019CE2E92E91E0F92E50
:102F9000B4E1CB2ED12C0E94B30D8DB79EB70D9707
:102FA0008DBF9EBFEDB7FEB73196ADB7BEB71196D8
:102FB0001C921FEF1183128213821482158201E08A
:102FC000068384E190E087839087C187D287A386B8
:102FD000B4860E9416128DB79EB70D968DBF9EBF08
:102FE000892819F1ADB7BEB71F97ADBFBEBFEDB70A
:102FF000FEB7319611961C931183128313821482AB
:103000001582068388EC90E087839087C187D287FA
:103010008BE090E283879487658676860E941612FD
:103020008DB79EB70F968DBF9EBFDF91CF911F9139
:103030000F91FF90EF90DF90CF90BF90AF909F9057
:103040008F907F906F900895DF93CF93CDB7DEB7C9
:103050006097CDBFDEBFCE01019660E070E040E139
:1030600050E00E946308882381F589819A818093CA
:103070006F21909370218B819C8180937821909314
:1030800079218D819E8180938121909382218F81EE
:10309000988580938A2190938B2189859A85809346
:1030A0009321909394218B859C8580939C21909370
:1030B0009D218D859E858093A5219093A6218F8546
:1030C00098898093AE219093AF216096CDBFDEBFEB
:1030D000CF91DF910895CF92DF92EF92FF920F93FD
:1030E0001F93CF93DF93EC0180918123882329F4F0
:1030F0000E94241881E08093812380E060E040E01A
:1031000020E030E000E010E070E4E72E71E0F72E00
:1031100058E2C52ED12C0E94B30D8DB79EB70D97E6
:103120008DBF9EBFEDB7FEB731968FEFADB7BEB77F
:1031300011968C938183828313821482158282E09C
:1031400086831782108611861286C387D4870E94D1
:1031500016128DB79EB70D968DBF9EBFDF91CF9192
:103160001F910F91FF90EF90DF90CF900895DF9324
:10317000CF9300D0CDB7DEB719821A828091392162
:1031800090E0FC01A3E0EE0FFF1FAA95E1F7E80F26
:10319000F91FEE52FE4D878180933921CE010196B1
:1031A000BE016E5F7F4F0E94BD1369812A81862F09
:1031B00090E0820F911D20913921821B910970E0CE
:1031C00041E050E021E030E00E94511C0F900F9050
:1031D000CF91DF9108950E94B718089581E00E9471
:1031E000DA0A809142219091432180932C2A909376
:1031F0002D2A80914B2190914C218093302A9093DD
:10320000312A80915421909155218093382A9093AE
:10321000392A20915D2130915E2180E19EE0AC0150
:10322000249FC001259F900D349F900D1124AA2743
:1032300097FDA095BA2F8093322A9093332AA093BA
:10324000342AB093352A809166219091672180932A
:10325000362A9093372A8091C0219091C121809382
:103260003A2A90933B2A10922E2A8091C92190915C
:10327000CA2180933C2A90933D2A81E00E94C80A8B
:1032800008950E94EE1808958091A5219091A6219D
:1032900080934B2190934C218091AE219091AF214E
:1032A00080935421909355210E94B7180E94EE18E4
:1032B0000895809193219091942180934B21909334
:1032C0004C2180919C2190919D2180935421909339
:1032D00055210E94B7180E94EE180895809181210F
:1032E0009091822180934B2190934C2180918A214F
:1032F00090918B2180935421909355210E94B7186F
:103300000E94EE18089580916F2190917021809312
:103310004B2190934C218091782190917921809339
:103320005421909355210E94B7180E94EE180895D9
:1033300098E090938506A1E8B6E09C9385EE809393
:10334000A60A8CEB8093A70A80E18093A30A83E00E
:103350008093A50A88E18093A40AE2EAF0E08081E4
:103360008160808380EA80932C018AE080932D0124
:1033700010922E0184E0809320011092210180EDB3
:10338000809322018CE8809323019C93E0E0F1E09C
:103390008081806880830895FC01818187FD18C049
:1033A000818186FD15C0CB0160877187AA2797FDB3
:1033B000A095BA2F8B2F9927AA27BB278287842F06
:1033C00090E08483958380818068808380E0089585
:1033D00081E008950F931F93CF93DF93EC012FEFBC
:1033E0003FEFA0E0B0E070E001E010EA1AC0FE019B
:1033F000EA0FFB1F8081E82FF0E040E050E0CF01B2
:10340000822793273695279580FF02C020273127F2
:103410004F5F5F4F4830510519F0F695E795EFCFB4
:103420001196A617B7071CF3C901DF91CF911F9121
:103430000F910895282F90E038E1862F822780FD94
:1034400002C0669503C06327669560689F5F9830E9
:1034500011F02695F2CF862F08950F931F93CF93E7
:10346000DF93062FEC0110E060E005C089910E9417
:103470001A1A682F1F5F1017C8F3862FDF91CF919C
:103480001F910F9108958F929F92AF92BF92CF920A
:10349000DF92EF92FF920F931F93CF93DF935C0124
:1034A0007B014A016901C1E0D0E008C0CE018E9DD8
:1034B000E0018F9DD00D9E9DD00D1124C501BE0150
:1034C0000E9415276E157F0588F700E010E02AC0DE
:1034D000C501BE010E9415279B01CE01B7010E94C4
:1034E0001527FB010115110531F4121613061CF006
:1034F0006115710589F42A30310514F480E306C0A2
:103500008114910411F487E501C087E3820FD6018D
:103510008D936D010F5F1F4FC501BE010E941527DE
:103520005C01EF012097A1F6F6011082DF91CF91A7
:103530001F910F91FF90EF90DF90CF90BF90AF90D1
:103540009F908F900895BF92CF92DF92EF92FF925B
:103550000F931F93CF93DF936C017B01E80122232C
:1035600019F490E2B92E02C080E3B82EFE0102C029
:10357000415050408191882311F48A010AC01416E9
:103580001506B4F3FACFC6016B2DF701099501506A
:10359000104010161106BCF303C0C601F7010995CF
:1035A00069916623D1F7DF91CF911F910F91FF9021
:1035B000EF90DF90CF90BF9008952F923F924F925F
:1035C0005F926F927F928F929F92AF92BF92CF92B3
:1035D000DF92EF92FF920F931F93DF93CF93CDB7BC
:1035E000DEB72C97CDBFDEBF2C013B014A0169013C
:1035F0001E010894211C311CCBC00894811C911C15
:10360000653211F0C201C2C0F40171914F017033F3
:1036100011F010E003C071914F0111E0872F80532A
:103620008A3018F0AA24BB2431C0AA24BB2412C0BB
:103630002B3031055CF5C50163E0880F991F6A9551
:10364000E1F7AA0CBB1CA80EB91EA20EB31EF40112
:1036500071914F01872F80538A3028F4272F30E053
:103660002053304011C0872F8156863028F4272FF1
:1036700030E02755304008C0872F8154863030F421
:10368000272F30E02753304037FFD2CF743639F13F
:10369000753680F4783509F444C0793538F47723E9
:1036A00009F47BC0753209F073C06EC0733609F03F
:1036B0006FC050C0753731F0783799F1733709F022
:1036C00067C052C042E0E42EF12CEC0CFD1CF60168
:1036D000808191816AE070E040E050E032C0F60104
:1036E0004081518157FD02C0C10107C050954195ED
:1036F0005F4FFDE2F983CE0102969C0182E090E0EB
:10370000C80ED91ECA016AE070E040E050E00E9495
:10371000431AC201B301A501212F81010E94A31AFE
:1037200037C032E0E32EF12CEC0CFD1CF601808159
:10373000918140E050E0783511F441E050E060E1E3
:1037400070E091010E94431AC201B301A501212F2B
:10375000810116C086010E5F1F4FC201F601608114
:10376000F3010995680114C022E0E22EF12CEC0C63
:10377000FD1CF60100811181C201B301A50120E009
:103780000E94A31A670104C0C20165E2F301099512
:10379000F4016081662309F030CF2C96CDBFDEBFE7
:1037A000CF91DF911F910F91FF90EF90DF90CF901D
:1037B000BF90AF909F908F907F906F905F904F9051
:1037C0003F902F900895DC01ED91FC91119761934A
:1037D000ED93FC930895CF93DF93482F50E081E061
:1037E00090E0042E02C0880F991F0A94E2F7982FE8
:1037F000F894C0E0D0E020E030E0A0E4B6E060E87B
:10380000E0E4F6E015966C93159701C0219680913F
:1038100048068923D9F3668301C021968091480622
:103820008923D9F72F5F3F4F2530310559F7789419
:10383000FA01EE0FFF1FE357FC4D8081918123E6D3
:1038400030E0AC01429FC001439F900D529F900D0C
:1038500011248C0F9D1F64E670E00E94292760836D
:103860007183809197238A3F50F48A3010F4C0838B
:10387000D1838F5F8093972360E070E00EC084E671
:1038800090E09C01C29FC001C39F900DD29F900DFC
:1038900011240E94292764567040CB01DF91CF91FB
:1038A00008952F923F924F925F926F927F928F92E4
:1038B0009F92AF92BF92CF92DF92EF92FF920F93BF
:1038C0001F93DF93CF93CDB7DEB72697CDBFDEBF73
:1038D0005C011A013901CB01A0E0B0E089839A8331
:1038E000AB83BC83442455249C01AD0122193309C8
:1038F0004409550960E07DE780E090E00E943C27A4
:1039000079018A0120937823309379230027F7FCEB
:103910000095102FA8E7B3E2AD83BE83CC24DD244D
:10392000C801B701A60195010E94F62660936223A3
:10393000709363238093642390936523ED81FE81CC
:103940003297ED83FE8388249924C801B701A4012E
:1039500093010E94F626AD81BE816D937C93C801D0
:10396000B701A20191010E94F62660936E23709325
:103970006F238093702390937123C801B70129812D
:103980003A814B815C810E94F6266093722370938A
:10399000732380937423909375232696CDBFDEBF47
:1039A000CF91DF911F910F91FF90EF90DF90CF901B
:1039B000BF90AF909F908F907F906F905F904F904F
:1039C0003F902F90089520917823309179234427B8
:1039D00037FD4095542F609162237091632380914D
:1039E0006423909165230E945E27C9010895EF9298
:1039F000FF921F93CF93DF93C0EED3E27E0110E0DE
:103A0000812F0E94EB1BF701819391937F011F5F30
:103A10001530B1F740E020E030E061E070E08881EF
:103A20009981459744F0CB01022E02C0880F991F5F
:103A30000A94E2F7482B2F5F3F4F2496233031053D
:103A400071F780918A23882309F078C050918B23E5
:103A5000451780F5442371F580918623833029F042
:103A6000809187238330A9F403C081E0809385236C
:103A700080918723833019F481E08093842310920E
:103A80008823109286231092872310928B2350E074
:103A900007C081E080938A231092862310928723A7
:103AA00080918823813009F05CC0509189238093F4
:103AB0008A2357C010928A23433040F0443071F07B
:103AC0004093892381E08093882308C0413031F4FA
:103AD000552321F4409386231092832380918623DB
:103AE000813021F4423011F4409386238091862363
:103AF000823031F4443069F483E08093862302C03D
:103B0000443039F4552329F481E0809387231092BF
:103B1000832380918723813021F4423011F4409334
:103B2000872380918723823029F4413019F483E080
:103B30008093872340938B2350E013C0442311F0DC
:103B400050E00BC080918823813029F45091892363
:103B50001092882302C050918B2310928A234093A5
:103B60008B2380918723882321F4809186238823C7
:103B700039F080918323863918F48F5F80938323F3
:103B800040918523413021F080918423813021F5BB
:103B9000552301F580918323843118F484E18093C7
:103BA00083232091822380918323821768F44130FC
:103BB00011F051E001C054E030E090E0019682172E
:103BC000930714F410928223809182238F5F809355
:103BD000822315C0413021F080918423813049F443
:103BE00010928A2310928B2310928623109287239F
:103BF00050E0109282231092852310928423852F07
:103C0000DF91CF911F91FF90EF900895CF92DF92B7
:103C1000EF92FF920F931F93CF93DF930E94F71CB5
:103C2000E82E80918C23E81611F010E001C01E2DC3
:103C30000E94F71C112319F48E1509F41E2D809390
:103C40008C23E0907623F0907723113011F481E0FB
:103C500006C0143019F401E080E002C080E000E00A
:103C60002091782330917923CC24DD24C21AD30A01
:103C7000EC14FD0409F0DAC0882329F4002309F4C8
:103C8000D5C0E7015AC040916223509163236091EF
:103C900064237091652384EF91E0289FE001299FC0
:103CA000D00D389FD00D1124CE01AA2797FDA095E5
:103CB000BA2F481759076A077B071CF484E690E07F
:103CC00002C08AEF90E0289FF001299FF00D389FF5
:103CD000F00D112480ED97E0DC012A9FC0012B9F9D
:103CE000900D3A9F900D1124AA2797FDA095BA2F09
:103CF000481759076A077B070CF4EF0180E797E143
:103D0000FC012E9FC0012F9F900D3E9F900D11240E
:103D1000AA2797FDA095BA2F481759076A077B076E
:103D20004CF088EE93E0289FE001299FD00D389F4A
:103D3000D00D1124002309F47AC0409162235091E0
:103D40006323609164237091652380E197E2DC0135
:103D50002A9FC0012B9F900D3A9F900D1124AA27F6
:103D600097FDA095BA2F84179507A607B7074CF0C3
:103D700088EE93E0289FE001299FD00D389FD00D59
:103D8000112480E797E1FC012E9FC0012F9F900D29
:103D90003E9F900D1124AA2797FDA095BA2F841756
:103DA0009507A607B7074CF084EF91E0289FE00144
:103DB000299FD00D389FD00D112480ED97E0DC01B4
:103DC0002A9FC0012B9F900D3A9F900D1124AA2786
:103DD00097FDA095BA2F84179507A607B7074CF053
:103DE0008AEF90E0289FE001299FD00D389FD00DE9
:103DF000112484EF91E0FC012E9FC0012F9F900DB4
:103E00003E9F900D1124AA2797FDA095BA2F8417E5
:103E10009507A607B7075CF084E690E0289FE001CD
:103E2000299FD00D389FD00D112401C0E701133018
:103E3000A1F1143030F4113069F0123009F0B3C040
:103E400029C0153009F45AC0153080F1163009F038
:103E5000AAC099C09E01442737FD4095542F8091F8
:103E6000622390916323A0916423B0916523280F6E
:103E7000391F4A1F5B1F8091722390917323A09179
:103E80007423B0917523281739074A075B070CF094
:103E900082C02BC00E942A1486C080917223909108
:103EA0007323A0917423B091752375C0CE01AA2706
:103EB00097FDA095BA2F2091622330916323409102
:103EC000642350916523281B390B4A0B5B0B8091AF
:103ED0006E2390916F23A0917023B091712382176C
:103EE0009307A407B5070CF056C0209362233093C4
:103EF0006323409364235093652355C0EC14FD0461
:103F000079F488E893E1AC01249FC001259F900DCE
:103F1000349F900D1124AA2797FDA095BA2F3BC07E
:103F2000E0906E23F0906F23009170231091712325
:103F30006091722370917323809174239091752303
:103F40006E197F09800B910B9E01442737FD409528
:103F5000542F0E945E27CA01B90122E030E040E000
:103F600050E00E945E27C29FC001C39F900DD29F68
:103F7000900D1124AA2797FDA095BA2F8E0D9F1D95
:103F8000A01FB11F08C080916E2390916F23A09154
:103F90007023B09171238093622390936323A09345
:103FA0006423B0936523DF91CF911F910F91FF9010
:103FB000EF90DF90CF90089583E06AE070E00E9478
:103FC000340980E88093400683E00E94880A83E0F9
:103FD0006AE070E00E9434090E94F5208823A1F76E
:103FE0000E94061EF1CF1092600810926108089599
:103FF000809398230895F894109200081092010875
:104000008FEF80934606109200091092010983E019
:104010008093660684E08093210680932506000045
:10402000FECF1F920F920FB60F9208B60F9209B6ED
:104030000F92112418BE19BE2F933F934F935F9395
:104040006F937F938F939F93AF93BF93EF93FF9360
:1040500083E60E94FB1F88ED84BF81E08093790096
:10406000FF91EF91BF91AF919F918F917F916F9150
:104070005F914F913F912F910F9009BE0F9008BE15
:104080000F900FBE0F901F90189588ED84BF81E0B0
:10409000809353008093500088E08093550001C0C6
:1040A00000008091510080FFFBCF81E0809356009B
:1040B000809368008091500080618093500088ED6B
:1040C00084BF1092410001C000008091510084FF24
:1040D000FBCF88ED84BF24E02093400081E08093F3
:1040E000400880E1809341081092420810924308F2
:1040F000109244081092460883E08093470880E8B5
:104100009EE380936808909369082093A2000E9420
:104110009819E0E7F0E08CE18093700087E08183FC
:10412000828389E783838BE7848388E68583089588
:104130000E9445208CED9FE160E04BE358E220E9CE
:1041400031E00E94C1088CED92E262E04BEE53E256
:104150002CEB32E00E94C10887EE91E261E04AEA6E
:1041600056E220E931E00E94C10882E08093C0233A
:104170001092C1231092C22381E08093C323109236
:10418000C4231092C5238093C6231092C723109294
:10419000C8231092C9231092CA231092CB231092E5
:1041A000CC231092CD231092CE230E94570A0000F8
:1041B00081E00E9417098093992390939A2380E0CD
:1041C0000E94170980939B2390939C2382E00E9476
:1041D000170980939D2390939E2383E00E941709E3
:1041E00080939F239093A023E2CF8091A2238130DC
:1041F00011F085E0089580919C2A0895FF920F9315
:104200001F938C01FC01F280128263810E942D1A9F
:10421000F801F2821F910F91FF9008950F931F9361
:104220008C011092CB2984E08093412AF8011282FC
:10423000C80163810E942D1AF801828380E291E017
:10424000B80143810E94CC191F910F9108951F93CB
:10425000CF93DF93EC01162F88818733E1F58EE34E
:104260009AE20E94FE209091402A8917A1F5898147
:10427000811711F012E637C08C32E9F08D3228F444
:10428000863139F1813229F406C0823411F18D343E
:1042900001F113E621C081E00E94DA0AACE2BAE241
:1042A000FE01349682E101900D928150E1F781E0A8
:1042B0008093A1230CC080E00E94DA0AACE9BAE244
:1042C000FE0134968AE501900D928150E1F70E943B
:1042D000C80A10E001C013E0CE016FEF70E04EE5B8
:1042E00050E00E948027812FDF91CF911F91089588
:1042F0001F920F920FB60F9208B60F9209B60F9247
:10430000112418BE19BE2F933F934F935F936F9361
:104310007F938F939F93AF93BF93EF93FF9380917E
:10432000A10A84FD04C08091A10A83FF05C01092F8
:10433000CB2984E08093412A9091CB299E3598F433
:104340008091A00AE92FF0E0E25CF54D80839F5F49
:104350009093CB298091412A891751F481E061E043
:104360000E943A0A05C01092CB2984E08093412A2A
:10437000FF91EF91BF91AF919F918F917F916F913D
:104380005F914F913F912F910F9009BE0F9008BE02
:104390000F900FBE0F901F9018951F93182F81E05C
:1043A00062E04CE251E00E94E70980FD02C094E621
:1043B00006C08EE39AE2612F0E942721982F109267
:1043C000CB2984E08093412A892F1F910895AF92D1
:1043D000BF92CF92DF92EF92FF920F931F9381E0F3
:1043E00068EE73E00E94340917E351E2A52E04E061
:1043F0004CE2B42E36E1F32E2DE4C22E95E0D92EF8
:1044000082E4E82E81E00E94880A81E068E572E09B
:104410000E9434098091A323882391F41093CE291C
:10442000A092CF290093D1298EEC99E20E940E210F
:1044300081E20E94CD21882319F481E08093A32397
:104440001093CE29B092CF290093D1298EEC99E216
:104450000E940E218CE20E94CD21882321F481E06C
:104460008093A22302C01092A2238091A3238130C3
:1044700049F61093CE29F092CF29F092D1290E94CB
:10448000DA0AA2EDB9E2ECE2FAE282E101900D92E1
:104490008150E1F781E00E94C80A8EEC99E20E9407
:1044A0000E2186E10E94CD218091CC29813079F4C2
:1044B0001092CC291093CE29E092CF290093D129D4
:1044C0008EEC99E20E940E2182E40E94CD2180911F
:1044D000CD29882309F496CF1093CE29C092CF29F5
:1044E000D092D1298093D2298EEC99E20E940E219C
:1044F0008DE40E94CD21882309F084CF1092CD292C
:1045000081CF8F929F92AF92BF92CF92DF92EF9224
:10451000FF920F931F935C01F4E08F2E912C880E75
:10452000991E8FEF60E040E020EA30E08401E0E493
:10453000EE2EE1E0FE2E64010E94BD0C8CE690E0C0
:10454000A80EB91E8FEF60E040E020E431E0650185
:104550000E94BD0C8FEF60E040E020EA30E0850172
:104560000E94BD0C8FEF60E040E020EA30E0840163
:1045700070EAE72EF12C0E94BD0C8FEF60E040E066
:1045800020EA30E050E4E52E51E0F52E0E94BD0C0B
:104590008FEF60E040E020EA30E0850164010E9496
:1045A000BD0C1F910F91FF90EF90DF90CF90BF90C7
:1045B000AF909F908F9008952F923F924F925F926D
:1045C0006F927F928F929F92AF92BF92CF92DF9223
:1045D000EF92FF920F931F93DF93CF93CDB7DEB788
:1045E0002A97CDBFDEBF82E061E00E9465120E9483
:1045F0000F140E94860B80E068EE73E00E9434097D
:1046000077247A941E010894211C311C80E00E94BA
:10461000880A80E06CE271E00E9434098091A12355
:10462000882309F44AC081E00E94DA0A80912C2A8A
:1046300090912D2A80934221909343218091302A9A
:104640009091312A80934B2190934C216091322A92
:104650007091332A8091342A9091352A20E13EE0EE
:1046600040E050E00E943C2720935D2130935E2182
:104670008091362A9091372A809366219093672102
:104680008091382A9091392A809354219093552112
:1046900080913A2A90913B2A8093C0219093C12126
:1046A00080913C2A90913D2A8093C9219093CA2100
:1046B00081E00E94C80A1092A12390919C2A8091C7
:1046C000A423981721F00E94860B0E940B1480915E
:1046D0009C2A8093A423882319F40E94DA1496CF8D
:1046E000843009F041C02DB73EB72D5030402DBF6A
:1046F0003EBFEDB7FEB73196ADB7BEB711967C920F
:104700001182128213821482158213E016838AE5C5
:1047100090E0878390878CE390E0818792872DE3F8
:1047200030E2238734870E941612EDB7FEB7319628
:10473000ADB7BEB711967C92118212821382148299
:104740001582168384E190E08783908788E790E064
:104750008187928724E430E2238734870E941612EF
:104760008DB79EB70D963FC3ADB7BEB71F97ADBF10
:10477000BEBFEDB7FEB7319611967C9211821282C0
:1047800013821482158283E0868382E291E087831C
:1047900090871186128621E530E22387348781E0F5
:1047A00090E0858796870E94161220919D2A30916D
:1047B0009E2A00D0EDB7FEB73196ADB7BEB71196C1
:1047C0007C927182128213821482158292E0C92E29
:1047D000C682178210861186128684E590E283874E
:1047E0009487C90168EE73E00E9429276587768760
:1047F000C90168EE73E00E9429276AE070E00E9418
:1048000029276787708B0E94161220919F2A30916A
:10481000A02AEDB7FEB73196ADB7BEB711967C9220
:1048200071821282138214821582C68280EA90E01D
:10483000878390871186128682E690E28387948729
:10484000C90168EE73E00E94292765877687C90150
:1048500068EE73E00E9429276AE070E00E94292731
:104860006787708B0E941612E090AA2AF090AB2AFC
:104870006091A22A7091A32A8091A42A9091A52ADE
:1048800020E13EE040E050E00E943C2789019A018F
:10489000ADB7BEB75196ADBFBEBFB3E0073E1B0775
:1048A00010F5EDB7FEB73F97EDBFFEBF3196ADB740
:1048B000BEB711967C927182728213821482158225
:1048C000C6821782108680E290E0818792878EE60A
:1048D00090E283879487058716870E941612ADB7EA
:1048E000BEB71F9631C0EDB7FEB77197EDBFFEBFE3
:1048F0003196ADB7BEB711967C92718272821382E7
:1049000014821582C6821782108680E290E0818729
:10491000928788E790E283879487C80168EE73E006
:104920000E94152765877687C80168EE73E00E94AC
:1049300015276AE070E00E9415276787708B0E9438
:104940001612ADB7BEB75196ADBFBEBFEDB7FEB73D
:104950007397EDBFFEBF3196ADB7BEB711967C928F
:104960007182728213821482158282E0868380EAC9
:1049700090E08783908780E290E08187928726E8A5
:1049800030E223873487C70160E17EE00E9415276B
:1049900065877687C70160E17EE00E9415276CE39A
:1049A00070E00E9415276787708BC7016CE370E089
:1049B0000E941527818B928B0E9416128DB79EB78D
:1049C00043968DBF9EBF80E490E00E948122ADB7E8
:1049D000BEB71D97ADBFBEBFEDB7FEB731961196FE
:1049E0007C9271827282138214821582FF24F39466
:1049F000F6828FE090E08783908700E410E00187E3
:104A0000128725E930E2238734870E941612EDB71A
:104A1000FEB73196ADB7BEB711967C9271827282A5
:104A2000138214821582F6828CE390E0878390874C
:104A30000187128728E930E2238734870E94161203
:104A400086EB882E8AE2982E00E5A02EB12C11E08C
:104A5000412E512C8DB79EB70D968DBF9EBF6624FB
:104A60006394ADB7BEB71F97ADBFBEBFEDB7FEB77E
:104A7000319611967C927182728213821482158211
:104A8000668217821086A186B28621E530E22387EE
:104A90003487458656860E941612942D9150ADB7E4
:104AA000BEB71F96ADBFBEBF8091A12A981708F070
:104AB00067C0EDB7FEB73F97EDBFFEBF3196ADB70C
:104AC000BEB711967C927182728213821482158213
:104AD00066822FE030E027833087A186B2868CE99A
:104AE00090E283879487D4018D919C9185879687E6
:104AF0000E941612F401C280D380E480F58000D0B9
:104B00000DB71EB70F5F1F4FADB7BEB711967C92A2
:104B1000F8017182728213821482158266822CE3FC
:104B200030E027833087A186B28683EA90E28387CC
:104B30009487C701B60120E13EE040E050E00E94CA
:104B40003C27D8011D962D933C931E97C701B601B3
:104B500020E13EE040E050E00E943C27DC01CB0138
:104B600064E270E00E941527F8016787708B0E944D
:104B700016122DB73EB72F5E3F4F2DBF3EBF29C047
:104B80008DB79EB70F978DBF9EBFEDB7FEB731961D
:104B90002AEAADB7BEB711962C93218322831382E4
:104BA0001482158266828FE090E087839087A186C9
:104BB000B286ACE9B0E2A387B487D4018D919C9111
:104BC000858796870E941612EDB7FEB73F96EDBF18
:104BD000FEBF20E130E0A20EB31E0894411C511C20
:104BE0008AE090E0880E991E90EBA916B10409F0B6
:104BF00038CF80919C2A823081F0833028F488233A
:104C000081F08130D1F405C0833099F08530A9F46A
:104C10000CC0C1016FEA70E213C0C10168EB70E221
:104C20000FC0C10162EC70E20BC0C1016CEC70E21C
:104C300007C0C10164ED70E203C0C1016EED70E216
:104C40000E948727ADB7BEB71D97ADBFBEBFEDB7FA
:104C5000FEB7319611961C927182128213821482D1
:104C6000158282E086831782108600EB10E00187B0
:104C70001287238634860E94161200D0EDB7FEB745
:104C80003196ADB7BEB711967C9271827282138253
:104C900014821582BB24B394B682B8E7EB2EF12CB4
:104CA000E782F086018712872BEE30E22387348774
:104CB00080912C2A90912D2A858796870E94161222
:104CC000EDB7FEB73196ADB7BEB711967C92718243
:104CD0007282138214821582B682A6EECA2ED12C5D
:104CE000C782D086018712872BEF30E22387348773
:104CF0008091F22A9091F32A858796870E94161256
:104D0000EDB7FEB73196ADB7BEB711967C92718202
:104D10007282138214821582B682E782F08600ECDA
:104D200010E0018712872AE031E2238734878091DF
:104D3000B22A9091B32A858796870E9416122091F5
:104D4000F42A3091F52A00D0EDB7FEB73196ADB711
:104D5000BEB711967C927182728213821482158280
:104D6000B682C782D086018712878AE191E2838763
:104D70009487C90168EE73E00E94292765877687CA
:104D8000C90168EE73E00E94292764E670E00E9482
:104D900029276787708B0E9416120F900F90EDB72E
:104DA000FEB73196ADB7BEB711967C927182728212
:104DB000138214821582B68288EC90E087839087F4
:104DC00080ED90E0818792872DE231E2238734875E
:104DD0008091B42A9091B52A858796870E941612F1
:104DE0008DB79EB70F968DBF9EBF10CC629FD0012E
:104DF000739FF001829FE00DF11D649FE00DF11D96
:104E0000929FF00D839FF00D749FF00D659FF00D44
:104E10009927729FB00DE11DF91F639FB00DE11D31
:104E2000F91FBD01CF0111240895AA1BBB1B51E13D
:104E300007C0AA1FBB1FA617B70710F0A61BB70B0A
:104E4000881F991F5A95A9F780959095BC01CD01AF
:104E5000089597FB092E07260AD077FD04D0E5DFD9
:104E600006D000201AF4709561957F4F0895F6F7EB
:104E7000909581959F4F0895A1E21A2EAA1BBB1B06
:104E8000FD010DC0AA1FBB1FEE1FFF1FA217B30716
:104E9000E407F50720F0A21BB30BE40BF50B661F2C
:104EA000771F881F991F1A9469F7609570958095F0
:104EB00090959B01AC01BD01CF01089597FB092E90
:104EC00005260ED057FD04D0D7DF0AD0001C38F4D9
:104ED00050954095309521953F4F4F4F5F4F089526
:104EE000F6F790958095709561957F4F8F4F9F4F06
:104EF0000895FB01DC0105900D920020E1F7089573
:104F0000DC0101C06D9341505040E0F70895FB0172
:104F1000DC0101900D920020E1F70895E0ECF1E052
:104F2000A785A7FDFDCFA485A860A4876050704F1A
:104F30000C949A27FB01DC0102C001900D924150B4
:0A4F40005040D8F70895F894FFCF11
:104F4A0025647625640065646974002564003C3D27
:104F5A0000553A202564206D56202000533A20251A
:104F6A0064206D41202000493A202564206D4120AB
:104F7A002000503A202564202520202000537570F7
:104F8A00706C7900756E646572766F6C74616765B2
:104F9A0000256400253032642E25303264205620E4
:104FAA00200025642E25303264204120200025303F
:104FBA003364206D41682000253031642E2530325B
:104FCA0064204168200025643A253032643A25304D
:104FDA0032642020006D56006D416800253034642B
:104FEA00202000253033642E2530326420200043EF
:104FFA00686172676520200046756C6C202020204D
:10500A002000576169742020202020003F3F3F3F45
:10501A00202020004261742E4572722020005761C0
:10502A006161726768212121202000536574702014
:10503A0025303464206D412020200054656D702095
:10504A0025303264204320202000536574702025C7
:10505A00303464206D56202020005375707020254E
:10506A003032642E25303164562020200050574DAE
:10507A0020253034642020200001000001FF00FFB9
:10508A0000FF000064001027FFFF010000B80B6852
:10509A00100A00050000B80B681064000500000043
:1050AA0000102764000200000100701701000300CD
:1050BA0000B80B68100A00050000B80B68106400FD
:1050CA00050000AC0D68100A00050000B80B681056
:1050DA006400050000D007740E0A00050000B80B32
:1050EA0068106400050000D00704100A00050000DB
:1050FA00B80B68106400050000B80B68100A0005B8
:10510A000000010010270A00040000401F204EF48E
:10511A0001050A0F00000000010000130F00000043
:10512A00000900001B0F000042210000002C0F00A4
:10513A00004B210000003D0F0000542100000051E7
:10514A000F00005D210000005E0F000066210000D4
:10515A0000670F000000000F00006D0F39160000F5
:10516A000000007E0F44190000000100860F831919
:10517A000000000100920F6E1900000001009E0F4E
:10518A0059190000000100AA0FEB180000000100E5
:10519A00B40F00000000010100B40F000000000776
:1051AA000700BB0F00000000150700C80F00000031
:1051BA00002A0700CC0F0000C921000700D70F3AC8
:1051CA00160000000700E50F3E160000000700B4B5
:1051DA000F00000000101000F30F000000001C1068
:1051EA00000310000000001F10000F100000000054
:1051FA002210007E0F00000000251000AA0F0000F8
:10520A000000281000171000000000011000B40F61
:10521A0000000000161600261000006F210016007C
:10522A003D0F00007821001600B40F00000000179F
:10523A0017003310000081210017003D0F00008A7B
:10524A0021001700B40F00000000181800411000D8
:10525A000093210018003D0F00009C21001800B4A3
:10526A000F000000001919004F100000A5210019B5
:10527A00003D0F0000AE21001900B40F000000002D
:10528A001A1A005F100000B721001A00B40F0000BC
:10529A00000011110071100000C02100110000006F
:1052AA000000000000000000000063000000000091
:0A52BA000000007D0000000000006D
:00000001FF
