:100000000C94BC000C94410C0C94DD000C94DD00AD
:100010000C94DD000C94DD000C94CB0A0C94DD00F4
:100020000C94DD000C94DD000C94DD000C94DD00DC
:100030000C94DD000C94DD000C94DD000C94DD00CC
:100040000C94DD000C94DD000C94DD000C94DD00BC
:100050000C94DD000C94DD000C944F040C94DD0036
:100060000C94DD000C94DD000C94DD000C94DD009C
:100070000C94DD000C94DD000C94DD000C94DD008C
:100080000C94DD000C94DD000C94DD000C94DD007C
:100090000C94DD000C94DD000C94DD000C94DD006C
:1000A0000C94DD000C94DD000C94DD000C94DD005C
:1000B0000C94DD000C94DD000C94DD000C94DD004C
:1000C0000C94DD000C94DD000C94DD000C94DD003C
:1000D0000C94DD000C94DD000C94DD000C94DD002C
:1000E0000C94DD000C94DD000C9403130C94DD00E3
:1000F0000C94DD000C94DD000C94DD000C94DD000C
:100100000C94DD000C94DD000C94DD000C94DD00FB
:100110000C94DD000C94DD000C94DD000C94DD00EB
:100120000C94DD000C94DD000C94DD000C94DD00DB
:100130000C94DD000C94DD000C94DD000C94DD00CB
:100140000C94DD000C94DD000C94DD000C94DD00BB
:100150000C94DD000C94DD000C94DD000C94DD00AB
:100160000C94DD000C94DD000C94DD000C94DD009B
:100170000C94DD000C94DD0011241FBECFEFDFE2F4
:10018000DEBFCDBF18BE19BE1ABE1BBE10E2A0E076
:10019000B0E2E2E1F4E302C005900D92AA30B107AB
:1001A000D9F718E2AAE0B0E201C01D92A437B10766
:1001B000E1F70E944D0D0C94071A0C940000EF9289
:1001C000FF920F931F93CF93DF9360E070E0AEE256
:1001D000B0E2C9E4D0E28E010B511040EE24FF24BE
:1001E000E394CB01880F991F860F971FFD01E80F3D
:1001F000F91FBB9680819181892B29F1CB01880F52
:10020000991F860F971FFD01E80FF91FBB9680818C
:10021000918101978083918380819181892B99F4C9
:100220004881CB01880F991F860F971FF801E80FAF
:10023000F91FBA968081970102C0220F331F8A9559
:10024000E2F7422B48836F5F7F4F6830710549F6B4
:10025000DF91CF911F910F91FF90EF9008950F9331
:100260001F93CF93DF93182F092F862FBA01A9016F
:100270002115310509F453C0A0E0B0E0282F265520
:10028000FB01EA0FFB1F20831196A417B507C0F3EB
:10029000C82FD0E0FE01EE0FFF1FE059FF4D608335
:1002A0007183CA0183978417950740F4FB01E80F17
:1002B000F91F1192019684179507D8F3A9E4B0E2CB
:1002C0002C9181E090E00C2E02C0880F991F0A94B7
:1002D000E2F7282B2C93CA0101979B01280F391FA5
:1002E000CE010E965B97880F991FA80FB91F2D930B
:1002F0003C931197ED91FC91119731970083ED910B
:10030000FC91119710838D919C91119783978D93F8
:100310009C931197DF91CF911F910F910895C82F52
:10032000D0E0FE01EE0FFF1FE059FF4D60837183A7
:10033000C5CF0F931F93CF93DF9390E0FC01EE0F97
:10034000FF1FE059FF4D0190F081E02D20E030E0EB
:10035000AC0146555F4FEC012E960EE210E2BE0155
:10036000660F771FD801A60FB71F808190E0841712
:10037000950749F431962F5F3F4F8D919C911197CE
:100380008E179F0790F7822F932FDF91CF911F91A8
:100390000F910895883020F087E00E94CC0B0895DB
:1003A000F89490E0FC01EE0FFF1FE80FF91FE75AE9
:1003B000FF4D60837183789408959091492080E087
:1003C00090FD07C08F5F863011F446E003C096951C
:1003D000F7CF482F242F30E0F901EF5BFF4D8081EC
:1003E0008F3F41F1AEE2B0E2FD01E20FF31F7396E1
:1003F0008081A80FB11D50968C918F3FD9F0AEE24D
:10040000B0E2FD01E20FF31F73968081FD01E80F5A
:10041000F11D709640815B968C9190E0042E02C095
:10042000959587950A94E2F780FD04C08DE40E94BB
:10043000CC0B46E0842F0895F8940F921F922F92D0
:100440003F924F925F926F927F928F929F92AF9264
:10045000BF92CF92DF92EF92FF920F931F932F9351
:100460003F934F935F936F937F938F939F93AF933C
:10047000BF93CF93DF93EF93FF930FB60F921124A7
:100480000F2EF8E4EF2EF0E2FF2EF02DF701808121
:1004900090E00F2EFDE3CF2EDD24F02DF60120811C
:1004A00031810E9687010A511040880F991FF8017B
:1004B000E80FF91F208331830E94DD01F70180835B
:1004C000808190E00E96880F991F080F191FF80180
:1004D00080819181F601808391830F900FBEFF91FF
:1004E000EF91DF91CF91BF91AF919F918F917F91CC
:1004F0006F915F914F913F912F911F910F91FF90BD
:10050000EF90DF90CF90BF90AF909F908F907F90B3
:100510006F905F904F903F902F901F900F90789426
:1005200008950F931F93182F062F862FBA010E944C
:10053000CA01F894E8E4F0E280817A97E80FF11DAF
:1005400034968081812321F588E490E2FC012081AA
:10055000DC015A97FD01E20FF11D3A9610835B967C
:100560003C91FC01208181E090E002C0880F991F3E
:100570002A95E2F7809583238C930E941C02F894BD
:10058000E8E4F0E280817A97E80FF11D3A96108254
:1005900088E490E2FC012081DC015A97FD01E20F22
:1005A000F11D349620812123FC018081A80FB11D0B
:1005B00014969C91812F809589238C93222361F03E
:1005C000802F90E0FC01EE0FFF1FE80FF91FE75AA4
:1005D000FF4D1082118201C000007894822F1F917C
:1005E0000F910895F894482F50E0FA01E25DFF4D15
:1005F000DF0114968C91862B8C933A96808186230A
:1006000079F0E9E4F0E2208181E090E002C0880F17
:10061000991F4A95E2F7282B20830E941C02089517
:100620007894089580E090E02EE230E24FEFF901F7
:10063000E80FF91F73964083019687309105B9F74B
:10064000AEE3B0E28FEFFD0181938083FD0132962E
:100650008083EDB7FEB784E798E2DE968D939C9396
:10066000DF978E179F0750F420EBACE7B0E22293A0
:100670008D919C9111978E179F07C8F3EEE2F0E2DF
:1006800010821182128213827A9686E08083789497
:1006900078940E941C020895E82F883020F087E0AB
:1006A0000E94CC0B089580914820863021F484E08C
:1006B0000E94CC0B08952E2F30E0AEE2B0E2C901CB
:1006C000880F991F820F931FFD01E80FF91FBA963B
:1006D00090815A968C91981721F089E00E94CC0B5A
:1006E0000895F894F901EE0FFF1FE20FF31FE75A88
:1006F000FF4D80819181892B29F488E00E94CC0BE9
:1007000078940895A9E4B0E23C91FD0131972081ED
:1007100081E090E002C0880F991F2A95E2F780954A
:1007200083238C930E941C0208951F93182F80919D
:100730004820863029F482E00E94CC0B20E046C09D
:10074000F894E8E4F0E280817A97E80FF11D34969E
:100750008081812321F588E490E2FC012081DC0185
:100760005A97FD01E20FF11D3A9610835B963C917A
:10077000FC01208181E090E002C0880F991F2A953A
:10078000E2F7809583238C930E941C02F894E8E49E
:10079000F0E280817A97E80FF11D3A96108288E4A2
:1007A00090E2FC012081DC015A97FD01E20FF11D6E
:1007B000349620812123FC018081A80FB11D14965D
:1007C0009C91812F809589238C937894822F1F91FF
:1007D0000895833024F086E00E94CC0B0895F894AD
:1007E000E82FFF27E7FDF095E25CFF4D8FEF808358
:1007F0000E941C020895AF92BF92CF92DF92EF92B7
:10080000FF920F931F93CF93DF93D82E82E08D1525
:1008100024F485E00E94CC0B37C0F894AD2CBB24A7
:10082000A7FCB094F501E25CFF4D80818F3F21F180
:1008300008E410E2E8016A97CC24CA94CE018A0D3C
:100840009B1DEE24FF246894E4F8E80EF91EF801DD
:100850008081FE01E80FF11D7396D0820E941C0278
:10086000F894F8018081FE01E80FF11D7396C082B3
:10087000F70180818F3F59F7E8E4F0E28081EA0DCB
:10088000FB1D3A9780837894DF91CF911F910F9150
:10089000FF90EF90DF90CF90BF90AF9008950F92B0
:1008A0001F922F923F924F925F926F927F928F9200
:1008B0009F92AF92BF92CF92DF92EF92FF920F93EF
:1008C0001F932F933F934F935F936F937F938F93D8
:1008D0009F93AF93BF93CF93DF93EF93FF930FB6A5
:1008E0000F9211240F2EF8E4EF2EF0E2FF2EF02DE0
:1008F000F701808190E00F2EFDE3CF2EDD24F02D57
:10090000F601208131810E9687010A511040880F2F
:10091000991FF801E80FF91F208331830E94C70B4C
:10092000F80180819181A281B3810196A11DB11D41
:1009300080839183A283B3830E94DF000E94DD0144
:10094000F7018083808190E00E96880F991F080F31
:10095000191FF80180819181F601808391830F90A6
:100960000FBEFF91EF91DF91CF91BF91AF919F911A
:100970008F917F916F915F914F913F912F911F9137
:100980000F91FF90EF90DF90CF90BF90AF909F902E
:100990008F907F906F905F904F903F902F901F901F
:1009A0000F90189580E00E94FB03A4E9B0E2FD01DE
:1009B000119211921192119210821182128213825D
:1009C00018961D921D921D921C921B97FD01769602
:1009D00086EE90E2108211821282138214821582B6
:1009E000168217823A96E817F907A1F780E00E946D
:1009F000E90308950F931F93DF93CF93CDB7DEB72D
:100A00002C97CDBFDEBF80E00E94FB03EFE8F0E251
:100A100000811181818D928D89839A8383A194A114
:100A20008B839C8385A596A58D839E8387A990AD96
:100A30008F8398878091D0209091D12089879A8741
:100A40008091DA209091DB208B879C8780E00E9448
:100A5000E903FE01319660E040E050E020E0808153
:100A6000918137E0813D93072CF06217E8F0480F41
:100A7000591F6F5F2F5F3296263089F7862FFA0154
:100A8000E01BF10B1AF4F095E195FF4F90E02CE29A
:100A900031E0AC01429FC001439F900D529F900DE9
:100AA0001124E817F9070CF060E0862F2C96CDBFD3
:100AB000DEBFCF91DF911F910F910895CF92DF920A
:100AC000EF92FF920F931F93CF93DF9384E064E63E
:100AD00070E00E94CA0184E00E944C0384E068EE4A
:100AE00073E00E94CA01CEE8D0E20F2EF4E9EF2EA7
:100AF000F0E2FF2EF02D0F2EFDEFCF2EFFEFDF2EB9
:100B0000F02DCE0CDF1C8701085F1F4F84E00E9490
:100B10004C0384E068EE73E00E94CA018881813052
:100B2000A9F780E00E94FB03F60180819181AA274A
:100B300097FDA095BA2FF701208131814281538121
:100B4000820F931FA41FB51F80839183A283B38359
:100B5000F80180819181A281B3810196A11DB11D0F
:100B600080839183A283B38380E00E94E903CECF88
:100B70002F923F924F925F926F927F928F929F92AD
:100B8000AF92BF92CF92DF92EF92FF920F931F939B
:100B9000DF93CF93CDB7DEB72897CDBFDEBF87E019
:100BA00064EF71E00E94CA0187E00E944C030F2E9F
:100BB000F6EE6F2EF0E27F2EF02D442455240F2EFA
:100BC000FEE8AF2EF0E2BF2EF02D0F2EFEE78F2EA7
:100BD000F0E29F2EF02D0F2EF3E92F2EF0E23F2EA4
:100BE000F02D91012550304029833A8348E850E2A6
:100BF000465050404B835C83C4010C968D839E838A
:100C000081E00E94950380E00E94FB03E1E9F0E2AD
:100C1000C080D180F30110810181E3E9F0E280819D
:100C2000882319F44F82588619C0E8EAF0E24F820F
:100C3000588681502AE0829FC00111248496950134
:100C4000280F391F808191814F815885480F591F86
:100C50004F8358873A96E217F307A1F780E00E9486
:100C6000E90381E00E94FB03F401E080F18081E070
:100C70000E94E903812F902F8C01ECE8F0E2808143
:100C800091810817190720F484E0F501808344C19D
:100C9000F5018081833009F454C1843038F4813007
:100CA00009F47DC0823008F005C10DC0853009F41B
:100CB0000EC1853008F430C1863009F415C1873083
:100CC00009F04AC11EC180910020813021F082309C
:100CD00009F096CF42C00E94FA04082F10E0FF24CA
:100CE00087E064E670E00E94CA0187E00E944C033E
:100CF0000E94FA04081709F4F3941F5F153011F0ED
:100D0000082FEECF0E94FA04182F882309F478CF19
:100D1000F5E0FF1609F074CFC401B20140E150E0E4
:100D20000E940A158CE390E00E94DC0DED81FE81AB
:100D3000808191810E94040E87E064E670E00E9449
:100D4000CA0187E00E944C03F101108381E0E98130
:100D5000FA8180830E94D20453CF0E94FA04982F14
:100D6000E0E8F0E280819817B1F49923A1F087E0E0
:100D700064E670E00E94CA0187E00E944C03E0E84C
:100D8000F0E28081F101808381E0E981FA81808352
:100D90000E94D20435CF83E0F501808331CF80916A
:100DA0000020882309F483C0833008F029CFF101A3
:100DB000808190E0E2E8F0E220813181AC01429F45
:100DC000C001439F900D529F900D1124EF81F88533
:100DD000E817F90748F10E948915882359F4E8E8D3
:100DE000F0E220813181EB81FC8180819181821749
:100DF0009307D0F4C70164E170E00E944019C61661
:100E0000D70620F0FEE1CF16D10474F480910A20B9
:100E10008A3030F082E0F501808310920A2006C00B
:100E20008F5F80930A2002C010920A20E4E9F0E26A
:100E3000608171818281938120E13EE040E050E059
:100E40000E946719E4E8F0E280819181A0E0B0E0BF
:100E5000281739074A075B0718F025E0F5012083BA
:100E6000ECE9F0E260817181828193812CE330E0D2
:100E700040E050E00E946719E6E8F0E2808191814D
:100E8000A0E0B0E0281739074A075B0718F026E012
:100E9000F50120830E94FA04F1019081891709F479
:100EA000AFCE108287E0E981FA818083A9CEF50177
:100EB0001082A6CE0E94FA04F1019081891709F4EC
:100EC0009FCE108287E0E981FA81808399CE0E94CB
:100ED000FA04F1019081891709F492CE108287E01B
:100EE000E981FA8180838CCE0E94FA04F10190811D
:100EF000891709F485CE108287E0E981FA81808321
:100F00007FCE87E064EF71E00E94CA0187E00E9413
:100F10004C03F501108274CE87E068EE73E00E9406
:100F2000CA0187E00E944C03ECE8F0E280819181E5
:100F300088519C4F8017910708F062CEF50110820E
:100F40005FCE87E060E177E20E94CA0187E00E94FD
:100F50004C03F501108254CE8AE00E94CF0B50CE94
:100F60002F923F924F925F926F927F928F929F92B9
:100F7000AF92BF92CF92DF92EF92FF920F931F93A7
:100F8000DF93CF9300D000D0CDB7DEB78EE790E2ED
:100F900060E070E040E150E00E94D614882371F1D7
:100FA00081E080930020AEE7B0E2FD0188EE93E09F
:100FB0008193919386E080838AE09FE014968D93DD
:100FC0009C93159720E137E216962D933C93179743
:100FD00080E797E118968D939C9319978CEA9DE092
:100FE0001A968D939C931B978AE090E01C968D93A4
:100FF0009C931D971E962D933C931F9781E08093A1
:1010000024200E94BF100E94260B81E061E070E066
:101010000E94CA0181E00E944C03A0E6B6E080E491
:1010200051968C93519783E0E0E4F6E081838BE066
:1010300011968C930E94DF0981E064E670E00E94C3
:10104000CA0181E00E944C0382E00E94F109809372
:101050000C2090930D200E94361481E068EC70E023
:101060000E94CA0181E00E944C030F2EFEE8CF2EA1
:10107000F0E2DF2EF02D0F2EF6EE2F2EF0E23F2EB7
:10108000F02D0F2EF4E9AF2EF1E1BF2EF02D0F2E33
:10109000F4EA8F2EF0E29F2EF02D0F2EFFEE6F2E32
:1010A000FFEF7F2EF02D680C791C0F2EF2E84F2EEB
:1010B000F0E25F2EF02D8091EA20882331F420E8C1
:1010C0002093900185E00E94CF0B1092EA2081E0EE
:1010D00061E070E00E94CA0181E00E944C0380E060
:1010E0000E94F1090E943C0A89839A8381E00E9450
:1010F000F1090E943C0A8B839C838091310288779E
:101100008833B1F5F60180818823D1F480910C20D9
:1011100090910D208C01000F111F000F111F080F5F
:10112000191F82E00E94F1090D5F1F4F800F911F70
:1011300066E070E00E94541960930C2070930D20BB
:1011400082E00E94F10960910C2070910D200E94B4
:101150009C0A80931020909311206DE770E00E940C
:1011600054198B819C81861B970B8B839C8320C099
:1011700082E00E94F1090E94690A99230CF4019609
:101180009C01359527952093102030931120C9019B
:10119000880F991F820F931F880F991F63E170E0DA
:1011A0000E9454198B819C81861B970B8B839C8397
:1011B00082E190E2BE016D5F7F4F40E10E94C9185D
:1011C00084E190E2BE016F5F7F4F40E10E94C91849
:1011D0000E94DF098EE090E260E170E20E947818E0
:1011E0002B813C818091102090911120AC01249F93
:1011F000C001259F900D349F900D112468EE73E07F
:101200000E9454197B010027F7FC0095102F80E005
:101210000E94FB038091122090911320EFE8F0E2EE
:101220008083918380910E2090910F20E1E9F0E27C
:10123000808391838091142090911520F101808307
:101240009183F9E1EF16FCEFFF06FFEF0F07FFEFC9
:101250001F076CF4C801B70128EE33E040E050E00E
:101260000E94891988279927821B930B09C0C801FE
:10127000B70128EE33E040E050E00E948919C9012F
:10128000E0EAF0E28083918380E00E94E9038981B3
:101290009A8188559B411CF486E00E94CF0B89817E
:1012A0009A81815C9D451CF087E00E94CF0BF6017E
:1012B00080818130B1F48091102090911120815172
:1012C00097427CF080910E2090910F2099231CF47E
:1012D000909581959F4F853691051CF088E00E947E
:1012E000CF0BE3E9F0E24081842F90E08A9D9001EA
:1012F0008B9D300D9A9D300D11248B819C81281778
:10130000390774F4442361F0F6018081813041F49F
:1013100080910B208F5F80930B208B3020F406C0D0
:1013200010920B2003C089E00E94CF0BF894F301C8
:10133000808190E0F20120813181AC01429FC001A7
:10134000439F900D529F900D1124F401808391834F
:1013500078940E94911560911020709111200E9444
:101360000211A9CEAAECB1E092E09C93E82FF0E044
:10137000E4911C928E2F08950F931F93CF93DF93C8
:10138000EC0182E0C030D80769F480E20E94B20923
:1013900000E012E0F801848781E20E94B209F801BE
:1013A000858708C084E20E94B2098C8785E20E948A
:1013B000B2098D87DF91CF911F910F91089588E336
:1013C000E0E0F2E081AB84E0E0E6F6E086830895B9
:1013D00080E3E0E0F2E081AB84E0E0E6F6E08583E4
:1013E0000895F894E82FF0E0EE0FFF1FE551FF4D50
:1013F000208131817894822F932F0895E0E0F2E0EC
:1014000092E090AF880F880F880F887781AF80AD0A
:10141000806880AF0895E0E0F2E010AE880F880F9A
:10142000880F887781AF80AD806880AF0895AA2744
:1014300097FDA095BA2F2091E8203091E92044270C
:1014400037FD4095542F821B930BA40BB50B2091B5
:101450004E2830914F28442737FD4095542FBC012A
:10146000CD010E9421192DEB33E040E050E00E94B5
:101470008919822F932F0895AA2797FDA095BA2F37
:101480002091E8203091E920442737FD4095542FE2
:10149000821B930BA40BB50B20914E2830914F2843
:1014A000442737FD4095542FBC01CD010E942119DE
:1014B00020E038E040E050E00E948919CA01B901FB
:1014C0002DE030E040E050E00E942119862F972F58
:1014D0000895AA2797FDA095BA2F2091E820309172
:1014E000E920442737FD4095542F821B930BA40B12
:1014F000B50B20914E2830914F28442737FD409559
:10150000542FBC01CD010E94211920E038E040E0B9
:1015100050E00E948919CA01B90124E630E040E098
:1015200050E00E9421192FE330E040E050E00E949B
:101530008919822F932F0895681779071CF020E0EE
:1015400030E026C09C01261B370BB901882777FDA8
:101550008095982F20914E2830914F28442737FDB1
:101560004095542F0E94211920E038E040E050E0DF
:101570000E948919CA01B90120E137E240E050E038
:101580000E94211922E835E040E050E00E948919CC
:10159000822F932F08951F920F920FB60F9208B6C5
:1015A0000F9209B60F92112418BE19BE2F933F93C4
:1015B0004F935F936F937F938F939F93AF93BF935B
:1015C000EF93FF9381E08093EA208091ED2090914A
:1015D000EE200E943C0A2091932030E044E951E142
:1015E000B901649F9001659F300D749F300D1124E7
:1015F0002817390754F48091ED209091EE20815105
:1016000097421CF082E00E94CF0BE0E0F1E081897C
:101610008061818B80898068808B80E8E0E8F1E0E0
:10162000808BFF91EF91BF91AF919F918F917F91AF
:101630006F915F914F913F912F910F9009BE0F9045
:1016400008BE0F900FBE0F901F901895EF92FF925B
:101650000F931F9380E092E00E94BC098FE20E94EA
:10166000B209182F00E00F2EFCE4EF2EF8E2FF2E57
:10167000F02DF701008311838EE20E94B20990E001
:10168000082B192BF70100831183E0E0F2E01082B0
:1016900080E1818387E0848383E182838DEB838390
:1016A00092E090A388E481A312A290A780E481A78E
:1016B00012A690AB80E381AB12AA90AF11AE12AE2E
:1016C00080818160808380A1806880A383A180FF66
:1016D000FDCF00E012E08FE0F8018683E0E0F1E06A
:1016E00080E1808F82E0818F128E8BEE90E2848F7A
:1016F000958FAA2797FDA095BA2F8B2F9927AA27F8
:10170000BB27868F85E0808B83E0818B8DE5828B84
:1017100082E1838B86E090E0848B958B81E0868BE1
:1017200080898068808B80818068808384E0E0E6A7
:10173000F6E081830E94E80980E8E0E8F1E0808B30
:1017400081E061E070E00E94CA0181E00E944C03E8
:1017500080E00E94FE0981E065E070E00E94CA011D
:1017600081E00E944C03F80124AD35ADC901099612
:10177000439728F42093E8203093E92003C081E0C8
:101780000E94CF0B1F910F91FF90EF900895E0E41E
:10179000F8E010A211A20895809318200895AF9246
:1017A000BF92CF92DF92EF92FF920F931F93CF934E
:1017B000DF93982FF894E0E0F8E0108211828FEF29
:1017C000E0E4F6E08683E0E0F9E010821182E0E6F2
:1017D000F6E083E0868388E0818385839895009195
:1017E0001720063008F045C0A0E6B6E018E00F2E3E
:1017F000F0E4CF2EFFE1DF2EF02D40E253E0892F01
:1018000090E0AA24BB24C8E5D2E00F2EF2E0EF2E30
:10181000FDE0FF2EF02D15961C9315979601FA0109
:101820003197F1F721503040D1F718161906D4F44A
:10183000B50116961C9316979E01FA013197F1F7A0
:1018400021503040D1F715961C9315979701FA0156
:101850003197F1F721503040D1F76F5F7F4F681714
:1018600079073CF300000F5F0630A8F286E0809312
:10187000172088ED84BF81E0E8E7F0E08183000075
:10188000FECF1F920F920FB60F9208B60F9209B6B5
:101890000F92112418BE19BE2F933F934F935F935D
:1018A0006F937F938F939F93AF93BF93EF93FF9328
:1018B00083E00E94CF0BFF91EF91BF91AF919F9179
:1018C0008F917F916F915F914F913F912F910F90E9
:1018D00009BE0F9008BE0F900FBE0F901F90189575
:1018E000EF92FF920F931F93CF93DF9385E064E114
:1018F00070E00E94CA010F2EFEE8EF2EF0E2FF2EEC
:10190000F02DC0E6D6E018E001E085E00E944C032F
:1019100085E064E170E00E94CA01F70180818330B4
:1019200009F454C0843030F4813099F1823008F0E9
:1019300047C009C0863009F447C08730B9F0853008
:1019400009F057C03FC01D8386E062E370E00E944B
:10195000CA0186E00E944C031E8386E06AE877E0B5
:101960000E94CA0186E00E944C03CFCF1D8386E00F
:1019700068EC70E00E94CA0186E00E944C031E835E
:1019800086E068EC70E00E94CA0186E00E944C0389
:10199000BCCF1D83609116206F5F60931620629507
:1019A0006F7086E070E00E94CA0186E00E944C03DE
:1019B00080911620813A10F0009316201E83A5CF47
:1019C0001D83A3CF1D83A1CF1D839FCF1D8386E0E1
:1019D0006AEF70E00E94CA0186E00E944C031E83F9
:1019E00086E06AEF70E00E94CA0186E00E944C0324
:1019F0008CCF1E838ACF88ED84BFE0E5F0E081E0E4
:101A000083838BEC828380818860808388EC8583EC
:101A1000818183FD04C00000818183FFFCCFA0E5AC
:101A2000B0E08C9180618C9388ED84BF83E0E0E42A
:101A3000F0E0818311968C9184FD06C0E0E5F0E032
:101A40000000818184FFFCCF88ED84BF84E0809317
:101A50004000E0E4F8E081E0808380E1818312824D
:101A600013821482168283E0878380E09DE780A73B
:101A700091A787E0E0EAF0E082830E949E11E0E710
:101A8000F0E08CE1808385E08183828388E7838333
:101A90008AE7848388E685830895EF92FF920F9307
:101AA0001F93CF93DF930E94FB0C80EB97E060E0E5
:101AB0004DE152E22CE231E00E942F0181EA95E1F2
:101AC00061E049E155E22CE231E00E942F018BED0B
:101AD00092E162E04DEE53E22CE231E00E942F01F0
:101AE0008EE595E063E041EF50E22CE231E00E94A8
:101AF0002F0180E79CE064E047E553E226E930E00F
:101B00000E942F0188EB95E065E045E456E22CE267
:101B100031E00E942F01AEE5B0E281E0FD0181934A
:101B200010821182FD0133968083FD01349610826C
:101B30001182FD01369782E08083FD013597108286
:101B40001182FD0133971082FD01329710821182BC
:101B5000FD01369683E08083FD0137961082118265
:101B6000FD01399684E08083FD013A96108211824E
:101B7000FD013C968083FD013D9610821182FD019E
:101B80003F9685E0808350961D921C9211970E948B
:101B900012030F2EF9E4EF2EF3E2FF2EF02D00E0FA
:101BA0000000E701102F812F0E94990189939993DA
:101BB0001F5F1730C1F7F4CFBC0180E092E30E94B1
:101BC0005419862F972F9C01220F331F880F991FBE
:101BD000880F991F880F991F280F391F2093012004
:101BE0003093022080910320909104200196AC0153
:101BF000249FC001259F900D349F900D1124809348
:101C00007127909372270895809303209093042066
:101C100008950F931F93BC018FEF9FEFE0E0F8E072
:101C200082AF93AF61157105C9F000E019E0F801CA
:101C300026A937A980E090E040E050E02C5F3F4FBC
:101C40004F4F5F4F0E94211928EE33E040E050E0F3
:101C50000E946719F80122AF33AF04C0E0E0F9E059
:101C600012AE13AE1F910F9108950F931F93BC01F5
:101C70008FEF9FEFE0E0F8E082AF93AF6115710561
:101C8000A9F000E019E0F80120AD31AD80E090E06E
:101C900040E050E00E94211928EE33E040E050E09F
:101CA0000E946719F80122AF33AF04C0E0E0F9E009
:101CB00012AE13AE1F910F910895CF93DF93FC01E5
:101CC000EB012081318181E02D323807E4F08881F9
:101CD0009981892B09F453C08CE291E08083918330
:101CE00080932120909322200EC001968093212082
:101CF000909322208083918306C080E197E28093B5
:101D00002120909322200190F081E02D9A012E1B3A
:101D10003F0B1AF4309521953F4FCF0164E170E0FD
:101D20000E94541926173707A4F4E639F105A4F0E8
:101D3000809123208F5F80932320833049F5109278
:101D4000232088819981009719F1019788839983CD
:101D50001FC0E639F105E4F4809123208F5F809362
:101D600023208330A9F4109223208881998123E0D5
:101D7000883E920768F401968883998309C0809110
:101D8000212090912220821793070CF4AECFB5CF7B
:101D9000DF91CF9108952F923F924F925F926F9271
:101DA0007F928F929F92AF92BF92CF92DF92EF92EB
:101DB000FF920F931F93DF93CF9300D000D0CDB746
:101DC000DEB73B014C012A011901B801CB82DC824C
:101DD000A982BA8280E090E0A40193010E942119B7
:101DE00020E830E040E050E00E948919F201808153
:101DF0009181A281B38179018A01E80EF91E0A1F3F
:101E00001B1F96015901CC24B7FCC094DC2CC601E1
:101E1000B5012FEF30E040E050E00E942119E616B6
:101E2000F7060807190784F0E981FA81BF018827BE
:101E300077FD8095982F0E942119E616F70608076E
:101E4000190714F4C801B701F2016083718382831A
:101E500093832FEF30E040E050E00E948919790130
:101E60008A01B10180E090E0A40193010E94211950
:101E700020E230E040E050E00E948919D801C7011B
:101E8000820F931FA41FB51F8A159B05AC05BD05C6
:101E900084F069817A819B01442737FD4095542F56
:101EA000281739074A075B0714F4DA01C9018B8345
:101EB0009C838B819C812496CDBFDEBFCF91DF9127
:101EC0001F910F91FF90EF90DF90CF90BF90AF9058
:101ED0009F908F907F906F905F904F903F902F904A
:101EE00008956F927F928F929F92AF92BF92CF92FE
:101EF000DF92EF92FF920F931F93DF93CF93CDB7B3
:101F0000DEB73501460157016801A21AB30AC40AB7
:101F1000D50A21F4AA24BB24650129C062177307DE
:101F2000840795071CF479018A0107C06E157F05A7
:101F30008007910714F47B018C01C801B701621B73
:101F4000730B840B950B29893A894B895C89261977
:101F50003709480959090E942119A60195010E94D3
:101F6000891959016A01A60CB71CC81CD91C6A2D15
:101F70007B2D8C2D9D2DCF91DF911F910F91FF9087
:101F8000EF90DF90CF90BF90AF909F908F907F9019
:101F90006F9008958F929F92AF92BF92CF92DF92EF
:101FA000EF92FF920F931F93CF93DF939C01EB016E
:101FB0000091012010910220C801C2978217930757
:101FC000B0F0E0E0F8E020AF31AF06AB17AB209106
:101FD000712730917227C901C297E0E0F9E080AF24
:101FE00091AF26AB37ABCB010E94090EBBC0C80135
:101FF000C2968217930708F443C08090712790908F
:10200000722700D000D0EDB7FEB73196B901601B42
:10201000710B6E5C7F4F80E090E05801CC24DD2492
:10202000940140E050E0208331834283538320E0D9
:1020300030E040E050E00F2EF4E6EF2EF0E0FF2E0F
:10204000F0E00F2FF0E01F2FF02D0E94710F0F9086
:102050000F900F900F909B0122533040E0E0F8E08A
:1020600020AF31AF66AB77ABC401C297E0E0F9E0D7
:1020700080AF91AF86AA97AACE010E94090E72C0C6
:10208000C8018A569F4F8217930708F444C0809076
:1020900071279090722700D000D0EDB7FEB731962F
:1020A000B901601B710B6253704080E090E05401F5
:1020B000CC24DD24980140E050E02083318342832A
:1020C000538320E030E040E050E00F2EF4E6EF2EA6
:1020D000F0E0FF2EF0E00F2FF0E01F2FF02D0E9418
:1020E000710F0F900F900F900F909401225330407A
:1020F000E0E0F8E020AF31AF86AA97AA9B01225317
:102100003040E0E0F9E020AF31AF66AB77ABCE0115
:102110000E94350E27C0C801880F991F8C599F4F08
:10212000821B930B40917127509172279A01225381
:102130003040A0E0B8E0D8962D933C93D997D6963E
:102140004D935C93D797E0E0F9E080AF91AF06AB99
:1021500017AB8FEF9FEFDA968D939C93DB97CB01B4
:102160000E94350EDF91CF911F910F91FF90EF905C
:10217000DF90CF90BF90AF909F908F900895209167
:10218000012030910220809103209091042001963B
:10219000AC01429FC001439F900D529F900D1124AE
:1021A0008093712790937227E0E0F8E081E08083CC
:1021B00043E34183128298E89383148226AB37ABC2
:1021C00010AE11AE12AE13AE809390081682E0E00E
:1021D000F9E08083418312829383148226AB37AB6C
:1021E0002253304020AF31AF12AE13AE809390092E
:1021F000E0E8F1E0808B80E090E068EE73E00E9420
:10220000CA0F08956F927F928F929F92AF92BF9262
:10221000CF92DF92EF92FF920F931F93DF93CF93B2
:1022200000D0CDB7DEB789839A838B01CE010196AA
:1022300067E070E2A8010E945D0E49815A81141680
:10224000150614F1E0E0F8E012AE13AEE0E0F9E0BC
:1022500086A997A9049682AF93AF88EE93E0809306
:1022600007209093082080E090E068EE73E00E94E1
:10227000CA0F10921D2010921E2010921F20109243
:10228000202000E010E035C03A01601A710A88246D
:1022900077FC8094982C2091192030911A2000917D
:1022A000052010910620E0901B20F0901C2040910A
:1022B000012050910220CA0182959295907F982723
:1022C000807F9827840F951F6AE070E00E94401974
:1022D0005B01C401B3014DE150E2CC24DD240E9436
:1022E000CB0E8C016091072070910820C8010E94DC
:1022F000CA0F80E00E94FB030093A6201093A72042
:1023000089819A818093A2209093A3201092A0208B
:102310001092A12080E00E94E9030F900F90CF91CE
:10232000DF911F910F91FF90EF90DF90CF90BF90C2
:10233000AF909F908F907F906F90089598E09093CA
:102340008506A1E8B6E09C9385EF8093A60A8CEC05
:102350008093A70A80E18093A30A83E08093A50A73
:1023600088E18093A40AE2EAF0E0808181608083C2
:1023700080EA80932C018AE080932D0110922E0137
:1023800084E0809320011092210180ED809322014E
:102390008CE8809323019C93E0E0F1E080818068E9
:1023A00080830895FC0181818823CCF0818186FDA2
:1023B00016C0862F972F60877187AA2797FDA09553
:1023C000BA2F8B2F9927AA27BB278287842F90E0CB
:1023D0008483958380818068808380E0089581E094
:1023E0000895FF920F931F938C01FC01F2801282DB
:1023F00063810E94BA14F801F2821F910F91FF903D
:1024000008950F931F938C011092732784E080939B
:10241000D527F8011282802F912F63810E94BA1470
:10242000F801828380E291E0602F712F43810E9446
:10243000D2111F910F9108950F931F93CF93DF93A4
:10244000EC01E4E7F7E287E3819389818083888167
:10245000873309F088C002ED17E2C8010E94F1112C
:10246000F8019281891709F07BC08091242088238C
:1024700009F476C089818C3201F18D3230F48631D5
:1024800061F1813209F088C007C0823409F43CC090
:102490008D3409F081C04AC081E00E94FB03A8E7A7
:1024A000B7E2EEE7F0E280E101900D928150E1F7B2
:1024B00081E00E94E90380E175C080E00E94FB0397
:1024C000A8E7B7E2EEE8F0E28AE501900D928150CC
:1024D000E1F70E94E9038AE565C080918E20882398
:1024E00079F481E00E94FB03AEE7B0E2E6EDF7E2AB
:1024F00080E101900D928150E1F781E00E94E903B3
:1025000081E0809378274EC00EE710E2C80160E0BA
:1025100070E040E150E00E940A15F801848595853D
:102520000E94040E81E0809378273CC08091D627DA
:10253000823041F0833051F0813061F481E080934A
:1025400000200AC081E08093282006C082E08093AA
:10255000282002C01092002081E08093782722C0BA
:102560008881873369F083E080932520809126203D
:1025700090912720019680932620909327200CC0CD
:1025800084E0809325208091262090912720019639
:10259000809326209093272080E0DF91CF911F9198
:1025A0000F910895E7E7F7E28C5F8083CF010397EF
:1025B0000E940112F1CFEF92FF921F93CF93DF930E
:1025C0008FEF8093D52780E068EE73E00E94CA0108
:1025D00080E00E944C030F2EF2EDEF2EF7E2FF2E6B
:1025E000F02DC5EDD7E214E081E060E04AE050E074
:1025F0000E949102813019F4C7010E941C121092AE
:1026000073271883F1CF1F920F920FB60F9208B65F
:102610000F9209B60F92112418BE19BE0F931F9383
:102620002F933F934F935F936F937F938F939F93DA
:10263000AF93BF93EF93FF93E0EAFAE0818184FDCB
:1026400003C0818183FF0AC08DE280932520109210
:10265000732784E08093D52790E004C0909173277E
:102660009E35E0F48091A00A02ED17E2F801E90F2F
:10267000F11D8083892F8F5F8093732780E065E051
:1026800070E00E94CA01F801938180917327981726
:1026900069F482E061E00E94F20208C081E0809368
:1026A00025201092732784E08093D527FF91EF9126
:1026B000BF91AF919F918F917F916F915F914F915A
:1026C0003F912F911F910F910F9009BE0F9008BE5F
:1026D0000F900FBE0F901F901895DC01ECE3F8E20D
:1026E00028E438E28D919D91909581959F4F81933B
:1026F0009193E217F307B1F70895AF92BF92CF928B
:10270000DF92EF92FF920F931F935C017A0188276B
:1027100077FD8095982F20E137E240E050E00E945D
:1027200021190027F7FC0095102FCC24B7FCC0948A
:10273000DC2CEA0CFB1C0C1D1D1DA80197010E943E
:102740008919822F932F1F910F91FF90EF90DF90A7
:10275000CF90BF90AF9008950F931F938B01662782
:1027600057FD6095762FAA2797FDA095BA2F480FA1
:10277000591F6A1F7B1F222717FD2095322FCB017F
:10278000BA01A90198010E94211920E137E240E035
:1027900050E00E946719822F932F1F910F91089587
:1027A000CF92DF92EF92FF920F931F93CF93DF931D
:1027B0007C01C0E3D8E2862F972F8C010F2EFCE31B
:1027C000CF2EF8E2DF2EF02D688179814C855D8572
:1027D000F701808191810E94AC13992324F4F801C0
:1027E0001082118203C0F8018083918382E090E01F
:1027F000E80EF91E22960E5F1F4FCC15DD0521F75E
:10280000DF91CF911F910F91FF90EF90DF90CF90CC
:102810000895EF92FF920F931F93CF93DF938C0154
:10282000C0E3D8E20F2EFCE3EF2EF8E2FF2EF02DEE
:102830004C855D85F801819191918F0168E670E189
:102840000E947D1389939993CE15DF0589F780E364
:1028500098E263E170E04CE150E00E940A15DF91DC
:10286000CF911F910F91FF90EF900895CF93DF9339
:1028700080E398E263E170E04CE150E00E94D614FE
:102880008823D1F0E0E3F8E260E177E2AAE4B8E27D
:10289000ED012297CB01462F892F9D012E5030400C
:1028A00014861586619371931D921C92119748832B
:1028B0008983E217F307A1F7DF91CF910895CF92B3
:1028C000DF92EF92FF920F931F93CF93DF937C01E0
:1028D000062F10E0101611061CF0AFEFBFEF2AC054
:1028E000AFEFBFEF60E070E0CC24DD24C1E0D0EAC0
:1028F000F701E60FF71F8081482F50E09601CA01CB
:102900008A279B2780FF07C0CD0196958795DC011C
:10291000AC27BD2702C0B695A7952F5F3F4F283043
:10292000310519F056954795EACF6F5F7F4F6017D5
:102930007107F4F28A2F9B2FDF91CF911F910F9196
:10294000FF90EF90DF90CF900895282F90E038E12E
:10295000862F822780FD02C0669505C0862F8327BB
:102960008695682F60689F5F983011F02695F0CFAC
:10297000862F08950F931F93CF93DF93062F66231F
:1029800011F460E00DC0182F282F392FE90160E005
:1029900089910E94A514682F9E01211B2017C0F366
:1029A000862FDF91CF911F910F910895CF92DF92E3
:1029B000EF92FF920F931F93DF93CF9300D0CDB789
:1029C000DEB76C018B017A0119821A82F8940E9499
:1029D000A4190E0D1F1DCE010196B80142E050E072
:1029E0000E94A419C6016E2D0E945F14789440E0E5
:1029F00029813A818217930709F041E0842F0F90D3
:102A00000F90CF91DF911F910F91FF90EF90DF908A
:102A1000CF900895CF92DF92EF92FF920F931F9382
:102A2000DF93CF9300D0CDB7DEB76C017B018A0175
:102A300019821A82F8940E94B019C601602F0E9470
:102A40005F1489839A83E00EF11ECE010196B701CF
:102A500042E050E00E94B01978940F900F90CF910F
:102A6000DF911F910F91FF90EF90DF90CF9008952D
:102A70000F931F93CF93DF938C01FB01DC01CD916A
:102A8000DC910190F081E02D9F012C1B3D0B1AF48D
:102A9000309521953F4FCE016AE070E00E945419B5
:102AA0006217730724F4D801ED93FC932DC09E01A7
:102AB000442737FD4095542FCA01B901660F771F8F
:102AC000881F991F660F771F881F991F660F771F32
:102AD000881F991F621B730B840B950B9F01442762
:102AE00037FD4095542F620F731F841F951F6B5F36
:102AF0007F4F8F4F9F4F28E030E040E050E00E9432
:102B00008919F80120833183DF91CF911F910F91B3
:102B1000089590E080910920882309F491E0892F9D
:102B20000895F89480918E20813019F020E030E0F3
:102B300004C020915028309151287894822F932FEF
:102B400008952F923F924F925F926F927F928F9251
:102B50009F92AF92BF92CF92DF92EF92FF920F932C
:102B60001F93DF93CF93CDB7DEB7A797CDBFDEBF5F
:102B70008CEFE0E4F6E0818382E064E670E00E949E
:102B8000CA0182E00E944C0380E00E94FE091F8E71
:102B900022243324689431F8CE0101968CA39DA39E
:102BA00028E830E22A50304028A339A32C5F3F4F59
:102BB0002AA33BA3CE014B968EA39FA382E00E9443
:102BC0004C0382E064E670E00E94CA0180912D20EF
:102BD000882309F485C23CC08F2D0E94FE0983E042
:102BE00062E070E00E94CA0183E00E944C03D101C0
:102BF000DC968D919C91DD970E94170A89839A83B8
:102C0000C8016CA17DA10E943815F3940E5F1F4F7F
:102C1000B6E0FB1609F78AE00E94FE0983E062E055
:102C200070E00E94CA0183E00E944C03F10184AD70
:102C300095AD0E94170A89839A83CE0103966CA1F1
:102C40007DA10E943815E394F8E0EF1609F04BC21D
:102C50008BE00E94FE0983E062E070E00E94CA01FE
:102C600083E00E944C03D101DC968D919C91DD970D
:102C7000F894E4E5F8E280839183789480E00E9400
:102C80000B0A83E062E070E00E94CA0183E00E94C8
:102C90004C03D101DC962D913C91DD97C901880F41
:102CA000991F220F331F220F331F220F331F820F52
:102CB000931F61E270E00E94401980E090E026E6F8
:102CC00031E040E050E00E942119ECE4F8E220817C
:102CD000318140E050E00E946719F894AAE5B8E21B
:102CE0002C9330935B28789481E00E940B0A83E058
:102CF00062E070E00E94CA0183E00E944C03F894F5
:102D0000F10184AD95AD9C01A8E5B8E28D939C934B
:102D10007894442737FD4095542F60E078E882E2AC
:102D200090E00E94671929833A83F8948EE498E230
:102D3000BE016F5F7F4F0E947818789482E00E94F6
:102D40000B0A83E062E070E00E94CA0183E00E9407
:102D50004C03F10164AD75AD80E090E02AE030E015
:102D600040E050E00E942119AEE4B8E22D913C9180
:102D7000442737FD4095542F0E942119052E5BE012
:102D800096958795779567955A95D1F7502DF89434
:102D9000E6E5F8E2608371837894809128208130A1
:102DA00019F0823071F407C0CE0103960E946D13B2
:102DB0001092282006C0CE0103960E94091410929A
:102DC0002820CE010396BE01615F7F4F0E94D01381
:102DD000A3E9B0E28C91882359F40F2EFCEC6F2EFE
:102DE000F0E17F2EF02D8824992460E070E024C06B
:102DF000FE013F960F2EFCEC6F2EF0E17F2EF02DA2
:102E00008824992460E070E0815090E00196880F5A
:102E1000991F9F01280F391F408151814615570581
:102E200008F43A018416950608F44A01640F751FE8
:102E30003296E217F30781F7609352287093532874
:102E400081E00E94FB03E8E8F0E20190F081E02DD0
:102E5000ED8FFE8FA8A1B9A1AD90BC90EAA1FBA116
:102E60000190F081E02DEB8FFC8F81E00E94E9035F
:102E700080912D20882309F0EBC0AEE8B0E28C9160
:102E8000813009F03FC0EB8DFC8DBF0180E090E008
:102E90006E5F7F4F8F4F9F4F940140E050E0621B69
:102EA000730B840B950B49E250E221E030E000E423
:102EB0001FE1EE24FF24CC24DD240E94CB0E2C0144
:102EC0008B8D9C8D0A9688159905B0F4C20164E635
:102ED00070E00E945419862F972F481A590A60E013
:102EE00070E080E090E049E250E220E030E000E075
:102EF00010E052010E94CB0E141415046CF044240F
:102F000055240AC01092292010922A2010922B20BA
:102F100010922C2044245524F8944092502850922A
:102F2000512878942D8D3E8D2615370508F090C0D8
:102F3000AEE8B0E28C91813009F08AC00F2EFFE03C
:102F4000EF2EFF24F02DEC0EFD1E0F2EFCE5CF2EF4
:102F5000F8E2DF2EF02D02E010E088249924689436
:102F600081F8860C971CAA24BB24A3940F2EF0E4AE
:102F70006F2EF6E07F2EF02D0F2EFAE05F2EF02D53
:102F8000A80142505040F7012081318182169306FA
:102F900080F5C501002E02C0880F991F0A94E2F740
:102FA000D30115968C93C50102C0880F991F4A95CD
:102FB000E2F7BF8DB82BBF8FC90166E170E00E94B8
:102FC0005419882777FD8095982F24E630E040E05B
:102FD00050E00E94211928EE33E040E050E00E94CA
:102FE0008919F6012083318342835383509209204B
:102FF00014C0C501002E02C0880F991F0A94E2F781
:10300000D30116968C93C50102C0880F991F4A956B
:10301000E2F78095BF8DB823BF8FE2E0F0E0EE0EBF
:10302000FF1E0F5F1F4F24E030E0C20ED31E8EA1A3
:103030009FA1E816F90609F0A3CF9F8D992341F4CB
:1030400080910920882329F081508093092001C0B4
:103050009F8D80912D208F5F80932D20833010F4E1
:103060009F8F07C08CEFE0E4F6E0868310922D205E
:103070001F8E80E00E94FB038E01015F1F4FE8EA74
:10308000F0E26CE578E2D8018D919D918D0180830D
:103090009183C280D380E480F580DB012D913D9146
:1030A0004D915C91D701C601820F931FA41FB51FDC
:1030B00082839383A483B583DB011D921D921D92AD
:1030C0001D92BD013A962EA13FA102171307D9F612
:1030D00080E00E94E90385E061E00E94F2026ECD8B
:1030E000EE24DD24D3948E010B5F1F4FFD2C74CD95
:1030F0000F931F93CF93DF938C01FB01DC01CD91E4
:10310000DC910190F081E02D9F012C1B3D0B1AF406
:10311000309521953F4FCE016AE070E00E9454192E
:103120006217730724F4D801ED93FC932DC09E0120
:10313000442737FD4095542FCA01B901660F771F08
:10314000881F991F660F771F881F991F660F771FAB
:10315000881F991F620F731F841F951F9F014427AB
:1031600037FD4095542F620F731F841F951F6B5FAF
:103170007F4F8F4F9F4F2AE030E040E050E00E94A9
:103180008919F80120833183DF91CF911F910F912D
:103190000895BF92CF92DF92EF92FF920F931F9309
:1031A000CF93DF936C01FB01B42EDC01CD91DC9158
:1031B0000190F081E02D9F012C1B3D0B1AF43095FE
:1031C00021953F4FCE016AE070E00E9454196217CA
:1031D000730724F4D601ED93FC9329C08B2D8695BB
:1031E0007F010027F7FC0095102FE80EF11C011D50
:1031F000111D6B2D70E061507040882777FD809520
:10320000982F9E01442737FD4095542F0E94211985
:10321000E60EF71E081F191F2B2D30E040E050E08E
:10322000C801B7010E948919F60120833183DF911B
:10323000CF911F910F91FF90EF90DF90CF90BF90B3
:103240000895629FD001739FF001829FE00DF11DF0
:10325000649FE00DF11D929FF00D839FF00D749F10
:10326000F00D659FF00D9927729FB00DE11DF91FBC
:10327000639FB00DE11DF91FBD01CF011124089519
:10328000AA1BBB1B51E107C0AA1FBB1FA617B7078C
:1032900010F0A61BB70B881F991F5A95A9F78095A8
:1032A0009095BC01CD01089597FB092E07260AD001
:1032B00077FD04D0E5DF06D000201AF47095619503
:1032C0007F4F0895F6F7909581959F4F0895A1E25D
:1032D0001A2EAA1BBB1BFD010DC0AA1FBB1FEE1F90
:1032E000FF1FA217B307E407F50720F0A21BB30BDB
:1032F000E40BF50B661F771F881F991F1A9469F757
:1033000060957095809590959B01AC01BD01CF01B2
:10331000089597FB092E05260ED057FD04D0D7DF60
:103320000AD0001C38F450954095309521953F4FB8
:103330004F4F5F4F0895F6F7909580957095619582
:103340007F4F8F4F9F4F0895E0ECF1E0A785A7FDD9
:10335000FDCFA485A860A4876050704F0C94EE192F
:10336000DC01A40FB51F4150504048F0CB01840F41
:10337000951F2E910E94C11941505040D0F70895D9
:10338000262F0E94FB190080021619F00E94CC190A
:10339000019701970895262FE0ECF1E0378537FD7E
:1033A000FDCF3485377F3487378531FF09C036E359
:1033B000328738ED34BF31E03387378537FDFDCFB5
:1033C00033E33287808391831282248325E322872B
:1033D00028ED31E024BF338701960895FB01DC011D
:1033E00002C001900D9241505040D8F7089503D08B
:1033F000808199270895E0ECF1E0378537FDFDCF16
:10340000348538603487FC01E050F04F0895F8941B
:02341000FFCFEC
:0A34120001000A0A004B00E8030A5B
:00000001FF
