:100000000C94BC000C9414150C94DD000C94DD00D1
:100010000C94DD000C94DD000C94C9110C94DD00EF
:100020000C94DD000C94DD000C94DD000C94DD00DC
:100030000C94DD000C94DD000C94DD000C94DD00CC
:100040000C94DD000C94DD000C94DD000C94DD00BC
:100050000C94DD000C94DD000C9439060C94DD004A
:100060000C94DD000C94DD000C94DD000C94DD009C
:100070000C94DD000C94DD000C94DD000C94DD008C
:100080000C94DD000C94DD000C94DD000C94DD007C
:100090000C94DD000C94DD000C94DD000C94DD006C
:1000A0000C94DD000C94DD000C94DD000C94DD005C
:1000B0000C94DD000C94DD000C94DD000C94DD004C
:1000C0000C94DD000C94DD000C94DD000C94DD003C
:1000D0000C94DD000C94DD000C94DD000C94DD002C
:1000E0000C94DD000C94DD000C94EA1E0C94DD00F1
:1000F0000C94DD000C94DD000C94DD000C94DD000C
:100100000C94DD000C94DD000C94DD000C94DD00FB
:100110000C94DD000C94DD000C94DD000C94DD00EB
:100120000C94DD000C94DD000C94DD000C94DD00DB
:100130000C94DD000C94DD000C94DD000C94DD00CB
:100140000C94DD000C94DD000C94DD000C94DD00BB
:100150000C94DD000C94DD000C94DD000C94DD00AB
:100160000C94DD000C94DD000C94DD000C94DD009B
:100170000C94DD000C94DD0011241FBECFEFDFE2F4
:10018000DEBFCDBF18BE19BE1ABE1BBE10E2A0E076
:10019000B0E2EEE8F5E502C005900D92A231B1079C
:1001A000D9F718E2A2E1B0E201C01D92AF37B10762
:1001B000E1F70E94EB130C94C52A0C940000EF9217
:1001C000FF920F931F937B018C0120E030E040E011
:1001D0005FE40E94DF0388238CF0C801B70120E0B0
:1001E00030E040E05FE40E9457020E943F049B0120
:1001F000AC01205030404040504806C0C801B70113
:100200000E943F049B01AC01B901CA011F910F91EB
:10021000FF90EF900895A0E0B0E0E1E1F1E00C94F0
:100220002B2ADC012B01FA019C91923008F439C190
:10023000EB018881823008F433C1943069F4843052
:1002400009F02FC111969C9111978981981709F493
:1002500028C1A0E0B0E225C1843009F421C1823078
:10026000A9F4923009F01DC19A01AD0188E0EA01BC
:100270000990AE01E90109929E018150C1F7E201A6
:10028000898111969C918923818308C1923009F458
:1002900007C112962D903C901397EB018A819B81A8
:1002A0001496AD90BD90CD90DC901797EC80FD80BA
:1002B0000E811F819101281B390BB90137FF04C042
:1002C00066277727621B730B603271050CF061C0E3
:1002D000121613066CF537014801062E04C09694D9
:1002E0008794779467940A94D2F721E030E040E055
:1002F00050E004C0220F331F441F551F6A95D2F7E8
:1003000021503040404050402E213F214023512376
:10031000211531054105510521F021E030E040E093
:1003200050E079018A01E628F728082919293CC0FC
:10033000232BD1F1260E371E35014601062E04C0AF
:1003400096948794779467940A94D2F721E030E0EA
:1003500040E050E004C0220F331F441F551F6A9530
:10036000D2F721503040404050402A213B214C21BF
:100370005D21211531054105510521F021E030E0D5
:1003800040E050E059016A01A628B728C828D928BA
:100390000BC0821593052CF01C01AA24BB24650117
:1003A00003C0EE24FF24870111969C91D20111967F
:1003B0008C91981709F445C0992339F0A801970149
:1003C0002A193B094C095D0906C0A60195012E19A1
:1003D0003F09400B510B57FD08C011822282338226
:1003E00024833583468357831DC081E08183228225
:1003F000338288279927DC01821B930BA40BB50B52
:1004000084839583A683B7830DC0220F331F441FB7
:10041000551F2483358346835783828193810197B7
:10042000828393832481358146815781DA01C90112
:100430000197A109B1098F5F9F4FAF4FBF4328F3C9
:100440000BC0918322823382EA0CFB1C0C1D1D1D04
:10045000E482F5820683178383E0808324813581DB
:100460004681578157FF1AC0C901AA2797FDA09559
:10047000BA2F81709070A070B070569547953795DF
:100480002795822B932BA42BB52B84839583A6834E
:10049000B78382819381019682839383DF0101C0B8
:1004A000D201CD01CDB7DEB7E2E10C94472AA0E23C
:1004B000B0E0EDE5F2E00C94372A69837A838B8310
:1004C0009C832D833E834F835887E9E0EE2EF12CE9
:1004D000EC0EFD1ECE010196B7010E9468058E014B
:1004E0000F5E1F4FCE010596B8010E9468058A89EC
:1004F00091E089278A8BC701B801AE01475E5F4F43
:100500000E940B010E949304A096E6E00C94532AEB
:10051000A0E2B0E0EEE8F2E00C94372A69837A8337
:100520008B839C832D833E834F835887F9E0EF2E86
:10053000F12CEC0EFD1ECE010196B7010E9468055C
:100540008E010F5E1F4FCE010596B8010E9468050F
:10055000C701B801AE01475E5F4F0E940B010E94C8
:100560009304A096E6E00C94532AA0E2B0E0EBEBF3
:10057000F2E00C942B2A69837A838B839C832D83EE
:100580003E834F835887CE010196BE01675F7F4F40
:100590000E946805CE010596BE016F5E7F4F0E94E6
:1005A00068059985923088F089898230C8F0943046
:1005B00019F4823051F404C0843029F4923081F46B
:1005C00080E090E2C6C0923049F420E09A858A89A2
:1005D000981321E02A87CE010996BBC0823049F4E6
:1005E00020E09A858A89981321E02A8BCE014196D2
:1005F000B0C02D843E844F8458886D887E888F8853
:10060000988CEE24FF248701AA24BB24650140E0D6
:1006100050E060E070E0E0E0F0E0C10181709070D7
:10062000892BE9F0E60CF71C081D191D9A01AB0196
:100630002A0D3B1D4C1D5D1D80E090E0A0E0B0E068
:10064000E614F7040805190520F481E090E0A0E025
:10065000B0E0BA01A901480F591F6A1F7B1FAA0CFD
:10066000BB1CCC1CDD1C97FE08C081E090E0A0E024
:10067000B0E0A82AB92ACA2ADB2A3196E032F1056D
:1006800049F0660C771C881C991C56944794379443
:100690002794C3CFFA85EA892B893C898B859C8571
:1006A000280F391F2E5F3F4F17C0CA01817090700D
:1006B000892B61F016950795F794E79480E090E018
:1006C000A0E0B0E8E82AF92A0A2B1B2B769567955B
:1006D000579547952F5F3F4F77FDE7CF0CC0440FED
:1006E000551F661F771F17FD4160EE0CFF1C001F92
:1006F000111F21503040403090E0590790E06907C9
:1007000090E4790760F32B8F3C8FDB01CA018F7770
:100710009070A070B07080349105A105B10561F4AE
:1007200047FD0AC0E114F1040105110529F0405C00
:100730005F4F6F4F7F4F40781A8EFE1711F081E0A8
:100740008A8F4D8F5E8F6F8F78A383E0898FCE0164
:1007500049960E949304A096E2E10C94472AA8E1EE
:10076000B0E0E5EBF3E00C94372A69837A838B835E
:100770009C832D833E834F83588789E0E82EF12C9C
:10078000EC0EFD1ECE010196B7010E9468058E0198
:100790000F5E1F4FCE010596B8010E94680589853E
:1007A000823040F08989823028F0C701B8010E9468
:1007B000E00501C08FEF6896E6E00C94532AA8E1AB
:1007C000B0E0E5EEF3E00C94372A69837A838B83FB
:1007D0009C832D833E834F83588789E0E82EF12C3C
:1007E000EC0EFD1ECE010196B7010E9468058E0138
:1007F0000F5E1F4FCE010596B8010E9468058985DE
:10080000823040F08989823028F0C701B8010E9407
:10081000E00501C08FEF6896E6E00C94532AA8E14A
:10082000B0E0E5E1F4E00C94372A69837A838B83A6
:100830009C832D833E834F83588789E0E82EF12CDB
:10084000EC0EFD1ECE010196B7010E9468058E01D7
:100850000F5E1F4FCE010596B8010E94680589857D
:10086000823040F08989823028F0C701B8010E94A7
:10087000E00501C081E06896E6E00C94532AACE004
:10088000B0E0E5E4F4E00C943B2A69837A838B833F
:100890009C83CE010196BE016B5F7F4F0E9468056D
:1008A0008D81823061F1823050F1843021F48E816B
:1008B000882351F12EC02F81388537FD20C06E81ED
:1008C0002F3131051CF06623F9F023C08EE190E052
:1008D000821B930B29853A854B855C8504C0569510
:1008E0004795379527958A95D2F76623B1F05095AD
:1008F0004095309521953F4F4F4F5F4F0EC020E000
:1009000030E040E050E009C02FEF3FEF4FEF5FE7EE
:1009100004C020E030E040E050E8B901CA012C9664
:10092000E2E00C94572ADF92EF92FF920F931F930D
:10093000FC01E480F58006811781D18080818230BE
:1009400048F480E090E0A0E1B0E0E82AF92A0A2B20
:100950001B2BA5C0843009F49FC0823021F4EE2403
:10096000FF24870105C0E114F1040105110519F404
:10097000E0E0F0E096C0628173819FEF6238790712
:100980000CF05BC022E83FEF261B370B2A31310504
:100990002CF020E030E040E050E02AC0B801A70190
:1009A000022E04C076956795579547950A94D2F71D
:1009B00081E090E0A0E0B0E004C0880F991FAA1F7A
:1009C000BB1F2A95D2F70197A109B1098E219F215A
:1009D000A023B1230097A105B10521F081E090E0AB
:1009E000A0E0B0E09A01AB01282B392B4A2B5B2BFE
:1009F000DA01C9018F779070A070B07080349105D2
:100A0000A105B10539F427FF09C0205C3F4F4F4FC6
:100A10005F4F04C0215C3F4F4F4F5F4FE0E0F0E07D
:100A20002030A0E03A07A0E04A07A0E45A0710F0FF
:100A3000E1E0F0E079018A0127C06038710564F5D2
:100A4000FB01E158FF4FD801C7018F779070A0706C
:100A5000B07080349105A105B10539F4E7FE0DC0F1
:100A600080E490E0A0E0B0E004C08FE390E0A0E07C
:100A7000B0E0E80EF91E0A1F1B1F17FF05C01695F0
:100A80000795F794E794319687E016950795F794C4
:100A9000E7948A95D1F705C0EE24FF248701EFEF94
:100AA000F0E06E2F679566276795902F9F77D79414
:100AB000DD24D7948E2F8695492F462B582F5D29FC
:100AC000B701CA011F910F91FF90EF90DF90089539
:100AD000FC01DB01408151812281622F6F7770E040
:100AE000221F2227221F9381892F880F822B282FD4
:100AF00030E0991F9927991F11969C931197211502
:100B00003105A9F5411551056105710511F482E022
:100B100037C082E89FEF12968D939C9313979A01AA
:100B2000AB0167E0220F331F441F551F6A95D1F7B1
:100B300083E08C930DC0220F331F441F551F129664
:100B40008D919C911397019712968D939C93139777
:100B5000203080E0380780E0480780E4580758F3E9
:100B600014962D933D934D935C93179708952F3FC3
:100B7000310579F4411551056105710519F484E0D9
:100B80008C93089564FF03C081E08C9312C01C9283
:100B900010C02F57304012962D933C93139783E04B
:100BA0008C9387E0440F551F661F771F8A95D1F7F6
:100BB000706414964D935D936D937C93179708958D
:100BC0001F93DC01FB019C91923008F447C08081A7
:100BD000823008F443C0943051F411961C91843053
:100BE00099F58181682F70E0611B71093FC08430E5
:100BF00021F0923031F48230B9F18181882389F17A
:100C00002DC011961C9111978230F1F08181181737
:100C1000D9F412962D913C9113978281938182177A
:100C2000930794F028173907BCF014968D919D9185
:100C30000D90BC91A02D24813581468157812817C4
:100C400039074A075B0718F4112341F00AC08217DD
:100C50009307A407B50740F4112319F061E070E091
:100C600005C06FEF7FEF02C060E070E0CB011F9125
:100C700008950F921F922F923F924F925F926F9220
:100C80007F928F929F92AF92BF92CF92DF92EF921C
:100C9000FF920F931F932F933F934F935F936F9305
:100CA0007F938F939F93AF93BF93CF93DF93EF93F4
:100CB000FF930FB60F92112480914F20882F90E060
:100CC000EDE3F0E0208131810E96880F991FFC0141
:100CD000EB5CFF4D208331830E948214809135208C
:100CE00090913620A0913720B09138200196A11D17
:100CF000B11D8093352090933620A0933720B09378
:100D000038200E94BB060E948F0780934F20ADE3DE
:100D1000B0E080914F20882F90E00E96880F991FA9
:100D2000FC01EB5CFF4D808191818D939C93119729
:100D30000F900FBEFF91EF91DF91CF91BF91AF91D7
:100D40009F918F917F916F915F914F913F912F91E3
:100D50001F910F91FF90EF90DF90CF90BF90AF90D9
:100D60009F908F907F906F905F904F903F902F90CB
:100D70001F900F901895DF93CF930F92CDB7DEB7EA
:100D8000198258C08981282F30E0C901880F991F26
:100D9000820F931FFC01E05AFF4D808191810097E3
:100DA00009F445C08981282F30E0C901880F991FB7
:100DB000820F931FFC01E05AFF4D80819181AC01AD
:100DC00041505040C901880F991F820F931FFC01A9
:100DD000E05AFF4D408351838981282F30E0C901BB
:100DE000880F991F820F931FFC01E05AFF4D8081ED
:100DF00091810097E1F480915020482F8981282F1C
:100E000030E0C901880F991F820F931FFC01E15A3E
:100E1000FF4D8081282F30E081E090E0022E02C05B
:100E2000880F991F0A94E2F7842B809350208981C0
:100E30008F5F89838981883008F4A4CF0F90CF9188
:100E4000DF910895F8940F921F922F923F924F9244
:100E50005F926F927F928F929F92AF92BF92CF924A
:100E6000DF92EF92FF920F931F932F933F934F9335
:100E70005F936F937F938F939F93AF93BF93CF9322
:100E8000DF93EF93FF930FB60F92112480914F20C1
:100E9000882F90E0EDE3F0E0208131810E96880FFD
:100EA000991FFC01EB5CFF4D208331830E948F076B
:100EB00080934F20ADE3B0E080914F20882F90E0E9
:100EC0000E96880F991FFC01EB5CFF4D808191818C
:100ED0008D939C9311970F900FBEFF91EF91DF912F
:100EE000CF91BF91AF919F918F917F916F915F91C2
:100EF0004F913F912F911F910F91FF90EF90DF90B5
:100F0000CF90BF90AF909F908F907F906F905F90A9
:100F10004F903F902F901F900F9078940895DF93FB
:100F2000CF9300D00F92CDB7DEB786E08A83809151
:100F3000502089831B8210C08981882F90E08170A6
:100F40009070882319F08B818A8309C089818695E6
:100F500089838B818F5F8B838B81863068F38A8155
:100F6000882F90E0FC01E85BFF4D80818F3FA1F16D
:100F70008A81882F90E0FC01E85BFF4D8081882FFB
:100F800090E0FC01EB5BFF4D80818F3F29F18A816E
:100F9000882F90E0FC01E85BFF4D8081882F90E076
:100FA000FC01EB5BFF4D80818A8380915020282FCC
:100FB00030E08A81882F90E0A90102C055954795BD
:100FC0008A95E2F7CA0181709070009729F486E053
:100FD0008A838DE40E944F158A812396CDBFDEBFA0
:100FE000CF91DF910895DF93CF93CDB7DEB72997E7
:100FF000CDBFDEBF8B839C836D834E835F83288749
:10100000398719821A820FC02E813F8189819A8186
:10101000F901E80FF91F8D818655808389819A81B6
:10102000019689839A8329813A8188859985281731
:10103000390750F38D81882F90E02E813F81819672
:10104000880F991FFC01EB5CFF4D2083318388855D
:101050009985839789839A830DC02E813F818981E9
:101060009A81F901E80FF91F108289819A8101960E
:1010700089839A8329813A81888599852817390738
:1010800060F380915020482F8D81282F30E081E03F
:1010900090E002C0880F991F2A95E2F7842B809375
:1010A00050208D81482F50E0888599859C012150E2
:1010B00030408E819F81820F931F9C01CA010E9642
:1010C000880F991FFC01EB5CFF4D208331838D81DC
:1010D000882F90E00E96880F991FFC01EB5CFF4D66
:1010E000808191810197FC018B819C81892F9927B7
:1010F00080838D81882F90E00E96880F991FFC01C8
:10110000EB5CFF4D80819181FC018B819C81808310
:101110008D81482F50E08D81882F90E00E96880FAA
:10112000991FFC01EB5CFF4D808191819C01235252
:101130003040CA010E96880F991FFC01EB5CFF4DF1
:10114000208331832996CDBFDEBFCF91DF910895F3
:10115000DF93CF9300D00F92CDB7DEB71B820BC0C9
:101160008B81882F90E0FC01E85BFF4D8FEF80833F
:101170008B818F5F8B838B81873090F31B820BC0B9
:101180008B81882F90E0FC01EB5BFF4D8FEF80831C
:101190008B818F5F8B838B81833090F3EDE3F0E065
:1011A0008081918189839A838FE798E2809383205D
:1011B0009093842009C089819A81019789839A83B9
:1011C000E981FA8180EB8083209183203091842013
:1011D00089819A812817390770F31092352010926F
:1011E0003620109237201092382086E080934F20CE
:1011F000789478940E9422072396CDBFDEBFCF91CA
:10120000DF910895DF93CF930F92CDB7DEB7898337
:101210008981833024F085E00E944F152CC0F8941A
:1012200015C080914F20882F90E02981FC01E85B58
:10123000FF4D20830E942207F89480914F20882F31
:1012400090E0FC01E85BFF4D8FEF80838981992757
:1012500087FD9095FC01EB5BFF4D80818F3F09F787
:101260008981992787FD909520914F20FC01EB5BA8
:10127000FF4D208378940F90CF91DF910895DF93F5
:10128000CF930F92CDB7DEB789838981833024F065
:1012900086E00E944F150CC0F8948981992787FD3C
:1012A0009095FC01EB5BFF4D8FEF80830E9422073E
:1012B0000F90CF91DF910895DF93CF9300D0CDB7FA
:1012C000DEB789836A83F8948981282F30E0898189
:1012D000882F90E0FC01E75CFF4D90818A81892B8B
:1012E000F901E75CFF4D80838981882F90E0FC0144
:1012F000E15CFF4D90818A818923882399F0809158
:101300005020482F8981282F30E081E090E002C0F2
:10131000880F991F2A95E2F7842B809350200E9412
:10132000220701C078940F900F90CF91DF9108951C
:10133000DF93CF9300D00F92CDB7DEB78A83809131
:101340004F20863029F482E00E944F151B8253C043
:10135000F89480914F20882F90E0FC01E75CFF4DCE
:1013600090818A818923882331F580914F20882FAD
:1013700090E0FC01E15CFF4D8A81808380915020E8
:10138000482F80914F20282F30E081E090E002C06C
:10139000880F991F2A95E2F7809584238093502027
:1013A0000E942207F89480914F20882F90E0FC0142
:1013B000E15CFF4D108280914F20882F90E0FC016E
:1013C000E75CFF4D90818A818923898380914F203A
:1013D000282F30E0882F90E0FC01E75CFF4D8081F2
:1013E000982F8A8180958923F901E75CFF4D8083DE
:1013F000789489818B838B812396CDBFDEBFCF917B
:10140000DF910895DF93CF9300D00F92CDB7DEB771
:1014100089836A837B838981883020F087E00E94FA
:101420004F1511C0F8948981282F30E0C901880F29
:10143000991F820F931FFC01E05AFF4D8A819B8107
:101440008083918378942396CDBFDEBFCF91DF91C7
:101450000895DF93CF930F92CDB7DEB7898389814B
:10146000883020F087E00E944F1545C080914F20C2
:10147000863021F484E00E944F153DC08981282FD9
:1014800030E0C901880F991F820F931FFC01E15AB8
:10149000FF4D908180914F20981721F089E00E94A4
:1014A0004F1529C0F8948981282F30E0C901880F91
:1014B000991F820F931FFC01E05AFF4D808191819B
:1014C000009729F488E00E944F15789414C0809109
:1014D0005020482F80914F20282F30E081E090E06D
:1014E00002C0880F991F2A95E2F780958423809384
:1014F00050200E9422070F90CF91DF910895DF9333
:10150000CF93CDB7DEB72697CDBFDEBF8D831B82CD
:101510001C828D81882F90E08196880F991FFC0195
:10152000EB5CFF4D8081918189839A83E981FA8107
:101530008081282F30E08D81882F90E086559F4F45
:101540001E822817390711F081E08E8389819A81E4
:10155000019689839A838E818823B1F48B819C8143
:1015600001968B839C838D81882F90E00E96880F47
:10157000991FFC01EB5CFF4D808191819C01898169
:101580009A812817390790F68B819C812696CDBFCA
:10159000DEBFCF91DF910895DF93CF93CDB7DEB754
:1015A0002597CDBFDEBF8A836B834C835D832C81FF
:1015B0003D818B81B9010E94020AF89480914F20ED
:1015C000882F90E0FC01E75CFF4D90818A818923A0
:1015D000882331F580914F20882F90E0FC01E15C59
:1015E000FF4D8A81808380915020482F80914F2029
:1015F000282F30E081E090E002C0880F991F2A95E3
:10160000E2F780958423809350200E942207F8946B
:1016100080914F20882F90E0FC01E15CFF4D10820B
:1016200080914F20882F90E0FC01E75CFF4D908176
:101630008A818923898380914F20282F30E0882F49
:1016400090E0FC01E75CFF4D8081982F8A818095B6
:101650008923F901E75CFF4D80838981882371F03C
:101660008B81282F30E0C901880F991F820F931FAB
:10167000FC01E05AFF4D1082118201C000007894F5
:1016800089812596CDBFDEBFCF91DF910895DF938D
:10169000CF93CDB7DEB72E97CDBFDEBF85E890E202
:1016A00060E070E044E150E00E94A2238823E1F171
:1016B00081E08093082088EE93E0809385209093CA
:1016C000862086E0809387208AE09FE080938820B0
:1016D0009093892080EA96E8A1E0B0E080938A2088
:1016E00090938B20A0938C20B0938D2080E197E283
:1016F00080938E2090938F208CEA9DE080939020A1
:10170000909391208CE390E080939220909393208B
:101710008AE090E0809394209093952080E197E276
:10172000809396209093972081E080932B200E94B5
:1017300007180E949B1081E061E070E00E94020A9D
:1017400081E00E94290AE0E6F6E080E4818BE0E493
:10175000F6E083E08183E0E6F6E08BE081830E949F
:10176000AB1181E064E670E00E94020A81E00E9411
:10177000290A82E00E943B12809313209093142048
:101780000E94E32081E068EC70E00E94020A81E0A0
:101790000E94290A8091F520882339F4E0E8F1E0DD
:1017A00080E8808B85E00E945C151092F52081E036
:1017B00061E070E00E94020A81E00E94290A80E054
:1017C0000E943B120E94E1128F83988781E00E9461
:1017D0003B120E94E11289879A8789E190E29E017B
:1017E000275F3F4FB90140E10E9414298BE190E24D
:1017F0009E01295F3F4FB90140E10E941429E0E0BA
:10180000F2E081A9882F90E0887790708833910565
:1018100009F582E00E943B122091132030911420A0
:10182000B9010E9483138093172090931820E985B3
:10183000FA8580911720909118202DE730E0B901AA
:101840000E94DB29CB019F01281B390BC901898725
:101850009A871DC082E00E943B120E942D13809344
:10186000172090931820E985FA8580911720909190
:101870001820880F991F23E130E0B9010E94DB296D
:10188000CB01AF01481B590BCA0189879A87809108
:1018900017209091182059E0853C95071CF00E9474
:1018A000AB110AC0809117209091182027E0803D4D
:1018B000920714F40E94BA1185E190E227E130E228
:1018C000B9010E948E282091172030911820898517
:1018D0009A85AC01249FC001259F900D349F900DE7
:1018E000112428EE33E0B9010E94DB29CB01AA279D
:1018F00097FDA095BA2F8B839C83AD83BE8380E038
:101900000E9402098091192090911A2080939A20B8
:1019100090939B20809115209091162080939C207D
:1019200090939D2080911B2090911C208093F1200A
:101930009093F2208B819C81AD81BE8189315CEFD7
:1019400095075FEFA5075FEFB507A4F48B819C8136
:10195000AD81BE8128EE33E040E050E0BC01CD0116
:101960000E94102ADA01C901909581959F4F8D87B9
:101970009E8710C08B819C81AD81BE8128EE33E0B3
:1019800040E050E0BC01CD010E94102ADA01C901FB
:101990008D879E878D859E858093AB209093AC200C
:1019A00080E00E943F098F8198852BE1883592075E
:1019B0001CF486E00E945C158F8198853DE5813C92
:1019C00093071CF087E00E945C158091992081307C
:1019D00009F5809117209091182047E281319407F2
:1019E000CCF080911520909116208B879C878B8559
:1019F0009C8599233CF42B853C85309521953F4F60
:101A00002B873C874B855C85453651051CF088E06B
:101A10000E945C1580919E20282F30E084E991E19E
:101A2000A901489F9001499F300D589F300D112406
:101A300089859A852817390774F480919E20882318
:101A400051F080919920813031F4809112208F5F84
:101A50008093122002C010921220809112208B30AD
:101A600018F089E00E945C15F8942091882030914C
:101A7000892080919E20882F90E0AC01249FC00196
:101A8000259F900D349F900D112489839A8389811D
:101A90009A818093AF209093B02078940E9474280C
:101AA0002091172030911820B9010E945C1B72CE42
:101AB000DF93CF93CDB7DEB784E064E670E00E9499
:101AC000020A84E00E94290A84E068EE73E00E9422
:101AD000020A84E00E94290A84E068EE73E00E9412
:101AE000020A809199208130A1F780E00E940209CA
:101AF00020919F203091A0204091A1205091A220C0
:101B000080919C2090919D20AA2797FDA095BA2FA7
:101B1000820F931FA41FB51F80939F209093A02036
:101B2000A093A120B093A2208091A7209091A820FB
:101B3000A091A920B091AA200196A11DB11D80936A
:101B4000A7209093A820A093A920B093AA2080E07A
:101B50000E943F09BECFDF93CF93CDB7DEB7679723
:101B6000CDBFDEBF1F821D821E8280E00E9402095F
:101B700080919A2090919B2089839A83188622C015
:101B80008885682F70E08885882F90E0880F991FDE
:101B90009C01220F331F220F331F820F931FFC0162
:101BA000ED54FF4D408151819B01220F331FCE0127
:101BB0000196820F931FFC013896408351838885DC
:101BC0008F5F888788858630D8F280E00E943F0941
:101BD000188633C08885882F90E09C01220F331F20
:101BE000CE010196820F931FFC013896808191816E
:101BF00027E0813D9207F4F09F818885981710F4C3
:101C00001F8A4DC08885882F90E09C01220F331FCA
:101C1000CE010196820F931FFC013896808191813D
:101C20009C018D819E81820F931F8D839E838F8166
:101C30008F5F8F8388858F5F88878885863050F295
:101C400089819A812D813E81A901481B590BCA01C6
:101C50008B839C838B819C818D8B9E8B2D893E8970
:101C600033233CF44D895E89509541955F4F4D8BF0
:101C70005E8B8F81282F30E08CE291E0AC01249FB5
:101C8000C001259F900D349F900D11242D893E8910
:101C9000281739071CF43F813F8B01C01F8A8F89A9
:101CA0006796CDBFDEBFCF91DF910895DF93CF93CD
:101CB0000F92CDB7DEB780E00E94020910929F20FC
:101CC0001092A0201092A1201092A2201092A32086
:101CD0001092A4201092A5201092A6201092A72066
:101CE0001092A8201092A9201092AA20198229C02F
:101CF0008981882F90E0880F991F9C01220F331F44
:101D0000220F331F820F931FFC01EB54FF4D1082F3
:101D10001182128213828981882F90E0880F991F87
:101D20009C01220F331F220F331F820F931FFC01D0
:101D3000E754FF4D108211821282138289818F5FD6
:101D4000898389818630A0F280E00E943F090F904C
:101D5000CF91DF910895DF93CF93CDB7DEB763972F
:101D6000CDBFDEBF87E064EF71E00E94020A87E02A
:101D70000E94290A81E00E949809198680E00E9449
:101D8000020980919C2090919D208F83988780915B
:101D9000F1209091F2208D839E831B821C821D86F0
:101DA0001BC08D85882F90E0880F991F9C01220F02
:101DB000331F220F331F820F931FFC01ED54FF4D81
:101DC000808191819C018B819C81820F931F8B83E9
:101DD0009C838D858F5F8D8790919E208D8589173F
:101DE00000F380E00E943F0981E00E940209809197
:101DF00085209091862089839A8381E00E943F0903
:101E00002D813E8180919620909197202817390747
:101E100018F484E08093992080919920282F30E055
:101E20002A8B3B8B4A895B894230510509F4F8C003
:101E30008A899B898330910564F42A893B8921151D
:101E40003105D1F04A895B894130510509F497C0C9
:101E500022C18A899B898430910509F4FAC02A89B4
:101E60003B89243031050CF40BC14A895B8945302C
:101E7000510509F4E3C00FC180910820282F30E0FC
:101E8000288B398B488959894130510539F0888927
:101E900099898230910509F451C06CCF1C860E944B
:101EA000AB0D8A871D8617C087E064E670E00E944C
:101EB000020A87E00E94290A0E94AB0D8B879B854E
:101EC0008A85981719F48C858F5F8C878B858A8714
:101ED0008D858F5F8D878D858A3030F30E94AB0DA5
:101EE00089878985882309F445CF8C858A3009F054
:101EF00041CF85E890E260E070E044E150E00E946C
:101F00006D2380919220909193200E94BC17809124
:101F10009420909195200E94F51787E064E670E088
:101F20000E94020A87E00E94290A898580939E20E8
:101F300081E0809399200E94560E1CCF0E94AB0D29
:101F4000982F809187209817B1F48091872088235B
:101F500091F087E064E670E00E94020A87E00E9448
:101F6000290A8091872080939E2081E08093992088
:101F70000E94560EFFCE83E080939920FBCE809185
:101F80000820282F30E02E873F874E855F8541153A
:101F9000510509F442C08E859F8599230CF4EACE41
:101FA0002E853F85233031050CF0E4CE209188202A
:101FB0003091892080919E20882F90E0A901489F30
:101FC0009001499F300D589F300D11248B819C81C9
:101FD00082179307A0F0EF81F88589819A812AE022
:101FE00030E0B9010E94C729CB01E817F90738F49E
:101FF0000E946328882319F082E0809399200E9430
:10200000AB0D982F80919E20981709F4B3CE1092B3
:102010009E2085E080939920ADCE10929920AACE83
:102020000E94AB0D982F80919E20981709F4A2CEA4
:1020300010929E2085E0809399209CCE87E068EEE8
:1020400073E00E94020A87E00E94290A10929920F8
:1020500091CE87E068EE73E00E94020A87E00E945A
:10206000290A8D819E8120919620309197202851B8
:102070003C4F2817390708F07DCE109299207ACE70
:1020800087E060E177E20E94020A87E00E94290A65
:10209000109299206FCE8AE00E945C156BCEDF9380
:1020A000CF93CDB7DEB72597CDBFDEBF8D83EAECEA
:1020B000F1E082E080838D81882F90E08A839B838A
:1020C000EA81FB818491898389818C83EAECF1E048
:1020D00010828C812596CDBFDEBFCF91DF91089510
:1020E000DF93CF9300D0CDB7DEB789839A83898100
:1020F0009A8122E08030920769F480E20E944F10BA
:10210000E981FA81848781E20E944F10E981FA8196
:1021100085870CC084E20E944F10E981FA81848790
:1021200085E20E944F10E981FA8185870F900F9018
:10213000CF91DF9108950F931F93DF93CF9300D03A
:10214000CDB7DEB780E092E00E9470108FE20E946F
:102150004F10882F90E0982F8827809357289093CE
:10216000582800915728109158288EE20E944F104D
:10217000882F90E0802B912B80935728909358289C
:10218000E0E0F2E01082E0E0F2E080E18183E0E074
:10219000F2E087E08483E0E0F2E083E18283E0E044
:1021A000F2E08DEB8383E0E0F2E082E080A3E0E008
:1021B000F2E088E481A3E0E0F2E012A2E0E0F2E0E5
:1021C00082E080A7E0E0F2E080E481A7E0E0F2E0D6
:1021D00012A6E0E0F2E082E080ABE0E0F2E080E333
:1021E00081ABE0E0F2E012AAE0E0F2E082E080AF52
:1021F000E0E0F2E011AEE0E0F2E012AEA0E0B2E02A
:10220000E0E0F2E0808181608C93A0E0B2E0E0E069
:10221000F2E080A1806890968C939097E0E0F2E0E5
:1022200083A1882F90E0817090700097B9F3E0E06F
:10223000F2E08FE08683E0E0F1E080E1808FE0E093
:10224000F1E082E0818FE0E0F1E0128EE0E0F1E089
:1022500086EF90E2848FE0E0F1E086EF90E2892F54
:102260009927858FE0E0F1E086EF90E2AA2797FDBD
:10227000A095BA2F80709070B070CD01BB2797FDEC
:10228000B095AB2F868FE0E0F1E085E0808BE0E059
:10229000F1E083E0818BE0E0F1E08DE5828BE0E02E
:1022A000F1E082E1838BE0E0F1E086E090E0848B76
:1022B000958BE0E0F1E081E0868BA0E0B1E0E0E02A
:1022C000F1E08089806850968C93A0E0B1E0E0E076
:1022D000F1E0808180688C93E0E6F6E084E0818321
:1022E0000E94BA11E0E8F1E080E8808B81E061E0D3
:1022F00070E00E94020A81E00E94290A80E00E94A8
:10230000581281E065E070E00E94020A81E00E94BC
:10231000290AE0E0F2E084AD95AD89839A83898152
:102320009A818A3091056CF489819A812FEF873FD9
:1023300092073CF089819A818093F3209093F42056
:1023400003C081E00E945C150F900F90CF91DF9148
:102350001F910F910895DF93CF93CDB7DEB7E0E0E3
:10236000F2E088E381ABE0E6F6E084E08683CF919B
:10237000DF910895DF93CF93CDB7DEB7E0E0F2E0D1
:1023800080E381ABE0E6F6E084E08583CF91DF91E6
:1023900008951F920F920FB60F92009038000F927F
:1023A000009039000F9211241092380010923900D9
:1023B0002F933F934F935F936F937F938F939F934D
:1023C000AF93BF93EF93FF93DF93CF93CDB7DEB778
:1023D00081E08093F5208091F8209091F9200E946F
:1023E000E112AC0180919E20282F30E084E991E138
:1023F000BC01269FC001279F900D369F900D112490
:10240000841795075CF48091F8209091F92077E289
:10241000813197071CF082E00E945C15A0E0B1E0DA
:10242000E0E0F1E08189806151968C93A0E0B1E019
:10243000E0E0F1E08089806850968C93E0E8F1E07C
:1024400080E8808BCF91DF91FF91EF91BF91AF91A9
:102450009F918F917F916F915F914F913F912F91BC
:102460000F90009239000F90009238000F900FBE2D
:102470000F901F901895DF93CF9300D00F92CDB798
:10248000DEB78B83F8948B81882F90E0880F991F9B
:10249000FC01EA50FF4D8081918189839A83789471
:1024A00089819A812396CDBFDEBFCF91DF910895B8
:1024B000DF93CF930F92CDB7DEB78983E0E0F2E0F0
:1024C00082E080AFE0E0F2E08981882F90E0880F21
:1024D000991F880F991F880F991F887781AFA0E0F7
:1024E000B2E0E0E0F2E080AD8068D8968C93D897B7
:1024F0000F90CF91DF910895DF93CF930F92CDB7D7
:10250000DEB78983E0E0F2E010AEE0E0F2E089813E
:10251000882F90E0880F991F880F991F880F991FA7
:10252000887781AFA0E0B2E0E0E0F2E080AD8068C3
:10253000D8968C93D8970F90CF91DF910895EF9212
:10254000FF920F931F93DF93CF9300D0CDB7DEB7E9
:1025500089839A8389819A819C01442737FD40951C
:10256000542F8091F3209091F420AA2797FDA095F5
:10257000BA2F79018A01E81AF90A0A0B1B0B80911C
:10258000592890915A289C01442737FD4095542F93
:10259000C801B7010E94A829DC01CB012DEB33E073
:1025A00040E050E0BC01CD010E94102ADA01C901CF
:1025B0000F900F90CF91DF911F910F91FF90EF90AF
:1025C0000895EF92FF920F931F93DF93CF9300D064
:1025D000CDB7DEB789839A8389819A819C0144278C
:1025E00037FD4095542F8091F3209091F420AA2735
:1025F00097FDA095BA2F79018A01E81AF90A0A0B0A
:102600001B0B8091592890915A289C01442737FD33
:102610004095542FC801B7010E94A829DC01CB01C5
:1026200020E038E040E050E0BC01CD010E94102ADB
:10263000DA01C9012DE030E040E050E0BC01CD01FD
:102640000E94A829DC01CB010F900F90CF91DF9160
:102650001F910F91FF90EF900895EF92FF920F93CB
:102660001F93DF93CF9300D0CDB7DEB789839A83D2
:1026700089819A819C01442737FD4095542F809190
:10268000F3209091F420AA2797FDA095BA2F790105
:102690008A01E81AF90A0A0B1B0B809159289091BC
:1026A0005A289C01442737FD4095542FC801B70193
:1026B0000E94A829DC01CB0120E038E040E050E096
:1026C000BC01CD010E94102ADA01C90124E630E0E4
:1026D00040E050E0BC01CD010E94A829DC01CB0103
:1026E0002FE330E040E050E0BC01CD010E94102A11
:1026F000DA01C9010F900F90CF91DF911F910F91D7
:10270000FF90EF900895DF93CF93CDB7DEB72E976C
:10271000CDBFDEBF89879A876B877C8729853A85FD
:102720008B859C85821793070CF04BC029853A85D1
:102730008B859C85A901481B590BCA01AA2797FDC7
:10274000A095BA2F8D839E83AF83B8878091592837
:1027500090915A28AA2797FDA095BA2F2D813E81E6
:102760004F815885BC01CD010E94A829DC01CB0115
:1027700020E038E040E050E0BC01CD010E94102A8A
:10278000DA01C90189839A83AB83BC8389819A81E9
:10279000AB81BC8120E137E240E050E0BC01CD01DB
:1027A0000E94A829DC01CB0125EA33E040E050E09B
:1027B000BC01CD010E94102ADA01C9018D879E87D4
:1027C00002C01D861E868D859E852E96CDBFDEBFDE
:1027D000CF91DF9108950F931F93DF93CF930F92C3
:1027E000CDB7DEB70E948D1487E49BE028E232E289
:1027F00060E0A9012CE231E00E94F30787E794E250
:1028000024E235E261E0A9012CE231E00E94F30705
:1028100081E79FE128EF33E262E0A9012CE231E099
:102820000E94F30788E59DE02CEF30E263E0A90108
:102830002CE231E00E94F3078BE097E122E633E2DD
:1028400064E0A90126E930E00E94F3078BEA9EE0EC
:1028500020E536E265E0A9012CE231E00E94F307B1
:1028600081E080936520109266201092672081E0BD
:10287000809368201092692010926A2082E08093F1
:102880005F201092602010926120109262201092BE
:1028900063201092642083E080936B2010926C2060
:1028A00010926D2084E080936E2010926F20109221
:1028B000702084E080937120109272201092732017
:1028C00085E08093742010927520109276200E94EB
:1028D000A8080000198212C08981082F10E08981A0
:1028E0000E947F0A9C01C801880F991FFC01EC5AC5
:1028F000FC4D2083318389818F5F89838981873073
:1029000058F3E7CFDF93CF93CDB7DEB7E0E4F8E03D
:1029100010A211A2CF91DF910895DF93CF93CDB78D
:10292000DEB7E4E3F0E088ED8083E0E5F0E081E00D
:102930008383E0E5F0E08BEC8283A0E5B0E0E0E5A6
:10294000F0E0808188608C93E0E5F0E088EC85839E
:1029500001C00000E0E5F0E08181882F90E0887000
:1029600090700097B1F3A0E5B0E0E0E5F0E0808181
:1029700080618C93E4E3F0E088ED8083E0E4F0E0B4
:1029800083E0818301C00000E0E5F0E08181882FD1
:1029900090E0807190700097B1F3E4E3F0E088ED8F
:1029A0008083E0E4F0E084E08083E0E4F8E081E02C
:1029B0008083E0E4F8E080E18183E0E4F8E01282E3
:1029C000E0E4F8E01382E0E4F8E01482E0E4F8E008
:1029D0001682E0E4F8E083E08783E0E4F8E080E05A
:1029E0009DE780A791A7E0EAF0E087E082830E945C
:1029F0004B1EE0E7F0E08CE18083E0E7F0E085E06B
:102A00008183E0E7F0E085E08283E0E7F0E088E7BB
:102A10008383E0E7F0E08AE78483E0E7F0E088E69C
:102A20008583CF91DF9108951F920F920FB60F9279
:102A3000009038000F92009039000F9211241092EC
:102A40003800109239002F933F934F935F936F9309
:102A50007F938F939F93AF93BF93EF93FF93DF93F6
:102A6000CF93CDB7DEB783E00E945C15CF91DF91A5
:102A7000FF91EF91BF91AF919F918F917F916F9156
:102A80005F914F913F912F910F90009239000F90DD
:102A9000009238000F900FBE0F901F901895DF9393
:102AA000CF930F92CDB7DEB78983898180931D20A4
:102AB0000F90CF91DF910895DF93CF93CDB7DEB71D
:102AC000AD97CDBFDEBF8DA7F894E0E0F8E01082AF
:102AD000E0E0F8E01182E0E4F6E08FEF8683E0E0EA
:102AE000F9E01082E0E0F9E01182E0E6F6E083E050
:102AF0008683E0E6F6E088E08183E0E6F6E088E0C1
:102B00008583989579C1E0E6F6E088E0858380E0EA
:102B100090E0A8E4B4E48FA398A7A9A7BAA76FA1EF
:102B200078A589A59AA520E030E04AEF55E40E94F7
:102B3000B502DC01CB018BA39CA3ADA3BEA36BA10B
:102B40007CA18DA19EA120E030E040E85FE30E94DF
:102B50000F0488232CF481E090E089A39AA33FC05E
:102B60006BA17CA18DA19EA120E03FEF4FE757E430
:102B70000E94AF0318164CF56FA178A589A59AA5F8
:102B800020E030E040E251E40E94B502DC01CB01DC
:102B9000BC01CD010E94DF00DC01CB0189A39AA317
:102BA0000FC080E293E08F8F98A38F8D98A101973B
:102BB000F1F78F8F98A389A19AA1019789A39AA36E
:102BC00089A19AA1009769F714C06BA17CA18DA17E
:102BD0009EA10E94DF00DC01CB0189A39AA389A1F9
:102BE0009AA18D8F9E8F8D8D9E8D0197F1F78D8F80
:102BF0009E8F1BA61CA6F1C0E0E6F6E088E0868367
:102C000080E090E0A0E7B2E4898F9A8FAB8FBC8F11
:102C1000698D7A8D8B8D9C8D20E030E04AEF55E4F4
:102C20000E94B502DC01CB018D8B9E8BAF8BB88FE0
:102C30006D897E898F89988D20E030E040E85FE3E0
:102C40000E940F0488232CF481E090E08B8B9C8BF6
:102C50003FC06D897E898F89988D20E03FEF4FE7D7
:102C600057E40E94AF0318164CF5698D7A8D8B8D51
:102C70009C8D20E030E040E251E40E94B502DC018E
:102C8000CB01BC01CD010E94DF00DC01CB018B8BAD
:102C90009C8B0FC080E293E0898B9A8B89899A89FB
:102CA0000197F1F7898B9A8B8B899C8901978B8B84
:102CB0009C8B8B899C89009769F714C06D897E89EC
:102CC0008F89988D0E94DF00DC01CB018B8B9C8B60
:102CD0008B899C898F87988B8F8598890197F1F7CD
:102CE0008F87988BE0E6F6E088E0858380E090E8C7
:102CF000A6EAB3E48B879C87AD87BE876B857C850E
:102D00008D859E8520E030E04AEF55E40E94B502B3
:102D1000DC01CB018F839887A987BA876F8178857B
:102D200089859A8520E030E040E85FE30E940F0447
:102D300088232CF481E090E08D839E833FC06F81D7
:102D4000788589859A8520E03FEF4FE757E40E9418
:102D5000AF0318164CF56B857C858D859E8520E02C
:102D600030E040E251E40E94B502DC01CB01BC013D
:102D7000CD010E94DF00DC01CB018D839E830FC05B
:102D800080E293E08B839C838B819C810197F1F798
:102D90008B839C838D819E8101978D839E838D8102
:102DA0009E81009769F714C06F81788589859A851F
:102DB0000E94DF00DC01CB018D839E838D819E818B
:102DC00089839A8389819A810197F1F789839A830C
:102DD0008BA59CA501968BA79CA78DA5282F30E0DD
:102DE0008BA59CA5821793070CF406CF0000809159
:102DF0001E208F5F80931E2080911E20863008F455
:102E000082CEE4E3F0E088ED8083E8E7F0E081E063
:102E100081830000FECFDF93CF9300D0CDB7DEB724
:102E200085E064E170E00E94020A85E00E94290AC0
:102E300085E064E170E00E94020A80919920282FC9
:102E400030E029833A8389819A818230910509F49F
:102E500070C029813A81233031055CF489819A81DF
:102E6000009799F029813A812130310509F43FC05A
:102E70007EC089819A818330910509F45FC02981E0
:102E80003A8125303105D1F072C0E0E6F6E088E005
:102E9000858386E062E370E00E94020A86E00E9479
:102EA000290AE0E6F6E088E0868386E06AE877E0D3
:102EB0000E94020A86E00E94290AB7CFE0E6F6E007
:102EC00088E0858386E068EC70E00E94020A86E074
:102ED0000E94290AE0E6F6E088E0868386E068EC56
:102EE00070E00E94020A86E00E94290A9ECFE0E676
:102EF000F6E088E0858380911F208F5F80931F20FC
:102F000080911F2082958F70282F30E086E0B901D4
:102F10000E94020A86E00E94290A80911F20813ABD
:102F200018F081E080931F20E0E6F6E088E08683D9
:102F30007CCFE0E6F6E088E0858377CFE0E6F6E058
:102F400088E0858386E06AEF70E00E94020A86E0EE
:102F50000E94290AE0E6F6E088E0868386E06AEFD0
:102F600070E00E94020A86E00E94290A5ECFE0E635
:102F7000F6E088E0868359CFDF93CF9300D0CDB7BA
:102F8000DEB789839A8380E092E329813A81B9018F
:102F90000E94DB29CB019C01220F331FC901880F3E
:102FA000991F880F991F820F931F80930920909378
:102FB0000A2080910B2090910C209C012F5F3F4FA5
:102FC0008091092090910A20AC01249FC001259F87
:102FD000900D349F900D112480937C2790937D2732
:102FE0000F900F90CF91DF910895DF93CF9300D092
:102FF000CDB7DEB789839A8389819A8180930B202C
:1030000090930C200F900F90CF91DF910895DF9354
:10301000CF93CDB7DEB780910B2090910C209C010F
:103020002F5F3F4F8091092090910A20AC01249F8F
:10303000C001259F900D349F900D112480937C2713
:1030400090937D27E0E0F8E081E08083E0E0F8E025
:1030500083E38183E0E0F8E01282E0E0F8E088E8D2
:103060008383E0E0F8E01482E0E0F8E0809109205A
:1030700090910A2086AB97ABE0E0F8E010AE11AE7D
:10308000E0E0F8E012AE13AEE0E9F8E081E0808322
:10309000E0E0F8E01682E0E0F9E081E08083E0E043
:1030A000F9E083E38183E0E0F9E01282E0E0F9E017
:1030B00088E88383E0E0F9E01482E0E0F9E08091C1
:1030C000092090910A2086AB97ABE0E0F9E080916F
:1030D000092090910A20C29780AF91AFE0E0F9E01B
:1030E00012AE13AEE0E9F9E081E08083E0E8F1E0C0
:1030F00081E0808B80E090E068EE73E00E948318AE
:10310000CF91DF910895AF92BF92CF92DF92EF926D
:10311000FF920F931F93DF93CF93CDB7DEB728971E
:10312000CDBFDEBF8D839E836F837887809109201A
:1031300090910A209C01225330408D819E81281756
:10314000390720F1E0E0F8E08D819E8180AF91AFFA
:10315000E0E0F8E08091092090910A2086AB97ABDF
:10316000E0E0F9E080917C2790917D27C29780AFC5
:1031700091AFE0E0F9E080917C2790917D2786ABCC
:1031800097AB8F8198850E94F41920C18091092006
:1031900090910A209C012E5C3F4F8D819E812817C3
:1031A000390708F462C02091092030910A208D81EE
:1031B0009E81821B930BC2969C0140E050E080915F
:1031C000092090910A205C01CC24DD2480917C2789
:1031D00090917D27CC01A0E0B0E000D000D0EDB709
:1031E000FEB7319680839183A283B383CA01B9016C
:1031F00020E030E040E050E00F2EF4E6EF2EF0E06B
:10320000FF2EF0E00F2FF0E01F2FF02D0E94661D23
:103210000F900F900F900F90DC01CB0189839A8360
:10322000AB83BC83E0E0F8E089819A81C29780AFEC
:1032300091AFE0E0F8E089819A8186AB97ABE0E05E
:10324000F9E080917C2790917D27C29780AF91AF64
:10325000E0E0F9E080917C2790917D2786AB97ABE9
:103260008F8198850E94F419B1C0809109209091B6
:103270000A209C012A563F4F8D819E8128173907CD
:1032800008F462C02091092030910A208D819E812E
:10329000821B930BC2979C0140E050E080917C27F9
:1032A00090917D275C01CC24DD24809109209091B0
:1032B0000A20CC01A0E0B0E000D000D0EDB7FEB70E
:1032C000319680839183A283B383CA01B90120E040
:1032D00030E040E050E00F2EF4E6EF2EF0E0FF2E5D
:1032E000F0E00F2FF0E01F2FF02D0E94661D0F90D1
:1032F0000F900F900F90DC01CB0189839A83AB83F1
:10330000BC83E0E0F8E080917C2790917D27C29714
:1033100080AF91AFE0E0F8E080917C2790917D272D
:1033200086AB97ABE0E0F9E089819A81C29780AFE4
:1033300091AFE0E0F9E089819A8186AB97AB8F810C
:1033400098850E94491A42C04091092050910A2054
:103350002091092030910A208D819E81B901681B3E
:10336000790BCB01840F951F8C599F4FCC01A0E0A6
:10337000B0E089839A83AB83BC83E0E0F8E080917E
:103380007C2790917D27C29780AF91AFE0E0F8E075
:1033900080917C2790917D2786AB97ABE0E0F9E0A8
:1033A00089819A8180AF91AFE0E0F9E080910920B6
:1033B00090910A2086AB97ABE0E0F8E08FEF9FEFAB
:1033C00082AF93AF8F8198850E94491A2896CDBF0E
:1033D000DEBFCF91DF911F910F91FF90EF90DF90B3
:1033E000CF90BF90AF900895EF92FF920F931F93ED
:1033F000DF93CF93CDB7DEB72697CDBFDEBF8D83EA
:103400009E83E0E0F8E08FEF9FEF82AF93AF8D8176
:103410009E81009781F1E0E0F9E086A997A9CC01AF
:10342000A0E0B0E0EE24FF2487016894E2F8E80E03
:10343000F91E0A1F1B1F8D819E819C0140E050E0F8
:10344000C801B7010E94A829DC01CB0128EE33E0B6
:1034500040E050E0BC01CD010E94EE29DA01C90133
:1034600089839A83AB83BC83E0E0F9E089819A8108
:1034700082AF93AF04C0E0E0F9E012AE13AE26963F
:10348000CDBFDEBFCF91DF911F910F91FF90EF90E5
:103490000895EF92FF920F931F93DF93CF93CDB7D1
:1034A000DEB72697CDBFDEBF8D839E83E0E0F8E0D8
:1034B0008FEF9FEF82AF93AF8D819E81009739F19F
:1034C000E0E0F9E080AD91AD7C0100E010E08D819D
:1034D0009E819C0140E050E0C801B7010E94A829EC
:1034E000DC01CB0128EE33E040E050E0BC01CD012F
:1034F0000E94EE29DA01C90189839A83AB83BC83D8
:10350000E0E0F9E089819A8182AF93AF04C0E0E006
:10351000F9E012AE13AE2696CDBFDEBFCF91DF919C
:103520001F910F91FF90EF900895DF93CF93CDB748
:10353000DEB72897CDBFDEBF89839A836B837C83F8
:103540004D835E83E981FA818081918121E08D3212
:10355000920794F0EB81FC8180819181009761F06A
:10356000E981FA818CE291E0808391838CE291E0A1
:103570008093202090932120E981FA81808191819C
:1035800031E08D3293074CF1EB81FC818081918198
:10359000009719F5E981FA812081318180912020FD
:1035A000909121208217930794F48091202090918C
:1035B000212001968093202090932120809120202B
:1035C00090912120E981FA818083918306C080E176
:1035D00097E28093202090932120E981FA81208135
:1035E00031818D819E81821B930B8F8398878F8180
:1035F000988599233CF42F813885309521953F4F4C
:103600002F833887E981FA818081918124E130E03C
:10361000B9010E94DB29CB012F8138852817390792
:1036200014F5E981FA818081918186399105DCF078
:10363000809122208F5F80932220809122208330EE
:10364000A9F510922220EB81FC8180819181009765
:1036500069F1EB81FC81808191810197EB81FC8193
:103660008083918323C0E981FA81808191818639A9
:103670009105E4F4809122208F5F80932220809135
:103680002220833099F410922220EB81FC818081EA
:10369000918133E0883E930748F4EB81FC8180817F
:1036A00091810196EB81FC81808391832896CDBF27
:1036B000DEBFCF91DF910895AF92BF92CF92DF929C
:1036C000EF92FF920F931F93DF93CF93CDB7DEB7A7
:1036D0002E97CDBFDEBF8B879C876D877E871D822F
:1036E0001E82CE010B962FE030E24D855E85B9013A
:1036F0000E94951A2B853C858D859E85A901481BC6
:10370000590BCA01AA2797FDA095BA2F89839A83DE
:10371000AB83BC831F82188619861A868B859C858D
:10372000181619064CF1E0E0F8E012AE13AEA0E076
:10373000B9E0E0E0F9E086A997A90496DA968D93BE
:103740009C93DB9788EE93E080930F20909310205A
:1037500020910F203091102080E090E0B9010E946C
:10376000831810922720109228201092292010925E
:103770002A201D821E823CC000912320109124200B
:10378000E0900D20F0900E20C0902520D0902620B3
:103790002091092030910A20C90182959295907F4D
:1037A0009827807F9827820F931F2AE030E0B90185
:1037B0000E94C729CB01FC0189819A81AB81BC8120
:1037C00027E230E2BC01CD01A90198018701760111
:1037D000CC24DD245F010E941E1C8D839E832091DA
:1037E0000F20309110208D819E81B9010E94831895
:1037F00080E00E9402098D819E818093B120909388
:10380000B2208B859C858093AD209093AE208F81D4
:1038100098858093AB209093AC2080E00E943F0974
:103820002E96CDBFDEBFCF91DF911F910F91FF90FC
:10383000EF90DF90CF90BF90AF900895AF92BF927E
:10384000CF92DF92EF92FF920F931F93DF93CF936C
:10385000CDB7DEB7AE97CDBFDEBF6D877E878F87D2
:10386000988B498B5A8B2B8B3C8B0D8B1E8BEF8A45
:10387000F88EC98EDA8EAB8EBC8E8B899C89CC017A
:10388000A0E0B0E02D853E854F855889BC01CD0173
:103890000E94A829DC01CB0120E230E040E050E0AA
:1038A000BC01CD010E94102ADA01C9018D839E83DB
:1038B000AF83B887E989FA89E080F18002811381BA
:1038C0008D899E89CC01A0E0B0E02D853E854F8595
:1038D0005889BC01CD010E94A829DC01CB0120E858
:1038E00030E040E050E0BC01CD010E94102ADA0136
:1038F000C9018E0D9F1DA01FB11FE989FA89808320
:103900009183A283B383E989FA89E080F1800281FF
:103910001381898D9A8DAA2797FDA095BA2F2FEF35
:1039200030E040E050E0BC01CD010E94A829DC015C
:10393000CB01E816F9060A071B079CF4898D9A8DBE
:10394000AA2797FDA095BA2F2FEF30E040E050E076
:10395000BC01CD010E94A8296FA378A789A79AA7C7
:1039600031C0E989FA89E080F180028113818B8D71
:103970009C8DAA2797FDA095BA2F2FEF30E040E04D
:1039800050E0BC01CD010E94A8296BA37CA38DA3AC
:103990009EA3EFA2F8A609A71AA72FA138A549A5AB
:1039A0005AA58BA19CA1ADA1BEA182179307A40724
:1039B000B50744F42BA13CA14DA15EA12FA338A7CC
:1039C00049A75AA7E989FA898FA198A5A9A5BAA5F7
:1039D00080839183A283B38319821A821B821C8203
:1039E000E989FA8980819181A281B3812FEF30E04A
:1039F00040E050E0BC01CD010E94102ADA01C9016B
:103A00009C01AD018D819E81AF81B885280F391F42
:103A10004A1F5B1F89819A81AB81BC81820F931FF2
:103A2000A41FB51F89879A87AB87BC87898D9A8D1C
:103A30009C01442737FD4095542F89859A85AB8595
:103A4000BC8582179307A407B50764F18B8D9C8D05
:103A5000AA2797FDA095BA2F29853A854B855C85C5
:103A60002BA73CA74DA75EA78D8F9E8FAF8FB8A3C6
:103A70008D8D9E8DAF8DB8A12BA53CA54DA55EA5C6
:103A8000281739074A075B0744F48BA59CA5ADA509
:103A9000BEA58D8F9E8FAF8FB8A3AD8DBE8DA9A310
:103AA000BAA304C0298D3A8D29A33AA389A19AA16A
:103AB000AE96CDBFDEBFCF91DF911F910F91FF90EA
:103AC000EF90DF90CF90BF90AF900895AF92BF92EC
:103AD000CF92DF92EF92FF920F931F93DF93CF93DA
:103AE000CDB7DEB7A897CDBFDEBF6D877E878F8746
:103AF000988B298B3A8B4B8B5C8BED8AFE8A0F8BD4
:103B0000188FA98EBA8ECB8EDC8E2D893E894F8977
:103B1000588D89899A89AB89BC8979018A01E81A0B
:103B2000F90A0A0B1B0BD801C7018D839E83AF8353
:103B3000B8872DA93EA94FA958AD898D9A8DAB8D17
:103B4000BC8D79018A01E81AF90A0A0B1B0BD8010E
:103B5000C70189839A83AB83BC838D819E81AF81AA
:103B6000B8850097A105B10529F419A21AA21BA2D4
:103B70001CA27DC02D853E854F85588989899A89EB
:103B8000AB89BC89281739074A075B0734F10D89CF
:103B90001E892F89388D0DA31EA32FA338A72D852D
:103BA0003E854F8558892D8F3E8F4F8F58A38D8D21
:103BB0009E8DAF8DB8A1EDA0FEA00FA118A5E816AF
:103BC000F9060A071B078CF40DA11EA12FA138A529
:103BD0000D8F1E8F2F8F38A308C029893A894B89F2
:103BE0005C892D8F3E8F4F8F58A38D8D9E8DAF8D0D
:103BF000B8A18D879E87AF87B88B2D853E854F8571
:103C0000588989899A89AB89BC8979018A01E81A1E
:103C1000F90A0A0B1B0BD801C70129813A814B8194
:103C20005C81BC01CD010E94A829DC01CB012D8162
:103C30003E814F815885BC01CD010E94102ADA01D6
:103C4000C90189879A87AB87BC8729853A854B85C7
:103C50005C85898D9A8DAB8DBC8D79018A01E80ECA
:103C6000F91E0A1F1B1FE9A2FAA20BA31CA389A11C
:103C70009AA1ABA1BCA1BC01CD01A896CDBFDEBF6E
:103C8000CF91DF911F910F91FF90EF90DF90CF9038
:103C9000BF90AF900895DF93CF93CDB7DEB7E5E83F
:103CA000F6E088E08083E1E8F6E088E08083E6EAF9
:103CB000FAE085EF8083E7EAFAE08CEC8083E3EAC0
:103CC000FAE080E18083E5EAFAE083E08083E4EAD9
:103CD000FAE088E18083A2EAB0E0E2EAF0E08081E5
:103CE00081608C93ECE2F1E080EA8083EDE2F1E028
:103CF0008AE08083EEE2F1E01082E0E2F1E084E02D
:103D00008083E1E2F1E01082E2E2F1E080ED808385
:103D1000E3E2F1E08CE88083E1E8F6E088E080838C
:103D2000A0E0B1E0E0E0F1E0808180688C93CF9189
:103D3000DF910895DF93CF93CDB7DEB72697CDBF40
:103D4000DEBF89839A836B837C834D83E981FA810B
:103D5000818188234CF0E981FA818181882F90E06C
:103D600080749070009719F081E08E832CC08B8155
:103D70009C81E981FA8180878B819C81892F992799
:103D8000E981FA8181878B819C81AA2797FDA09583
:103D9000BA2F80709070B070CD01BB2797FDB095A1
:103DA000AB2FE981FA8182878D81882F90E0E981AC
:103DB000FA8184839583E981FA8180818068E98131
:103DC000FA8180831E828E812696CDBFDEBFCF9181
:103DD000DF9108951F920F920FB60F920090380056
:103DE0000F92009039000F92112410923800109217
:103DF00039002F933F934F935F936F937F938F93EC
:103E00009F93AF93BF93EF93FF93DF93CF9300D034
:103E1000CDB7DEB78DED97E289839A83E0EAFAE0C9
:103E20008181882F90E080719070009749F4E0EADA
:103E3000FAE08181882F90E088709070009741F0BF
:103E40008DE280932C2010927E2784E08093E027DF
:103E500080917E278E3510F580917E27282F30E0C7
:103E600089819A81DC01A20FB31FE0EAFAE0808128
:103E70008C9380917E278F5F80937E2780E065E022
:103E800070E00E94020A9091E02780917E279817A7
:103E900069F482E061E00E945C0908C081E08093DF
:103EA0002C2010927E2784E08093E0270F900F90C3
:103EB000CF91DF91FF91EF91BF91AF919F918F9142
:103EC0007F916F915F914F913F912F910F90009251
:103ED00039000F90009238000F900FBE0F901F9086
:103EE0001895DF93CF930F92CDB7DEB78FEF809306
:103EF000E02780E068EE73E00E94020A80E00E9402
:103F0000290A81E060E04AE050E00E94CC0A8983FF
:103F10008981813021F48DED97E20E94951F1092E6
:103F20007E2784E08093E027ECCFDF93CF93CDB75B
:103F3000DEB72797CDBFDEBF8A839B83198287E3D5
:103F400080937F27EA81FB81818180938027EA81AA
:103F5000FB818081873309F0C5C08DED97E20E9417
:103F6000C020982F8091DF27981709F0BBC080915F
:103F70002B20882309F4B6C0EA81FB818181282F98
:103F800030E02E833F838E819F818C32910579F1C1
:103F90002E813F812D3231055CF48E819F818631E7
:103FA0009105B9F12E813F812132310571F08DC02B
:103FB0008E819F818234910509F444C02E813F8116
:103FC0002D34310509F458C080C081E00E940209F7
:103FD00083E897E225E830E2B90144E150E00E942D
:103FE000622A81E00E943F0984E189836FC080E0FA
:103FF0000E94020983E897E229E930E2B9014AE523
:1040000050E00E94622A80E00E943F098AE589838D
:104010005DC080919920882379F481E00E94020993
:1040200085E890E221EE37E2B90144E150E00E94D8
:10403000622A81E00E943F0981E08093832781E02A
:10404000898344C085E890E260E070E044E150E09C
:104050000E946D2380919220909193200E94BC1722
:1040600080919420909195200E94F51781E0809393
:10407000832781E089832AC08091E127282F30E0BF
:104080002C833D838C819D818230910571F02C8140
:104090003D812330310569F08C819D81813091050E
:1040A00061F481E0809308200AC081E080932F2092
:1040B00006C082E080932F2002C01092082081E089
:1040C0008093832781E0898301C0198289818823B5
:1040D00039F189818C5F809382278FE797E20E9474
:1040E00097201EC0EA81FB818081873369F083E0DD
:1040F00080932C2080912D2090912E2001968093EA
:104100002D2090932E200CC084E080932C20809151
:104110002D2090912E20019680932D2090932E207B
:1041200080E02796CDBFDEBFCF91DF910895DF936A
:10413000CF9300D0CDB7DEB789839A8310927E27C4
:1041400084E08093E027E981FA81128289819A8153
:10415000E981FA812381622F0E944523E981FA8156
:10416000828329813A81E981FA81438180E291E069
:10417000B9010E949A1E0F900F90CF91DF91089580
:10418000DF93CF9300D000D0CDB7DEB78B839C8375
:10419000EB81FC8182818A83EB81FC8112828B819D
:1041A0009C81EB81FC812381622F0E9445238983BE
:1041B000EB81FC818A81828389812496CDBFDEBF19
:1041C000CF91DF910895DF93CF9300D0CDB7DEB7C5
:1041D0008BE398E267E170E04CE150E00E94A2239B
:1041E000882361F119821A8224C089819A810696F6
:1041F000880F991FFC01E55CF74D108211828981BF
:104200009A81880F991FFC01E55CF74D80E197E2E8
:1042100080839183109255281092562880E197E26E
:10422000809353289093542889819A810196898399
:104230009A8389819A8186309105BCF20F900F9004
:10424000CF91DF910895DF93CF9300D000D0CDB709
:10425000DEB78B839C8319821A8220C049815A81E0
:1042600089819A819C01220F331F8B819C81FC01E3
:10427000E20FF31F8081918122273327281B390BFE
:10428000CA010696880F991FFC01E55CF74D208353
:10429000318389819A81019689839A8389819A8160
:1042A00086309105DCF22496CDBFDEBFCF91DF9141
:1042B0000895DF93CF93CDB7DEB76297CDBFDEBF52
:1042C0008D879E876F87788B498B5A8B8F859889CE
:1042D000AA2797FDA095BA2F20E137E240E050E0F1
:1042E000BC01CD010E94A829DC01CB018D839E83F6
:1042F000AF83B8878D859E859C01442737FD409507
:10430000542F89899A89AA2797FDA095BA2F820FE1
:10431000931FA41FB51F89839A83AB83BC838D81B0
:104320009E81AF81B88529813A814B815C81BC0136
:10433000CD010E94102ADA01C90189879A87AB87CB
:10434000BC8789859A856296CDBFDEBFCF91DF910C
:1043500008950F931F93DF93CF9300D000D0CDB774
:10436000DEB78B839C8319821A822CC009811A8143
:1043700089819A819C01220F331F8B819C81FC01D2
:10438000E20FF31F4081518189819A810696880F3F
:10439000991FFC01E55CF74D20813181CA0168E677
:1043A00070E1A9010E9459219C01C801880F991F41
:1043B000FC01E55CF74D2083318389819A81019668
:1043C00089839A8389819A81863091057CF28BE377
:1043D00098E267E170E04CE150E00E946D23249682
:1043E000CDBFDEBFCF91DF911F910F910895DF9375
:1043F000CF93CDB7DEB76297CDBFDEBF8D879E87E7
:104400006F87788B498B5A8B8D859E859C014427BD
:1044100037FD4095542F89899A89AA2797FDA09541
:10442000BA2F820F931FA41FB51F89879A87AB8766
:10443000BC878F859889AA2797FDA095BA2F2985D3
:104440003A854B855C85BC01CD010E94A829DC0121
:10445000CB018D839E83AF83B8878D819E81AF8191
:10446000B88520E137E240E050E0BC01CD010E9478
:10447000EE29DA01C90189839A83AB83BC838981E0
:104480009A816296CDBFDEBFCF91DF910895DF9311
:10449000CF93CDB7DEB72897CDBFDEBF8D839E8388
:1044A0006F83788719821A8249C089819A819C0119
:1044B000220F331F8D819E81FC01E20FF31F40818B
:1044C000518189819A81880F991FFC01E55CF74D24
:1044D0006081718189819A810696880F991FFC01FC
:1044E000E55CF74D20813181CA01A9010E94F721C5
:1044F0008B839C838B819C8199236CF489819A8125
:104500009C01220F331F8F819885FC01E20FF31F5E
:10451000108211820EC089819A819C01220F331F63
:104520008F819885FC01E20FF31F8B819C81808332
:10453000918389819A81019689839A8389819A815D
:10454000863091050CF4B1CF2896CDBFDEBFCF9158
:10455000DF910895DF93CF93CDB7DEB72D97CDBF11
:10456000DEBF8B879C876D8781E090EA89879A8779
:104570008FEF9FEF8F8398871D821E821B821C8284
:1045800043C02B813C818B859C85FC01E20FF31F8E
:104590008081882F90E08D839E8319821A822AC0A1
:1045A0002F8138858D819E8182279327817090701D
:1045B000882379F08F819885969587958F83988742
:1045C0002F81388589859A85822793278F839887BD
:1045D00006C08F819885969587958F8398878D8162
:1045E0009E81969587958D839E8389819A81019678
:1045F00089839A8389819A81883091058CF28B8195
:104600009C8101968B839C838D85282F30E08B8144
:104610009C81821793070CF4B4CF8F8198852D96D7
:10462000CDBFDEBFCF91DF910895DF93CF9300D050
:1046300000D0CDB7DEB78B836C831A821CC09C81FF
:104640008B818927817089838981882321F48C81DA
:1046500086958C830AC09C8188E189278C838C8114
:1046600086958C838C8180688C838B8186958B83E7
:104670008A818F5F8A838A81883008F38C812496AF
:10468000CDBFDEBFCF91DF910895DF93CF93CDB73C
:10469000DEB72597CDBFDEBF8B839C836D831982E8
:1046A0001A8210C08A81282F30E08B819C81FC0106
:1046B000E20FF31F808169810E94152389838A811B
:1046C0008F5F8A839A818D81981760F389812596FF
:1046D000CDBFDEBFCF91DF910895DF93CF93CDB7EC
:1046E000DEB72897CDBFDEBF8B839C836D837E832F
:1046F0004F83588719821A82F8948B819C812D816F
:104700003E814F815885B9010E94772A2F818B8184
:104710009C81622F0E94AA2289839A832D813E81E7
:104720008F819885280F391FCE010196B90142E08B
:1047300050E00E94772A78942896CDBFDEBFCF91B3
:10474000DF910895DF93CF93CDB7DEB72B97CDBF21
:10475000DEBF8D839E836F83788749875A871B824C
:104760001C8219821A82F8948D819E812F8138854E
:1047700049855A85B9010E946B2A2F813885898520
:104780009A85280F391FCE010396B90142E050E007
:104790000E946B2A29858D819E81622F0E94AA2208
:1047A00089839A8378942B813C8189819A818217AD
:1047B000930719F081E08B8701C01B868B852B96B0
:1047C000CDBFDEBFCF91DF910895EF92FF920F939F
:1047D0001F93DF93CF93CDB7DEB72C97CDBFDEBF4E
:1047E0008F83988769877A87EF81F88580819181A7
:1047F0009C01442737FD4095542FDA01C901880FE9
:10480000991FAA1FBB1F880F991FAA1FBB1F880FC4
:10481000991FAA1FBB1F7C018D01E21AF30A040B2A
:10482000150BA8019701E985FA8580819181AA2756
:1048300097FDA095BA2F820F931FA41FB51F8B83DE
:104840009C83AD83BE838B819C81AD81BE810596A7
:10485000A11DB11D28E030E040E050E0BC01CD01D9
:104860000E94102ADA01C90189839A83E985FA85B1
:1048700020813181EF81F885808191818901081B38
:10488000190BC8018B879C872B853C8533233CF40F
:104890004B855C85509541955F4F4B875C87EF81D9
:1048A000F885808191812AE030E0B9010E94DB29FE
:1048B000CB01EB84FC848E159F054CF4E985FA85C9
:1048C00080819181EF81F8858083918306C0EF819B
:1048D000F88589819A81808391832C96CDBFDEBF34
:1048E000CF91DF911F910F91FF90EF900895AF92BC
:1048F000BF92CF92DF92EF92FF920F931F93DF93BD
:10490000CF93CDB7DEB7C154D040CDBFDEBF198E37
:10491000E0E4F6E08CEF818382E064E670E00E94E0
:10492000020A82E00E94290A80E00E94581282E076
:104930000E94290A82E064E670E00E94020A8091E7
:104940003420882309F050C01F8A4AC081E0888F34
:1049500026C0888D0E94581283E062E070E00E94B9
:10496000020A83E00E94290AE0E0F2E084AD95ADFE
:104970000E949F128E8F9F8F888D882F90E09C01C0
:10498000220F331FCE018096820F931F9E01225E5D
:104990003F4FB9010E94E523888D8F5F888F888DF6
:1049A0008630B8F28AE00E94581283E062E070E03C
:1049B0000E94020A83E00E94290AE0E0F2E084AD4E
:1049C00095AD0E949F128E8F9F8FCE0180969E0183
:1049D000225E3F4FB9010E94E5238F898F5F8F8B45
:1049E0008F89883008F4B2CF8BE00E94581283E0A0
:1049F00062E070E00E94020A83E00E94290AE0E07F
:104A0000F2E084AD95ADCC01A0E0B0E08A8F9B8F41
:104A1000AC8FBD8FF8948A8D9B8D80935F28909387
:104A20006028789480E00E947C1283E062E070E06D
:104A30000E94020A83E00E94290AE0E0F2E084ADCD
:104A400095AD9C01220F331FC901880F991F880F54
:104A5000991F820F931F21E230E0B9010E94C729FC
:104A6000CB01CC01A0E0B0E08A8F9B8FAC8FBD8FD3
:104A70008A8D9B8DAC8DBD8D26E631E040E050E007
:104A8000BC01CD010E94A8297B018C01809157288F
:104A9000909158289C0140E050E0C801B7010E9465
:104AA000EE29DA01C9018A8F9B8FAC8FBD8FF894F4
:104AB0008A8D9B8D8093652890936628789481E0F9
:104AC0000E947C1283E062E070E00E94020A83E0B0
:104AD0000E94290AF894E0E0F2E084AD95AD80935D
:104AE0006328909364287894809163289091642837
:104AF0009C01442737FD4095542F80E098E8A2E2BE
:104B0000B0E0BC01CD010E94EE29DA01C9018A8F13
:104B10009B8FAC8FBD8F8A8D9B8D8E8F9F8FF894CE
:104B200089E598E29E01225E3F4FB9010E948E28DE
:104B3000789482E00E947C1283E062E070E00E9440
:104B4000020A83E00E94290AE0E0F2E084AD95AD1C
:104B5000CC01A0E0B0E02AE030E040E050E0BC0151
:104B6000CD010E94A829DC01CB018A8F9B8FAC8FDD
:104B7000BD8F8091592890915A28AA2797FDA0951A
:104B8000BA2F2A8D3B8D4C8D5D8DBC01CD010E94CD
:104B9000A829DC01CB01072E7BE0B695A795979558
:104BA00087957A95D1F7702D8A8F9B8FAC8FBD8FAB
:104BB000F8948A8D9B8D80936128909362287894D5
:104BC00080912F20E82EFF24E8AEF9AE08AD19AD94
:104BD0000130110531F028AD39AD2230310541F0F9
:104BE0000DC0CE0180960E94232110922F2006C076
:104BF000CE0180960E94A92110922F20CE0180968E
:104C00009E01245D3F4FB9010E9447228CEC90E148
:104C10008D8B9E8B1B8A1C8A198A1A8A188E64C0F7
:104C2000888D882F90E09C01220F331FCE010196C2
:104C3000820F931FFC01BB9680819181ED88FE88D5
:104C4000ECAEFDAE8AAF9BAF0AAD1BAD2CAD3DAD5A
:104C50002017310720F48CAD9DAD8AAF9BAFEAAC35
:104C6000FBACED8AFE8A888D882F90E09C01220F94
:104C7000331FCE010196820F931FFC01BB968081EA
:104C800091810B891C8922960EAF1FAF22978EAFA0
:104C90009FAF2EAD3FAD22968EAD9FAD22972817C8
:104CA000390730F42296EEACFFAC2297EEAEFFAEA1
:104CB0000EAD1FAD0B8B1C8B888D882F90E09C0157
:104CC000220F331FCE010196820F931FFC01BB966A
:104CD000808191819C0189899A89820F931F898B98
:104CE0009A8B888D8F5F888F90919E20888D8917F1
:104CF00008F496CF89899A8980935D2890935E28DD
:104D000081E00E94020980919020909191208F87EC
:104D1000988B80918520909186208D879E878091A9
:104D20008820909189208B879C8781E00E943F0991
:104D300080913420882309F039C1809199208130F5
:104D400009F063C08B859C859C0140E050E08B8915
:104D50009C89CC01A0E0B0E079018A01E81AF90A47
:104D60000A0B1B0BD801C7018D839E83AF83B887C5
:104D70008D819E81AF81B88520E330E2ED85FE858F
:104D8000BC01CD01A90121E030E000E41FE1EE24E7
:104D9000FF24CC24DD245F010E941E1C89879A8792
:104DA0008B859C859C012D5F3F4F8B899C892817A3
:104DB000390718F589859A8522E330E0B9010E9408
:104DC000DB29CB019C0189859A85821B930B8987FE
:104DD0009A8720E330E2E985FA8560E070E080E0C0
:104DE00090E0A90120E030E000E010E0EE24FF2494
:104DF000CC24DD245F010E941E1C89859A8518162B
:104E000019066CF019861A860AC019861A8610923D
:104E10003020109231201092322010923320F894DA
:104E200089859A8580935B2890935C2878942D8956
:104E30003E898F8598898217930708F0B7C08091C3
:104E40009920813009F0B2C0188EA0C0888D882FBB
:104E500090E09C01220F331FCE010196820F931F19
:104E6000FC01BB96808191819C018D899E8902966F
:104E70008217930708F067C0E0E4F6E0888D882F7A
:104E800090E09C012E5F3F4F81E090E002C0880FD0
:104E9000991F2A95E2F78583888D282F30E081E0DD
:104EA00090E002C0880F991F2A95E2F7982F898D0C
:104EB000892B898F888D882F90E09C01220F331FCA
:104EC000CE010196820F931FFC01BB9680819181D8
:104ED00026E130E0B9010E94DB29CB01AA2797FD2A
:104EE000A095BA2F89839A83AB83BC83888D082FC2
:104EF00010E089819A81AB81BC8124E630E040E0FA
:104F000050E0BC01CD010E94A829DC01CB0128EEB4
:104F100033E040E050E0BC01CD010E94102ADA01EC
:104F2000C9019C01AD01C801880F991F880F991F05
:104F3000FC01E959F74D20833183428353838AE092
:104F40008093112020C0E0E4F6E0888D882F90E067
:104F50009C012E5F3F4F81E090E002C0880F991FB7
:104F60002A95E2F78683888D282F30E081E090E053
:104F7000022E02C0880F991F0A94E2F7982F90958D
:104F8000898D8923898F888D8F5F888F888D863062
:104F900008F45CCF898D882349F4809111208823FF
:104FA00029F080911120815080931120809134202C
:104FB0008F5F8093342080913420833038F0E0E498
:104FC000F6E08CEF8683198E1092342080E00E94E8
:104FD0000209188E6CC0888D682F70E0888D882F2C
:104FE00090E09C01220F331FCE010196820F931F88
:104FF000FC01BB9640815181CB01880F991F9C0118
:10500000220F331F220F331F820F931FFC01ED5419
:10501000FF4D40835183888D082F10E0888D882FA5
:1050200090E0880F991F9C01220F331F220F331F1E
:10503000820F931FFC01EB54FF4D2081318142818F
:105040005381888D882F90E0880F991F880F991FB2
:10505000FC01E959F74D80819181A281B381BA01A8
:10506000A901480F591F6A1F7B1FC801880F991F8C
:105070009C01220F331F220F331F820F931FFC014D
:10508000EB54FF4D4083518362837383888D882F57
:1050900090E0880F991F880F991FFC01E959F74D7F
:1050A0001082118212821382888D8F5F888F888D83
:1050B000863008F490CF80E00E943F0985E061E0EF
:1050C0000E945C0934CCDF93CF930F92CDB7DEB74B
:1050D000809111201982882311F481E089838981CC
:1050E0000F90CF91DF910895DF93CF9300D0CDB78C
:1050F000DEB719821A82F89480919920813031F4B8
:1051000080915B2890915C2889839A837894898127
:105110009A810F900F90CF91DF910895DF93CF93F5
:10512000CDB7DEB72C97CDBFDEBF8F839887698759
:105130007A87EF81F885808191819C01442737FD32
:105140004095542FDA01C901880F991FAA1FBB1F70
:10515000880F991FAA1FBB1F880F991FAA1FBB1F6B
:10516000280F391F4A1F5B1FE985FA8580819181CD
:10517000AA2797FDA095BA2F820F931FA41FB51FD2
:105180008B839C83AD83BE838B819C81AD81BE81EB
:105190000596A11DB11D2AE030E040E050E0BC01C1
:1051A000CD010E94102ADA01C90189839A83E98519
:1051B000FA8520813181EF81F88580819181A90173
:1051C000481B590BCA018B879C878B859C8599232B
:1051D0003CF42B853C85309521953F4F2B873C87B0
:1051E000EF81F885808191812AE030E0B9010E9449
:1051F000DB29CB014B855C85841795074CF4E98549
:10520000FA8580819181EF81F8858083918306C042
:10521000EF81F88589819A81808391832C96CDBF17
:10522000DEBFCF91DF910895EF92FF920F931F930E
:10523000DF93CF93CDB7DEB72D97CDBFDEBF8F8382
:10524000988769877A874B87EF81F885808191817C
:105250007C010027F7FC0095102F8B85882F90E0AC
:1052600001979C01442737FD4095542FC801B70191
:105270000E94A8299B01AC01E985FA858081918172
:10528000AA2797FDA095BA2F820F931FA41FB51FC1
:105290008B839C83AD83BE838B858695282F30E0DE
:1052A00040E050E08B819C81AD81BE81820F931FD5
:1052B000A41FB51F2B85222F30E040E050E0BC0139
:1052C000CD010E94102ADA01C90189839A83E985F8
:1052D000FA8520813181EF81F88580819181A90152
:1052E000481B590BCA018C879D878C859D85992306
:1052F0003CF42C853D85309521953F4F2C873D878B
:10530000EF81F885808191812AE030E0B9010E9427
:10531000DB29CB014C855D85841795074CF4E98525
:10532000FA8580819181EF81F8858083918306C021
:10533000EF81F88589819A81808391832D96CDBFF5
:10534000DEBFCF91DF911F910F91FF90EF900895F5
:10535000629FD001739FF001829FE00DF11D649F59
:10536000E00DF11D929FF00D839FF00D749FF00DE5
:10537000659FF00D9927729FB00DE11DF91F639F86
:10538000B00DE11DF91FBD01CF0111240895AA1B25
:10539000BB1B51E107C0AA1FBB1FA617B70710F020
:1053A000A61BB70B881F991F5A95A9F78095909552
:1053B000BC01CD01089597FB092E07260AD077FD81
:1053C00004D0E5DF06D000201AF4709561957F4F78
:1053D0000895F6F7909581959F4F0895A1E21A2EB2
:1053E000AA1BBB1BFD010DC0AA1FBB1FEE1FFF1F89
:1053F000A217B307E407F50720F0A21BB30BE40BD9
:10540000F50B661F771F881F991F1A9469F760951F
:105410007095809590959B01AC01BD01CF010895D9
:1054200097FB092E05260ED057FD04D0D7DF0AD0F2
:10543000001C38F450954095309521953F4F4F4FC3
:105440005F4F0895F6F790958095709561957F4F21
:105450008F4F9F4F08952F923F924F925F926F927E
:105460007F928F929F92AF92BF92CF92DF92EF92F4
:10547000FF920F931F93CF93DF93CDB7DEB7CA1B75
:10548000DB0B0FB6F894DEBF0FBECDBF09942A88A0
:10549000398848885F846E847D848C849B84AA8448
:1054A000B984C884DF80EE80FD800C811B81AA81D5
:1054B000B981CE0FD11D0FB6F894DEBF0FBECDBFA0
:1054C000ED010895FB01DC0102C001900D924150F5
:1054D0005040D8F70895E0ECF1E0A785A7FDFDCF97
:1054E000A485A860A4876050704F0C94622ADC01E8
:1054F000A40FB51F4150504048F0CB01840F951FB9
:105500002E910E94882A41505040D0F70895262FAE
:105510000E94B92A0080021619F00E94932A01976E
:1055200001970895262FE0ECF1E0378537FDFDCF98
:105530003485377F3487378531FF09C036E33287BA
:1055400038ED34BF31E03387378537FDFDCF33E3A6
:105550003287808391831282248325E3228728ED7A
:1055600031E024BF33870196089503D080819927C5
:105570000895E0ECF1E0378537FDFDCF34853860E4
:0E5580003487FC01E050F04F0895F894FFCFFF
:10558E00000000000000000001000A0A004B00E8C5
:02559E00030AFE
:00000001FF
